:020000040800F2
:100000008007002079020008191D0008611B000804
:10001000151D000871040008ED2300080000000011
:10002000000000000000000000000000951D000816
:100030007504000800000000491D0008C91D0008E3
:10004000930200089302000893020008930200083C
:10005000930200089302000893020008930200082C
:10006000930200089302000893020008930200081C
:10007000930200089302000893020008930200080C
:100080009302000800000000930200089302000899
:1000900093020008930200089302000893020008EC
:1000A00093020008930200089302000893020008DC
:1000B00093020008930200089302000893020008CC
:1000C00093020008930200089302000893020008BC
:1000D00093020008DD230008930200089302000841
:1000E000930200089302000893020008930200089C
:1000F0009302000893020008930200080000000029
:1001000000000000930200080000000093020008B5
:100110009302000800000000930200089302000808
:10012000930200089302000893020008930200085B
:100130009302000800000000000000009302000885
:100140009302000893020008000000000000000075
:10015000000000000000000000000000000000009F
:1001600000000000000000000000000093020008F2
:1001700093020008000000000000000000000000E2
:1001800000000000930200080000000000000000D2
:10019000000000000000000000000000000000005F
:1001A0000000000000000000930200089302000815
:1001B0009302000893020008930200080000000068
:1001C0000000000093020008000000000000000092
:1001D000930200089302000800F002F800F03CF8D7
:1001E0000AA090E8000C82448344AAF10107DA4592
:1001F00001D100F031F8AFF2090EBAE80F0013F0A8
:10020000010F18BFFB1A43F001031847F822000042
:1002100018230000103A24BF78C878C1FAD85207D2
:1002200024BF30C830C144BF04680C607047000070
:100230000023002400250026103A28BF78C1FBD8EF
:10024000520728BF30C148BF0B6070471FB502F08E
:100250002CF91FBD10B510BD00F0D0F81146FFF706
:10026000F5FF02F0FFF800F0EEF803B4FFF7F2FF3D
:1002700003BC00F0F5F80000094880470948004732
:10028000FEE7FEE7FEE7FEE7FEE7FEE7FEE7FEE746
:10029000FEE7FEE704480549054A064B70470000A3
:1002A000551E0008D90100088001002080070020A9
:1002B000800300208003002053EA020C00F06980D4
:1002C0002DE9F04B4FF00006002B1FBFB3FA83F56A
:1002D00003FA05F424FA05F65E4012BF1643B2FA9B
:1002E00082F502FA05F4C5F120051EBF22FA05FCCD
:1002F00044EA0C04203556EA044C4FEA144418BF73
:10030000641C4FF000084FF00009904271EB030CA1
:1003100039D3002919BFB1FA81F701FA07F6B0FA0B
:1003200080F700FA07F6C7F120071EBF20FA07FC86
:1003300046EA0C062037B6FBF4FCA7EB0507103F96
:1003400007F01F0BCBF120062CFA06F60CFA0BFB7C
:1003500044BFB3460026202FA4BF5E464FF0000BDB
:100360005BEA060C08BF4FF0010B19EB0B0948EBD9
:100370000608ABFB027C06FB02CC0BFB03CCC01BCC
:1003800071EB0C01C1E70B46024641464846BDE809
:10039000F08B13B5084318BF4FF0FF300146AFF3A1
:1003A0000080BDE81C4070474FF0000200B51346C6
:1003B00094469646203922BFA0E80C50A0E80C5085
:1003C000B1F12001BFF4F7AF090728BFA0E80C5036
:1003D00048BF0CC05DF804EB890028BF40F8042B2F
:1003E00008BF704748BF20F8022B11F0804F18BF9C
:1003F00000F8012B7047704770477047754600F052
:100400002BF8AE4605006946534620F007008546A6
:1004100018B020B5FFF73EFFBDE820404FF00006C2
:100420004FF000074FF000084FF0000BAC46ACE86F
:10043000C009ACE8C009ACE8C009ACE8C00921F0CB
:1004400007018D46704710B50446AFF30080204683
:10045000BDE81040FFF709BF0048704710000020BA
:1004600001491820ABBEFEE72600020070470000DD
:10047000FEE7000070470000EFF3108072B600BF87
:10048000FEE700002DE9F04381B0044640790128E1
:100490004FF0020000F0E580884601216171207173
:1004A000D8F808001646042845D100F083FA07461C
:1004B000CEB100BF2068406BB0F1FF3F1FDC00F001
:1004C00079FAC01B0228F5D3206940F008002061AA
:1004D0000320207101B0BDE8F08300BF00F06AFA8C
:1004E000C01B0228F0D22068406B0004F6D4012023
:1004F00000F078F9D8F824002168086406E00120AB
:1005000000F070F9D8F8240021684864206806F0EB
:100510001002816C40F2FF3393409943D8E90A37C7
:10052000934019438164C16CFF239340994307FAB8
:1005300002F21143C164D8F81C0001280CD12068D4
:1005400006F01002816B1F23D8F820709340994366
:1005500007FA02F211438163206806F01006D0F812
:100560003CC0D8F818200721012A01FA06FE04D061
:10057000022A05D14FF0010908E04FF0000905E01B
:10058000D8F81420B2FA82F24FEA5219D8F808309B
:10059000D8F8147098F804004FF4007143EA090386
:1005A0004FF4807501FA06F298F805101F430128F0
:1005B0006FF4404005FA06F508BF47F4807780EAFB
:1005C0000E00012908BF47F40077A843D8F80010AF
:1005D0009043022900EA0C050AD100F03FFD46F6DF
:1005E0000101C0F68911884204D345F4004509E0B1
:1005F0000D4307E04BF20041C0F2C441884288BF7E
:1006000045F4804507FA06F021682843C8634FF493
:1006100080400A68B04022EA00000860086840F69E
:10062000FE72B2409043D8E9032302FA06F738433A
:100630000860C0200F68B04027EA00000860C2F3DD
:10064000830003F03C0240EA82100A6E40F60F730A
:10065000B3409A43B0401043086601202071002047
:10066000607101B0BDE8F083002804BF012070472D
:1006700010B50446007920B900206071204600F0D2
:1006800007F802202071002001212061217110BD96
:1006900080B586B0006840F60002C5F20002002175
:1006A0009042CDE90411CDE90211019101D006B0CB
:1006B00080BD41F24C00C4F20200026842F4803274
:1006C0000260026802F480320092009A026842F0EE
:1006D00001020260006800F0010000900098102004
:1006E00001900320CDE9020101A94FF0904000F0F4
:1006F0008DF806B080BD000080B5014690F8250059
:10070000022824D10868D1E910CE8A6C036823F04E
:100710000E030360136823F480731360026822F0F1
:10072000010202600EF01F00012202FA00F0CCF874
:100730000400D1E913205060486D60B1026822F4D2
:1007400080720260D1E916024260002004E00420B9
:10075000C863012000E00020012281F8252000224A
:1007600081F8242080BD000080B590F82510022972
:100770002DD10168D0E910CE826C0B6823F00E03F6
:100780000B600B6823F001030B60116821F480718A
:1007900011600EF01F02012101FA02F2CCF80420D0
:1007A000D0E913325A60426D32B1136823F480737A
:1007B0001360D0E91623536080F82510826B002166
:1007C00080F824100AB190470021084680BD04211A
:1007D000C1630121002280F8251080F824200846FA
:1007E00080BD0000B0B5044600F0E4F8054640F2D4
:1007F0000400C2F200000068611C18BF044400BF7E
:1008000000F0D8F8401BA042FAD3B0BD2DE9F04F5C
:1008100083B00F68002F00F0C48000F138424FEA27
:10082000B222019241F20042C4F6000206230026E1
:1008300000244FF00108904208BF0523009309E00F
:100840000F68043437FA08F208F1010806F10206CD
:1008500000F0A780A8F1010A012202FA0AFB17EAB8
:100860000B0CEDD04F68122F19D80122BA4012F0AC
:10087000061F14D082680323D1F80CE003FA06F9AE
:1008800022EA09020EFA06F52A4382604268C7F39B
:10089000001522EA0B0205FA0AF52A434260C568F0
:1008A00003228B68B2409543B34047F010072B43B7
:1008B000122FC36013D16FF0030303EA5A030344FA
:1008C00004F01C050F27D3F820E007FA05F90F699B
:1008D0002EEA090E07FA05F545EA0E071F620368BE
:1008E0004F68D2431A4007F00303B3401A43FB009A
:1008F0000260A5D541F26003C4F202031A6840F217
:10090000004E42F001021A601A68C4F2010E02F0B1
:1009100001020292029A2AF003024FF6084A724438
:10092000CFF6FF7A52F80A3004F00C070F25BD40CD
:1009300023EA0509019B009D052B38BF1D4605FADA
:1009400007F747EA090342F80A30DEF800204B684F
:1009500042EA0C07DD0358BF22EA0C07CEF800700C
:10096000DEF804209D0342EA0C0758BF22EA0C0778
:10097000CEF80470DEF80820DD0242EA0C0740F2EF
:100980000C4558BF22EA0C07CEF80870C4F20105E6
:100990002A689B0242EA0C0758BF22EA0C072F6024
:1009A0004EE703B0BDE8F08F1823002A08BF2823C4
:1009B000C150704740F27810C2F2000000687047E2
:1009C00040F2040040F27811C2F20000C2F20001CD
:1009D00000680A68104408607047000080B5032072
:1009E00000F068F80F2000F009F800281CBF012073
:1009F00080BD00F02FF8002080BD0000B0B540F2AF
:100A00000401C2F20001096801B3044640F200008B
:100A1000C2F200004FF47A720068B2FBF1F1B0FB51
:100A2000F1F000F06DFE0F2C4FF001050CD858B915
:100A30004FF0FF3021460022002500F02BF840F255
:100A40000800C2F2000004602846B0BD0125284617
:100A5000B0BD000080B582B041F25800C4F202007F
:100A6000816841F001018160816801F0010101911B
:100A70000199016841F080510160006800F08050E8
:100A80000090009800F092F802B080BD80B501F0AF
:100A9000AFFC80BD70B514460D46064601F0B8FCAB
:100AA0002946224601F03AF90146304601F0B8FCE9
:100AB00070BD000080B501F0C5FC80BDB0F5007FC1
:100AC00035D0002866D147F20000C4F2000001686A
:100AD000D0F8802001F4C06122F48072B1F5806FFB
:100AE000C0F8802021D10168012262F34A2101600F
:100AF00040F20001C2F200010968322359434DF669
:100B00008363C4F21B33A1FB031302EB934100BFC9
:100B100043694A1E8A4203D213F480611146F7D119
:100B20004069400544BF032070470020704747F2EA
:100B30000000C4F200000168D0F8802001F4C06118
:100B400042F48072B1F5806FC0F88020EDD1016869
:100B5000012262F34A21016040F20001C2F2000169
:100B60000968322359434DF68363C4F21B33A1FB5A
:100B7000031302EB934100BF43694A1E8A4203D22A
:100B800013F480611146F7D14069400544BF03204A
:100B90007047CAE747F20000C4F200000168022271
:100BA00062F34A21016000207047000047F208000C
:100BB000C4F20000016841F4804101607047000008
:100BC0002DE9F04381B08146807841F28807000723
:100BD000C4F2020701D4002565E057F8300C10F08C
:100BE00080580BD157F8300C40F0805047F8300C4B
:100BF00057F8300C00F080500090009847F2000445
:100C0000C4F20004206840F480702060FFF7D2FE38
:100C1000054600BF206810F4807607D1FFF7CAFEB2
:100C2000401B0328F6D3032516B933E000258EB305
:100C3000B86810F4407012D0D9F8401088420BD038
:100C4000B868B96820F4407041F48031B960B9687F
:100C500021F48031B960B860C00703D111E00020F1
:100C6000C0070ED0FFF7A6FE064641F2893400BF4A
:100C7000B868800705D4FFF79DFE801BA042F7D31C
:100C800003253DB9B868D9F8401020F440700843F6
:100C90000025B860B8F1000F05D157F8300C20F0EE
:100CA000805047F8300CD9F80000C10712D18107F5
:100CB00019D4410720D4010727D481062ED4410638
:100CC00035D401063CD4C10543D481054AD441053D
:100CD00051D460E03968D9F8042021F003011143B0
:100CE00039608107E5D53968D9F8082021F00C0171
:100CF000114339604107DED53968D9F80C2021F05D
:100D00003001114339600107D7D53968D9F810206F
:100D100021F0C001114339608106D0D53968D9F876
:100D2000142021F44061114339604106C9D5396866
:100D3000D9F8182021F44051114339600106C2D579
:100D40003968D9F81C2021F4404111433960C105AC
:100D5000BBD53968D9F8202021F4403111433960DE
:100D60008105B4D53968D9F8242021F440211143F4
:100D7000396041050FD53968D9F8282021F4401190
:100D80001143B2F5801F396005D157F87C1C41F43E
:100D9000801147F87C1C01050FD53968D9F82C2043
:100DA00021F440011143B2F5800F396005D157F8A5
:100DB0007C1C41F4801147F87C1CC1040FD53968B4
:100DC000D9F8302021F040711143B2F1807F3960B1
:100DD00005D157F87C1C41F4801147F87C1C810434
:100DE0000FD53968D9F8342021F040611143B2F1B0
:100DF000006F396005D157F87C1C41F4801147F829
:100E00007C1C41040FD53968D9F8382021F04061A5
:100E10001143B2F1006F396005D157F87C1C41F4E1
:100E2000801147F87C1C00040FD53868D9F83C10B5
:100E300020F040500843B1F1805F386005D157F889
:100E40007C0C40F4803047F87C0C284601B0BDE8AB
:100E5000F08300002DE9F047002800F0CA8042F23C
:100E6000000AC4F2020A0446DAF800000D4600F057
:100E70000F0088420DD2DAF8000020F00F0028435E
:100E8000CAF80000DAF8000000F00F00A84240F0B5
:100E9000B080207841F20808C007C4F202080CD1E3
:100EA0004FF00009206881072BD4B9F1800F41D1A0
:100EB000D8F8000020F0F0003AE06068022800F066
:100EC0008C80032840F0918058F8080C800140F194
:100ED000908000F03BFF4BF20041C0F2C4418842D9
:100EE0000CD9D8F8000010F0F00F00F08E802078B8
:100EF000800703D5A068002800F087804FF0000924
:100F00008CE0410705D5D8F8001041F4E061C8F83D
:100F10000010000706D5D8F80000072161F30D2066
:100F2000C8F80000D8F80000A16820F0F0000843DD
:100F3000C8F80000DAF8000000F00F00A84219D944
:100F4000DAF8000020F00F002843CAF80000FFF78D
:100F500031FD064641F28837DAF8000000F00F0054
:100F6000A84207D0FFF726FD801BB842F4D9032022
:100F7000BDE8F0872068410707D5D8F80010E2687F
:100F800021F4E0611143C8F80010000708D5D8F833
:100F90000000216920F4605040EAC100C8F8000058
:100FA00000F08AF8D8F8001042F2C442C1F30311ED
:100FB000C0F60002515C40F2000201F01F0120FA6D
:100FC00001F140F20800C2F200000068C2F2000223
:100FD0001160FFF713FDBDE8F08758F8080C800397
:100FE0005CBF0120BDE8F08706E058F8080C40051A
:100FF00002D40120BDE8F08700F05EF84BF200411A
:10100000C0F2C44188427FF679AFD8F800000821C9
:1010100061F307104FF08009C8F80000D8F800000D
:10102000616820F003000843C8F80000FFF7C2FC25
:10103000064641F2883700BFD8F80000616800F02A
:101040000C00B0EB810F3FF42DAFFFF7B3FC801B1A
:10105000B842F1D90320BDE8F087000040F200005B
:10106000C2F200000068704780B5FFF7F7FF41F259
:101070000801C4F20201096842F2D442C1F302211C
:10108000C0F60002515C01F01F01C84080BD0000A5
:1010900080B5FFF7E3FF41F20801C4F202010968DD
:1010A00042F2D442C1F3C221C0F60002515C01F009
:1010B0001F01C84080BD000041F20C01C4F20201D2
:1010C00051F8040C42F20042C0F2F40200F00C00AD
:1010D0000428104608BF704751F8040C00F00C00BB
:1010E000082841F20020C0F27A0021D051F8043CD7
:1010F00003F00C030C2B1CBF00207047D1F800C07C
:101100000B680CF0030CC3F303130133BCF1030FA2
:1011100008BF02460868B2FBF3F20968C0F3062074
:101120005043C1F34161022202EB4101B0FBF1F0F7
:10113000704700002DE9F04182B0002800F00181E5
:101140000446007841F20006C007C4F2020654D1FA
:101150002078800772D42078000700F195802078ED
:10116000400700F1B3802078800600F10081E0693B
:10117000002840D0B16801F00C010C2940F05881E2
:10118000012800F0DE80F068216A00F003028A4244
:1011900040F0D780626A6FF00F0300F0F00103EBBC
:1011A0000212914240F0CD80A16A00F4FE42B2EBFF
:1011B000012F40F0C680E16A00F07842B2EBC16FC7
:1011C00040F0BF80226B0023CFF6E07303EB0252A6
:1011D00000F4C0016FF31402914240F0B280616BE1
:1011E0004FF07E4202EB016100F0C06001F07E41F1
:1011F000884240F0A6800020D7E1B06800F00C01E2
:10120000F068082959D0032281F00C0122EA00007D
:101210000844B0FA80F040094FD16568B5F5A02FB9
:1012200000F0D180B5F5803F00F0D180306820F427
:1012300080303060306820F48020CBE0B068F16806
:1012400000F00C00042866D001F0030180F00C00CF
:1012500081F002010844B0FA80F040095BD1E168F6
:101260003068002900F0D28040F480703060FFF7D1
:10127000A1FB05463068400500F1EF80FFF79AFBBF
:10128000401B0228F6D920E16169D6F894000029B4
:1012900000F0878040F00100C6F89400FFF78AFB59
:1012A000054600BFD6F8940080073FF558AFFFF71A
:1012B00081FB401B0228F5D907E1306880037FF5E8
:1012C00047AF606800287FF443AF3AE0B06D10F09C
:1012D000805808D1B06D40F08050B065B06D00F01E
:1012E00080500190019847F20007C4F20007386867
:1012F000C0052AD4386840F480703860FFF75AFB84
:10130000054600BF3868C0051FD4FFF753FB401BDC
:101310000228F7D9D9E03068400501D5E06880B1EE
:101320007068216920F0FE4040EA0160706040F280
:101330000800C2F200000068FFF760FB00283FF4DD
:101340000AAF012002B0BDE8F081A568052D00F0CC
:10135000A080012D00F0A380D6F8900020F00100BD
:10136000C6F89000D6F8900020F004009BE0A16938
:10137000D6F89800002978D040F00100C6F898000F
:10138000FFF718FB054600BFD6F8980080073FF529
:10139000EEAEFFF70FFB401B02284FF00300F3D91E
:1013A00003E120F00100C6F89400FFF703FB0546B7
:1013B000D6F8940080077FF5D2AEFFF7FBFA401B0A
:1013C0000228F5D981E0306840F480203060306830
:1013D00040F480303060FFF7EDFA002D054611D063
:1013E000306880033FF5B4AEFFF7E4FA401B642891
:1013F000F6D96AE0FFF7DEFA401B64284FF00300DD
:1014000000F2D38030688003F4D4A1E620F4807029
:101410003060FFF7CFFA0546306840057FF59BAE98
:10142000FFF7C8FA401B02284FF00300F4D9BCE0D4
:101430003168022821F0807131605FD1FFF7BAFA7C
:10144000054600BF3068800172D5FFF7B3FA401B34
:1014500002284FF00300F5D9A7E07068216920F059
:10146000FE4040EA0160706075E620F00100C6F8B9
:101470009800FFF79FFA0546D6F8980080077FF599
:1014800076AEFFF797FA401B02284FF00300F3D91E
:101490008BE0D6F8900040F00400C6F89000D6F833
:1014A000900040F00100C6F89000FFF783FA002D8D
:1014B000054641F2883714D0D6F89000800714D43E
:1014C000FFF778FA401BB842F6D9032002B0BDE816
:1014D000F08100BFFFF76EFA401BB8424FF00300E7
:1014E00063D8D6F890008007F4D4B8F1000F7FF4E9
:1014F0003AAEB06D20F08050B06534E6F0684FF63B
:10150000FF7120F00300F060F068CFF6EE61084054
:10151000F060FFF74FFA0446306880017FF56BAE4C
:10152000FFF748FA001B02284FF00300F4D93CE013
:10153000F06848F20C01C0F29F1104F1200700EAA4
:10154000010C8ECF6FF00F00D4E90C5400EB0210A9
:101550000022CFF6E07241EA0C0102EB055208438B
:101560006FF314024FF07E4540EA032005EB04655B
:10157000104305F07E4540EAC7602843F0603068BC
:1015800040F080703060F06840F08070F060FFF7ED
:1015900011FA0446306880013FF52DAEFFF70AFAD4
:1015A000001B02284FF00300F4D902B0BDE8F0811F
:1015B000002804BF01207047B0B50446406A20B13E
:1015C0000020206104F1140005E06068B0F5827F1E
:1015D00003D004F11C00002101600025A56294F8ED
:1015E0005D0020B9204684F85C5000F053F80220DA
:1015F00084F85D002068D4F80CE00268BEF5E06F66
:1016000022F0400202604EF4006298BF0125B2F55C
:10161000706F1CBF0023A3624FEA053CD4E901357B
:10162000D4E9042103F4827305F404452B4402F049
:1016300002021A44A36901F00101E569114403F4AF
:101640000072114405F03802256A114405F0800249
:10165000A56A114405F40052114301600421626A35
:101660000EF4706501EA1341636B45EA0C0502F064
:101670001002294303F00803114319434160C16973
:1016800021F40061C16100200121206684F85D1011
:10169000B0BD000080B586B0006843F20002C4F21D
:1016A000010200219042CDE90411CDE9021101911E
:1016B00001D006B080BD41F24C00C4F20200426984
:1016C00042F480524261426902F480520092009AD0
:1016D000026842F001020260006800F00100009020
:1016E0000098E02001900220CDE90201052004913C
:1016F000059001A94FF09040FFF788F806B080BD33
:1017000080B500F049FB80BD90F88010012904BF2E
:10171000022070472421C0F8841002681168136801
:1017200023F00103136021F0005300214166136090
:101730002022C0F8842080F88010084670470000FE
:101740007047000070470000B0B5044690F8800074
:10175000012804BF0220B0BD012084F880002420AD
:10176000C4F8840020680568026822F00102026063
:10177000826822F0606211438160204600F074FBB1
:10178000206805602020C4F88400002084F88000D0
:10179000B0BD0000B0B5044690F88000012804BF39
:1017A0000220B0BD012084F880002420C4F8840009
:1017B00020680568026822F001020260826822F057
:1017C000604211438160204600F04EFB20680560B6
:1017D0002020C4F88400002084F88000B0BD000000
:1017E00070470000704700007047000070B5016846
:1017F0000446CA6940F62F000E68D1F808E0104090
:1018000020280CD106F020000EF08053C01806D01E
:10181000216F002900F0A3802046884770BD40F664
:101820000F00104000F083800120C1F200000EEA9A
:10183000000C40F22010C0F20040304010EB0C00D1
:1018400075D0D00718BF16F4807007D00120086249
:10185000D4F88C0040F00100C4F88C0090070EF022
:10186000010308D53BB102200862D4F88C0040F097
:101870000400C4F88C00500708D53BB1042008626E
:10188000D4F88C0040F00200C4F88C0010070CD58E
:1018900006F0200050EA0C0007D008200862D4F8B7
:1018A0008C0040F00800C4F88C0010050BD516F031
:1018B000806008D04FF400600862D4F88C0040F0DB
:1018C0002000C4F88C00D4F88C00002847D012F017
:1018D00020001EBF06F020000EF0805110EB01002A
:1018E00040F099802068D4F88C10806801F02801BD
:1018F00000F04000401800F08780204600F094FB84
:1019000020688168490670D5816821F040018160B6
:10191000E06F002869D042F21501C0F60001816332
:10192000FEF722FFD8B1E06F816B884770BDE06E93
:1019300006EA0203DD0613D5012811D11020086242
:101940008868400618D4B4F85C00B4F85E20B4F897
:101950005E30002B1CBF801A5FEA004266D170BD6A
:10196000D00235D51EF4800032D04FF480100862CA
:101970002046FFF737FF70BDE06F026853689DB2E5
:10198000002DECD0B4F85C60B542E8D2A4F85E302B
:101990001268920616D40A6822F480720A608A6875
:1019A00022F001028A608A6822F040028A602022C6
:1019B000C4F888200022E2660A6822F010020A6059
:1019C000FEF79AFEB4F85C00B4F85E10401A42E0EC
:1019D00010060ED506F080000EF40001401808D065
:1019E000616F00297FF418AFB9E72046FFF7FCFECE
:1019F00070BD580616D4100232D516F080402FD094
:101A00002046FFF7EDFE70BD2046FFF7EDFE0020FB
:101A1000C4F88C0070BD216F00293FF463AF2046ED
:101A200088475FE7204600F019FB70BD0A684FF653
:101A3000FE7322F490720A608A68CEF6FF731A4031
:101A40008A602022C4F888200022E26622670A68A1
:101A500022F010020A6081B22046FFF771FE70BDCD
:101A6000D0017FF57CAFB6F1FF3FC8BF70BD204607
:101A7000FFF768FE70BD000010B5B0B10446D0F8A5
:101A8000840028B9002084F88000204600F026F861
:101A90002420C4F884002068016821F0010101605D
:101AA000204600F0E9FA012801D1012010BDA06A0A
:101AB00010B1204600F002FA2068416821F49041FC
:101AC0004160816821F02A018160016841F00101D3
:101AD0000160204600F066FA10BD000080B586B0B7
:101AE000006843F60002C4F2010200219042CDE9F1
:101AF0000411CDE90211019101D006B080BD41F27F
:101B00004C00C4F20200426942F4804242614269E0
:101B100002F480420092009A026842F001020260E0
:101B2000006800F00100009000984FF4C060019040
:101B30000220CDE9020107200491059001A94FF090
:101B40009040FEF763FE252000210022FEF7A2FF51
:101B50002520FEF79BFF06B080BD00007047000007
:101B6000FEE7000080B58CB068463021FEF71CFC13
:101B700040F2700040F60001C2F20000C5F2000120
:101B80000160FEF771FD002818BFFEF775FC02200A
:101B9000009000200121ADF80400CDE90200CDE95C
:101BA0000400CDE9061040F27000C2F20000694660
:101BB0000022FEF767FC002818BFFEF75DFC0CB0A2
:101BC00080BD000070B586B0002541F24C0005953F
:101BD000CDE90355CDE90155C4F20200016840F694
:101BE000000441F0040101600168C4F6000401F042
:101BF0000401009100990168002241F02001016078
:101C000001684FF4005601F020010091009901682D
:101C100041F00101016000684FF4005100F0010043
:101C2000009000982046FEF7BFFE0120029002209F
:101C3000CDE9030501A920460196FEF7E7FD06B0B0
:101C400070BD000070B540F2840043F20001C2F2A2
:101C50000000C4F201014FF4827200234FF4E06CE3
:101C60004FF0020E012480E80E5000F114014FF4F1
:101C70000075382670C10721C0E90833C0E90A3170
:101C8000C0E90C33FFF794FC002818BFFEF7F4FB03
:101C900070BD000080B540F2E80043F60001C2F2DA
:101CA0000000C4F2010100234FF00C0C4FF4E132AC
:101CB00080E80E00C0E90333C0E905C3C0E907337B
:101CC000C0E90933FFF7D8FE002818BFFEF7D4FBA0
:101CD00040F2E800C2F200000021FFF75BFD00289F
:101CE00018BFFEF7C9FB40F2E800C2F20000002175
:101CF000FFF72AFD002818BFFEF7BEFB40F2E80000
:101D0000C2F20000FFF700FD002818BFFEF7B4FB89
:101D100080BD0000FEE70000FEE7000000F00700C5
:101D200080F00703042B28BF04234FF0FF3C033847
:101D30000CFA03F338BF0020994381400CFA00F0FD
:101D400022EA0000084370477047000041F20C008F
:101D5000C4F202000168026842F2004301F003018C
:101D6000C2F30312C0F2F4030132032904BF41F2AB
:101D70000023C0F27A030168B3FBF2F20068C1F3FA
:101D800006215143C0F34160022202EB4000B1FB47
:101D9000F0F0704770470000B0B501380024B4EB94
:101DA000106F1CBF0120B0BD4EF21005CEF2000531
:101DB00068604FF0FF300F2100F032FB0720AC606D
:101DC00028602046B0BD000080B5FEF7F9FD80BD5B
:101DD000B0B5A4B016AC20463821FEF7E5FA0025D0
:101DE000684644211595CDE91355CDE91155FEF707
:101DF000DBFA0020FEF762FE4FF48071199140215A
:101E00001A91042102201F9155211690CDE91D0041
:101E1000CDE92010CDE922002046FFF78BF9B0B9BB
:101E20000F2011900320CDE9120511A80421CDE95E
:101E30001455FFF70FF850B90120009000200190D1
:101E40006846FEF7BDFE002804BF24B0B0BDFEF713
:101E500013FB00004EF68850CEF20000016841F4FA
:101E6000700101607047000080B5416E01B30168E8
:101E700042F2F44C8A688968C0F6000C490F42F2BD
:101E8000FC4E1CF80130C0F6000E1EF80110C2F323
:101E90004262DB00B3FBF1F31CF802101EF80220D3
:101EA000C900B1FBF2F1A0F86A30A0F8681080BD5B
:101EB0000121A0F86A10A0F8681080BD80B5816A81
:101EC000CA070CD18A0715D44A071ED40A0727D49B
:101ED000CA0630D48A0639D44A0657D541E002688A
:101EE000D0F82CC0536823F4003343EA0C0353604A
:101EF0008A07E9D50268D0F830C0536823F48033EC
:101F000043EA0C0353604A07E0D50268D0F834C0B6
:101F1000536823F4802343EA0C0353600A07D7D5A0
:101F20000268D0F838C0536823F4004343EA0C0336
:101F30005360CA06CED50268D0F83CC0936823F43B
:101F4000805343EA0C0393608A06C5D50268D0F833
:101F500040C0936823F4005343EA0C0393604A069D
:101F600014D50268D0F844C05368BCF5801F23F430
:101F7000801343EA0C03536008D1D2F804C0D0F8B0
:101F800048E02CF4C00343EA0E035360090658BF2F
:101F900080BD0168C06C4A6822F40022104348608A
:101FA00080BD0000B0B582B004460020C4F88C00AB
:101FB000FEF700FD21680546096809070BD56FF09B
:101FC0007E4C20464FF4001100222B46CDF800C075
:101FD00000F0A8F978B92068006840070ED56FF0C6
:101FE0007E4C20464FF4800100222B46CDF800C0E5
:101FF00000F098F910B1032002B0B0BD2020C4F861
:102000008400C4F888000020E06684F8800002B0F4
:10201000B0BD000080B5806A0021A0F85E10A0F875
:102020005610FFF7E1FB80BD01684FF6FE730A68AA
:10203000CEF6FF7322F490720A608A681A408A60B2
:10204000C26E012A03D10A6822F010020A60202120
:10205000C0F888100021C1660167704780B501682B
:102060000A6822F040020A602021C0F88410002192
:102070004167FFF773FD80BDF0B581B0044622696A
:10208000D4E90213006867690A43E1693A430768C3
:1020900046F6F316CCF6FF760A4337403A43026021
:1020A00042684FF2FF4622F440521A43426048F21F
:1020B0000002A369C4F2000290421CBF276A3B439E
:1020C0008768C1F2FF1637403B438360C36A676A83
:1020D00023F00F033B43C36244F6FF33C4F2000313
:1020E00098424FF0100314DD44F60047C4F2000795
:1020F000B84221D0904226D043F60007C4F201072F
:10210000B84232D141F28803C4F202031B6881A7AE
:1021100027E044F20047C4F20007B8421AD044F660
:102120000007C4F20007B8421FD141F28803C4F28D
:1021300002031B681B0913E041F28803C4F2020387
:102140001B689B090CE041F28803C4F202031B6880
:102150009B0A05E041F28803C4F202031B689B0856
:1021600068A703F0030357F82330904242F200407F
:10217000C0F2F40011D0B1F5004F1DD1082B00F2D0
:102180006E800025DFE803F00567756B6E6B6B6B87
:1021900072000025FEF768FF6BE0082B1BD80027B4
:1021A000DFE803F0051920191D191919500000273F
:1021B000FEF75AFFB8B94AE0082B00F27A800025F2
:1021C000DFE803F0057381777A7777777E00002563
:1021D000FEF74AFF77E00020012720B937E000270B
:1021E000FEF76AFF98B3616A42F2DC42C0F6000271
:1021F00032F811206668B0FBF2F106EB4603994213
:102200004FF0010574D33303994271D800210023A4
:10221000FEF752F8090241EA1061000210EB560085
:1022200041F1000132460023FEF746F84FF6FF4227
:10223000A0F54071C0F20F0291420AD821683D46D4
:10224000C86055E04FF4004000270028CBD13D4640
:102250004EE001254CE00025FEF71AFF09E00020C2
:10226000012506E00025FEF727FF02E04FF40040BD
:102270000025E8B3616A42F2DC42C0F6000232F89F
:1022800011106268B0FBF1F0510801EB4000B0FBA7
:10229000F2F14FF6F070084005D0C1F34201226818
:1022A0000843D06024E0012522E00025FEF7F0FE7F
:1022B00009E00020012506E00025FEF7FDFE02E012
:1022C0004FF40040002598B1616A42F2DC42C0F64A
:1022D000000232F811106268B0FBF1F000EB52001E
:1022E000B0FBF2F080B2102826BF2168C86001253B
:1022F0004FF001100021A06621672846616701B0F8
:10230000F0BD00BF0000000004000000020000005B
:1023100008000000010000000400000002000000AE
:10232000080000002DE9F04381B004460068C06950
:102330000840401AB0FA80F04009904237D1DDF8E9
:10234000208015460E46994608F1010709E000BFB6
:102350002068C0693040801BB0FA80F04009A84274
:1023600025D1002FF4D0FEF725FB2168B8F1000F2E
:102370000A6820D0A0EB090040451CD8500744BF94
:10238000C8695FEA0050E3D54FF40060086208684E
:1023900020F4D0700860886820F001008860202058
:1023A000C4F88400C4F88800C4F88C000FE0002052
:1023B00001B0BDE8F08322F4D0700860886820F096
:1023C000010088602020C4F88400C4F88800002040
:1023D00084F88000032001B0BDE8F08380B540F2AE
:1023E000E800C2F20000FFF701FA80BDFEE700003E
:1023F000002848BF704700F01F01012202FA01F1D6
:102400004EF200124009CEF2000242F8201070474E
:102410004EF60C50CEF200000068C0F30220704768
:102420004EF6145300F00F02CEF2000309011A44D5
:1024300000F16043B0F1FF3FC8BF03F56442117083
:10244000704700004EF60C51CEF200010A684FF6BC
:10245000FF031A4060F30A2242F0806040F0FD70F2
:102460000860704740F60004C4F60004FEF7B6FAB0
:10247000FFF7AEFCFFF7A6FBFFF774FBFFF7E2FBED
:10248000FFF708FC20464FF400510022FEF78CFABB
:102490006420FEF7A7F920464FF400510122FEF711
:1024A00083FA6420FEF79EF9ECE7F1EE100A4FF68E
:1024B000FF71C0F2C03120EA010040F04070E1EE4F
:1024C000100A704700000000000000000102030431
:1024D00006070809000000000102030401000200D1
:1024E0000400060008000A000C0010002000400054
:1024F000800000010101010307010000080402043B
:10250000080101012825000800000020100000003B
:102510001402000838250008100000207007000091
:1025200030020008000000000024F4000100000058
:08253000100000000000000093
:04000005080001D915
:00000001FF
