:020000040800F2
:10000000B82F0020F1010008CB2D0008172A0008A6
:10001000C92D0008710A0008B53E00080000000064
:100020000000000000000000000000007531000822
:10003000730A000800000000312F00087731000823
:100040000B0200080B0200080B0200080B0200085C
:100050000B0200080B0200080B0200080B0200084C
:100060000B0200080B0200080B0200080B0200083C
:100070000B0200080B0200080B0200080B0200082C
:100080000B020008000000000B0200080B02000831
:100090000B0200080B0200080B0200080B0200080C
:1000A0000B0200080B0200080B0200080B020008FC
:1000B0000B0200080B0200080B0200080B020008EC
:1000C0000B0200080B0200080B0200080B020008DC
:1000D0000B020008A93E00080B0200080B020008F2
:1000E0000B0200080B0200080B0200080B020008BC
:1000F0000B0200080B0200080B02000800000000C1
:10010000000000000B020008000000000B020008C5
:100110000B020008000000000B0200080B020008A0
:100120000B0200080B0200080B0200080B0200087B
:100130000B02000800000000000000000B02000895
:100140000B0200080B020008000000000000000085
:10015000000000000000000000000000000000009F
:100160000000000000000000000000000B0200087A
:100170000B0200080000000000000000000000006A
:10018000000000000B02000800000000000000005A
:10019000000000000000000000000000000000005F
:1001A00000000000000000000B0200080B02000825
:1001B0000B0200080B0200080B0200080000000000
:1001C000000000000B02000800000000000000001A
:1001D0000B0200080B020008DFF810D000F014FB3F
:1001E0000048004721510008AFF30080B82F0020DD
:1001F0000648804706480047FEE7FEE7FEE7FEE7C1
:10020000FEE7FEE7FEE7FEE7FEE7FEE70132000855
:10021000D90100082DE9F05F0546002092469B4673
:1002200088460646814640241BE02846414647460C
:10023000224600F080F953465A46C01A914110D325
:1002400011461846224600F067F92D1A67EB01089F
:100250004F4622460120002100F05EF917EB00090D
:100260004E41201EA4F10104DFDC484631462A46F7
:100270004346BDE8F09FD2B201E000F8012B491ED1
:10028000FBD270470022F6E710B513460A46044633
:100290001946FFF7F0FF204610BD2DE9FE4F8046BE
:1002A00081EA0300C00F0C46009021F0004123F0CA
:1002B0000045B8EB0200A94105D2404621469046D0
:1002C0001C460B46024623F00040104347D0270D42
:1002D000C7F30A00C3F30A510290401A0190402864
:1002E0006BDAC3F3130040F4801B0098924620B1F0
:1002F0000023D2EB030A63EB0B0B01985946C0F1C4
:100300004002504600F008F906460D465046594650
:10031000019A00F020F910EB08006141002487EAFF
:10032000115284EAE7731A4340D0009A62B3019AEB
:10033000012A4FEA075215DC001B61EB02014FF066
:10034000004202EA0752CDE90042001C41F580114B
:1003500032462B4600F057F903B0BDE8F08F404617
:100360002146F9E7001B61EB0201001C41F58013F7
:1003700000185B412018A2F5001747EB030140EA83
:10038000D570B6196D4111E06D084FEA360645EAA1
:10039000C0754FEA0752001B61EB0201001C41F5DA
:1003A000801149084FEA30000019514132462B466E
:1003B00003B0BDE8F04F00F017B9009801224000EB
:1003C0000023D0EB020263EBE073009821464FEA72
:1003D000E074B8EB000061EB0401E9E783F000434F
:1003E0005BE781F0004158E72DE9F04D81EA030415
:1003F00004F0004B21F0004514464FF0000A23F0B2
:10040000004150EA050220D054EA01021DD0C5F394
:100410000A570246C5F31303C1F31300C1F30A568A
:1004200040F4801543F48013A7EB0608101BD64652
:1004300008F2FD3873EB050002D308F1010801E072
:1004400092185B41B8F1000F03DA00200146BDE8C5
:10045000F08D00204FF48011064684460EE0171BF5
:1004600073EB050705D3121B63EB050306434CEA48
:10047000010C49084FEA300092185B4150EA01072D
:10048000EDD152EA030012D082EA040083EA0501AA
:10049000084305D0101BAB4106D20122002306E021
:1004A00000224FF0004302E06FF0010253101AEBFC
:1004B00006004CEB085110EB0A0041EB0B01BDE8C4
:1004C000F04D00F091B80EB540F233410291002199
:1004D000CDE900110A460B4600F095F803B000BDC7
:1004E00001F0004330B421F0004150EA010206D08F
:1004F0000A0DA2F56072C1F31301002A02DC30BCC0
:1005000000207047440F44EAC104C100E01830BC29
:1005100000EBC25000F031B8202A04DB203A00FA88
:1005200002F1002070479140C2F1200320FA03F34A
:10053000194390407047202A04DB203A21FA02F048
:100540000021704721FA02F3D040C2F1200291400D
:10055000084319467047202A06DBCB17203A41FA98
:1005600002F043EAE07306E041FA02F3D040C2F140
:10057000200291400843194670470029A8BF7047E0
:10058000401C490008BF20F00100704710B4B0FAC9
:1005900080FC00FA0CF050EA010404BF10BC704764
:1005A00049B1CCF1200421FA04F411FA0CF118BF7E
:1005B000012121430843A3EB0C01CB1D4FEA00614D
:1005C0004FEA102042BF002010BC704700EBC35020
:1005D00010440029A4BF10BC7047401C490008BF4C
:1005E00020F0010010BC704710B5141E73F1000418
:1005F00008DA401C41F1000192185B411A4301D115
:1006000020F0010010BD2DE9F04D92469B4611B13E
:10061000B1FA81F202E0B0FA80F220329046FFF7A0
:100620007BFF04460F4640EA0A0041EA0B015346AD
:100630005A46084313D0114653EA010019D0C8F1B5
:1006400040025046FFF777FF05460E465046594692
:100650004246FFF761FF084305D0012004E0204631
:100660003946BDE8F08D0020054346EAE0762C438C
:1006700037430A986305E40AA0EB08000022FD0A4C
:1006800044EA47540A3002D500200146E9E7010553
:1006900010196941DDE9084500196941BDE8F04DCF
:1006A000A2E72DE9FE4F81EA030404F0004421F0A3
:1006B000004100944FF0000B23F0004350EA010486
:1006C0005ED052EA03045BD0C3F30A54C1F30A5567
:1006D0002C44A4F2F3340194A0FB0254C1F313019F
:1006E00041F48011C3F3130343F4801301FB02446C
:1006F00000FB034E840A970A44EA815447EA835771
:10070000A4FB076802958D0A05FB07854FEA932C29
:1007100004FB0C542705029D4FEA065847EA16379A
:10072000B5EB08056EEB070C870E920E47EA8117B2
:1007300042EA8312A7FB0201B6EB0B0164EB000453
:100740002B0D43EA0C335E1844EB1C50DA4651463D
:10075000E7FB0201C5F313044FEA0B3343EA1453DA
:100760004FEA0432019C43EA0603A4F10C0402940C
:10077000009CCDE900B4FFF746FF03B0BDE8F08F61
:1007800000200146F9E770B521F0004303430CD087
:10079000C1F30A550024D5EB040564EB0403D61716
:1007A000AD1AB34102DB0020014670BD201841EBB9
:1007B000025170BD0EB5C10F80EAE0700844CA074F
:1007C000002140F233438DE80E000A460B46FFF746
:1007D0001AFF03B000BD000030B5041E71F1000423
:1007E00004DB4FF00044404264EB0101141E73F13E
:1007F000000405DB1C464FF00043524263EB040348
:10080000994208BF904230BD064C074D06E0E068B3
:1008100040F0010394E8070098471034AC42F6D347
:10082000FFF7DEFCA05B0008C05B00082DE9F04D7F
:1008300000231A461B1A8A4103DB00200146BDE84B
:10084000F08DC1F30A52C1F3130141F480154FF04A
:10085000000BD10702D100186D41521E002704463B
:1008600040F2FF11384601EB620A3E4680460246DE
:1008700000204FF48011FFF75EFEC2197141BB18D2
:1008800046EB0100B4EB030C75EB000C04D3E41A47
:1008900065EB000517460E46241908F101006D416D
:1008A00080463428E3DDF91946EB0600091BA84110
:1008B00003D24FF0FF32134601E0002213461BEB38
:1008C000070046EB0A51BDE8F04DFFF78DBE000072
:1008D0001CB506A14FF47A73D1E90001CDE90001FE
:1008E00007226946034801F029FC1CBDFFFFFFFFFA
:1008F000FFFFFF00940000202DE9F04100272DEDBF
:10090000028B84B0324D9FED300B00970297019718
:1009100085ED000B4FF040084FF6FF748DF8008016
:100920004FF47A7602E000BF8DF800803346012252
:100930006946284801F002FC3346012202A92548F5
:1009400001F038FB9DF80800000602D5641EA4B231
:10095000EAD258208DF800003346012269461D482E
:1009600001F0ECFB3346032201A91A4801F022FBF7
:100970009DF804009DF8051038439DF8064041EAB3
:10098000002144EA01249FED141B9FED150B03F099
:1009900007FBB0EE408AF0EE608A04EB8400FFF7BC
:1009A00092FD53EC182BFFF71FFD9FED0F1B53EC2F
:1009B000112BFFF713FD41EC100B85ED000B04B07C
:1009C000BDEC028BBDE8F0810000000000000000DB
:1009D00018000020940000200000000000003840B3
:1009E0000000000000000040000000000000044083
:1009F000F8B5064600200090102014460D468DF8EC
:100A000000004FF47A773B4601226946074801F01F
:100A100095FB8DF800608DF801508DF802403B4643
:100A200003226946014801F089FBF8BD94000020CB
:100A3000F8B5064600200090082014460D468DF8B3
:100A400000004FF47A773B4601226946074801F0DF
:100A500075FB8DF800608DF801508DF802403B4623
:100A600003226946014801F069FBF8BD94000020AB
:100A7000FEE7704772B6FEE72DE9F047044640797D
:100A800090460D4601280BD04FF0010984F80590DF
:100A900002202071A96808F01006042903D045E05F
:100AA0000220BDE8F08700F0B1FA07465FEA0800CF
:100AB0004FF0030805D01CE000F0A8FAC01B012885
:100AC0000FD82068406B0004F6D4012000F0A2F992
:100AD0002168686A086416E000F098FAC01B0128D3
:100AE00007D9206940F00800206184F804800320C1
:100AF000D7E72068406B0028EEDB012000F08AF980
:100B00002168686A48642068816C40F2FF32B24014
:100B10009143AA6AB240114381642068C16CFF22EC
:100B2000B2409143EA6AB2401143C164E8690128C6
:100B300008D12268916B1F20B0408143286AB040E1
:100B4000084390632068C06B0721B1408843A969BE
:100B5000012903D0022955D06969E9B300216B69E5
:100B6000AA681A430A434FF4807101FA06F39843C6
:100B70002B79012B00D0002111434FF4007202FAAF
:100B800006F398436B79012B00D0002220F44047F4
:100B9000286842EA0108022836D00743216808FA8B
:100BA00006F03843C863206801684FF48042B240C1
:100BB000914301602268116840F6FE70B0408143A5
:100BC000E868B0400843106020680168C022B24065
:100BD00091430160287B00E014E0297C2268C0F387
:100BE000830001F03C0140EA8110116E40F60F7362
:100BF000B3409943B0400143116684F8049000204B
:100C000060714EE70121AAE700F0C8FE054988425D
:100C100002D947F40047C1E703498842BED947F4E7
:100C20008047BBE70068890900B4C40470B50400BC
:100C300003D02079002510B105E0012070BD657159
:100C4000204600F007F80220207125610120207164
:100C5000002070BD10B586B0044614216846FFF729
:100C600011FB1149206888421BD11048C16C41F426
:100C70008031C164C16C01F480310591C16C41F0D7
:100C80000101C164C06C694600F0010005901020AC
:100C9000009003200190002002904FF0904000F05F
:100CA000CBF806B010BD0000000800500010024054
:100CB00018B50068C46B0090104421B11430009046
:100CC0000360002018BD0830F9E72DE9F041044623
:100CD00040790D46012822D04FF0010884F80580A4
:100CE0000226267121680A6805F0100708FA07F045
:100CF00002430A60404600F08DF82068016885B123
:100D000001F47811BE40B14203D1416841F00201C3
:100D1000416084F8048000206071BDE8F081022009
:100D2000FBE7C1F344010129F3D1416841F001011E
:100D3000EEE710B590F8253000210122022B03D0F8
:100D40000421C163012122E003681C6824F00E0421
:100D50001C60836C1C6824F480741C6003681C682D
:100D600024F001041C6090F84430046C03F01F036D
:100D700002FA03F36360D0E913345C60436D33B16E
:100D80001C6824F480741C60D0E916345C6080F820
:100D90002520002280F82420084610BD70B590F868
:100DA0002520002401212346022A07D00422C26301
:100DB00080F8251080F82430012429E002681568A5
:100DC00025F00E0515600268156825F0010515600F
:100DD000826C156825F48075156090F84420056CC8
:100DE00002F01F0201FA02F26A60D0E91325556091
:100DF000426D32B1156825F480751560D0E916256D
:100E0000556080F8251080F82430816B01B1884747
:100E1000204670BD70B5044600F0F8F80546601C29
:100E200002D004484068044400F0F0F8401BA0429F
:100E3000FAD370BD040000202DE9FC4FDFF8A0A11B
:100E4000002301250AF1040B03244FF00F0C0BF1D2
:100E5000040EBDE005FA03F632406FD04F68012F53
:100E600005D0022F03D0112F01D0122F17D1D0F8A7
:100E700008905F0004FA07F829EA08090097D1F8FA
:100E80000C8008FA07F848EA0908C0F808804768A3
:100E9000B7430E79C6F300169E403E434660C668CF
:100EA0004FEA430804FA08F7BE4301978F6807FA30
:100EB00008F73743C7604E68022E01D0122E13D1B7
:100EC000DE0800EB86060096366A5F07FF0E0CFA16
:100ED00007F926EA0906D1F8109009FA07F949EA54
:100EE0000609009EC6F820900668019FBE430F7950
:100EF00007F0030707FA08F7374307604E68F60064
:100F000065D5384E376E47F001073766366E23F0E9
:100F1000030706F001060096334E3E44B146B6681C
:100F20009F074FEA17780CFA08F7BE43B0F1904FCD
:100F300005D02E4FB84204D1012717E047E0002723
:100F400014E02B4FB84201D102270FE0294FB842DD
:100F500001D103270AE0284FB84201D1042705E058
:100F6000264FB84201D1052700E0062707FA08F707
:100F70003743C9F80870DAF800605746D1F80480A2
:100F800096435FEAC83800D516433E60DBF8006040
:100F90005F46D1F8048096435FEA883800D516434F
:100FA0003E60DEF800607746D1F8048096435FEA41
:100FB000C82800D516433E60094F0C373E68D1F86B
:100FC000048096435FEA882800D516433E605B1C88
:100FD0000A6832FA03F67FF43DAFBDE8FC8F0000EB
:100FE00000040140001002400000014000040048DD
:100FF00000080048000C0048001000480014004899
:101000000AB18161704781627047000001488068C1
:10101000704700000400002090F84120202A24D1CD
:1010200090F84020012A20D0012280F8402024227C
:1010300080F841200268136823F0010313600268FE
:10104000136823F480531360026813680B43136022
:1010500001680A6842F001020A60202180F841100C
:10106000002180F84010084670470220704790F831
:101070004120202A22D190F84020012A1ED00122AE
:1010800080F84020242280F841200268136823F071
:10109000010313600268136823F4706343EA0121BB
:1010A000116001680A6842F001020A60202180F89C
:1010B0004110002180F84010084670470220704718
:1010C00070B5040004D094F84100002510B106E08A
:1010D000012070BD84F84050204600F0DFF8242045
:1010E00084F841002068016821F001010160606816
:1010F000216820F0706008612068816821F4004157
:101100008160E0680128A06807D040F404402168AD
:101110008860E068022803D006E040F40040F6E76B
:1011200021684FF40060486020684168114A11430B
:1011300041602068C16821F40041C160D4E9040124
:101140000843A16940EA01202168C860D4E9070189
:101150000843216808602068016841F001010160CE
:101160006564202084F84100256384F84250002003
:1011700070BD0000008000022DE9F84F044690F891
:101180004100DDF828A01F4690468B4620287ED1DE
:1011900094F8400001287AD0012084F84000FFF73D
:1011A00035FF0646012200901923D103204601F0A5
:1011B0009DFCE0BB212084F84100102084F842000F
:1011C00000256564C4F8248067856563618D3148B6
:1011D000FF274FF080784FF00079FF2903D927854A
:1011E0003A46009039E0618D218500903AE05946F9
:1011F000204601F065FC13E001F0CAFCB8B9606A52
:10120000216800788862606A401C6062608D401EC0
:101210006085208D401E80B22085618D01B168B14E
:10122000608D3246002851462046E5D100E002E0BC
:1012300001F088FCD0B10120BDE8F88F53460022B0
:1012400080212046009601F051FC0028F3D1608DEA
:10125000FF2804D927853A4600954346C7E7608DA5
:101260002085009594F828204B46C0E7216820206F
:10127000C86121684A68084B1A404A6084F84100F6
:1012800084F8425084F840500020D5E7FFE7022060
:10129000D2E700000020008000E800FEF0B587B033
:1012A000044614216846FEF7EDFF1B49206888427A
:1012B0002FD11A4CE06C40F00100E064E06C00F0CB
:1012C00001000590E06C40F00200E064E06C122642
:1012D00000F002000590C81300900025CDE90165DB
:1012E0000427CDE903576946B006FFF7A5FD802026
:1012F0000090CDE90165CDE9035769460848FFF73D
:101300009BFDA06D40F40010A065A06D00F40010DE
:10131000059007B0F0BD00000054004000100240EE
:1013200000040048024881684268114481607047A7
:101330000400002010B50024032000F073F80F20F3
:1013400000F008F808B1012401E000F025F820467B
:1013500010BD000070B50E4E05460024706898B1AF
:101360004FF47A71B1FBF0F00A490968B1FBF0F073
:1013700001F0D9F840B9102D06D200222946501E9E
:1013800000F030F8356000E00124204670BD000018
:1013900004000020100000200A4882B0016E41F0D5
:1013A00001010166016E01F001010091816D41F0C2
:1013B00080518165806D00F08050009002B000F097
:1013C000B3B8000000100240002809DB00F01F0243
:1013D000012191404009800000F1E020C0F8001197
:1013E00070470000F0B40E4B1B680C46C3F3022399
:1013F000C3F10705042D00D90425191D072901D2C1
:10140000002300E0DB1E012606FA05F1491E2140FB
:1014100099409E40761E16403143F0BC02F0AFBDAD
:101420000CED00E0064900F0070208684FF6FF03E4
:10143000184040EA0220034A104308607047000049
:101440000CED00E00000FA05BFF34F8F054801687E
:10145000054A01F4E06111430160BFF34F8F00BF03
:10146000FDE700000CED00E00400FA052B492C4BD1
:101470000A6832214A432B4940B1B0F5007F086821
:1014800029D020F4C06040F480602CE00868C0F3EC
:101490004120022804D051F8800F20F4807022E00F
:1014A000D1F8800020F48070C1F88000086820F432
:1014B000C06040F400700860B2FBF3F0401C00E034
:1014C000401E4A69520501D50028F9D148694005F6
:1014D0000AD503207047C0F34120022806D051F8F6
:1014E000800F40F48070086000207047D1F88000C1
:1014F00040F48070C1F88000086820F4C06040F4B7
:1015000000700860B2FBF3F0401C00E0401E4A6926
:101510005205DBD50028F9D1D8E7000010000020E3
:1015200040420F00007000400248816841F4804151
:1015300081607047007000402DE9F8430446006860
:1015400000269D4D00035ED5A86D0027C00008D47D
:10155000A86D40F08050A865A86D012700F080506C
:101560000090DFF85892D9F8001041F48071C9F862
:101570000010FFF74BFD804606E000BFFFF746FD79
:10158000A0EB080002282BD8D9F80000C005F5D53B
:10159000D5F8900010F4407014D0216C814211D025
:1015A000D5F89000D5F8901020F4407041F48031C7
:1015B000C5F89010D5F8901021F48031C5F890103E
:1015C000C5F89000C00711D0FFF720FD804641F21A
:1015D000883907E0FFF71AFDA0EB0801494501D95A
:1015E00003260BE0D5F890008007F3D5D5F89000DE
:1015F000216C20F440700843C5F890001FB1A86D1D
:1016000020F08050A8652078C00707D0D5F8880062
:10161000616820F003000843C5F88800207880073F
:1016200007D5D5F88800A16820F00C000843C5F85C
:1016300088002078400707D5D5F88800E16820F0B9
:1016400030000843C5F888002078000707D5D5F892
:101650008800216920F0C0000843C5F88800207880
:10166000800607D5D5F88800616920F440600843FA
:10167000C5F888002078400607D5D5F88800A1690C
:1016800020F440500843C5F888002078000607D5AC
:10169000D5F88800E16920F440400843C5F8880087
:1016A0002088C00507D5D5F88800216A20F440308D
:1016B0000843C5F888002088800507D5D5F888003C
:1016C000616A20F440200843C5F88800208840055E
:1016D0000FD5D5F88800A16A20F440100843C5F85A
:1016E0008800A06AB0F5801F03D1E86840F480103C
:1016F000E860208800050FD5D5F88800E16A20F45D
:1017000040000843C5F88800E06AB0F5800F03D1B7
:10171000E86840F48010E8602088C0040FD5D5F850
:101720008800216B20F040700843C5F88800206BCA
:10173000B0F1807F03D1E86840F48010E860208831
:101740004FF0006180040ED5D5F88800626B20F060
:1017500040601043C5F88800606B884203D1E86898
:1017600040F48010E860208840040ED5D5F8880049
:10177000A26B20F040601043C5F88800A06B88423F
:1017800003D1E86840F48010E860208800040FD599
:10179000D5F88800E16B20F040500843C5F8880078
:1017A000E06BB0F1805F03D1E86840F48030E8601E
:1017B0003046BDE8F8830000001002400070004091
:1017C0002DE9F0470E4605004FF0000725D0DFF861
:1017D000AC81D8F8000000F00F00B0420CD2D8F86D
:1017E000001021F00F013143C8F80010D8F80000B4
:1017F00000F00F00B04210D12968614CC80741F2D7
:10180000883A5AD06868DFF87C91032808D002280B
:1018100020682DD0400500282CDB0120BDE8F08792
:1018200020688001F9D5E06800F00302E068C0F3A9
:101830000310401C032A19D0534A00BFB2FBF0F03A
:10184000E268C2F306225043E268C2F34162521CCE
:101850005200B0FBF2F0484517D9A06810F0F00F25
:101860000CD0880711D5A86840B10EE0474AE5E7DB
:101870008003D0E700F0BCF8484506D9A06820F006
:10188000F00040F08000A0608027A068696820F028
:1018900003000843A060FFF7B9FB814606E000BFE4
:1018A000FFF7B4FBA0EB090151453AD8A06869687D
:1018B00000F00C00B0EB810FF2D12868810714D53D
:1018C000400703D5A06840F4E060A06028780007D6
:1018D00005D5A06820F4605040F4E060A060A068E6
:1018E000A96820F0F000084304E0802F03D1A0682D
:1018F00020F0F000A060D8F80010404601F00F0181
:10190000B14216D9016821F00F0131430160FFF7A0
:101910007DFB074607E000BFFFF778FBC11B514581
:1019200001D903207AE7D8F8000000F00F00B04298
:10193000F2D12878400705D5A068E96820F4E06076
:101940000843A0602878000706D5A068296920F41C
:10195000605040EAC100A06000F04AF8A1680C4A5B
:10196000C1F30311515C01F01F01C840094908602F
:1019700009480068BDE8F047FFF7ECBC00200240D2
:101980000010024000B4C4040024F40000127A00E5
:10199000EE510008100000200400002001480068FB
:1019A000704700001000002005480649006889685B
:1019B000054AC1F30221515C01F01F01C840704784
:1019C0001000002000100240FE51000805480649A2
:1019D00000688968054AC1F3C221515C01F01F010A
:1019E000C84070471000002000100240FE5100085F
:1019F000184910B58868C0F381021748012A0BD036
:101A00008A684310C2F38102022A06D08A68C2F3B0
:101A10008102032A03D0002010BD184610BDCA68F9
:101A200002F00304CA68C2F30312521C032C02D052
:101A3000B0FBF2F001E0B3FBF2F0CA68C968C2F390
:101A400006225043C1F34161491C4900B0FBF1F04B
:101A500010BD0000001002400024F4002DE9F843FE
:101A600004007AD02078FA4DC00747D0A868E9680A
:101A700000F00C0001F003010C2802D0082817D058
:101A800001E0032914D06068B0F5803F17D0B0F5AD
:101A9000A02F286817D020F480302860286820F410
:101AA000802028606068E0B1FFF7B0FA064614E0D5
:101AB0002868800322D560680028D2D01EE02868FC
:101AC00040F48030EDE740F480202860F7E700BF65
:101AD000FFF79CFA801B642870D828688003F7D52C
:101AE0000CE0FFF793FA064605E000BFFFF78EFA19
:101AF000801B6428F0D828688003F7D420788007FA
:101B00004CD5A868E96800F00C0001F003010C282E
:101B100002D004280DD001E002290AD0E068002894
:101B200028682BD040F480702860FFF76FFA0646D3
:101B300019E02868400502D5E068002891D068685F
:101B4000217C20F0FE4040EA01606860C1480068E6
:101B5000FFF700FC002800D120E076E1FFF756FAFD
:101B6000801B0228B8D828684005F7D56868217C12
:101B700020F0FE4040EA016068600FE020F48070D1
:101B80002860FFF743FA064605E000BFFFF73EFA7C
:101B9000801B0228A0D828684005F7D420780007C9
:101BA00029D560690028D5F8940013D040F00100D1
:101BB000C5F89400FFF72AFA064606E090E000BF59
:101BC000FFF724FA801B022886D8D5F894008007F6
:101BD000F6D510E020F00100C5F89400FFF716FAE2
:101BE000064604E0FFF712FA801B022878D8D5F8E1
:101BF00094008007F6D42078400761D5A86D0026B0
:101C0000C00008D4A86D40F08050A865A86D0126DA
:101C100000F08050009090480168C90511D4016817
:101C2000804641F480710160FFF7F0F9074604E057
:101C3000FFF7ECF9C01B022852D8D8F80000C00505
:101C4000F6D5A068012815D00528D5F8900016D043
:101C500020F00100C5F89000D5F8900020F00400B5
:101C6000C5F89000A06841F28838B8B1FFF7CEF906
:101C700007460EE0D5F8900040F00100F0E740F094
:101C80000400C5F89000F5E7FFF7C0F9C11B414516
:101C900026D8D5F890008007F6D50CE0FFF7B6F906
:101CA000074604E0FFF7B2F9C11B414518D8D5F843
:101CB00090008007F6D41EB1A86D20F08050A86572
:101CC0002078800629D5A0690028D5F8980013D07F
:101CD00040F00100C5F89800FFF798F9064606E0C5
:101CE00077E000BFFFF792F9801B022877D8D5F87C
:101CF00098008007F6D510E020F00100C5F89800A4
:101D0000FFF784F9064604E0FFF780F9801B0228FC
:101D100065D8D5F898008007F6D4E069F0B3A968D3
:101D2000C1F38101032961D00228286820F0807066
:101D300028600BD0E86820F00300E860E8684749B5
:101D40000840E860FFF762F904464BE0FFF75EF9F0
:101D5000064604E0FFF75AF9801B02283FD828689E
:101D60008001F7D4F4E908016FF00F0202EB0111D2
:101D70000843218A5204490802EB4151A26841EA12
:101D800002210843217D4FF07E42490802EB416168
:101D90000843217B40EAC160E96800E062E0304A24
:101DA00011400843E860286840F080702860E868C7
:101DB00040F08070E860FFF729F9044605E000BFB5
:101DC000FFF724F9001B022809D828688001F7D5FD
:101DD00048E004E0FFF71AF9001B022802D90320AB
:101DE000BDE8F88328688001F4D43BE00128F7D0EF
:101DF000E868226A00F00301914226D1616A00F08E
:101E0000F0020901103991421FD1A26A00F4FE418B
:101E1000B1EB022F19D194F82C2000F07841B1EBEE
:101E2000C26F12D1218E00F4C00249084905A1F504
:101E30000011914209D194F8341000F0C0604908B3
:101E40004906A1F1007181420CD00120C8E70000D1
:101E5000001002400400002000700040FFFFEEFE72
:101E60000C809F010020BBE770B5040009D0606AB8
:101E7000002540B125616561A56294F85D0040B11F
:101E80000CE0012070BD6068B0F5827FF4D0E561A0
:101E9000F2E784F85C50204600F05CF8022084F8F9
:101EA0005D002068016821F040010160E1684FF4A5
:101EB000E062914201D9002001E04FF48050B1F579
:101EC000706F02D0914200D0A562A188228901F4EE
:101ED000827102F404421143227C02F00202114397
:101EE000227D02F001021143228B02F400721143A1
:101EF000227F02F03802114394F8202002F0800281
:101F00001143228D02F40052114322681160A1692D
:101F1000042202EA114194F8242000F4805002F0D7
:101F20001002114394F8342002F008021143A289F0
:101F300002F4706211430143206841602068C16966
:101F400021F40061C1612566012084F85D00002054
:101F500070BD000010B586B0044614216846FEF737
:101F600091F91249206888421ED11148016E41F44E
:101F700080510166016E01F480510591C16C41F000
:101F80000101C164C06C694600F001000590E020C9
:101F90000090022001900020029003900520049000
:101FA0004FF09040FEF748FF06B010BD00300140F2
:101FB000001002402DE9F84F04464068002598467D
:101FC00016460F464FF0040BB0F5827F01D1A06892
:101FD00088B194F85C00012818D0012084F85C00D6
:101FE000FFF714F8814694F85D004FF0000A0128CD
:101FF0000ED0022599E084F85DB013460A462046CB
:10200000CDF8008000F05EF9BDE8F88F0220FBE714
:10201000002F77D0002E75D084F85DB0C4F860A092
:102020002764A4F84460A4F84660C4F838A0A4F873
:102030003CA0A4F83EA0C4F84CA0C4F850A0E068AE
:102040004FF4E06188422068426802D922F480524D
:1020500001E042F480524260A068B0F5004F09D11F
:102060002068026822F0400202602068026822F4C0
:102070008042026020680268520603D4026842F07F
:1020800040020260E06888421DD93FE02068816814
:10209000C9070BD0017B206C0170206C401C2064B0
:1020A000B4F84600401EA4F846000CE0FEF7AEFF70
:1020B000A0EB0901414503D3B8F1FF3F03D03BE05A
:1020C000B8F1000F38D0B4F846000028DED121E086
:1020D00020688168C9070BD0C068216C0880206C1B
:1020E000801C2064B4F84600401EA4F846000DE0B1
:1020F000FEF78CFFA0EB0901414504D3B8F1FF3F87
:1021000004D019E010E0B8F1000F15D0B4F8460083
:102110000028DDD14A464146204600F00AFF08B1BA
:1021200020202066206E00B10125012084F85D008A
:1021300084F85CA0284667E70325F6E72DE9F84F09
:10214000044690F85C0000271D4616468946012883
:102150000DD04FF0010B84F85CB0FEF757FF8046BE
:1021600094F85D00BA46012804D00227A4E00220BA
:10217000BDE8F88FB9F1000F74D0002E72D00320A3
:1021800084F85D00C4F860A0C4F83890A687E6879C
:10219000C4F840A0A4F844A0A4F846A0C4F850A0F5
:1021A000C4F84CA0A068B0F5004F09D120680168C0
:1021B00021F0400101602068016841F48041016024
:1021C00020680168490603D4016841F040010160BC
:1021D000E068B0F5E06F606823D908B1012E1CD12A
:1021E000A06B21680088C86006E0206881688907C4
:1021F00009D5A16B0988C160A06B801CA063E08F2A
:10220000401EE08709E0FEF701FFA0EB0800A842AE
:1022100002D3681C01D046E0ADB3E08F0028E4D1C2
:1022200036E008B1012E30D1E08F0128A06B03D930
:1022300021680088C8600FE021680078087314E006
:10224000E08722E020688168890714D5E18F0129A1
:10225000A16B08D90988C160A06B801CA063E08FC6
:10226000801EEDE727E009780173A06B401CA06396
:10227000E08F401EE4E7FEF7C9FEA0EB0800A8428D
:1022800002D3681C01D00EE06DB1E08F0028D9D1D7
:1022900042462946204600F086FE08B120202066EE
:1022A000A06810B105E0032706E02068C1688068D7
:1022B0000090206E00B1012784F85DB084F85CA026
:1022C000384655E72DE9F05F044690F85C0000279A
:1022D0000A9E1D4692468B464FF0010901280ED0FA
:1022E000012084F85C00FEF791FE804694F85D00C2
:1022F000616801280CD0B1F5827F07D102E002208D
:10230000BDE8F09FA16809B9042801D0022700E1C7
:10231000BBF1000F24D0BAF1000F21D005B394F81F
:102320005D00042802D0052084F85D0000202066AE
:10233000C4F840A0A4F84650A4F84450C4F838B0FB
:10234000E587A587E0642065E0684FF4E061884296
:1023500001D8012D06D92068426822F4805205E098
:102360000127D6E02068426842F48052426020682B
:102370000268520603D4026842F040020260E0683C
:102380008842606845D908B1012D3AD1A06B216817
:102390000088C860A06B801CA063E08F401EE087AF
:1023A0002FE02068816889070FD5E18F69B1B9F105
:1023B000010F0AD1A16B0988C160A06B801CA063CA
:1023C000E08F401EE0874FF0000920688168C90750
:1023D0000FD0B4F8461061B1C068216C0880206C41
:1023E000801C2064B4F84600401EA4F846004FF05C
:1023F0000109FEF70BFEA0EB0800B04201D3701CF0
:1024000075D1E08F0028CCD1B4F846000028C8D19F
:1024100076E008B1012D6CD1E08F0128A06B08D9BE
:1024200021680088C860A06B801CA063E08F801EBC
:1024300007E0216800780873A06B401CA063E08F60
:10244000401EE08755E02068816889071AD5E18F32
:10245000C1B1B9F1010F15D1E18F0129A16B07D9E4
:102460000988C160A06B801CA063E08F801E06E01D
:1024700009780173A06B401CA063E08F401EE087C9
:102480004FF0000920688168C90728D0B4F84610C9
:1024900029B3B4F84610012914D9C068216C08800A
:1024A000206C801C2064B4F84600801EA4F846000E
:1024B000B4F84600012810D82068416841F48051E2
:1024C00041600AE0007B216C0870206C401C206495
:1024D000B4F84600401EA4F846004FF00109FEF78C
:1024E00095FDA0EB0800B04202D3701C01D018E0AB
:1024F000BEB1E08F0028A6D1B4F846000028A2D1D2
:1025000042463146204600F04EFD10B10127202002
:102510002066012084F85D00002084F85C003846C5
:10252000EEE60327F5E710B5401EB0F1807F01D33A
:10253000012010BD4FF0E02460610F21601701F011
:102540001EFD0020A06107202061002010BD90F832
:102550008010012918D0012180F880102421C0F8B2
:10256000841050F8641B0A680B6823F001030B60A9
:1025700022F000510022026050F8643C19602021D2
:10258000016202771046704702207047704770471B
:1025900070B5044690F8800001281DD0012084F811
:1025A00080002420C4F8840020680568026822F0B6
:1025B000010202602068826822F060620A43826041
:1025C000204600F0E1FF206805602020C4F8840068
:1025D000002084F8800070BD022070BD70B50446F4
:1025E00090F8800001281DD0012084F8800024206C
:1025F000C4F8840020680568026822F001020260C5
:102600002068826822F060420A438260204600F01F
:10261000BBFF206805602020C4F88400002084F8F7
:10262000800070BD022070BD704770477047000089
:102630002DE9F04103680446D86919689A6840F6A4
:102640000F0528424FF0000509D186067ED501F01E
:10265000200602F080573E4378D0216FFFE0924E73
:10266000924F16400F40374370D0C70709D0CF05AF
:1026700007D501271F62D4F88C3043F00103C4F85A
:102680008C3083070AD5D30708D0276802233B6222
:10269000D4F88C3043F00403C4F88C3043070AD5D7
:1026A000D30708D0276804233B62D4F88C3043F06A
:1026B0000203C4F88C3003070CD501F02003334328
:1026C00008D0266808233362D4F88C3043F008031E
:1026D000C4F88C3003050BD54B0109D526684FF49F
:1026E00000633362D4F88C3043F02003C4F88C309C
:1026F000D4F88C30002B34D0800609D501F02000AE
:1027000002F08051084303D0216F09B12046884769
:10271000D4F88C0021688968490602D410F0280F8B
:1027200021D0204600F0F0FF20688168490615D5C9
:10273000816821F040018160E06F78B15C4981637C
:10274000E06FFEF72BFB00280BD000E011E0E06FFC
:10275000816B00E02046BDE8F04108472046FFF7C6
:1027600065FFBDE8F0812046FFF760FFC4F88C509C
:10277000F7E7E76E2026012F5CD1C7065AD5CF06B2
:1027800058D5102018622068816849062FD5E26F5D
:10279000116849680904090CE3D0B4F85C308B4235
:1027A000DFD9A4F85E1011680968890618D4016899
:1027B00021F4807101602068816821F0010181604D
:1027C0002068816821F040018160C4F88860E56676
:1027D0002068016821F010010160E06FFEF7A9FA9E
:1027E000B4F85C00B4F85E10401A81B21EE0B4F890
:1027F0005C10B4F85E20891AB4F85E2089B2002A11
:10280000AFD00029ADD0026822F490720260206837
:102810008268254BDB431A408260C4F88860E56615
:1028200025672068026822F0100202602046FFF748
:10283000ADFE96E7C70209D5570207D54FF48010C1
:1028400018622046BDE8F041FFF7EFBE07060AD543
:1028500001F0800702F40002174304D0616F0029E1
:102860007FF478AF7DE742060CD54A060AD5196891
:10287000204621F040011960C4F88460656700F0CB
:10288000C9F86EE7020206D54A0004D52046BDE825
:10289000F041FFF7C9BEC001CBD50029C9DA2046F7
:1028A000BDE8F041FFF773BE0100001020010004F5
:1028B000F536000810B5040003D0D4F8840010B138
:1028C00007E0012010BD002084F88000204600F0C1
:1028D00027F82420C4F884002068016821F0010151
:1028E0000160204601F0E8F80128EBD0A06A10B1A1
:1028F000204600F06BFE2068416821F49041416061
:102900002068816821F02A0181602068016841F017
:10291000010101602046BDE8104000F0BBBE000090
:1029200010B586B0044614216846FDF7ABFC174984
:102930002068884227D11648016E41F48041016623
:10294000016E01F480410591C16C41F00101C16447
:10295000C06C694600F0010005904FF4C060009023
:1029600002200190002002900390072004904FF075
:102970009040FEF761FA002211462520FEF732FD55
:102980002520FEF721FD06B010BD000000380140F3
:102990000010024010B4D0F88830202B1BD1B9B100
:1029A000B2B190F88030012B15D0012380F880302F
:1029B0000023C366094C0368A34206D05C68240266
:1029C00003D51C6844F080641C6010BC01F0AEB9F3
:1029D000012010BC70470220FBE70000008000408F
:1029E00010B50068084988420CD1084800780A28C8
:1029F00001D1FEF729FDBDE810400122034904483A
:102A0000FFF7C8BF10BD00000038014000000020E3
:102A1000F80000207047FEE701688A69D2439207F8
:102A200001D400228A6200688169C943C90703D0C2
:102A3000816941F001018161704700002DE9F04199
:102A40000446006890460E468069C043C00633D4F1
:102A50000025202720688069C043800615D5701C9A
:102A6000F8D0FEF7D3FAA0EB0800B04201D8002E50
:102A7000F0D154F8440F40F0200044F80409677086
:102A8000A57025700120BDE8F08121681020C86183
:102A90002068C7612046FFF7BFFF54F8440B416828
:102AA000064A11404160206840F0040044F82009C3
:102AB0006777A5772577E5E70020E4E700E800FEE3
:102AC000F0B50568059C68684FF48066064FC1F351
:102AD000090106EA545641EA02413E431943B04314
:102AE000214308436860F0BDFF63FF032DE9F04117
:102AF0001D4617460E460446DDF8188008E0681C9F
:102B000006D0FEF783FAA0EB0800A8420BD855B117
:102B10002068806936EA000012D00020B842EED06A
:102B20000020BDE8F08154F8440F40F0200044F844
:102B30000409202060700020A07020700120F0E7C0
:102B40000120EBE770B516460D4604460DE032460F
:102B500029462046FFF772FF08B1012070BDFEF73D
:102B600055FA801BA84207D835B120688069C04358
:102B70008006ECD4002070BD54F8440F40F02000D3
:102B800044F80409202060700020A0702070E4E761
:102B900070B516460D4604460FE0324629462046DB
:102BA000FFF74CFF08B1012070BD681C05D0FEF78F
:102BB0002DFA801BA84207D835B120688069C04330
:102BC0008007EAD4002070BD54F8440F40F0200084
:102BD00044F80409202060700020A0702070E2E713
:102BE00000B58DB030216846FDF74CFB1149104807
:102BF00008600846FEF71AF808B1FDF73BFF02200F
:102C0000009000208DF804008DF8050002900390DC
:102C100001210490CDE90501024607906946054867
:102C2000FDF72AFF002801D0FDF724FF0DB000BDFD
:102C3000000800503400002030B587B014216846E9
:102C4000FDF720FB1A48C16C41F00401C164C16C5E
:102C500001F004010591C16C41F02001C164C16C17
:102C600001F020010591C16C41F00101C164C16C0A
:102C700001F001010591C16C41F00201C164C06C19
:102C80000C4D00F002004FF4005405900022214644
:102C90002846FEF7B5F90120CDE900400220029058
:102CA0000020039069462846FEF7C6F807B030BDFD
:102CB0000010024000080048134810B51149016097
:102CC0001249416000210122C0E902120161416103
:102CD0008161C1610162FEF7F3F908B1FDF7CAFE37
:102CE00000210948FEF798F908B1FDF7C3FE00215D
:102CF0000548FEF7BCF9002803D0BDE81040FDF7F9
:102D0000B9BE10BD0054004048000020FBA7A03011
:102D1000124810B5104901604FF4827141600021E2
:102D20004FF4E062C0E90212022202610122426114
:102D3000520282613822C0E9072107224162C0E9BC
:102D40000A1201634163FFF78FF8002803D0BDE842
:102D50001040FDF78FBE10BD0030014094000020F0
:102D6000184810B5164901604FF4E1314160002167
:102D700081600C22C160C0E904128161C1610162FD
:102D800041628162FFF796FD08B1FDF773FE0021F5
:102D90000C48FFF723FC08B1FDF76CFE0021094841
:102DA000FFF7F6FB08B1FDF765FE0648FFF7CFFB1E
:102DB000002803D0BDE81040FDF75CBE10BD000048
:102DC00000380140F8000020FEE7FEE770B500245F
:102DD00004F1B000C0B200F087F8002000F084F8E1
:102DE000102000F081F80025002000F08FF86D1C05
:102DF000EDB2802DF8D3641CE4B2082CE8D370BD8A
:102E000010B54FF4FA70FEF705F8AE2000F06CF83C
:102E1000002000F069F8102000F066F8402000F073
:102E200063F8812000F060F8FF2000F05DF8A12039
:102E300000F05AF8C82000F057F8A62000F054F827
:102E4000A82000F051F83F2000F04EF8D32000F009
:102E50004BF8002000F048F8D52000F045F880201D
:102E600000F042F8D92000F03FF8F12000F03CF8E3
:102E7000DA2000F039F8122000F036F8DB2000F0FC
:102E800033F8402000F030F8202000F02DF8022028
:102E900000F02AF88D2000F027F8142000F024F824
:102EA000A42000F021F8A62000F01EF8AF2000F0CA
:102EB0001BF8FFF78BFF0021BDE810400846AFF379
:102EC000008010B50446B031C8B200F00DF81020F3
:102ED00040EA141000F008F804F00F00BDE81040BC
:102EE00040F00100AFF300801CB500218DF8041004
:102EF0008DF805004FF6FF700090022301AA78219B
:102F00000148FEF739F91CBD480000201CB54021DE
:102F10008DF804108DF805004FF6FF700090022325
:102F200001AA78210148FEF727F91CBD48000020BE
:102F300070472DE9F843044640684FF48276154601
:102F400089464FF400474FF48068B04209D1A06829
:102F5000B84201D0404504D12068016821F0400109
:102F600001604B46002280212046009500F0A6F823
:102F700080B96068B04214D1A068B84201D0404521
:102F80000FD14B4600224FF4C0612046009500F05F
:102F90002FF830B1206E40F0200020660320BDE8FD
:102FA000F8830020FBE7F8B515460E460B46009265
:102FB000044600224FF4C05100F01AF888B9334695
:102FC000002280212046009500F078F848B9334669
:102FD00000224FF4C0612046009500F009F8002857
:102FE00004D0206E40F0200020660320F8BD0000D1
:102FF0002DE9FC47994617460E4604460A9DFEF702
:1030000005F8411BA9EB0105FEF700F880462A48A8
:103010004FF4C06A0068C0EBC00000EB8000000DF8
:103020006843009040E0564502D10FB9007B019003
:10303000B9F1FF3F38D0FDF7E9FFA0EB0800A84247
:1030400003D215B1009860B32CE02068416821F0EC
:10305000E00141606068B0F5827F0BD1A068B0F5F7
:10306000004F02D0B0F5806F04D12068016821F0D4
:1030700040010160A06AB0F5005F09D120680168D5
:1030800021F4005101602068016841F400510160A1
:10309000012084F85D00002084F85C000320BDE876
:1030A000FC870025401E0090206881683140B942AD
:1030B000B9D10020F3E70000100000202DE9F8430B
:1030C0001E46914688460446089DFDF79FFF401B1B
:1030D000351AFDF79BFF074625480068C0F3CB3043
:1030E000684338E0701C37D0FDF790FFC01BA84242
:1030F00003D215B1009860B32CE02068416821F03C
:10310000E00141606068B0F5827F0BD1A068B0F546
:10311000004F02D0B0F5806F04D12068016821F023
:1031200040010160A06AB0F5005F09D12068016824
:1031300021F4005101602068016841F400510160F0
:10314000012084F85D00002084F85C000320BDE8C5
:10315000F8830025401E00902068816838EA01004D
:1031600004D000214945BDD10020F0E70121F9E755
:10317000100000207047FEF7D5B810B5A4B0382174
:103180006846FDF77FF814211FA8FDF77BF844215E
:103190000EA8FDF777F80020FEF768F90220C101BC
:1031A0000391402104910421CDE9080100905521AB
:1031B000CDE90A1007900C900D906846FEF74EFC82
:1031C00008B172B6FEE70F2000241F900320CDE95E
:1031D0002004229404211FA82394FEF7F1FA08B1D9
:1031E00072B6FEE74120CDE90E040EA81494FEF756
:1031F000A3F9002801D072B6FEE724B010BD00008C
:103200000248016841F470010160704788ED00E0F8
:1032100070B509694FF40E754A68012A0FD0012272
:103220004A600A72002201F5006300BF01EB8204CC
:10323000D3ED3D0A521CC4ED040AAA42F6DD01F5A5
:10324000006301F10C02D3ED3E0A002360EE800A18
:1032500002EB830404F50066D4ED011A96ED3C1AE6
:103260005B1CAB4221EE211A70EE810AF0DD40F2C8
:10327000372300BF02EB83045B1E94ED011A84ED3B
:10328000021AF7D581ED040AC0ED000A70BD0000F6
:10329000F0B5012200230275911EC16041F2F411C4
:1032A00003700A540372426043729FED180A00F5DE
:1032B0000064836184ED420A154D00F114011C463F
:1032C00040F23A2605EB840797ED000A01EB8407EC
:1032D00007F50067641C87ED3E0AB442F2DB037514
:1032E000C0E903210272486801280ED1002001F5CF
:1032F00000624FF40E7300BF01EB800492ED3D0AB3
:10330000401C84ED040A9842F6DDF0BD0000000088
:103310000852000810B54B7AADF5337D002203B199
:103320004A72C96A9FED3C1AF7EE000A0B68012B3E
:103330001DD00A7101230B6081ED021A5FF00002BB
:1033400001EB8204521C84ED031AB32AF8DBC1EDB1
:10335000B60A0B7181ED021A5FF0000201EB8203E5
:10336000521C83ED031AB32AF8DBC1EDB60AD1ED86
:10337000B61A91ED022A00224FEA0D0301EB8204F6
:10338000D4ED032A03EB8204521CC4ED002AB32AB5
:10339000F4DBFDEEE12A32EE002A204C12EE902AF8
:1033A00003EB820212ED013A12EE902A33EE023A5A
:1033B00003EB820202ED010A11EE902AA24202D032
:1033C00071EEA00A0EE0B0EE412AB12203EB8204B6
:1033D000521E94ED000A94ED011A30EE010A84EDBC
:1033E000000AF3D581ED022A5FF0000203EB8204AC
:1033F00094ED000A01EB8204521C84ED030AB32A07
:10340000F4DBC1EDB60A9FED060AC3EE000AC0ED7B
:10341000000A0DF5337D10BD0000000000003343AD
:103420000000344301210022027080F8101300F1E3
:103430003403C3624160C0E90C12017242727047EA
:103440000B4800B59FED090A80ED010A0948FFF716
:103450001FFF07480830FFF7E5FF0748FFF718FF91
:1034600006485DF804EBFFF7DDBF0000DB0FC93F46
:1034700098010020C0190020C8070020B4040020D3
:103480002DE9F041384C2DED028B94ED000A01F04E
:10349000AFFBD4ED000ADFED358A354F9FED358A5D
:1034A00070EEA80A10EE900AC4ED000AB84202DBE2
:1034B00070EEC80A06E0F5EEC00AF1EE10FA03D28B
:1034C00070EE880AC4ED000A2B4E27482B49D6ED32
:1034D000010A001F20EE800AFFF79AFE224D103DE0
:1034E00005F1180195ED030A2846FFF713FF94ED47
:1034F000010A01F07DFBD4ED010A70EEA80A10EE7E
:10350000900AC4ED010AB84202DB70EEC80A06E078
:10351000F5EEC00AF1EE10FA03D270EE880AC4ED9F
:10352000010AD6ED010A164920EE800AA1F5C7600E
:10353000FFF76EFE95ED020A1249281DFFF7EAFE1D
:1035400095ED000AD5ED010A20EE000A00EEA00A72
:1035500001F016FCF0EE000A20EE200A86ED000ACB
:10356000BDEC028BBDE8F08198010020920A063F75
:10357000DB0FC940DB0FC94020000020C01900202C
:10358000C8070020B404002030B5416EB9B102680C
:1035900091689268C1F342610B4B520F9C5CE5004D
:1035A00003F10804A25CB5FBF2F2A0F86A205A5CB1
:1035B000615CD200B2FBF1F1A0F8681030BD0121CE
:1035C000A0F86A10F8E70000DE51000890F8281013
:1035D000C90706D001684A68C36A22F400321A4358
:1035E0004A6090F82810890706D501684A68036B7D
:1035F00022F480321A434A6090F82810490706D511
:1036000001684A68436B22F480221A434A6090F8AA
:103610002810090706D501684A68836B22F4004226
:103620001A434A6090F82810C90606D501688A68CE
:10363000C36B22F480521A438A6090F828108906DE
:1036400006D501688A68036C22F400521A438A6026
:1036500090F82810490611D501684A68436C22F495
:1036600080121A434A60416CB1F5801F06D101688F
:103670004A68836C22F4C0021A434A6090F828100A
:10368000090606D501684A68C06C22F4002202438C
:103690004A607047F8B500260446C0F88C60FDF714
:1036A000B5FC0546206800686FF07E47000708D526
:1036B0002B4600224FF400112046009700F0A2FB99
:1036C00060B92068006840070AD52B4600224FF4F5
:1036D00080012046009700F095FB08B10320F8BD5B
:1036E0002020C4F88400C4F8880044F86C6F0020DF
:1036F0002675F8BD10B5806A0021A0F85E10A0F80C
:103700005610FEF793FF10BD01680A6822F490720C
:103710000A6001688A68094B1A408A60C16E0129F3
:1037200004D101680A6822F010020A602021C0F862
:1037300088100021C166016770470000FEFFFFEF9F
:1037400070B5B0F86010D0F8882004460068222ACE
:1037500004D0816941F00801816170BD406AA26DA9
:1037600008401080A06D801CA065B4F85E00401E6B
:10377000A4F85E00B4F85E000028EED1206801686D
:1037800021F4907101602068816821F0010181605D
:103790002020C4F8880000252567E06E012804D0A9
:1037A0002046FFF71DF9E56670BD2068016821F02D
:1037B00010010160B4F85C102046FEF7E7FEF2E766
:1037C0002DE9F0470446B0F860600068C569D0F89C
:1037D00000A0D0F80880D4F88810222905D081698B
:1037E00041F008018161BDE8F087B4F868704FF0DE
:1037F00000095BE02068406AA16D30400880A06D40
:10380000801CA065B4F85E00401EA4F85E0020682D
:10381000C569690730D0E9070AD05FEACA5107D500
:1038200001210162D4F88C0040F00100C4F88C0042
:10383000A8070BD55FEAC87008D02168022008628B
:10384000D4F88C0040F00400C4F88C0068070BD555
:103850005FEAC87008D0216804200862D4F88C00A0
:1038600040F00200C4F88C00D4F88C0020B120464F
:10387000FEF7DCFEC4F88C90B4F85E00B0B92068A6
:10388000016821F48071016020688168194A114043
:1038900081602020C4F88800C4F87090E06E012890
:1038A0001CD02046FFF79CF8C4F86C900FB1A80616
:1038B000A0D4B4F85E00002895D0B4F86810814216
:1038C00091D92068816821F0805181600A48206781
:1038D0002068016841F02001016084E720680168E8
:1038E00021F010010160B4F85C102046FEF74EFE96
:1038F000DAE70000FEFFFFEF4137000870B5B0F8CF
:103900006010D0F8882004460068222A04D081691B
:1039100041F00801816170BD406A0840A16D0870E6
:10392000A06D401CA065B4F85E00401EA4F85E00C7
:10393000B4F85E000028EED12068016821F490718F
:1039400001602068816821F0010181602020C4F8B5
:10395000880000252567E06E012804D02046FFF787
:103960003FF8E56670BD2068016821F01001016034
:10397000B4F85C102046FEF709FEF2E72DE9F047A7
:103980000446B0F860600068C569D0F800A0D0F8BF
:103990000880D4F88810222905D0816941F00801F7
:1039A0008161BDE8F087B4F868704FF000095BE012
:1039B0002068406AA16D30400870A06D401CA06571
:1039C000B4F85E00401EA4F85E002068C56969076F
:1039D00030D0E9070AD05FEACA5107D50121016258
:1039E000D4F88C0040F00100C4F88C00A8070BD577
:1039F0005FEAC87008D0216802200862D4F88C0001
:103A000040F00400C4F88C0068070BD55FEAC8706A
:103A100008D0216804200862D4F88C0040F002002D
:103A2000C4F88C00D4F88C0020B12046FEF7FEFDCF
:103A3000C4F88C90B4F85E00B0B92068016821F435
:103A40008071016020688168194A114081602020DE
:103A5000C4F88800C4F87090E06E01281CD020469D
:103A6000FEF7BEFFC4F86C900FB1A806A0D4B4F85E
:103A70005E00002895D0B4F86810814291D9206882
:103A8000816821F0805181600A48206720680168C0
:103A900041F02001016084E72068016821F01001F5
:103AA0000160B4F85C102046FEF770FDDAE7000014
:103AB000FEFFFFEFFD3800082DE9F04104460168E4
:103AC00080682269E3691043626900251A43104344
:103AD000DFF82CC20A688B4B1A4002430A60206848
:103AE0004168E26821F44051114341602168A069B6
:103AF000614501D0226A10438A68834B1A40024311
:103B00008A602068C16A626A21F00F011143C162B4
:103B10007E4923687E488B420DD1D0F8880010F092
:103B2000030006D0012855D0022842D003283FD1F7
:103B300052E001203DE077498B420BD1D0F888005C
:103B400010F00C0035D0042833D0082840D00C28C1
:103B50002ED141E070498B420BD1D0F8880010F093
:103B6000300026D0102835D0202831D030281FD161
:103B700032E06A498B420BD1D0F8880010F0C000C7
:103B800017D0402826D0802822D0C02810D123E08A
:103B900063450DD1D0F8880010F4406009D0B0F52D
:103BA000806F17D0B0F5006F12D0B0F5406F13D012
:103BB00010205B4A5B4F00264FF40041634539D12A
:103BC00060B102280DD004280DD0082831D10EE0B4
:103BD0000220EEE70420ECE70820EAE7FDF7E4FE28
:103BE00003E0114603E0FDF703FF01007DD0606AAA
:103BF00037F810206768B1FBF2F007EB4703834208
:103C00006CD8B0EB073F69D8002308461946FCF78B
:103C100001FB090241EA10610202780810187141A3
:103C20003A460023FCF7F6FA3F4AA0F5407191426C
:103C300059D953E0E3694FF6EF788B422DD109282B
:103C40004CD2DFE800F005080D4B274B4B4B0E0024
:103C5000FDF7AAFE01E0FDF7B9FE010001D144E045
:103C60001146606A37F81000B1FBF0F0410060685F
:103C700001EB5001B1FBF0F080B2A0F11001414521
:103C80002CD84FF6F0710140C0F342000143206888
:103C9000C1602AE0FDF7ACFEDFE709281ED2DFE8AD
:103CA00000F005080D1D1F1D1D1D0E00FDF77CFEFB
:103CB00001E0FDF78BFE010001D116E01146606ABC
:103CC00037F81000B1FBF0F1606801EB5001B1FB77
:103CD000F0F080B2A0F11001414504D9012504E0C3
:103CE000FDF786FEE7E72168C8600120A4F86A00B6
:103CF00024F8680F2846A660E660BDE8F081000061
:103D000000800040F369FFCFFFF4FF11003801404D
:103D1000001002400044004000480040004C0040B9
:103D20000024F400C6510008FFFC0F0070B5816547
:103D3000A0F85C20A0F85E200021016783684FF4A2
:103D40008056FF24B34204D10369D3B940F2FF1374
:103D50001DE07F259BB1B3F1805F15D0A0F8601006
:103D6000C0F88C102223C0F8883003689C6844F0A7
:103D700001049C60436EB3F1005F0ED027E003693D
:103D800043B9A0F86040EBE703691BB13F23A0F8FB
:103D90006030E5E7A0F86050E2E7B0F868309342A1
:103DA00015D88268B24201D1026972B1114A026724
:103DB00080F8801001680A6842F480720A60006826
:103DC000816841F0805181600FE00B4AEFE7826823
:103DD000B24201D1026952B1084A026780F88010EC
:103DE0000068016841F490710160002070BD044AD0
:103DF000F3E700007D390008C1370008FD380008EE
:103E0000413700082DE9F0479A4617460E4604460A
:103E10004FF000094FF02008089D39E0681C37D0AA
:103E2000FDF7F4F8A0EB0A00A84222D80DB32068F1
:103E3000016849072CD5C069C043000528D4216812
:103E40004FF4006008622068016821F4D0710160BD
:103E50002068816821F001018160C4F88480C4F881
:103E60008880C4F88C8000BF84F880900320BDE86F
:103E7000F0872068016821F4D071016020688168B2
:103E800021F001018160C4F88480C4F88880EBE7E8
:103E90002068C06936EA000004D00020B842BDD0D6
:103EA0000020E4E70120F9E70148FEF7C1BB00006C
:103EB000F8000020FEE70000FEF7A2FF00224FF40A
:103EC000006311461448FCF7F3FE00211248FCF78A
:103ED000FCFEFCF7FDFC082210210020FCF788FD09
:103EE000142200210C20FCF7A3FDFFF7A9FA0B4DCB
:103EF0000B4E0C4CFCF700FD51EC100BFCF7F0FAEC
:103F00002860FFF7BDFA96ED000A84ED010A2068EB
:103F1000401C2060EEE70000340000202400002058
:103F2000200000202800002003B4019841000098E0
:103F300050EAC12018BF04204A0D18BF40F001000C
:103F400040F2FF72B2EB515F08BF40F0020001285F
:103F500008BF052002B070474100080218BF0420C6
:103F60000A0E18BF40F001004FF07F4232EA010113
:103F700008BF40F00200012808BF0520704709076C
:103F8000090E002804DB00F1E02080F800147047DF
:103F900000F00F0000F1E02080F8141D70470000D1
:103FA0002DE9F04D2DED040B2DED0E8B96B0DDE9D6
:103FB0002550279CDDF890A025F0004624F000480D
:103FC000BAF1000F14BF0121002101EB4502FC49A9
:103FD00053184A1093422AD3002814BF0123002308
:103FE00003EB44030B44F7498B4220D358EA00010A
:103FF0009FEDF59B76D0DFF8D8B35D4503D1BAF1DC
:10400000000F05D188E0BAF1000F08BF002100D0F1
:10401000012101EB450111F5001F08D8002814BF4C
:104020000121002101EB440111F5001F0BD99DED89
:10403000261B9DED240B16B0BDEC0E8B04B0BDE825
:10404000F04D00F051BF0027002DBCBFE14988456D
:1040500021DAE1498845A8BF02271CDAC3451ADCEA
:10406000DE4901EB2851142908DDC1F1340220FAA0
:1040700002F101FA02F282420DD108E058B9C1F111
:10408000140228FA02F101FA02F2424503D101F0CA
:104090000101C1F1020756EA0A0124D1002C22DAFB
:1040A000002D18BF022F01D0012F0AD0022001F0ED
:1040B00025F816B0BDEC0E8B04B0BDE8F04D00F055
:1040C000FBBE022001F01AF800F0F6FE51EC100BD6
:1040D00081F0004141EC100B16B0BDEC0E8B04B02A
:1040E000BDE8F08D18E09FEDBEAB9FEDBF8B0028C3
:1040F00071D1B848804522D105F1804010F580107B
:1041000008BFBAF1000F07D0B3450ADC002CA8BFE6
:104110009DED260BE0DA0DE0B0EE490AF0EE690AFB
:10412000DAE7002C06DA9DED260B51EC100B81F03E
:1041300000416FE0AE48784490ED000BCCE7D845E5
:104140004DD1002C48DA2EB186423AD1BAF1000F97
:1041500042D126E0BAF1000F13D0022000F0CEFFCA
:1041600000F0DEFE8DED020B9DED240B8DED000BBE
:1041700010EE900A039961F31E0003909DED020B6F
:10418000AAE78DED02AB9DED240B1AEE901A10EE0E
:10419000900A8DED000B61F31E0003909DED020B64
:1041A0009AE78DED028B9DED240B18EE901A10EE20
:1041B000900A8DED000B61F31E0003909DED020B44
:1041C0008AE709DA9DED240B51EC190B53EC102B07
:1041D000FCF70AF91EE020E09DED240B7CE7864207
:1041E0001BDAB4F1804F0DD0A4F10050B0F1FF50B4
:1041F00013D1002D11DB9DED240B51EC100B00F0C1
:10420000ABFF07E09DED240B53EC102B51EC100B92
:1042100000F0C2BC41EC100B5EE79DED240B51ECAD
:10422000100B00F071FFBAF1000FCDE90E0142D181
:104230009FED710B46B3A6F1E040B0F17F600CD06A
:104240005E4538D1002D00DAA7B3022F0CBF012044
:104250004FF0FF30FCF7AEFADCE7002D01DD002C5B
:104260000DDA002D01DD002C1FDB002D16DA002CED
:1042700014DB012F08BF9FED620B3FF42DAFB0EEB2
:104280004A0AF0EE6A0A27E7022F18BF002D0CD069
:10429000012F0AD1002DFFF61FAF06E0002DB8BF99
:1042A000002C08DA012F3FF417AFB0EE480AF0EE09
:1042B000680A11E71BE0012000EBE57050EA0701F6
:1042C00015D0791EB0EE498AF0EE698A084308BF1E
:1042D0009FED4D8B4E480025804570DD4D494E4881
:1042E000884514DDB0420DDB002C19DB2FE00120E6
:1042F00000F004FF16B0BDEC0E8B04B0BDE8F04D2D
:1043000000F0FEBDB34502DC002C09DC1FE0864254
:1043100002DA002C1BDA03E05E452BDD002C16DDF3
:10432000022000F0EBFE00F0FBFD8DED020B53ECE4
:104330001A2B51EC180BFCF7B4F9CDE900010399E5
:10434000019861F31E0003909DED020BC4E602206C
:1043500000F0D4FE00F0F4FD10EE901A18EE900A72
:104360008DED020B8DED008B61F31E0003909DED32
:10437000020BB1E69DED0E0B53EC192B51EC100B1B
:10438000FCF72CF89FED260BCDE9080153EC102B20
:104390009DED080B51EC100BFCF783F99FED221BF0
:1043A00053EC112BFCF71DF89DED081B53EC112B62
:1043B000FCF777F99FED1E1B53EC112B3CE08CE0D2
:1043C000FFFF1F00FFFF0F00000000000000F03F94
:1043D0000000F03F0000F07F0000404301FCFFFFC1
:1043E000000000000000F07F00000000000000005E
:1043F0003E1A0000000000000000000000000080E5
:10440000000000000000F0FF000000000000F0BF0E
:104410000000E0410000F043FFFFEF3F000000001C
:10442000000000000000D03F555555555555D53F6B
:10443000000000000000E03FFBF7D3FF9DED080BFC
:1044400041EC1A0B53EC102B51EC100BFCF729F933
:1044500053EC1A2BFCF725F941EC1A0B9FEDFE0BE0
:1044600053EC102B9DED080B51EC100BFCF719F9D8
:1044700041EC1B0B9FEDFA0B51EC1A0B53EC102B7C
:10448000FCF70FF941EC1A0B9FEDF70B53EC102BD7
:104490009DED080B51EC100BFCF703F953EC1A2BB4
:1044A000FBF79CFF41EC1A0B51EC1B0B53EC1A2B46
:1044B000FBF7F3FE0690CDE906519DED060B53EC9C
:1044C0001B2B51EC100BFBF789FF53EC1A2BFBF75E
:1044D00088FF41EC100B00F0A1B90020B6F5801F59
:1044E0000EDA9FEDE30B53EC102B9DED0E0B51EC10
:1044F000100BFCF7D6F8CDE90E016FF034000E4634
:1045000000EB2650A0F2FF37C6F31300DA4940F063
:104510007F6646F040568842D8BF002408DDD74960
:104520008142C8BF012403DC0024A6F580167F1C4D
:10453000D348784400EBC4000F9690ED00CB9DED7E
:104540000E0B53EC1C2B51EC100BFBF747FF9DEDB2
:104550000E0B41EC1B0B53EC1C2B51EC100BFBF71F
:104560009CFE41EC100B51EC190B53EC102BFBF79C
:104570003BFF41EC1D0B51EC1B0B53EC1D2BFCF7CF
:1045800090F841EC1A0BBF488DED10AB78441095B4
:1045900090ED000B4FF0005040EA660000EB8440C5
:1045A0008DED080B00F5002009909DED080B53ECF4
:1045B0001C2B51EC100BFBF711FF9DED0E1B53EC68
:1045C000112BFBF70EFF41EC100B53EC102B9DED64
:1045D000100B51EC100BFCF764F89DED080B41EC4F
:1045E0001C0B53EC102B9DED100B51EC100BFCF73A
:1045F00058F853EC1B2BFBF7F4FE53EC1C2BFBF78A
:10460000EDFE53EC1D2BFCF74CF841EC1C0B53EC6E
:104610001A2B51EC1A0BFCF744F841EC1B0B9A488F
:104620000621B0EE4B0AF0EE6B0A784400F0C5FBB1
:10463000B0EE401AF0EE601AB0EE41DAF0EE61DA58
:1046400053EC1B2B51EC1B0BFCF72BF853EC1D2BE5
:10465000FCF727F89DED100B41EC1B0B53EC1A2BCC
:1046600051EC100BFBF719FE53EC1C2BFCF719F85F
:1046700053EC1B2BFBF711FE9DED100B41EC1B0BBC
:1046800053EC102B51EC100BFCF70BF841EC1D0B0D
:104690009FED7FEB53EC1E2BFBF7FFFD53EC1B2B29
:1046A000FBF7FBFD0890CDE908519DED080B53EC9D
:1046B0001E2B51EC100BFBF791FE53EC1D2BFBF75F
:1046C0008DFE53EC1B2BFBF78CFE9DED080B41EC94
:1046D0001D0B53EC102B9DED100B51EC100BFBF749
:1046E000E0FF41EC1B0B53EC1A2B51EC1D0BFBF7BD
:1046F000D8FF9DED080B41EC1A0B53EC102B51EC3D
:104700001C0BFBF7CEFF53EC1A2BFBF7C6FD41EC5D
:104710001A0B51EC1B0B53EC1A2BFBF7BEFD0C9044
:10472000CDE90C519DED0C0B53EC1B2B51EC100BF8
:10473000FBF754FE53EC1A2BFBF753FE41EC1B0B1B
:104740009FED550B53EC102B9DED0C0B51EC100B0A
:10475000FBF7A7FF41EC1A0B9FED510B51EC1B0B24
:1047600053EC102BFBF79DFF41EC1B0B9FED4E0B09
:1047700053EC102B9DED0C0B51EC100BFBF791FF44
:1047800053EC1B2BFBF789FD41EC100B4848784498
:1047900000EBC40090ED001B51EC100B53EC112BFF
:1047A000FBF77BFD41EC1B0B3846FCF703F8CDE92A
:1047B000080153EC1B2B51EC1A0BFBF76EFD41EC7F
:1047C000100B3C48784400EBC40090ED00CB51EC5A
:1047D000100B53EC1C2BFBF760FD9DED081B53ECFD
:1047E000112BFBF75AFD0690CDE906519DED080B04
:1047F00053EC102B9DED060B51EC100BFBF7EEFD6F
:1048000053EC1C2BFBF7EAFD53EC1A2BFBF7E6FDF0
:1048100053EC1B2BFBF7E5FD41EC100B9DED261B2C
:1048200053EC102B8DED001B00959DED260B51ECEC
:10483000100BFBF736FF9DED000B41EC1A0B53EC10
:10484000102B9DED260B51EC100BFBF7C7FD9DEDDA
:10485000061B53EC112B2FE0000000604715F73FBB
:10486000FE822B654715F73F44DF5DF80BAE543EE3
:1048700000000000000040438E9803007AB60B0051
:10488000BA150000E8150000F21400000000000056
:104890000000000000000840000000E009C7EE3FF3
:1048A000FD033ADC09C7EE3FF5015B14E02F3EBE85
:1048B0007E13000038130000FBF7F3FE53EC1A2BB5
:1048C000FBF7EBFC9DED060B41EC1A0B53EC102BA8
:1048D0009DED000B51EC100BFBF7E3FECDE90C0155
:1048E0009DED0C0B51EC1A0B53EC102BFBF7D5FC88
:1048F000CDE902010C46AA498C422FDB611A08431C
:1049000018D19DED0C0B53EC102B9DED020B51ECCF
:10491000100BFBF763FD41EC1B0B9FEDA30B51EC60
:104920001A0B53EC102BFBF7B8FC53EC1B2BFBF7CB
:1049300053FF2DD2022000F0E1FB00F0F1FA10EE5F
:10494000901A18EE900A8DED020B8DED008B61F33D
:104950001E0003909DED020BFFF7BEBB944A24F0AE
:104960000041914214D39349214408437FF4EFACB2
:104970009DED0C0B53EC102B9DED020B51EC100B2D
:10498000FBF72CFD53EC1A2BFBF726FF7FF6DFAC71
:1049900024F000408849894A002601EB20518242D8
:1049A0002BDA481C4FF4801121FA00F02044844A8D
:1049B000C0F30A517A44A1F2FF3192ED000B814A13
:1049C0008DED080BCA4020EA0202C0F3130040F448
:1049D0008010C1F1140120FA01F60992002CB8BF31
:1049E00076429DED080B53EC102B9DED0C0B51EC1A
:1049F000100BFBF7F3FCCDE90C019DED0C0B51EC1A
:104A00001A0B53EC102BFBF748FC9FED6F0B089033
:104A1000CDE9085153EC102B9DED080B51EC100B18
:104A2000FBF73FFE41EC1B0B9FED690B53EC102B8A
:104A30009DED080B51EC100BFBF733FE9DED0C0BBD
:104A400041EC1C0B53EC102B9DED080B51EC100BA3
:104A5000FBF7C4FC53EC1A2BFBF7C3FC9FED5E1B6A
:104A600053EC112BFBF71DFE53EC1C2BFBF715FC35
:104A700041EC1A0B51EC1B0B53EC1A2BFBF70DFC02
:104A8000CDE902019DED020B53EC1B2B51EC100BF9
:104A9000FBF7A4FC53EC1A2BFBF7A3FC9DED020BD8
:104AA00041EC1A0B53EC102B51EC100BFBF7F9FDFA
:104AB000CDE908014A489DED080B0521784400F036
:104AC0007CF99DED081B51EC100B53EC112BFBF7FF
:104AD000E8FD9DED021B53EC112BFBF782FCCDE9A9
:104AE00006019DED020B53EC1A2B51EC100BFBF75A
:104AF000D8FD53EC1A2BFBF7D0FB9FED3B0B41ECA1
:104B00001A0B53EC102B9DED060B51EC100BFBF721
:104B100065FC9DED060B41EC1B0B53EC102B9DED42
:104B2000020B51EC100BFBF7BCFD53EC1B2BFBF7FE
:104B30005BFC53EC1A2BFBF751FC9DED021B53EC75
:104B4000112BFBF74BFC53EC192BFBF74AFCCDE97F
:104B5000020101EB065001150029C8BF039015DCC6
:104B60009DED020B324651EC100BFBF70CFEFFF7EC
:104B7000DBF9042808BF00F0E3F932469DED020B93
:104B800051EC100BFBF7FFFDCDE902019DED020B8F
:104B900051EC180B53EC102BFBF783FDFFF73ABBDE
:104BA0000000904000000000FE822B654715973CF6
:104BB00000CC904000346F3F01FCFFFF0000E03F5D
:104BC000C0110000FFFF0F0000000000432EE63F71
:104BD000396CA80C615C20BEEF39FAFE422EE63F2C
:104BE00090100000000000000000000000000040E5
:104BF00000B510EE101A2DED028B81B0524A6846B6
:104C0000B2EB410F2ED94FF0E640B0EB410F94BF0D
:104C100000204FF0FF3000900098B0EE408A00284E
:104C20006ADB10F0010F4BD068EE080A9FED471ABF
:104C30009FED470A00EE810A9FED461A10F0020F21
:104C400000EE801AB7EE000A00EE810A02BF01B042
:104C5000BDEC028B00BD00BF01B0B1EE400ABDEC5F
:104C6000028B00BD3C4B21F00042934241D911F030
:104C7000004FDFED3A0A20EE201ADFED390A19BFA6
:104C800031EE601A71EE200A31EE201A71EE600AE0
:104C9000BDEEE01A11EE100A9FED321A00F003008B
:104CA00000EEC10A9FED301A009000EEC10A9FEDA0
:104CB0002F1A00EEC10A9FED2E1A00EEC10AABE7D3
:104CC00028EE080A9FED2B1ADFED2B0A10F0020FD9
:104CD00040EE410A9FED291A00EE201A61EE000A0B
:104CE000B0EE480A08EE200AB6D101B0BDEC028B46
:104CF00000BD00F049F98FE718EE100A4000B0F14E
:104D00007F4F0DD218EE100AFFF726F9042808BFCE
:104D100000F032F9B0EE480A01B0BDEC028B00BDE4
:104D200009D1012000F0EAF901B0BDEC028B5DF879
:104D300004EB00F019B901B0B0EE480ABDEC028BEB
:104D40005DF804EB00F00CB9B61F927EB93AB2BA26
:104D5000CA9F2A3DDDFFFFBE490E494683F9223F27
:104D60000000004B0000C93F00A0FD390020A23325
:104D70001A61342C336D4C39DA82083CA0AA2ABE61
:104D800010B52DED028BB1EEC08A18EE100A20F09E
:104D90000040C0F1FF40C00F0AD010EE100A20F012
:104DA0000040C0F1FF40C00F04BF012000F0A6F991
:104DB000B0EE480ABDEC028B10BD70B504462DED77
:104DC000028B4D1E00EBC500B0EE408AF0EE608A0B
:104DD00090ED000B35F0060017D053EC182B51EC7A
:104DE000100BFBF75EFC41EC100B6D1E04EBC500D5
:104DF00090ED001B51EC100B53EC112BFBF74DFA0F
:104E000041EC100B35F00600E7D1022D36D0042D11
:104E10001CD0062D1CBFBDEC028B70BD53EC182BB3
:104E200051EC100BFBF73DFC94ED0A1B53EC112BDE
:104E3000FBF733FA53EC182BFBF733FC94ED081B0C
:104E400053EC112BFBF729FA41EC100B53EC182B08
:104E500051EC100BFBF725FC94ED061B53EC112BCA
:104E6000FBF71BFA53EC182BFBF71BFC94ED040B20
:104E700053EC102BFBF711FA41EC100B53EC182BF1
:104E800051EC100BFBF70DFC94ED021B53EC112BB6
:104E9000FBF703FA53EC182BFBF703FC94ED001B14
:104EA00053EC112BFBF7F9F9BDEC028B41EC100B25
:104EB00070BD0000000000009FED070B10B553EC23
:104EC000102B9FED070B51EC100BFBF78DFA41EC0B
:104ED000100B10BD000000000000000000000000EA
:104EE000000000000000F03F10B553EC112B51EC16
:104EF000100BFBF7D2F941EC100B10BD00000000C5
:104F00009FED050B10B553EC102B51EC100BFBF77C
:104F10006BFA41EC100B10BD000000000000000017
:104F20009FED050B10B553EC102B51EC100BFBF75C
:104F3000B8FB41EC100B10BD000000000000007039
:104F40009FED050B10B553EC102B51EC100BFBF73C
:104F5000A8FB41EC100B10BD000000000000001089
:104F600030EE000A70470000DFED020A80EEA00A72
:104F700070470000000000009FED020A20EE000ACA
:104F800070470000000000102DE9F0014FF07F4253
:104F9000B2EB410F9FBF4FF0FF310160BDE8F00160
:104FA00070474FF0004242EA0123C1F3C752783AFA
:104FB000551112F01F0C434CCCF120067C44C1F378
:104FC000C752A2F178024FEA621204EB820254F84F
:104FD000254008BFD2E9015612D0556804FA0CF4F6
:104FE00025FA06F73C43976805FA0CF527FA06F808
:104FF000D26807FA0CFCF24045EA08054CEA0206C2
:10500000A4FB034CA5FB0352A6FB03631D449D4276
:1050100034BF012600261319334416B1934202D936
:1050200003E0934201D2012200E00022624402F137
:10503000200C9206DC0C42EA443200EE102A5B039C
:10504000DFED210AF8EEC01A00EE103A4FEA9C1C80
:1050500011F0004FB8EE400AC0F800C020EE201A50
:1050600000EE105ADFED190AB8EE400A20EE200AD1
:1050700071EE810A70EE800A10EE902A02F500624D
:105080006FF30B0200EE902A70EEE11A31EEC11AB6
:10509000DFED101A30EE411A9FED0D0A20EE800A66
:1050A00001EE210A9FED0C1A00EE810A04BFBDE853
:1050B000F0017047CCF180510160BDE8F001B1EE24
:1050C000400A7047C00B0000000000360000802C32
:1050D00022AAFD29DB0FC92F0000C92F02E008C852
:1050E000121F08C1002AFAD170477047002001E062
:1050F00001C1121F002AFBD170470000014908605E
:10510000704700003000002082B0CDE9000121F09E
:10511000004001909DED000B02B051EC100B704768
:10512000FCF708F9FEF729F8FDF786FDFDF758FDB5
:10513000FDF7EEFDFDF714FEFDF7BEFD012204496B
:105140000448FDF727FC00BFFEF7B6FEFCE70000B1
:1051500000000020F800002000B52DED048B83B086
:1051600041EC190BFBF762FB41EC180B18EE100A2F
:1051700018EE901A8DED008B002818BF012008430F
:1051800020F00040C0F17F6000F1E040C00F14D07B
:1051900019EE101A19EE900A8DED009B002918BF28
:1051A0000121084320F00040C0F17F6000F1E040A1
:1051B000C00F04BF0120FFF7A1FF51EC180B03B093
:1051C000BDEC048B00BD01000200040006000800D5
:1051D0000A000C00100020004000800000010101C6
:1051E0000103070100000804020408010101000096
:1051F0000000000000000102030406070809000087
:10520000000001020304000017EB9137E41580361B
:1052100050118E36B0029D362CF5AC3631F5BD36C8
:10522000C20CD0360B4AE3363BBBF7363DB40637EB
:10523000E1311237665B1E37BE382B3729D038373D
:105240001B294737844B5637DB3E6637480A77378A
:10525000F95A8437C7A48D37F36697378EA5A137DF
:10526000D464AC372DA9B737F876C337C7D2CF3758
:1052700064C1DC379C47EA37646AF83741970338E2
:10528000544C0B38F6561338A9B91B3828772438F4
:105290000D922D38D90C373822EA4038B32C4B38D0
:1052A0005ED755381CED603846706C38D863783856
:1052B0005C6582380ED488387D7F8F3809699638CE
:1052C0002A929D3818FDA43859AAAC38C89CB43825
:1052D00076D4BC383C54C538861DCE38F230D73829
:1052E000ED90E038483FEA38B43CF438A58BFE38FE
:1052F0007996043994110A39AEB70F399A8915395C
:1053000041881B3993B421396C0F28399F992E3964
:10531000F35335395D3F3C39B55C4339CEAC4A393E
:105320006930523949E859393DD5613919F8693937
:10533000B3517239E5E27A3942D68139B8578639A4
:1053400048F68A3962B28F39748C9439E18499397C
:10535000059C9E3936D2A339C727A9390D9DAE3990
:105360006C32B43945E8B9390EBFBF3935B7C539E4
:1053700030D1CB39630DD239156CD83973EDDE39A4
:10538000A391E539CA58EC395743F339D051FA396A
:1053900086C2003AC46E043A892D083A6AFE0B3A76
:1053A00031E10F3A11D7133A4DE2173A29FD1B3A72
:1053B0003A2D203AF76F243A27C6283AD12F2D3AB2
:1053C00008AD313AE43D363A7CE23A3ADA9A3F3A6D
:1053D0001667443A3C47493A5C3B4E3A7F43533A5E
:1053E000B05F583AFA8F5D3A64D4623AF12C683A69
:1053F000A4996D3A7D1A733A7BAF783A9A587E3AFF
:10540000EA0A823A91F3843A3FE6873AEEE28A3A30
:1054100096E98D3A30FA903AB314943A1839973A9B
:1054200052679A3A569F9D3A16E1A03A842CA43AC4
:105430009381A73A32E0AA3A4E48AE3AD4B9B13A8B
:10544000B034B53AD0B8B83A1B46BC3A7ADCBF3A69
:10545000D57BC33A1324C73A1CD5CA3AD18ECE3A6B
:105460001351D23AD01BD63AD2EED93A1ACADD3A03
:105470005AADE13A9498E53A9B8BE93A3886ED3A91
:105480005488F13ACF91F53A72A2F93A1BBAFD3A33
:105490004BEC003BE4FE023BBE14053BBE2D073B3C
:1054A000CD49093BD4680B3BBC8A0D3B6AAF0F3B2F
:1054B000C3D6113BAE00143B112D163BD15B183BFC
:1054C000D38C1A3BF9BF1C3B26F51E3B3B2C213BE2
:1054D0001A65233BA69F253BC0DB273B4A192A3B85
:1054E00025582C3B30982E3B4BD9303B551B333B3A
:1054F0002B5E353BABA1373BB4E5393B222A3C3B25
:10550000D66E3E3BAEB3403B85F8423B373D453B14
:105510009E81473B94C5493BF5084C3BA04B4E3B15
:10552000748D503B49CE523BF60D553B4C4C573B8E
:105530002E89593B7EC45B3B1AFE5D3BCE35603BFA
:10554000626B623BCA9E643BFDCF663B7BFE683B61
:105550007A2A6B3B9A536D3BCC796F3BE49C713B51
:10556000B9BC733B27D9753B07F2773B2F077A3BD2
:105570007D187C3BC7257E3B7417803BDE19813B41
:105580000C1A823BED17833B6D13843B7A0C853BF1
:105590000103863BEFF6863B32E8873BB7D6883B74
:1055A0006DC2893B41AB8A3B21918B3BFD738C3BA8
:1055B000C1538D3B5E308E3BC1098F3BDADF8F3BA1
:1055C00097B2903BE981913BBE4D923B0716933BCE
:1055D000B4DA933BB59B943BFC58953B7812963BD1
:1055E0001CC8963BD879973B9E27983B60D1983B47
:1055F0000F77993BA0189A3B04B69A3B2F4F9B3BE1
:1056000014E49B3BAA749C3BDD009D3BB0889D3B12
:10561000040C9E3BE08A9E3B33059F3BEE7A9F3B0A
:105620000CEC9F3B8658A03B50C0A03B6123A13BA4
:10563000AF81A13B37DBA13BF12FA23BD37FA23B44
:10564000D7CAA23BF610A33B2B52A33B738EA33BBE
:10565000C6C5A33B21F8A33B7F25A43BDC4DA43B5F
:105660003471A43B858FA43BCCA8A43B08BDA43BCC
:1056700037CCA43B56D6A43B66DBA43B66DBA43BFD
:1056800056D6A43B37CCA43B08BDA43BCCA8A43B36
:10569000858FA43B3471A43BDC4DA43B7F25A43B08
:1056A00021F8A33BC6C5A33B738EA33B2B52A33B60
:1056B000F610A33BD7CAA23BD37FA23BF12FA23B5C
:1056C00037DBA13BAF81A13B6123A13B50C0A03B95
:1056D0008658A03B0CEC9F3BEE7A9F3B33059F3BEB
:1056E000E08A9E3B040C9E3BB0889D3BDD009D3BC9
:1056F000AA749C3B14E49B3B2F4F9B3B04B69A3B04
:10570000A0189A3B0F77993B60D1983B9E27983B16
:10571000D879973B1CC8963B7812963BFC58953B32
:10572000B59B943BB4DA933B0716933BBE4D923B3B
:10573000E981913B97B2903BDADF8F3BC1098F3B08
:105740005E308E3BC1538D3BFD738C3B21918B3B77
:1057500041AB8A3B6DC2893BB7D6883B32E8873B79
:10576000EFF6863B0103863B7A0C853B6D13843B49
:10577000ED17833B0C1A823BDE19813B7417803B8B
:10578000C7257E3B7D187C3B2F077A3B07F2773B92
:1057900027D9753BB9BC733BE49C713BCC796F3B1B
:1057A0009A536D3B7A2A6B3B7BFE683BFDCF663B91
:1057B000CA9E643B626B623BCE35603B1AFE5D3B2A
:1057C0007EC45B3B2E89593B4C4C573BF60D553BF9
:1057D00049CE523B748D503BA04B4E3BF5084C3BA1
:1057E00094C5493B9E81473B373D453B85F8423B4D
:1057F000AEB3403BD66E3E3B222A3C3BB4E5393B40
:10580000ABA1373B2B5E353B551B333B4BD9303B74
:1058100030982E3B25582C3B4A192A3BC0DB273BAE
:10582000A69F253B1A65233B3B2C213B26F51E3BBF
:10583000F9BF1C3BD38C1A3BD15B183B112D163B97
:10584000AE00143BC3D6113B6AAF0F3BBC8A0D3B85
:10585000D4680B3BCD49093BBE2D073BBE14053B2D
:10586000E4FE023B4BEC003B1BBAFD3A72A2F93A54
:10587000CF91F53A5488F13A3886ED3A9B8BE93A64
:105880009498E53A5AADE13A1ACADD3AD2EED93ADD
:10589000D01BD63A1351D23AD18ECE3A1CD5CA3A41
:1058A0001324C73AD57BC33A7ADCBF3A1B46BC3ACD
:1058B000D0B8B83AB034B53AD4B9B13A4E48AE3AA5
:1058C00032E0AA3A9381A73A842CA43A16E1A03A8E
:1058D000569F9D3A52679A3A1839973AB314943AB8
:1058E00030FA903A96E98D3AEEE28A3A3FE6873A04
:1058F00091F3843AEA0A823A9A587E3A7BAF783A30
:105900007D1A733AA4996D3AF12C683A64D4623ADC
:10591000FA8F5D3AB05F583A7F43533A5C3B4E3A58
:105920003C47493A1667443ADA9A3F3A7CE23A3AB7
:10593000E43D363A08AD313AD12F2D3A27C6283A00
:10594000F76F243A3A2D203A29FD1B3A4DE2173AD7
:1059500011D7133A31E10F3A6AFE0B3A892D083A12
:10596000C46E043A86C2003AD051FA395743F3392B
:10597000CA58EC39A391E53973EDDE39156CD83985
:10598000630DD23930D1CB3935B7C5390EBFBF39E8
:1059900045E8B9396C32B4390D9DAE39C727A939FC
:1059A00036D2A339059C9E39E1849939748C943997
:1059B00062B28F3948F68A39B857863942D681396A
:1059C000E5E27A39B351723919F869393DD561394F
:1059D00049E8593969305239CEAC4A39B55C433956
:1059E0005D3F3C39F35335399F992E396C0F283977
:1059F00093B4213941881B399A891539AEB70F39CB
:105A000094110A3979960439A58BFE38B43CF438E0
:105A1000483FEA38ED90E038F230D738861DCE386E
:105A20003C54C53876D4BC38C89CB43859AAAC3874
:105A300018FDA4382A929D38096996387D7F8F38E1
:105A40000ED488385C658238D863783846706C38F4
:105A50001CED60385ED75538B32C4B3822EA4038FD
:105A6000D90C37380D922D3828772438A9B91B382E
:105A7000F6561338544C0B3841970338646AF8379C
:105A80009C47EA3764C1DC37C7D2CF37F876C337D3
:105A90002DA9B737D464AC378EA5A137F3669737F5
:105AA000C7A48D37F95A8437480A7737DB3E663703
:105AB000844B56371B29473729D03837BE382B3708
:105AC000665B1E37E13112373DB406373BBBF73614
:105AD0000B4AE336C20CD03631F5BD362CF5AC3668
