:020000040800F2
:10000000383F0020F1010008A3370008273200081C
:10001000A1370008CD0900081949000800000000B8
:10002000000000000000000000000000CB390008C4
:100030007F0A000800000000C9390008CD39000817
:100040000B0200080B0200080B0200080B0200085C
:100050000B0200080B0200080B0200080B0200084C
:100060000B0200080B0200080B020008D10900086F
:100070000B0200080B0200080B0200080B0200082C
:100080000B020008000000000B0200080B02000831
:100090000B0200080B0200080B0200080B0200080C
:1000A0000B0200080B0200080B0200080B020008FC
:1000B0000B0200080B0200080B0200080B020008EC
:1000C0000B0200080B0200080B0200080B020008DC
:1000D0000B0200080D4900080B0200080B02000883
:1000E0000B0200080B0200080B0200080B020008BC
:1000F0000B0200080B0200080B02000800000000C1
:10010000000000000B020008000000000B020008C5
:100110000B020008000000000B0200080B020008A0
:100120000B0200080B0200080B0200080B0200087B
:100130000B02000800000000000000000B02000895
:100140000B0200080B020008000000000000000085
:10015000000000000000000000000000000000009F
:100160000000000000000000000000000B0200087A
:100170000B0200080000000000000000000000006A
:10018000000000000B02000800000000000000005A
:10019000000000000000000000000000000000005F
:1001A00000000000000000000B0200080B02000825
:1001B0000B0200080B0200080B0200080000000000
:1001C000000000000B02000800000000000000001A
:1001D0000B0200080B020008DFF810D000F02CFB27
:1001E0000048004729570008AFF30080383F00203F
:1001F0000648804706480047FEE7FEE7FEE7FEE7C1
:10020000FEE7FEE7FEE7FEE7FEE7FEE7593A0008F5
:10021000D90100082DE9F05F0546002092469B4673
:1002200088460646814640241BE02846414647460C
:10023000224600F01BFA53465A46C01A914110D389
:1002400011461846224600F002FA2D1A67EB010803
:100250004F4622460120002100F0F9F917EB000972
:100260004E41201EA4F10104DFDC484631462A46F7
:100270004346BDE8F09FD2B201E000F8012B491ED1
:10028000FBD270470022F6E710B513460A46044633
:100290001946FFF7F0FF204610BD2DE9FE4F8046BE
:1002A00081EA0300C00F0C46009021F0004123F0CA
:1002B0000045B8EB0200A94105D2404621469046D0
:1002C0001C460B46024623F00040104347D0270D42
:1002D000C7F30A00C3F30A510290401A0190402864
:1002E0006BDAC3F3130040F4801B0098924620B1F0
:1002F0000023D2EB030A63EB0B0B01985946C0F1C4
:100300004002504600F0A3F906460D4650465946B5
:10031000019A00F0BBF910EB08006141002487EA64
:10032000115284EAE7731A4340D0009A62B3019AEB
:10033000012A4FEA075215DC001B61EB02014FF066
:10034000004202EA0752CDE90042001C41F580114B
:1003500032462B4600F0F2F903B0BDE8F08F40467C
:100360002146F9E7001B61EB0201001C41F58013F7
:1003700000185B412018A2F5001747EB030140EA83
:10038000D570B6196D4111E06D084FEA360645EAA1
:10039000C0754FEA0752001B61EB0201001C41F5DA
:1003A000801149084FEA30000019514132462B466E
:1003B00003B0BDE8F04F00F0B2B900980122400050
:1003C0000023D0EB020263EBE073009821464FEA72
:1003D000E074B8EB000061EB0401E9E783F000434F
:1003E0005BE781F0004158E72DE9FE4F81EA030405
:1003F00004F0004421F0004100944FF0000B23F082
:10040000004350EA01045ED052EA03045BD0C3F318
:100410000A54C1F30A552C44A4F2F3340194A0FB0E
:100420000254C1F3130141F48011C3F3130343F4E5
:10043000801301FB024400FB034E840A970A44EA3E
:10044000815447EA8357A4FB076802958D0A05FB90
:1004500007854FEA932C04FB0C542705029D4FEAB5
:10046000065847EA1637B5EB08056EEB070C870E02
:10047000920E47EA811742EA8312A7FB0201B6EB0C
:100480000B0164EB00042B0D43EA0C335E1844EBC4
:100490001C50DA465146E7FB0201C5F313044FEA4C
:1004A0000B3343EA14534FEA0432019C43EA060338
:1004B000A4F10C040294009CCDE900B400F03EF9D4
:1004C00003B0BDE8F08F00200146F9E72DE9F04DBB
:1004D00081EA030404F0004B21F0004514464FF07C
:1004E000000A23F0004150EA050220D054EA01023C
:1004F0001DD0C5F30A570246C5F31303C1F3130019
:10050000C1F30A5640F4801543F48013A7EB0608A4
:10051000101BD64608F2FD3873EB050002D308F134
:10052000010801E092185B41B8F1000F03DA0020E6
:100530000146BDE8F08D00204FF480110646844648
:100540000EE0171B73EB050705D3121B63EB0503C6
:1005500006434CEA010C49084FEA300092185B410F
:1005600050EA0107EDD152EA030012D082EA0400FA
:1005700083EA0501084305D0101BAB4106D20122D6
:10058000002306E000224FF0004302E06FF001027A
:1005900053101AEB06004CEB085110EB0A0041EB2C
:1005A0000B01BDE8F04D00F0BAB80EB540F2334192
:1005B00002910021CDE900110A460B4600F0BEF879
:1005C00003B000BD00F0004230F000400AD0C10D81
:1005D00001F56071C0F3160042EA0151C2084007FC
:1005E0001143704700200146704701F0004330B4CA
:1005F00021F0004150EA010206D00A0DA2F5607216
:10060000C1F31301002A02DC30BC00207047440F04
:1006100044EAC104C100E01830BC00EBC25000F055
:1006200047B830B50B46014600202022012409E0DE
:1006300021FA02F59D4205D303FA02F5491B04FA9B
:1006400002F52844151EA2F10102F1DC30BD202A7A
:1006500004DB203A00FA02F1002070479140C2F119
:10066000200320FA03F3194390407047202A04DB4B
:10067000203A21FA02F00021704721FA02F3D0401B
:10068000C2F120029140084319467047202A06DB38
:10069000CB17203A41FA02F043EAE07306E041FA50
:1006A00002F3D040C2F1200291400843194670473E
:1006B0000029A8BF7047401C490008BF20F0010076
:1006C000704710B4B0FA80FC00FA0CF050EA010454
:1006D00004BF10BC704749B1CCF1200421FA04F4E6
:1006E00011FA0CF118BF012121430843A3EB0C01BF
:1006F000CB1D4FEA00614FEA102042BF002010BC22
:10070000704700EBC35010440029A4BF10BC7047D1
:10071000401C490008BF20F0010010BC704710B514
:10072000141E73F1000408DA401C41F10001921814
:100730005B411A4301D120F0010010BD2DE9F04DBD
:1007400092469B4611B1B1FA81F202E0B0FA80F212
:1007500020329046FFF77BFF04460F4640EA0A002E
:1007600041EA0B0153465A46084313D0114653EA57
:10077000010019D0C8F140025046FFF777FF054647
:100780000E46504659464246FFF761FF084305D0E2
:10079000012004E020463946BDE8F08D00200543E5
:1007A00046EAE0762C4337430A986305E40AA0EB57
:1007B00008000022FD0A44EA47540A3002D500200E
:1007C0000146E9E7010510196941DDE9084500190D
:1007D0006941BDE8F04DA2E7C1F30A52C1F313012C
:1007E00040F2FF3341F480119A4202DA00200146C0
:1007F000704740F233439A42A2F2334202DC524243
:10080000FFF734BFFFF723BF30B5041E71F10004BA
:1008100004DB4FF00044404264EB0101141E73F10D
:10082000000405DB1C464FF00043524263EB040317
:10083000994208BF904230BD064C074D06E0E06883
:1008400040F0010394E8070098471034AC42F6D317
:10085000FFF7C6FC2C7500084C75000810B5846ABB
:10086000E16D11F0500F06D0E16DC90625D5204687
:1008700000F0D2FB10BDE06D40F40070E065206830
:100880000168090716D502F0C5FD78B12068C06877
:10089000800400280ADBE06D20F48070E065E06DE4
:1008A000C00403D4E06D40F00100E065204600F094
:1008B000B1FB10BDC0688007EBE7616D496BBDE817
:1008C0001040084710B5806AC16D41F04001C16514
:1008D000016E41F00401016600F09EFB10BD10B5F1
:1008E000806A00F098FB10BD70B50446006881680E
:1008F0008268C1F3400112F0010F28D039BB816832
:1009000001F00D01012914D18168124A1140891C9E
:10091000816021680320086001F00CF9054612E0AF
:1009200001F008F9401B02280DD920688068C00733
:1009300009D0E06D40F01000E065206E40F001004D
:100940002066012070BD20688068C007E8D10020C3
:1009500070BD0000C0FFFF7F70B50446006881686D
:1009600011F0010F2DD18168174A11421AD1816807
:10097000D5432940491C816001F0DCF806461BE0A4
:10098000816811F0010F03D181682940491C816001
:1009900001F0D0F8801B02280ED920680068C043FF
:1009A000C00709D0E06D40F01000E065206E40F017
:1009B00001002066012070BD20680168C943C90795
:1009C000DED1002070BD00003F000080FEE7000087
:1009D000014800F0AFBE0000A80000200D490268E9
:1009E0008A4201D20C4901E00B492031D2B21423D2
:1009F000083AB2FBF3F2436C02F01F0223F0030348
:100A00001944816404498031C16401219140016528
:100A10007047000008040240000802400179074ABC
:100A200002EB81024265054A4432491E826501F0AB
:100A30001F0201219140C16570470000FC0802407F
:100A400030B5D0E913456560446D14B1D0E9164561
:100A5000656090F8444004F01F050124AC40056C2B
:100A60006C60046863608368102B036803D099602E
:100A70000068C26030BD9A600068C16030BD7047D8
:100A800072B6FEE7F8B500260446009690F85800C6
:100A90000D4601280BD0012084F858002046FFF7AE
:100AA00023FF0100E06D04D040F010002AE0022096
:100AB000F8BD20F4885040F00200E06520688268AC
:100AC000134B1A4005F080431A4342F00042826003
:100AD000104A20680EE0009B5B1C0093934209D3F0
:100AE000E06D20F0020040F01000E06584F85860EE
:100AF0000120F8BD8368DB0FEDD1E06D20F002002E
:100B000040F00100E06584F858600846F8BD000038
:100B1000C0FFFF3F02DE04002DE9F047044690F8D5
:100B200058009CB00E464FF00009012815D0012056
:100B300084F8580000251795189520684FF0A048B4
:100B400040450ED1284F0097384602F05FFC8246A0
:100B5000206802F05BFC60B10EE002201CB0BDE832
:100B6000F087E06D40F02000E06584F858500120E7
:100B7000F4E7BAF1000F09D0E06D40F02000E06525
:100B80004FF0010984F858504846E7E717483268A3
:100B900040F61F71002A826822F4604216D094F851
:100BA000383042EA433273681A438260D8F808202A
:100BB000BB6802F0010203F001031A43E2D1B368FB
:100BC00032681A4383688B431A430BE08260D8F87B
:100BD0000820BB6802F0010203F001031A43D1D1DF
:100BE00082688A438260CDE7000100500003005014
:100BF0002DE9F84F00270446009790F85800DFF8D9
:100C0000E0930D46B846012811D0012684F85860BB
:100C1000206802F0F7FB60B1E06D40F02000E06575
:100C20005FF0010784F858803846BDE8F88F02204D
:100C3000FBE7D5E900210C23206803EA911318444F
:100C4000036B01F01F014FF01F0C0CFA01FCC2F303
:100C5000846223EA0C038A4013430363206802F092
:100C6000D1FB8246206802F0C9FB5AEA00003CD161
:100C7000AA6829682068B2F1004F37D002F0D2FB91
:100C80002068416921F00041416120686969C268BA
:100C9000C2F3C102520091402A69042A31D000EB0C
:100CA00082002B68026EDFF83CC303F0F84302EACF
:100CB0000C020B431A4342F00041016620682A6986
:100CC000A96900EB8200026E22F080720A4302667C
:100CD000297F22682869012910D0002102EB8000B9
:100CE000026E22F000720A4302667DE0002202F0EA
:100CF00099FB2068416941F00041C5E74FF0007160
:100D0000ECE7002102F074FB400320684FF0000183
:100D100072D002F06DFB90FAA0F0B0FA80F1286872
:100D200042036ED090FAA0F0B0FA80F0814204D174
:100D300000221146206802F084FB0121206802F0A5
:100D400057FB400320684FF001015DD002F050FBDB
:100D500090FAA0F0B0FA80F12868420359D090FAD6
:100D6000A0F0B0FA80F0814204D100220121206875
:100D700002F067FB0221206802F03AFB4003206882
:100D80004FF0020148D002F033FB90FAA0F0B0FA25
:100D900080F12868420344D090FAA0F0B0FA80F0C5
:100DA000814204D100220221206802F04AFB032183
:100DB000206802F01DFB400320684FF0030133D090
:100DC00002F016FB90FAA0F0B0FA80F12868420316
:100DD0002FD090FAA0F0B0FA80F0814204D1002226
:100DE0000321206802F02DFB2068816811F0010FBB
:100DF00022D0ACE000E004E002F0FAFAC0F3846133
:100E00008DE7C0F3846091E702F0F2FAC0F38461E9
:100E1000A2E7C0F38460A6E702F0EAFAC0F38461B7
:100E2000B7E7C0F38460BBE702F0E2FAC0F3846185
:100E3000CCE7C0F38460D0E72A7B296850F8B03F44
:100E4000C1F3120C23EA0C0302F0180C664A22FAD2
:100E50000CF20A4013430360E968494577D12868DA
:100E600041031CD090FAA0F1B1FA81F1491C01F0C4
:100E70001F0109294FEA403132D8002912D000BFA2
:100E800090FAA0F1B1FA81F101F1010101F01F0125
:100E900006FA01F609D100BFC0F3846109E0C0F38E
:100EA0008461E3E7C0F38461EEE790FAA0F1B1FA60
:100EB00081F101F1010101F01F0146EA816102D1D6
:100EC000C0F3846003E090FAA0F0B0FA80F000F183
:100ED000010000F01F0000EB400041EA005132E049
:100EE00000290ED090FAA0F1B1FA81F101F10101CF
:100EF00001F01F0106FA01F606D100BFC0F38461BC
:100F000006E0C0F38461F1E790FAA0F1B1FA81F153
:100F100001F1010101F01F0146EA816102D1C0F334
:100F2000846003E090FAA0F0B0FA80F000F10100D4
:100F300000F01F002D4A00EB400002EB005041EA98
:100F4000000141F00071AA68206802F06BFA28489D
:100F50002A6802423FF466AE26488168264B01F0BB
:100F6000E0719A4202D0254B9A421CD10B021AD44E
:100F70002268B2F1A04F7FF455AE826841F40001BF
:100F800022F0E0720A4382601D481E490068B0FBEF
:100F9000F1F0401C00EB4000800000E0401E00909B
:100FA0000028FBD13EE6184D184BAA4207D1CD01CF
:100FB00005D422689A42F5D041F0807109E0144DC1
:100FC000AA42EFD14A02EDD422689A42EAD041F413
:100FD0008001826822F0E0720A43826022E600000B
:100FE00000007F4000F0FF03FFFF0700000020FE2D
:100FF0000000088000030050000021C31000C090D2
:1010000010000020400D0300000052C700010050F6
:10101000000084CB7047704770470000F8B54FF070
:10102000000504002E46009502D0E06D10B107E0E7
:101030000120F8BD204600F0EFF8266684F85860DD
:1010400020688168C1F3407119B181686A4A114012
:10105000816020688168C1F3007189B98168674A3D
:10106000114041F080518160654866490068B0FBDD
:10107000F1F04000801C00E0401E00900028FBD1F1
:1010800020688168C1F3007141B9E16D41F0100140
:10109000E165216E41F001012166012502F0B2F9FE
:1010A000E16DC90600D430B1E06D40F01000E0659C
:1010B00001252846F8BDE06D20F4807040F0020064
:1010C000E0652068806810F0010F11D14FF0A0405A
:1010D00080684D4900F00100896801F00101084372
:1010E00006D14A486168826822F47C120A43826011
:1010F000E168E06B627F0843A16841EA423108433E
:1011000094F8241040EA0140012904D1218D404A7D
:1011100002EB41410843E16A29B101F47871226B85
:10112000014342EA01002168CA683A4B1A4002436F
:10113000CA6020680169626B21F04061114301615E
:10114000206802F05FF90646206802F057F9304344
:101150002ED1207F94F83810800340EA41022068A5
:10116000C16844F2020399431143C1602069002819
:10117000206801690AD041F480310161206850F88B
:10118000C01F22696FF30D01114307E021F4803184
:101190000161206850F8C01F6FF30D01016094F8E1
:1011A000400001280CD02068016921F00101016193
:1011B000606901282068016B21F00F0111D013E054
:1011C000D4E911010843D4E91312114308432168FB
:1011D0000A6940F2FC739A43104340F00100086131
:1011E000E6E7226A521E11430163E06D20F002001F
:1011F00040F00100E0655CE7C0FFFF5FC0FFFF7FDC
:1012000010000020400D03000001005000030050BA
:101210000000FEFF0740F0FF70B586B005461421C0
:101220006846FFF72FF82868B0F1A04F33D11B496B
:10123000C86C40F40050C864C86C00F400500590BD
:10124000C86C40F00100C864C86C002600F00100C2
:1012500005900F2000900320CDE9010669464FF06C
:10126000904000F07DFB0F4C0D4820600520C4E944
:1012700001068020C4E90360400060618000A06135
:101280002020C4E90706204600F0B2FA08B1FFF7B3
:10129000F7FB6C65A56206B070BD0000001002404F
:1012A00008000240A80000202DE9F041044634481F
:1012B00017468846806800F01F05206802F0A2F8F3
:1012C00000285AD194F85800012856D0012084F8FB
:1012D0005800002625B1052D02D0092D00D003E0CD
:1012E0002046FFF739FB18B184F85860BDE8F0815B
:1012F000E06D40F60161884340F48070E06521496B
:101300002068884202D14FF0A04100E001468142AE
:1013100000D01DB9E06D20F48010E065E06DC004E0
:1013200004D5206E20F00600206600E02666616D80
:101330001548C862616D15480863616D14484863BB
:1013400021681C20086084F858602068416841F0DA
:10135000100141602068C16841F00101C16021684D
:101360003B4642464031606D00F0A2FA21688A682F
:10137000084B1A40121D8A60B8E70220B6E7000049
:1013800000030050000100505D080008DF0800085D
:10139000C5080008C0FFFF7F2DE9F04704464079EB
:1013A00090460D4601280BD04FF0010984F80590B6
:1013B00002202071A96808F01006042903D045E036
:1013C0000220BDE8F08700F0B5FB07465FEA0800A1
:1013D0004FF0030805D01CE000F0ACFBC01B012857
:1013E0000FD82068406B0004F6D4012000F0A6FA64
:1013F0002168686A086416E000F09CFBC01B0128A5
:1014000007D9206940F00800206184F80480032097
:10141000D7E72068406B0028EEDB012000F08EFA51
:101420002168686A48642068816C40F2FF32B240EB
:101430009143AA6AB240114381642068C16CFF22C3
:10144000B2409143EA6AB2401143C164E86901289D
:1014500008D12268916B1F20B0408143286AB040B8
:10146000084390632068C06B0721B1408843A96995
:10147000012903D0022955D06969E9B300216B69BC
:10148000AA681A430A434FF4807101FA06F398439D
:101490002B79012B00D0002111434FF4007202FA86
:1014A00006F398436B79012B00D0002220F44047CB
:1014B000286842EA0108022836D00743216808FA62
:1014C00006F03843C863206801684FF48042B24098
:1014D000914301602268116840F6FE70B04081437C
:1014E000E868B0400843106020680168C022B2403C
:1014F00091430160287B00E014E0297C2268C0F35E
:10150000830001F03C0140EA8110116E40F60F7338
:10151000B3409943B0400143116684F80490002021
:1015200060714EE70121AAE700F0CCFF054988422F
:1015300002D947F40047C1E703498842BED947F4BE
:101540008047BBE70068890900B4C40470B5040093
:1015500003D02079002510B105E0012070BD657130
:10156000204600F007F8022020712561012020713B
:10157000002070BD10B586B0044614216846FEF701
:1015800081FE1149206888421BD11048C16C41F48A
:101590008031C164C16C01F480310591C16C41F0AE
:1015A0000101C164C06C694600F001000590102083
:1015B000009003200190002002904FF0904000F036
:1015C000CFF906B010BD0000000800500010024026
:1015D00018B50068C46B0090104421B1143000901D
:1015E0000360002018BD0830F9E72DE9F0410446FA
:1015F00040790D46012822D04FF0010884F805807B
:101600000226267121680A6805F0100708FA07F01B
:1016100002430A60404600F091F92068016885B1F4
:1016200001F47811BE40B14203D1416841F002019A
:10163000416084F8048000206071BDE8F0810220E0
:10164000FBE7C1F344010129F3D1416841F00101F5
:10165000EEE710B590F8253000210122022B03D0CF
:101660000421C163012122E003681C6824F00E04F8
:101670001C60836C1C6824F480741C6003681C6804
:1016800024F001041C6090F84430046C03F01F0344
:1016900002FA03F36360D0E913345C60436D33B145
:1016A0001C6824F480741C60D0E916345C6080F8F7
:1016B0002520002280F82420084610BD70B590F83F
:1016C0002520002401212346022A07D00422C263D8
:1016D00080F8251080F82430012429E0026815687C
:1016E00025F00E0515600268156825F001051560E6
:1016F000826C156825F48075156090F84420056C9F
:1017000002F01F0201FA02F26A60D0E91325556067
:10171000426D32B1156825F480751560D0E9162543
:10172000556080F8251080F82430816B01B188471E
:10173000204670BDF0B4016C0C6801680D6890F82B
:10174000442002F01F06042202FA06F3234211D0BD
:101750006B070FD50B689B0603D40B6823F00403BB
:101760000B6090F8441001F01F018A40016C4A6040
:10177000016B1DE0022303FA06F727424FF0000C2D
:101780004FF0010218D0AF0716D50C68A40605D497
:101790000C6824F00A040C6080F8252090F84410AE
:1017A00001F01F018B40016C4B6080F824C0C16ABE
:1017B00000291AD0F0BC08470823B340234214D0B4
:1017C0002B0712D50B6823F00E030B6090F8441022
:1017D000036C01F01F0102FA01F15960C26380F845
:1017E000252080F824C0416BE2E7F0BC7047000080
:1017F00070B504000CD02B4A21681420914209D204
:10180000294A0A44B2FBF0F08000606427480AE0ED
:10181000012070BD234A52420A44B2FBF0F080001E
:101820006064204808382064022084F825000A6893
:1018300047F6F0708243D4E902031843D4E9043533
:101840002B431843A3691843E3691843236A1843D9
:10185000104308602046FFF7C1F8A0680025B0F5E6
:10186000804F00D16560A16C20790860D4E9130134
:1018700041606068401E032808D82046FFF7CEF874
:10188000606D0560D4E91601416002E06565A565FB
:10189000E565E563012084F8250084F824500020E4
:1018A00070BD000008040240F8FFFDBF00000240C8
:1018B00070B5044690F82400002501280CD00120C2
:1018C00084F8240094F825600020012E06D084F8C6
:1018D00024000225284670BD022070BD022684F82F
:1018E0002560E0632068066826F001060660204651
:1018F000FFF7A6F8206B00282068016802D041F0AD
:101900000E0106E021F0040101602068016841F049
:101910000A010160A06C0168C90303D5016841F4A4
:1019200080710160606D18B1016841F480710160DF
:101930002068016841F001010160CBE770B5044601
:1019400000F0F8F80546601C02D0044840680444E2
:1019500000F0F0F8401BA042FAD370BD0400002054
:101960002DE9FC4FDFF8A0A1002301250AF1040BAB
:1019700003244FF00F0C0BF1040EBDE005FA03F643
:1019800032406FD04F68012F05D0022F03D0112FA6
:1019900001D0122F17D1D0F808905F0004FA07F891
:1019A00029EA08090097D1F80C8008FA07F848EAF4
:1019B0000908C0F808804768B7430E79C6F30016D7
:1019C0009E403E434660C6684FEA430804FA08F763
:1019D000BE4301978F6807FA08F73743C7604E6820
:1019E000022E01D0122E13D1DE0800EB86060096DF
:1019F000366A5F07FF0E0CFA07F926EA0906D1F8E6
:101A0000109009FA07F949EA0609009EC6F82090E5
:101A10000668019FBE430F7907F0030707FA08F72E
:101A2000374307604E68F60065D5384E376E47F08D
:101A300001073766366E23F0030706F001060096AD
:101A4000334E3E44B146B6689F074FEA17780CFA0A
:101A500008F7BE43B0F1904F05D02E4FB84204D1E5
:101A6000012717E047E0002714E02B4FB84201D1CF
:101A700002270FE0294FB84201D103270AE0284F7F
:101A8000B84201D1042705E0264FB84201D105270D
:101A900000E0062707FA08F73743C9F80870DAF8B4
:101AA00000605746D1F8048096435FEAC83800D5F5
:101AB00016433E60DBF800605F46D1F80480964331
:101AC0005FEA883800D516433E60DEF8006077464E
:101AD000D1F8048096435FEAC82800D516433E60DB
:101AE000094F0C373E68D1F8048096435FEA882896
:101AF00000D516433E605B1C0A6832FA03F67FF499
:101B00003DAFBDE8FC8F0000000401400010024022
:101B1000000001400004004800080048000C004894
:101B200000100048001400480AB1816170478162CA
:101B300070470000014880687047000004000020E2
:101B400090F84120202A24D190F84020012A20D06A
:101B5000012280F84020242280F841200268136886
:101B600023F0010313600268136823F480531360A9
:101B7000026813680B43136001680A6842F00102AF
:101B80000A60202180F84110002180F840100846AA
:101B900070470220704790F84120202A22D190F807
:101BA0004020012A1ED0012280F84020242280F803
:101BB00041200268136823F0010313600268136870
:101BC00023F4706343EA0121116001680A6842F05E
:101BD00001020A60202180F84110002180F84010A5
:101BE000084670470220704770B5040004D094F88E
:101BF0004100002510B106E0012070BD84F840507E
:101C0000204600F0DFF8242084F8410020680168B5
:101C100021F0010101606068216820F070600861B6
:101C20002068816821F400418160E0680128A06893
:101C300007D040F4044021688860E068022803D09F
:101C400006E040F40040F6E721684FF40060486089
:101C500020684168114A114341602068C16821F43D
:101C60000041C160D4E904010843A16940EA0120B0
:101C70002168C860D4E9070108432168086020682A
:101C8000016841F0010101606564202084F8410091
:101C9000256384F84250002070BD000000800002DF
:101CA0002DE9F84F044690F84100DDF828A01F46C2
:101CB00090468B4620287ED194F8400001287AD0A7
:101CC000012084F84000FFF735FF0646012200900E
:101CD0001923D103204601F011FBE0BB212084F839
:101CE0004100102084F8420000256564C4F8248077
:101CF00067856563618D3148FF274FF080784FF02D
:101D00000079FF2903D927853A46009039E0618D93
:101D1000218500903AE05946204601F0D9FA13E0B7
:101D200001F03EFBB8B9606A216800788862606A99
:101D3000401C6062608D401E6085208D401E80B218
:101D40002085618D01B168B1608D32460028514611
:101D50002046E5D100E002E001F0FCFAD0B101201C
:101D6000BDE8F88F5346002280212046009601F0FE
:101D7000C5FA0028F3D1608DFF2804D927853A469B
:101D800000954346C7E7608D2085009594F828208C
:101D90004B46C0E721682020C86121684A68084B8B
:101DA0001A404A6084F8410084F8425084F8405058
:101DB0000020D5E7FFE70220D2E7000000200080E6
:101DC00000E800FEF0B587B0044614216846FEF72F
:101DD00059FA1B49206888422FD11A4CE06C40F018
:101DE0000100E064E06C00F001000590E06C40F060
:101DF0000200E064E06C122600F002000590C813B7
:101E000000900025CDE901650427CDE90357694617
:101E1000B006FFF7A5FD80200090CDE90165CDE972
:101E2000035769460848FFF79BFDA06D40F400107A
:101E3000A065A06D00F40010059007B0F0BD000093
:101E4000005400400010024000040048024881682D
:101E500042681144816070470400002010B50024DE
:101E6000032000F073F80F2000F008F808B10124F7
:101E700001E000F025F8204610BD000070B50E4EC0
:101E800005460024706898B14FF47A71B1FBF0F008
:101E90000A490968B1FBF0F000F020FE40B9102DAE
:101EA00006D200222946501E00F030F8356000E0CE
:101EB0000124204670BD0000040000201000002016
:101EC0000A4882B0016E41F001010166016E01F025
:101ED00001010091816D41F080518165806D00F0BC
:101EE0008050009002B000F0B3B800000010024033
:101EF000002809DB00F01F02012191404009800009
:101F000000F1E020C0F8001170470000F0B40E4B63
:101F10001B680C46C3F30223C3F10705042D00D947
:101F20000425191D072901D2002300E0DB1E01262C
:101F300006FA05F1491E214099409E40761E164042
:101F40003143F0BC02F0D1BD0CED00E0064900F0D9
:101F5000070208684FF6FF03184040EA0220034AD0
:101F600010430860704700000CED00E00000FA0527
:101F7000BFF34F8F05480168054A01F4E061114342
:101F80000160BFF34F8F00BFFDE700000CED00E0E4
:101F90000400FA052B492C4B0A6832214A432B498D
:101FA00040B1B0F5007F086829D020F4C06040F44B
:101FB00080602CE00868C0F34120022804D051F86A
:101FC000800F20F4807022E0D1F8800020F480702F
:101FD000C1F88000086820F4C06040F40070086018
:101FE000B2FBF3F0401C00E0401E4A69520501D5E7
:101FF0000028F9D1486940050AD503207047C0F38D
:102000004120022806D051F8800F40F4807008600B
:1020100000207047D1F8800040F48070C1F8800043
:10202000086820F4C06040F400700860B2FBF3F070
:10203000401C00E0401E4A695205DBD50028F9D15A
:10204000D8E700001000002040420F000070004060
:102050000248816841F4804181607047007000400F
:102060002DE9F8430446006800269D4D00035ED527
:10207000A86D0027C00008D4A86D40F08050A86566
:10208000A86D012700F080500090DFF85892D9F831
:10209000001041F48071C9F80010FFF74BFD804635
:1020A00006E000BFFFF746FDA0EB080002282BD892
:1020B000D9F80000C005F5D5D5F8900010F44070AF
:1020C00014D0216C814211D0D5F89000D5F8901031
:1020D00020F4407041F48031C5F89010D5F890108C
:1020E00021F48031C5F89010C5F89000C00711D0D8
:1020F000FFF720FD804641F2883907E0FFF71AFD1F
:10210000A0EB0801494501D903260BE0D5F8900062
:102110008007F3D5D5F89000216C20F44070084377
:10212000C5F890001FB1A86D20F08050A8652078F8
:10213000C00707D0D5F88800616820F00300084385
:10214000C5F888002078800707D5D5F88800A168F1
:1021500020F00C000843C5F888002078400707D518
:10216000D5F88800E16820F030000843C5F8880001
:102170002078000707D5D5F88800216920F0C00035
:102180000843C5F888002078800607D5D5F8880070
:10219000616920F440600843C5F888002078400653
:1021A00007D5D5F88800A16920F440500843C5F848
:1021B00088002078000607D5D5F88800E16920F46A
:1021C00040400843C5F888002088C00507D5D5F8E9
:1021D0008800216A20F440300843C5F88800208830
:1021E000800507D5D5F88800616A20F440200843AF
:1021F000C5F88800208840050FD5D5F88800A16A69
:1022000020F440100843C5F88800A06AB0F5801F8C
:1022100003D1E86840F48010E860208800050FD5FD
:10222000D5F88800E16A20F440000843C5F888002A
:10223000E06AB0F5800F03D1E86840F48010E860F0
:102240002088C0040FD5D5F88800216B20F040709D
:102250000843C5F88800206BB0F1807F03D1E8689F
:1022600040F48010E86020884FF0006180040ED5B3
:10227000D5F88800626B20F040601043C5F88800F4
:10228000606B884203D1E86840F48010E8602088E1
:1022900040040ED5D5F88800A26B20F040601043B2
:1022A000C5F88800A06B884203D1E86840F480102C
:1022B000E860208800040FD5D5F88800E16B20F095
:1022C00040500843C5F88800E06BB0F1805F03D14F
:1022D000E86840F48030E8603046BDE8F8830000EC
:1022E00000100240007000402DE9F0470E46050046
:1022F0004FF0000725D0DFF8AC81D8F8000000F0DF
:102300000F00B0420CD2D8F8001021F00F01314379
:10231000C8F80010D8F8000000F00F00B04210D14B
:102320002968614CC80741F2883A5AD06868DFF8DA
:102330007C91032808D0022820682DD04005002871
:102340002CDB0120BDE8F08720688001F9D5E0682A
:1023500000F00302E068C0F30310401C032A19D008
:10236000534A00BFB2FBF0F0E268C2F306225043CA
:10237000E268C2F34162521C5200B0FBF2F04845E1
:1023800017D9A06810F0F00F0CD0880711D5A868F5
:1023900040B10EE0474AE5E78003D0E700F0BCF823
:1023A000484506D9A06820F0F00040F08000A06009
:1023B0008027A068696820F003000843A060FFF749
:1023C000B9FB814606E000BFFFF7B4FBA0EB0901B3
:1023D00051453AD8A068696800F00C00B0EB810F55
:1023E000F2D12868810714D5400703D5A06840F4CE
:1023F000E060A0602878000705D5A06820F4605050
:1024000040F4E060A060A068A96820F0F0000843F4
:1024100004E0802F03D1A06820F0F000A060D8F87D
:102420000010404601F00F01B14216D9016821F0B9
:102430000F0131430160FFF77DFB074607E000BF56
:10244000FFF778FBC11B514501D903207AE7D8F883
:10245000000000F00F00B042F2D12878400705D507
:10246000A068E96820F4E0600843A06028780007CD
:1024700006D5A068296920F4605040EAC100A06038
:1024800000F04AF8A1680C4AC1F30311515C01F055
:102490001F01C8400949086009480068BDE8F047C5
:1024A000FFF7ECBC002002400010024000B4C4045E
:1024B0000024F40000127A00945700081000002055
:1024C0000400002001480068704700001000002050
:1024D0000548064900688968054AC1F30221515C34
:1024E00001F01F01C840704710000020001002409A
:1024F000A45700080548064900688968054AC1F3E1
:10250000C221515C01F01F01C8407047100000203B
:1025100000100240A4570008184910B58868C0F39D
:1025200081021748012A0BD08A684310C2F3810246
:10253000022A06D08A68C2F38102032A03D000204F
:1025400010BD184610BDCA6802F00304CA68C2F381
:102550000312521C032C02D0B0FBF2F001E0B3FBDB
:10256000F2F0CA68C968C2F306225043C1F3416160
:10257000491C4900B0FBF1F010BD00000010024002
:102580000024F4002DE9F84304007AD02078FA4DB5
:10259000C00747D0A868E96800F00C0001F003010B
:1025A0000C2802D0082817D001E0032914D0606855
:1025B000B0F5803F17D0B0F5A02F286817D020F4D1
:1025C00080302860286820F4802028606068E0B1AE
:1025D000FFF7B0FA064614E02868800322D5606849
:1025E0000028D2D01EE0286840F48030EDE740F4A7
:1025F00080202860F7E700BFFFF79CFA801B642863
:1026000070D828688003F7D50CE0FFF793FA0646E8
:1026100005E000BFFFF78EFA801B6428F0D8286819
:102620008003F7D4207880074CD5A868E96800F0CB
:102630000C0001F003010C2802D004280DD001E0A9
:1026400002290AD0E068002828682BD040F4807066
:102650002860FFF76FFA064619E02868400502D5A2
:10266000E068002891D06868217C20F0FE4040EAB4
:1026700001606860C1480068FFF700FC002800D1D5
:1026800020E076E1FFF756FA801B0228B8D82868C8
:102690004005F7D56868217C20F0FE4040EA0160E3
:1026A00068600FE020F480702860FFF743FA064668
:1026B00005E000BFFFF73EFA801B0228A0D828687B
:1026C0004005F7D42078000729D560690028D5F89F
:1026D000940013D040F00100C5F89400FFF72AFAE7
:1026E000064606E090E000BFFFF724FA801B0228B0
:1026F00086D8D5F894008007F6D510E020F00100C8
:10270000C5F89400FFF716FA064604E0FFF712FA40
:10271000801B022878D8D5F894008007F6D420785A
:10272000400761D5A86D0026C00008D4A86D40F010
:102730008050A865A86D012600F080500090904858
:102740000168C90511D40168804641F480710160B7
:10275000FFF7F0F9074604E0FFF7ECF9C01B022889
:1027600052D8D8F80000C005F6D5A068012815D0C9
:102770000528D5F8900016D020F00100C5F890008B
:10278000D5F8900020F00400C5F89000A06841F250
:102790008838B8B1FFF7CEF907460EE0D5F89000BB
:1027A00040F00100F0E740F00400C5F89000F5E7C4
:1027B000FFF7C0F9C11B414526D8D5F89000800726
:1027C000F6D50CE0FFF7B6F9074604E0FFF7B2F9DB
:1027D000C11B414518D8D5F890008007F6D41EB12A
:1027E000A86D20F08050A8652078800629D5A069C2
:1027F0000028D5F8980013D040F00100C5F89800E3
:10280000FFF798F9064606E077E000BFFFF792F978
:10281000801B022877D8D5F898008007F6D510E0FD
:1028200020F00100C5F89800FFF784F9064604E09F
:10283000FFF780F9801B022865D8D5F8980080073B
:10284000F6D4E069F0B3A968C1F38101032961D02E
:102850000228286820F0807028600BD0E86820F0FB
:102860000300E860E86847490840E860FFF762F95C
:1028700004464BE0FFF75EF9064604E0FFF75AF91D
:10288000801B02283FD828688001F7D4F4E90801AA
:102890006FF00F0202EB01110843218A520449082C
:1028A00002EB4151A26841EA02210843217D4FF029
:1028B0007E42490802EB41610843217B40EAC16046
:1028C000E96800E062E0304A11400843E8602868A7
:1028D00040F080702860E86840F08070E860FFF7A2
:1028E00029F9044605E000BFFFF724F9001B022880
:1028F00009D828688001F7D548E004E0FFF71AF905
:10290000001B022802D90320BDE8F8832868800153
:10291000F4D43BE00128F7D0E868226A00F0030114
:10292000914226D1616A00F0F0020901103991420A
:102930001FD1A26A00F4FE41B1EB022F19D194F825
:102940002C2000F07841B1EBC26F12D1218E00F43F
:10295000C00249084905A1F50011914209D194F836
:10296000341000F0C06049084906A1F100718142AD
:102970000CD00120C8E70000001002400400002035
:1029800000700040FFFFEEFE0C809F010020BBE7BF
:1029900070B5040009D0606A002540B12561656109
:1029A000A56294F85D0040B10CE0012070BD606844
:1029B000B0F5827FF4D0E561F2E784F85C50204600
:1029C00000F05CF8022084F85D002068016821F0C6
:1029D00040010160E1684FF4E062914201D90020BA
:1029E00001E04FF48050B1F5706F02D0914200D0F9
:1029F000A562A188228901F4827102F40442114384
:102A0000227C02F002021143227D02F001021143F6
:102A1000228B02F400721143227F02F0380211432C
:102A200094F8202002F080021143228D02F400521B
:102A3000114322681160A169042202EA114194F84D
:102A4000242000F4805002F01002114394F8342046
:102A500002F008021143A28902F47062114301439B
:102A6000206841602068C16921F40061C161256668
:102A7000012084F85D00002070BD000010B586B014
:102A8000044614216846FDF7FDFB12492068884280
:102A90001ED11148016E41F480510166016E01F4AE
:102AA00080510591C16C41F00101C164C06C69465F
:102AB00000F001000590E02000900220019000202D
:102AC00002900390052004904FF09040FEF748FFDD
:102AD00006B010BD003001400010024010B5401E8D
:102AE000B0F1807F01D3012010BD4FF0E024606180
:102AF0000F21601701F0F9FF0020A061072020617D
:102B0000002010BDF0B590F83C20012A3AD00125F4
:102B100080F83C50022280F83D2003685A689C6887
:102B2000194E1A4FB34201D0BB4204D122F4700CAB
:102B30004A6842EA0C02DFF858C002EA0C02D1F8F7
:102B400000C04CEA020CC3F804C00268B2420DD0C7
:102B5000B2F1804F0AD00F4B9A4207D00E4B9A42E7
:102B600004D0BA4202D00D4B9A4204D1896824F0B5
:102B700080031943916080F83D50002180F83C109B
:102B80000846F0BD0220F0BD002C01400034014099
:102B90008FFFFFFD0004004000080040004001409E
:102BA00010B5040003D094F83D0010B107E00120F7
:102BB00010BD002084F83C00204600F023F80220DD
:102BC00084F83D00211D206800F04EFF012084F8AC
:102BD000480084F83E0084F83F0084F8400084F800
:102BE000410084F8420084F8430084F8440084F8EB
:102BF000450084F8460084F8470084F83D00002032
:102C000010BD000008B500680649884208D1064892
:102C1000816D41F010018165806D00F01000009021
:102C200008BD0000001000400010024090F83D1068
:102C3000012901D001207047022180F83D10016870
:102C4000CA6842F00102CA600068104988420ED08A
:102C5000B0F1804F0BD00E49884208D00D49884210
:102C600005D00D49884202D00C49884207D18168BD
:102C70000B4A1140062906D0B1F5803F03D0016808
:102C800041F001010160002070470000002C01406C
:102C900000040040000800400034014000400140B2
:102CA0000700010090F88010012918D0012180F858
:102CB00080102421C0F8841050F8641B0A680B6847
:102CC00023F001030B6022F000510022026050F853
:102CD000643C19602021016202771046704702208F
:102CE00070477047704770B5044690F8800001281F
:102CF0001DD0012084F880002420C4F884002068BE
:102D00000568026822F0010202602068826822F0F1
:102D100060620A438260204601F068F9206805601D
:102D20002020C4F88400002084F8800070BD0220B8
:102D300070BD70B5044690F8800001281DD00120B8
:102D400084F880002420C4F88400206805680268A4
:102D500022F0010202602068826822F060420A4389
:102D60008260204601F042F9206805602020C4F806
:102D70008400002084F8800070BD022070BD704780
:102D8000704770472DE9F04103680446D869196817
:102D90009A6840F60F0528424FF0000509D18606D3
:102DA0007ED501F0200602F080573E4378D0216F97
:102DB000FFE0924E924F16400F40374370D0C70746
:102DC00009D0CF0507D501271F62D4F88C3043F016
:102DD0000103C4F88C3083070AD5D30708D02768CD
:102DE00002233B62D4F88C3043F00403C4F88C30E7
:102DF00043070AD5D30708D0276804233B62D4F8D9
:102E00008C3043F00203C4F88C3003070CD501F07A
:102E10002003334308D0266808233362D4F88C306B
:102E200043F00803C4F88C3003050BD54B0109D5DA
:102E300026684FF400633362D4F88C3043F02003EB
:102E4000C4F88C30D4F88C30002B34D0800609D5EF
:102E500001F0200002F08051084303D0216F09B136
:102E600020468847D4F88C0021688968490602D436
:102E700010F0280F21D0204601F078F920688168F1
:102E8000490615D5816821F040018160E06F78B175
:102E90005C498163E06FFEF711FC00280BD000E075
:102EA00011E0E06F816B00E02046BDE8F04108478B
:102EB0002046FFF766FFBDE8F0812046FFF761FF7F
:102EC000C4F88C50F7E7E76E2026012F5CD1C706C7
:102ED0005AD5CF0658D51020186220688168490657
:102EE0002FD5E26F116849680904090CE3D0B4F8E2
:102EF0005C308B42DFD9A4F85E101168096889063E
:102F000018D4016821F4807101602068816821F083
:102F1000010181602068816821F040018160C4F86E
:102F20008860E5662068016821F010010160E06FAB
:102F3000FEF78FFBB4F85C00B4F85E10401A81B263
:102F40001EE0B4F85C10B4F85E20891AB4F85E2074
:102F500089B2002AAFD00029ADD0026822F4907265
:102F6000026020688268254BDB431A408260C4F807
:102F70008860E56625672068026822F0100202601A
:102F80002046FFF7AEFE96E7C70209D5570207D5E0
:102F90004FF4801018622046BDE8F041FFF7F0BE04
:102FA00007060AD501F0800702F40002174304D097
:102FB000616F00297FF478AF7DE742060CD54A06A1
:102FC0000AD51968204621F040011960C4F88460D0
:102FD000656700F027F96EE7020206D54A0004D5BE
:102FE0002046BDE8F041FFF7CABEC001CBD500299D
:102FF000C9DA2046BDE8F041FFF774BE01000010B9
:10300000200100045941000810B5040003D0D4F891
:10301000840010B107E0012010BD002084F880007A
:10302000204600F027F82420C4F8840020680168B6
:1030300021F001010160204601F070FA0128EBD077
:10304000A06A10B1204600F0F3FF2068416821F427
:10305000904141602068816821F02A0181602068E8
:10306000016841F0010101602046BDE8104001F017
:1030700043B8000010B586B0044614216846FDF739
:1030800001F917492068884227D11648016E41F49A
:1030900080410166016E01F480410591C16C41F0EF
:1030A0000101C164C06C694600F0010005904FF455
:1030B000C060009002200190002002900390072041
:1030C00004904FF09040FEF74BFC00221146252063
:1030D000FEF71CFF2520FEF70BFF06B010BD000019
:1030E000003801400010024010B4D0F88830202B86
:1030F0001BD1B9B1B2B190F88030012B15D00123AA
:1031000080F880300023C366094C0368A34206D0D0
:103110005C68240203D51C6844F080641C6010BC09
:1031200001F036BB012010BC70470220FBE7000015
:103130000080004010B50068084988420CD108485A
:1031400000780A2801D1FEF713FFBDE810400122E4
:1031500003490448FFF7C8BF10BD00000038014014
:1031600000000020180200202DE9F8430446D0F8A2
:1031700084001F4616460D46202851D1DDB1D6B138
:1031800094F8800001284BD0012084F880004FF093
:103190000008C4F88C802120C4F884001834FEF79D
:1031A000C9FCA6878146E68754F8100C183CB0F598
:1031B000805F03D004E00120BDE8F883206920B1DE
:1031C0002E46002584F8808010E00026FAE7802152
:1031D000204601F049FBB8B9C6B116F8010B2168C9
:1031E0008862B4F85600401EA4F85600B4F85600A1
:1031F0004B464FF0000200970028E8D14FF0400105
:10320000204601F031FB30B10320D5E735F8020B41
:10321000C0F30800E3E72020C4F884000020CBE7D7
:103220000220C9E77047FEE701688A69D243920726
:1032300001D400228A6200688169C943C90703D0AA
:10324000816941F001018161704700002DE9F04181
:103250000446006890460E468069C043C00633D4D9
:103260000025202720688069C043800615D5701C82
:10327000F8D0FEF75FFCA0EB0800B04201D8002EAA
:10328000F0D154F8440F40F0200044F8040967706E
:10329000A57025700120BDE8F08121681020C8616B
:1032A0002068C7612046FFF7BFFF54F8440B416810
:1032B000064A11404160206840F0040044F82009AB
:1032C0006777A5772577E5E70020E4E700E800FECB
:1032D000F0B50568059C68684FF48066064FC1F339
:1032E000090106EA545641EA02413E431943B043FC
:1032F000214308436860F0BDFF63FF032DE9F041FF
:103300001D4617460E460446DDF8188008E0681C86
:1033100006D0FEF70FFCA0EB0800A8420BD855B171
:103320002068806936EA000012D00020B842EED052
:103330000020BDE8F08154F8440F40F0200044F82C
:103340000409202060700020A07020700120F0E7A8
:103350000120EBE770B516460D4604460DE03246F7
:1033600029462046FFF772FF08B1012070BDFEF725
:10337000E1FB801BA84207D835B120688069C043B3
:103380008006ECD4002070BD54F8440F40F02000BB
:1033900044F80409202060700020A0702070E4E749
:1033A00070B516460D4604460FE0324629462046C3
:1033B000FFF74CFF08B1012070BD681C05D0FEF777
:1033C000B9FB801BA84207D835B120688069C0438B
:1033D0008007EAD4002070BD54F8440F40F020006C
:1033E00044F80409202060700020A0702070E2E7FB
:1033F00000EB8100006E00F0F84070478068C0F379
:10340000C00070478068C0F3800070478068C0F3D8
:1034100080007047C06810F4406F01D000207047F2
:1034200001207047042303EAD15310B518444369BF
:10343000C1F3045107248C40A3438A4013434361E2
:1034400010BD00EB8100016E21F0004111430166C7
:103450007047000030B58BB00024089409942021F7
:1034600068460A94FCF70EFF2E484FF0A041042551
:1034700001604FF44021C0E9011485610121C4605D
:10348000C0E9044104774477056280F824404FF492
:10349000B462C2628A02026380F83810C46380F8A2
:1034A0004040FDF7BBFD08B1FDF7EAFA08A91D4849
:1034B0000894FDF731FB08B1FDF7E2FA1A480090D5
:1034C0000620CDE901047F200594CDE90305694676
:1034D0001448FDF78DFB08B1FDF7D2FA13480090B0
:1034E0000C20019069460F48FDF782FB08B1FDF7FB
:1034F000C7FA0F4800901220019069460948FDF76D
:1035000077FB08B1FDF7BCFA0A480090182001903B
:1035100069460448FDF76CFB002801D0FDF7B0FABE
:103520000BB030BD3C0000200200300404006008F5
:103530000800900C1000C01000B58DB03021684616
:10354000FCF7A0FE1149104808600846FDF7FEFF91
:1035500008B1FDF795FA0220009000208DF80400D4
:103560008DF805000290039001210490CDE905013A
:103570000246079069460548FDF70EFF002801D076
:10358000FDF77EFA0DB000BD0008005008010020D4
:103590000D4808B5816C41F004018164816C01F033
:1035A00004010091816C41F001018164806C002272
:1035B00000F00100009011460B20FEF7A7FCBDE8CB
:1035C00008400B20FEF794BC0010024030B587B0D5
:1035D00014216846FCF756FE1648C16C41F02001E4
:1035E000C164C16C01F020010591C16C41F0010181
:1035F000C164C16C01F001010591C16C41F002018F
:10360000C164C06C0C4D00F002004FF4F044059012
:10361000012221462846FEF787FA0120CDE9004025
:10362000022002900020039069462846FEF798F990
:1036300007B030BD0010024000040048144810B527
:10364000124901601349416000210122C0E90212C0
:10365000016141618161C1610162FEF7C5FA08B192
:10366000FDF70EFA00210A48FEF76AFA08B1FDF7E5
:1036700007FA00210648FEF78EFA08B1FDF700FAB6
:103680000548416841F48011416010BD005400407C
:103690001C0100202E0D300000000140124810B522
:1036A000104901604FF48271416000214FF4E062E3
:1036B000C0E90212022202610122426152028261C9
:1036C0003822C0E9072107224162C0E90A120163DA
:1036D0004163FFF75DF9002803D0BDE81040FDF716
:1036E000CFB910BD00300140680100203EB5002474
:1036F0001048009401940E490294016040F2E731B1
:10370000C0E9011440F22B11C16080218161FFF7F3
:1037100047FA08B1FDF7B4F92020009069460294F9
:103720000448FFF7EFF9002801D0FDF7A9F93EBDE5
:1037300000100040CC010020184810B51649016067
:103740004FF4E1314160002181600C22C160C0E989
:1037500004128161C161016241628162FFF754FC20
:1037600008B1FDF78DF900210C48FFF7E2FA08B126
:10377000FDF786F900210948FFF7B5FA08B1FDF712
:103780007FF90648FFF78EFA002803D0BDE8104005
:10379000FDF776B910BD0000003801401802002086
:1037A000FEE7FEE770B5002404F1B000C0B200F0FF
:1037B000E7F8002000F0E4F8102000F0E1F8002520
:1037C000002000F0EFF86D1CEDB2802DF8D3641CE2
:1037D000E4B2082CE8D370BD10B54FF4FA70FEF7D0
:1037E000ADF8AE2000F0CCF8002000F0C9F81020B1
:1037F00000F0C6F8402000F0C3F8812000F0C0F8C7
:10380000FF2000F0BDF8A12000F0BAF8C82000F0B9
:10381000B7F8A62000F0B4F8A82000F0B1F83F20D7
:1038200000F0AEF8D32000F0ABF8002000F0A8F8CC
:10383000D52000F0A5F8802000F0A2F8D92000F0F3
:103840009FF8F12000F09CF8DA2000F099F812209F
:1038500000F096F8DB2000F093F8402000F090F89C
:10386000202000F08DF8022000F08AF88D2000F072
:1038700087F8142000F084F8A42000F081F8A62036
:1038800000F07EF8AF2000F07BF8FFF78BFF0021FF
:10389000BDE810400846AFF3008010B50446B031D3
:1038A000C8B200F06DF8102040EA141000F068F87B
:1038B00004F00F00BDE8104040F0010000F060B8D7
:1038C0002DE9F041203A00240D468046D6B27F28EB
:1038D00003D900204D1C8046EDB2102B29460FD095
:1038E000FFF7DBFF164906EB460001EB4005285DBC
:1038F00000F058F8641CE4B2062CF8D3BDE8F0815F
:10390000FFF7CBFF0F4F00BF04EB0610385C00F051
:1039100049F8641CE4B2082CF6D36D1CE9B24046A9
:10392000FFF7BBFF5FF0000404EB06103844007A99
:1039300000F038F8641CE4B2082CF5D3DEE7000090
:1039400094600008BC6200082DE9F04198461746D3
:103950000E46044600250DE0434631462046FFF75B
:10396000AFFF0834E4B2782C02D90024B61CF6B2BA
:103970006D1CEDB27A5D002AEED1BDE8F081000049
:103980001CB500218DF804108DF805004FF6FF706E
:103990000090022301AA78210148FEF781F91CBD9D
:1039A0001C0100201CB540218DF804108DF8050085
:1039B0004FF6FF700090022301AA78210148FEF71C
:1039C0006FF91CBD1C01002070477047FEF73EBA1E
:1039D00010B5A4B038216846FCF754FC14211FA888
:1039E000FCF750FC44210EA8FCF74CFC4FF400708F
:1039F000FEF7D0FA01210804CDE900100324CDE937
:103A0000084102201221CDE90A1007900C900D9078
:103A10006846FEF7B7FD08B172B6FEE70F20CDE9A4
:103A20001F0400242194229402211FA82394FEF74E
:103A30005BFC08B172B6FEE748F24100CDE90E0426
:103A400040071D9014940EA8FEF70AFB002801D031
:103A500072B6FEE724B010BD0248016841F470015F
:103A60000160704788ED00E02DE9F0430268234BC8
:103A7000234D244E244C4FF08049984207D04845AE
:103A800005D0A84203D0B04201D0A04203D122F019
:103A900070074A683A431D4FDFF874C0DFF874803E
:103AA00098420DD048450BD0A84209D0B04207D06B
:103AB000A04205D0B84203D0604501D0404503D1B3
:103AC00022F44075CA682A434D6922F080022A43D5
:103AD00002608A68C2620A688262984207D0A04285
:103AE00005D0B84203D0604501D0404501D10969F5
:103AF000016301214161BDE8F0830000002C014019
:103B00000004004000080040003401400040014033
:103B1000004401400048014010B54B7AADF5337DBB
:103B2000002203B14A72C96A9FED3C1AF7EE000AFF
:103B30000B68012B1DD00A7101230B6081ED021A65
:103B40005FF0000201EB8204521C84ED031AB32AD9
:103B5000F8DBC1EDB60A0B7181ED021A5FF00002CD
:103B600001EB8203521C83ED031AB32AF8DBC1ED8B
:103B7000B60AD1EDB61A91ED022A00224FEA0D03E2
:103B800001EB8204D4ED032A03EB8204521CC4ED42
:103B9000002AB32AF4DBFDEEE12A32EE002A204CA3
:103BA00012EE902A03EB820212ED013A12EE902AF5
:103BB00033EE023A03EB820202ED010A11EE902A83
:103BC000A24202D071EEA00A0EE0B0EE412AB1226C
:103BD00003EB8204521E94ED000A94ED011A30EEBC
:103BE000010A84ED000AF3D581ED022A5FF000029C
:103BF00003EB820494ED000A01EB8204521C84ED75
:103C0000030AB32AF4DBC1EDB60A9FED060AC3EE40
:103C1000000AC0ED000A0DF5337D10BD0000000064
:103C2000000033430000344301210022027080F879
:103C3000101300F13403C3624160C0E90C12017239
:103C4000427270472DE9F0433E489FED3D0A3E49E0
:103C500080ED120A01250D7500244FF0FF39C1F8DF
:103C60000C900C700C724D6001F114004C729FEDC1
:103C7000370A00F500624460354E82ED3D0A234666
:103C800040F23A27A1F5FA7106EB830CDCED000A4D
:103C900000EB830C0CF5006C5B1CCCED3E0ABB42C8
:103CA000F2DB0470C1E9805081F8FC5141684FF4A7
:103CB0000E7801290BD100214FEA080300EB810C9B
:103CC000D2ED3D0A491CCCED040A9942F6DD1D48AF
:103CD0005430FFF7A9FF1F49002208460D75C1F8AF
:103CE0000C900C700C724D604C7200F614038461E1
:103CF00083ED3D0A10F1140006EB820C9CED000AE6
:103D000000EB820C0CF5006C521C8CED3E0ABA42A2
:103D1000F2DB0470C1E903500D72416801290AD138
:103D20000021424600EB810493ED3D0A491C84EDDD
:103D3000040A9142F6DDBDE8F0430748FFF774BF7F
:103D4000DB0FC93FA83200209C14002000000000B7
:103D5000AC570008A8020020103600202DE9F047DB
:103D6000984C40F217362DED028BE06C411E00F2AC
:103D70001632B24200DB0A46934DDFF8508205EB63
:103D8000820202F50052D8ED020A92EDFA0A30EEF4
:103D9000200A9FED8F1A0127DFF8389220EE010AE2
:103DA00000224FF4C57A88ED010A8318B34201DB83
:103DB000A3F2173305EB830C0CF5005CA3EB420375
:103DC0009CEDFA1A03F21533B34201DBA3F2173369
:103DD00005EB830303F50053521CD3EDFA1A09EBEC
:103DE00087037F1C31EE811AD3ED001A524501EE94
:103DF000210ADADD012888ED010A01D540F21631E9
:103E000005EB810000F50050C0EDFA0AE16494ED85
:103E1000110A00F07BFED4ED110ADFED6F8ADFF8A6
:103E2000BCA170EEA80A10EE900AC4ED110A9FED35
:103E30006C8A504502DB70EEC80A06E0F5EEC00A57
:103E4000F1EE10FA03D270EE880AC4ED110A65484B
:103E5000D8ED010AC146D0F8040260EE800A4FF0A6
:103E6000010841684FF40E77012910D0C0F8048092
:103E700080F80880002100F5006200BF00EB81039C
:103E800092ED3D0A491C83ED040AB942F6DD00F5C6
:103E9000006100F10C0291ED3E0A002120EE200AA3
:103EA00002EB810303F50066D3ED011A96ED3C1A8F
:103EB000491CB94221EE211A30EE010AF0DD40F230
:103EC0003726314602EB8103491E93ED011A83ED3B
:103ED000021AF7D5C0ED040A3A493C4854310C3077
:103EE000FFF71AFE94ED120A00F010FED4ED120A4C
:103EF00070EEA80A10EE900AC4ED120A504502DBDB
:103F000070EEC80A06E0F5EEC00AF1EE10FA03D230
:103F100070EE880AC4ED120AD9ED010A28694C46F0
:103F200060EE800A416801290FD0C0F8048080F853
:103F30000880002100F5006200EB810392ED3D0A4C
:103F4000491C83ED040AB942F6DD00F5006200F178
:103F50000C0192ED3E0A002220EE200A01EB8203C2
:103F600003F50065D3ED011A95ED3C1A521CBA42D7
:103F700021EE211A30EE010AF0DD00BF01EB8602CE
:103F8000761E92ED011A82ED021AF7D50F4DC0EDA3
:103F9000040A0C351449281DFFF7BEFD95ED000AF3
:103FA000D5ED010A20EE000A00EEA00A00F076FE30
:103FB000F0EE000A20EE200A84ED000ABDEC028B30
:103FC000BDE8F087A8320020A802002014000020DD
:103FD00095EC2537AC680008920A063FDB0FC94014
:103FE000DB0FC940A81200201036002030B5416E0A
:103FF000B9B1026891689268C1F342610B4B520FEC
:104000009C5CE50003F10804A25CB5FBF2F2A0F8A9
:104010006A205A5C615CD200B2FBF1F1A0F8681032
:1040200030BD0121A0F86A10F8E7000084570008AD
:1040300090F82810C90706D001684A68C36A22F4BC
:1040400000321A434A6090F82810890706D50168A3
:104050004A68036B22F480321A434A6090F82810B1
:10406000490706D501684A68436B22F480221A4347
:104070004A6090F82810090706D501684A68836BE2
:1040800022F400421A434A6090F82810C90606D567
:1040900001688A68C36B22F480521A438A6090F8E0
:1040A0002810890606D501688A68036C22F400523C
:1040B0001A438A6090F82810490611D501684A68A9
:1040C000436C22F480121A434A60416CB1F5801FA0
:1040D00006D101684A68836C22F4C0021A434A6020
:1040E00090F82810090606D501684A68C06C22F4C9
:1040F000002202434A607047F8B500260446C0F823
:104100008C60FDF717FD0546206800686FF07E475C
:10411000000708D52B4600224FF4001120460097D7
:1041200000F0A2FB60B92068006840070AD52B4662
:1041300000224FF480012046009700F095FB08B163
:104140000320F8BD2020C4F88400C4F8880044F897
:104150006C6F00202675F8BD10B5806A0021A0F8AC
:104160005E10A0F85610FEF70CFE10BD01680A683C
:1041700022F490720A6001688A68094B1A408A60CA
:10418000C16E012904D101680A6822F010020A6098
:104190002021C0F888100021C16601677047000027
:1041A000FEFFFFEF70B5B0F86010D0F8882004462D
:1041B0000068222A04D0816941F00801816170BD44
:1041C000406AA26D08401080A06D801CA065B4F804
:1041D0005E00401EA4F85E00B4F85E000028EED138
:1041E0002068016821F4907101602068816821F0E5
:1041F000010181602020C4F8880000252567E06E59
:10420000012804D02046FEF795FFE56670BD2068C2
:10421000016821F010010160B4F85C102046FEF73F
:1042200060FDF2E72DE9F0470446B0F860600068F1
:10423000C569D0F800A0D0F80880D4F888102229E9
:1042400005D0816941F008018161BDE8F087B4F8CB
:1042500068704FF000095BE02068406AA16D304053
:104260000880A06D801CA065B4F85E00401EA4F814
:104270005E002068C569690730D0E9070AD05FEAA7
:10428000CA5107D501210162D4F88C0040F0010029
:10429000C4F88C00A8070BD55FEAC87008D0216865
:1042A00002200862D4F88C0040F00400C4F88C00AE
:1042B00068070BD55FEAC87008D02168042008623F
:1042C000D4F88C0040F00200C4F88C00D4F88C00C4
:1042D00020B12046FEF755FDC4F88C90B4F85E007E
:1042E000B0B92068016821F480710160206881689C
:1042F000194A114081602020C4F88800C4F87090E9
:10430000E06E01281CD02046FEF714FFC4F86C9024
:104310000FB1A806A0D4B4F85E00002895D0B4F878
:104320006810814291D92068816821F080518160B4
:104330000A4820672068016841F02001016084E795
:104340002068016821F010010160B4F85C1020467B
:10435000FEF7C7FCDAE70000FEFFFFEFA54100080B
:1043600070B5B0F86010D0F8882004460068222AA2
:1043700004D0816941F00801816170BD406A084044
:10438000A16D0870A06D401CA065B4F85E00401ED1
:10439000A4F85E00B4F85E000028EED12068016841
:1043A00021F4907101602068816821F00101816031
:1043B0002020C4F8880000252567E06E012804D07D
:1043C0002046FEF7B7FEE56670BD2068016821F063
:1043D00010010160B4F85C102046FEF782FCF2E7A1
:1043E0002DE9F0470446B0F860600068C569D0F870
:1043F00000A0D0F80880D4F88810222905D081695F
:1044000041F008018161BDE8F087B4F868704FF0B1
:1044100000095BE02068406AA16D30400870A06D23
:10442000401CA065B4F85E00401EA4F85E00206841
:10443000C569690730D0E9070AD05FEACA5107D5D4
:1044400001210162D4F88C0040F00100C4F88C0016
:10445000A8070BD55FEAC87008D02168022008625F
:10446000D4F88C0040F00400C4F88C0068070BD529
:104470005FEAC87008D0216804200862D4F88C0074
:1044800040F00200C4F88C00D4F88C0020B1204623
:10449000FEF777FCC4F88C90B4F85E00B0B92068E1
:1044A000016821F48071016020688168194A114017
:1044B00081602020C4F88800C4F87090E06E012864
:1044C0001CD02046FEF736FEC4F86C900FB1A8064B
:1044D000A0D4B4F85E00002895D0B4F868108142EA
:1044E00091D92068816821F0805181600A48206755
:1044F0002068016841F02001016084E720680168BC
:1045000021F010010160B4F85C102046FEF7E9FBD1
:10451000DAE70000FEFFFFEF614300082DE9F041FC
:104520000446016880682269E369104362690025D6
:104530001A431043DFF82CC20A688B4B1A4002431F
:104540000A6020684168E26821F4405111434160EB
:104550002168A069614501D0226A10438A68834BB3
:104560001A4002438A602068C16A626A21F00F0122
:104570001143C1627E4923687E488B420DD1D0F839
:10458000880010F0030006D0012855D0022842D040
:1045900003283FD152E001203DE077498B420BD107
:1045A000D0F8880010F00C0035D0042833D008284B
:1045B00040D00C282ED141E070498B420BD1D0F86D
:1045C000880010F0300026D0102835D0202831D0B7
:1045D00030281FD132E06A498B420BD1D0F88800D5
:1045E00010F0C00017D0402826D0802822D0C02844
:1045F00010D123E063450DD1D0F8880010F440605D
:1046000009D0B0F5806F17D0B0F5006F12D0B0F5BB
:10461000406F13D010205B4A5B4F00264FF40041DF
:10462000634539D160B102280DD004280DD0082887
:1046300031D10EE00220EEE70420ECE70820EAE7A3
:10464000FDF746FF03E0114603E0FDF765FF0100BB
:104650007DD0606A37F810206768B1FBF2F007EB95
:10466000470383426CD8B0EB073F69D80023084664
:104670001946FBF7CFFD090241EA106102027808F2
:10468000101871413A460023FBF7C4FD3F4AA0F5DC
:104690004071914259D953E0E3694FF6EF788B426C
:1046A0002DD109284CD2DFE800F005080D4B274B2F
:1046B0004B4B0E00FDF70CFF01E0FDF71BFF010067
:1046C00001D144E01146606A37F81000B1FBF0F008
:1046D0004100606801EB5001B1FBF0F080B2A0F145
:1046E000100141452CD84FF6F0710140C0F3420053
:1046F00001432068C1602AE0FDF70EFFDFE70928CB
:104700001ED2DFE800F005080D1D1F1D1D1D0E0047
:10471000FDF7DEFE01E0FDF7EDFE010001D116E040
:104720001146606A37F81000B1FBF0F1606801EBE8
:104730005001B1FBF0F080B2A0F11001414504D965
:10474000012504E0FDF7E8FEE7E72168C8600120E5
:10475000A4F86A0024F8680F2846A660E660BDE861
:10476000F081000000800040F369FFCFFFF4FF11EB
:104770000038014000100240004400400048004062
:10478000004C00400024F4006C570008FFFC0F00B0
:1047900070B58165A0F85C20A0F85E20002101675B
:1047A00083684FF48056FF24B34204D10369D3B920
:1047B00040F2FF131DE07F259BB1B3F1805F15D060
:1047C000A0F86010C0F88C102223C0F8883003686D
:1047D0009C6844F001049C60436EB3F1005F0ED00E
:1047E00027E0036943B9A0F86040EBE703691BB118
:1047F0003F23A0F86030E5E7A0F86050E2E7B0F8AA
:104800006830934215D88268B24201D1026972B110
:10481000114A026780F8801001680A6842F48072C9
:104820000A600068816841F0805181600FE00B4AA6
:10483000EFE78268B24201D1026952B1084A0267C9
:1048400080F880100068016841F4907101600020D8
:1048500070BD044AF3E70000E14300082542000868
:1048600061430008A54100082DE9F0479A46174624
:104870000E4604464FF000094FF02008089D39E02D
:10488000681C37D0FDF756F9A0EB0A00A84222D8E1
:104890000DB32068016849072CD5C069C0430005E5
:1048A00028D421684FF4006008622068016821F470
:1048B000D07101602068816821F001018160C4F835
:1048C0008480C4F88880C4F88C8000BF84F880900D
:1048D0000320BDE8F0872068016821F4D0710160F1
:1048E0002068816821F001018160C4F88480C4F8E7
:1048F0008880EBE72068C06936EA000004D0002019
:10490000B842BDD00020E4E70120F9E70148FEF7F6
:1049100039BA000018020020FEE700002DED068BDA
:10492000FEF75AFF102340A200210520FFF70CF8E4
:1049300000231A4619464048FCF74AFE00213E482B
:10494000FCF753FE3D48FEF771F97F213C48FCF728
:1049500099F84FF4F0723B493948FCF7A5FCFFF792
:1049600071F9384D384C9FED398B9FED3A9B9FED97
:104970003BAB3C4F3C4E4FF0640860683C2801DB89
:104980000020606005EBC0004088FBF70EFE53EC92
:10499000182BFBF729FD53EC192BFBF797FD41EC86
:1049A000100B32A053EC102B00F068F8606835F85B
:1049B0003030002211462048FCF70AFE606835F8C6
:1049C0003000FBF7F2FD53EC182BFBF70DFD53EC19
:1049D000192BFBF77BFD53EC1A2BFBF7FFFCFBF7C6
:1049E00004FE3860FFF7BAF93068A0606168491CBE
:1049F0006160216891FBF8F308FB1312491C2160E8
:104A0000002ABAD1FBF7DEFD41EC100B19A153ECE3
:104A1000102B194800F042F81023174A03210520F3
:104A2000FEF792FFA9E700002D2D2D2D2D2D2D2D08
:104A30002D2D2D2D2D2D2D0008010020CC01002025
:104A40003C000020243900202800002066666666AD
:104A500066660A400000000000FEAF408FC2F528E5
:104A60005C8FFA3F1C0000201400002025660D0A10
:104A70000000000025660000043B00200FB4054B39
:104A800010B503A9044A029800F0BAFA10BC5DF808
:104A900014FB000011570008340000200FB4084B2D
:104AA00010B504A902AA039800F0AAFA044602A9C4
:104AB000002000F028FE204610BC5DF814FB00002A
:104AC000075700084100080218BF04200A0E18BF4B
:104AD00040F001004FF07F4232EA010108BF40F090
:104AE0000200012808BF052070470907090E0028A9
:104AF00004DB00F1E02080F80014704700F00F00A4
:104B000000F1E02080F8141D7047000000B510EEA1
:104B1000101A2DED028B81B0524A6846B2EB410F5C
:104B20002ED94FF0E640B0EB410F94BF00204FF07C
:104B3000FF3000900098B0EE408A00286ADB10F049
:104B4000010F4BD068EE080A9FED471A9FED470A08
:104B500000EE810A9FED461A10F0020F00EE801A57
:104B6000B7EE000A00EE810A02BF01B0BDEC028B75
:104B700000BD00BF01B0B1EE400ABDEC028B00BD2C
:104B80003C4B21F00042934241D911F0004FDFED40
:104B90003A0A20EE201ADFED390A19BF31EE601A09
:104BA00071EE200A31EE201A71EE600ABDEEE01AB5
:104BB00011EE100A9FED321A00F0030000EEC10A58
:104BC0009FED301A009000EEC10A9FED2F1A00EE03
:104BD000C10A9FED2E1A00EEC10AABE728EE080AC3
:104BE0009FED2B1ADFED2B0A10F0020F40EE410A69
:104BF0009FED291A00EE201A61EE000AB0EE480A75
:104C000008EE200AB6D101B0BDEC028B00BD00F069
:104C100075F88FE718EE100A4000B0F17F4F0DD203
:104C200018EE100AFFF74EFF042808BF00F05EF8E8
:104C3000B0EE480A01B0BDEC028B00BD09D10120E5
:104C400000F016F901B0BDEC028B5DF804EB00F04A
:104C500045B801B0B0EE480ABDEC028B5DF804EB3C
:104C600000F039B8B61F927EB93AB2BACA9F2A3D4F
:104C7000DDFFFFBE490E494683F9223F0000004B8D
:104C80000000C93F00A0FD390020A2331A61342C76
:104C9000336D4C39DA82083CA0AA2ABE10B52DED3E
:104CA000028BB1EEC08A18EE100A20F00040C0F16D
:104CB000FF40C00F0AD010EE100A20F00040C0F1F3
:104CC000FF40C00F04BF012000F0D2F8B0EE480A48
:104CD000BDEC028B10BD30EE000A7047DFED020A1A
:104CE00080EEA00A70470000000000009FED020A5D
:104CF00020EE000A70470000000000102DE9F001CE
:104D00004FF07F42B2EB410F9FBF4FF0FF31016088
:104D1000BDE8F00170474FF0004242EA0123C1F3C1
:104D2000C752783A551112F01F0C434CCCF12006B3
:104D30007C44C1F3C752A2F178024FEA621204EB3D
:104D4000820254F8254008BFD2E9015612D05568B6
:104D500004FA0CF425FA06F73C43976805FA0CF5BB
:104D600027FA06F8D26807FA0CFCF24045EA080573
:104D70004CEA0206A4FB034CA5FB0352A6FB03630B
:104D80001D449D4234BF012600261319334416B139
:104D9000934202D903E0934201D2012200E00022B3
:104DA000624402F1200C9206DC0C42EA443200EE2E
:104DB000102A5B03DFED210AF8EEC01A00EE103A6C
:104DC0004FEA9C1C11F0004FB8EE400AC0F800C03A
:104DD00020EE201A00EE105ADFED190AB8EE400A54
:104DE00020EE200A71EE810A70EE800A10EE902A01
:104DF00002F500626FF30B0200EE902A70EEE11AEA
:104E000031EEC11ADFED101A30EE411A9FED0D0A96
:104E100020EE800A01EE210A9FED0C1A00EE810AB5
:104E200004BFBDE8F0017047CCF180510160BDE8DE
:104E3000F001B1EE400A7047D827000000000036AC
:104E40000000802C22AAFD29DB0FC92F0000C92FEA
:104E500002E008C8121F08C1002AFAD17047704743
:104E6000002001E001C1121F002AFBD170470000A1
:104E70000149086070470000380000202DE9FF5FFD
:104E800082B00021DDE90430020DDDF840B00343BB
:104E900018D044F61050A2F2FF3242431514119874
:104EA00001281FD0A5EB0B00401C5FEA000A4FF061
:104EB00000064E4FDFF83891B046504615D5CAF17E
:104EC000000413E0119801244AA3012801D16FEADC
:104ED0000B010298119AC0E90031C0E9024206B004
:104EE000BDE8F09FCBF10000DFE704460021404A17
:104EF000491842EB0450CDE9001012E0E00707D05A
:104F000032463B4640464946FBF76EFA80468946A4
:104F100032463B4610461946FBF766FA06460F46F0
:104F20006410002CEAD1DDE90401DDE90023BAF1C7
:104F3000000F06DAFBF758FA42464B46FBF754FAE5
:104F400005E0FBF7C3FA42464B46FBF7BFFA0446BF
:104F50000E460022284BFBF757FC03D84FF0FF30DA
:104F6000014607E00022254B20463146FBF795F924
:104F7000FBF732FC102409E0002C0ADB0A22002394
:104F8000FBF748F9039B30321A55641E50EA0102C0
:104F9000F2D1641C039AC4F111031444119A012A3A
:104FA00003D0012208430DD10AE0084304D00020B9
:104FB0004FF0110B119072E7A3EB0B056D1E0DE086
:104FC0005B4504DD4FF0000205F1010504E003DA62
:104FD0004FF00002A5F10105002AECD002981199CA
:104FE000C0E90231C0E9004579E700000000144043
:104FF0000000F03F300000000000F0430000E03F00
:105000002DE9FF4F95B09A46884606460025EEE109
:10501000252877D100242746F94A0121039400E08E
:10502000044316F8013F203B01FA03F01042F7D188
:1050300030782A2811D06FF02F033078A0F1300299
:10504000092A16D8039A44F0020402EB820203EB09
:1050500042021044761C0390EFE758F8042B0392A9
:10506000002A03DA504244F40054039044F002044E
:10507000761C30782E2816D116F8010F44F004045F
:105080002A280DD06FF02F023078A0F13003092BC1
:1050900009D807EB870302EB4303C718761CF3E735
:1050A00058F8047B761C30786C280FD006DC4C282E
:1050B00017D068280DD06A2814D104E0742810D0C5
:1050C0007A280FD10DE044F400140AE044F480146F
:1050D00001E044F440147278824202D104F5801455
:1050E000761C761C307866280BD013DC582877D0D5
:1050F00009DC002875D04528F6D04628F4D047288A
:105100001AD193E118E0632835D0642879D0652856
:1051100012D18BE1702873D008DC6728F1D06928A0
:105120006FD06E280DD06F2806D1ACE073282CD03C
:10513000752874D0782853D05246179990476D1C23
:1051400054E1C4F30250022809D003280DD0D8F846
:10515000001004280DD00D6008F1040846E1D8F8CD
:105160000010EA17C1E90052F6E7D8F800100D80E8
:10517000F2E70D70F0E718F8041B8DF8001000201E
:105180008DF80100EB46012003E058F804BB4FF016
:10519000FF3061074FF0000102D40DE009F1010179
:1051A0008946B9420FDA8145F8DB1BF8091000295E
:1051B000F4D108E009F1010189468142FADB1BF8CC
:1051C00009100029F6D103985346A0EB09072146A0
:1051D0003846179A00F080FA284400EB090507E0EA
:1051E00044E008E10DE01BF8010B52461799904787
:1051F000B9F10109F7D2534621463846179AF2E031
:1052000039E00A21C4F302524FF0000B0091022A48
:1052100006D058F8040BC117032A09D00AE023E08E
:1052200008F1070020F00702F2E80201904605E0CD
:1052300000B2C117042A01D140B2C117002906DA11
:105240000A460021404261EB02012D2202E02205C4
:1052500004D52B228DF80420012203E0E20701D0BF
:105260002022F7E7914657E00A2100E010214FF095
:10527000000B00910BE010214FF0000B44F00404F0
:105280000827009103E008204FF0000B0090C4F3C2
:105290000252022A05D058F8040B0021032A08D034
:1052A00008E008F1070020F00702F2E8020190464A
:1052B00003E080B2042A00D1C0B24FF000092207F7
:1052C0002AD53278702A07D0DDF800C08CF0100C97
:1052D0005CEA0B0C05D00EE040228DF80420012280
:1052E00008E050EA010306D030238DF804308DF831
:1052F000052002229146009B83F0080353EA0B032A
:105300000AD150EA010201D1620705D530228DF899
:1053100004204FF001097F1E3278582A04D039A2A8
:105320000C920CAA02920BE03BA2F9E75B46009AB2
:10533000FAF770FF0C9B9B5C029A521E029213704C
:1053400050EA0102F2D1029804A9081A00F1200BD8
:10535000600702D524F4803400E001275F4502DDB8
:10536000A7EB0B0000E0002000EB0B01009003987E
:105370004944401A0390E00306D453462146179A45
:10538000039800F0A9F90544002706E001A8524659
:10539000C05D179990476D1C7F1C4F45F6DBE003FD
:1053A0000CD553462146179A039800F095F9054409
:1053B00004E030205246179990476D1C0099481E12
:1053C00000900029F5DC08E0029802995246007826
:1053D000491C0291179990476D1CBBF10001ABF17C
:1053E000010BF1DC5BE100F065F90544761C3078D7
:1053F00000287FF40DAE19B02846BDE8F08F0000FC
:10540000092801003031323334353637383961629A
:10541000636465660000000030313233343536375E
:10542000383941424344454600000000600700D43B
:10543000062708F1070020F00700F0E80223804665
:1054400003F0004C5FEA0C0001D097A009E02005B2
:1054500001D596A005E0E00701D095A001E0AFF2EC
:105460004C001390307823F0004365280CD006DC04
:10547000452809D046281DD047287FD13BE0662823
:1054800018D067287AD136E00021112F01DB1120D6
:1054900000E0781CCDE9000104A90CA8FFF7EEFCA0
:1054A000DDE90D010C9A4FF0000B07F10109109294
:1054B00000914EE04FF000400097CDE9011004A9A3
:1054C0000CA8FFF7DBFCDDE90D020C9B0F994FF0F8
:1054D000000B91461093009211B9791C00EB010961
:1054E000B7EB090003D4C0F1FF3B07F10109A9EBB9
:1054F0000700019042E0012F00DA01270021112F5F
:1055000001DD112000E03846CDE9000104A90CA816
:10551000FFF7B4FCDDE90D010C9A00914FF0000B90
:10552000B946109221070FD4009A4A4503DA9146F2
:1055300001E0A9F10109B9F1010F05DD109AA9F106
:105540000101515C3029F4D0B84202DA10F1040FA5
:1055500003DA0121CDE9011010E0002803DC8344C7
:10556000A9EB000102E0411C494500DD8946A0EBA2
:105570000B00401C01904FF000400290200705D422
:105580000198484502DB4FF0FF30019000208DF874
:105590004B0002980DF14B07B0F1004F25D00220CF
:1055A0000C902B200D90029800280CDA40420290BB
:1055B0002D200D9007E00A210298FBF732F83031D8
:1055C000029007F8011D0C99481E0C900029F2DC8E
:1055D00002980028EFD1791E0D980870307800F0FD
:1055E000200040F0450007F8020D11A8C01BC01DA7
:1055F00002901398007800B1012000EB0901019896
:1056000001EBE071029801440398401A401E039098
:10561000E00306D453462146179A039800F05CF83D
:1056200005441398007818B15246179990476D1C9D
:10563000E00323D553462146179A039800F04CF80F
:1056400005441BE0BBF1000F07DB0098584504DD63
:105650001098179910F80B0001E017993020524666
:10566000904701980BF1010B401E05F101050190D7
:1056700004D12E205246179990476D1CB9F10001B4
:10568000A9F10109DEDC05E017F8010B5246179974
:1056900090476D1C0299481E02900029F4DC534685
:1056A0002146179A03989EE62D0000002B0000006B
:1056B000200000002DE9F041044600251E46174653
:1056C000880404D405E039462020B0476D1C641ED0
:1056D000F9D52846BDE8F0812DE9F04104460025C2
:1056E0001E469046C80301D5302700E020278804D5
:1056F00004D505E041463846B0476D1C641EF9D517
:105700002846BDE8F0810A68531C0B601070704792
:1057100013B54FF6FF73012269460248FDF724FDD9
:1057200000981CBD18020020FCF798FBFEF750F90A
:10573000FDF74CFFFDF700FFFDF7B0FFFDF7FCFFA5
:10574000FDF77CFFFDF724FFFDF7D0FFFDF782FE9C
:10575000012204490448FDF7C7FC00BFFFF7DEF84B
:10576000FCE70000000000201802002001000200F9
:105770000400060008000A000C0010002000400091
:105780008000000101010103070100000804020478
:1057900008010101000000000000000001020304F4
:1057A00006070809000000000102030417EB913707
:1057B000E415803650118E36B0029D362CF5AC368D
:1057C00031F5BD36C20CD0360B4AE3363BBBF7365B
:1057D0003DB40637E1311237665B1E37BE382B37D2
:1057E00029D038371B294737844B5637DB3E66377D
:1057F000480A7737F95A8437C7A48D37F366973745
:105800008EA5A137D464AC372DA9B737F876C33746
:10581000C7D2CF3764C1DC379C47EA37646AF837B0
:1058200041970338544C0B38F6561338A9B91B3836
:10583000287724380D922D38D90C373822EA403891
:10584000B32C4B385ED755381CED603846706C3839
:10585000D86378385C6582380ED488387D7F8F387D
:10586000096996382A929D3818FDA43859AAAC388F
:10587000C89CB43876D4BC383C54C538861DCE3864
:10588000F230D738ED90E038483FEA38B43CF4388D
:10589000A58BFE387996043994110A39AEB70F39C1
:1058A0009A89153941881B3993B421396C0F2839ED
:1058B0009F992E39F35335395D3F3C39B55C4339F7
:1058C000CEAC4A396930523949E859393DD5613948
:1058D00019F86939B3517239E5E27A3942D681391A
:1058E000B857863948F68A3962B28F39748C943940
:1058F000E1849939059C9E3936D2A339C727A93945
:105900000D9DAE396C32B43945E8B9390EBFBF3997
:1059100035B7C53930D1CB39630DD239156CD8398B
:1059200073EDDE39A391E539CA58EC395743F339A1
:10593000D051FA3986C2003AC46E043A892D083A29
:105940006AFE0B3A31E10F3A11D7133A4DE2173A9A
:1059500029FD1B3A3A2D203AF76F243A27C6283AF8
:10596000D12F2D3A08AD313AE43D363A7CE23A3A4D
:10597000DA9A3F3A1667443A3C47493A5C3B4E3A1A
:105980007F43533AB05F583AFA8F5D3A64D4623A33
:10599000F12C683AA4996D3A7D1A733A7BAF783A44
:1059A0009A587E3AEA0A823A91F3843A3FE6873A75
:1059B000EEE28A3A96E98D3A30FA903AB314943A84
:1059C0001839973A52679A3A569F9D3A16E1A03A8B
:1059D000842CA43A9381A73A32E0AA3A4E48AE3AD0
:1059E000D4B9B13AB034B53AD0B8B83A1B46BC3A9B
:1059F0007ADCBF3AD57BC33A1324C73A1CD5CA3ADE
:105A0000D18ECE3A1351D23AD01BD63AD2EED93AF1
:105A10001ACADD3A5AADE13A9498E53A9B8BE93AD5
:105A20003886ED3A5488F13ACF91F53A72A2F93AB4
:105A30001BBAFD3A4BEC003BE4FE023BBE14053BB7
:105A4000BE2D073BCD49093BD4680B3BBC8A0D3BBF
:105A50006AAF0F3BC3D6113BAE00143B112D163B72
:105A6000D15B183BD38C1A3BF9BF1C3B26F51E3B80
:105A70003B2C213B1A65233BA69F253BC0DB273BE4
:105A80004A192A3B25582C3B30982E3B4BD9303BAA
:105A9000551B333B2B5E353BABA1373BB4E5393B64
:105AA000222A3C3BD66E3E3BAEB3403B85F8423BA0
:105AB000373D453B9E81473B94C5493BF5084C3BF0
:105AC000A04B4E3B748D503B49CE523BF60D553B9F
:105AD0004C4C573B2E89593B7EC45B3B1AFE5D3BC9
