:020000040800F2
:10000000B83C0020F1010008F3390008433500082E
:10001000F1390008990B0008F94C000800000000B5
:100020000000000000000000000000005D3E00082D
:100030009B0B000800000000193C00085F3E000810
:100040000B0200080B0200080B0200080B0200085C
:100050000B0200080B0200080B0200080B0200084C
:100060000B0200080B0200080B0200080B0200083C
:100070000B0200080B0200080B0200080B0200082C
:100080000B020008000000000B0200080B02000831
:100090000B0200080B0200080B0200080B0200080C
:1000A0000B0200080B0200080B0200080B020008FC
:1000B0000B0200080B0200080B0200080B020008EC
:1000C0000B0200080B0200080B0200080B020008DC
:1000D0000B020008ED4C00080B0200080B020008A0
:1000E0000B0200080B0200080B0200080B020008BC
:1000F0000B0200080B0200080B02000800000000C1
:10010000000000000B020008000000000B020008C5
:100110000B020008000000000B0200080B020008A0
:100120000B0200080B0200080B0200080B0200087B
:100130000B02000800000000000000000B02000895
:100140000B0200080B020008000000000000000085
:10015000000000000000000000000000000000009F
:100160000000000000000000000000000B0200087A
:100170000B0200080000000000000000000000006A
:10018000000000000B02000800000000000000005A
:10019000000000000000000000000000000000005F
:1001A00000000000000000000B0200080B02000825
:1001B0000B0200080B0200080B0200080000000000
:1001C000000000000B02000800000000000000001A
:1001D0000B0200080B020008DFF810D000F06EFBE5
:1001E000004800474D690008AFF30080B83C00208C
:1001F0000648804706480047FEE7FEE7FEE7FEE7C1
:10020000FEE7FEE7FEE7FEE7FEE7FEE7E93E000861
:10021000D90100082DE9F05F0546002092469B4673
:1002200088460646814640241BE02846414647460C
:10023000224600F034FA53465A46C01A914110D370
:1002400011461846224600F01BFA2D1A67EB0108EA
:100250004F4622460120002100F012FA17EB000958
:100260004E41201EA4F10104DFDC484631462A46F7
:100270004346BDE8F09FD2B201E000F8012B491ED1
:10028000FBD270470022F6E710B513460A46044633
:100290001946FFF7F0FF204610BD2DE9FE4F8046BE
:1002A00081EA0300C00F0C46009021F0004123F0CA
:1002B0000045B8EB0200A94105D2404621469046D0
:1002C0001C460B46024623F00040104347D0270D42
:1002D000C7F30A00C3F30A510290401A0190402864
:1002E0006BDAC3F3130040F4801B0098924620B1F0
:1002F0000023D2EB030A63EB0B0B01985946C0F1C4
:100300004002504600F0BCF906460D46504659469C
:10031000019A00F0D4F910EB08006141002487EA4B
:10032000115284EAE7731A4340D0009A62B3019AEB
:10033000012A4FEA075215DC001B61EB02014FF066
:10034000004202EA0752CDE90042001C41F580114B
:1003500032462B4600F00BFA03B0BDE8F08F404662
:100360002146F9E7001B61EB0201001C41F58013F7
:1003700000185B412018A2F5001747EB030140EA83
:10038000D570B6196D4111E06D084FEA360645EAA1
:10039000C0754FEA0752001B61EB0201001C41F5DA
:1003A000801149084FEA30000019514132462B466E
:1003B00003B0BDE8F04F00F0CBB900980122400037
:1003C0000023D0EB020263EBE073009821464FEA72
:1003D000E074B8EB000061EB0401E9E783F000434F
:1003E0005BE781F0004158E72DE9FE4F81EA030405
:1003F00004F0004421F0004100944FF0000B23F082
:10040000004350EA01045ED052EA03045BD0C3F318
:100410000A54C1F30A552C44A4F2F3340194A0FB0E
:100420000254C1F3130141F48011C3F3130343F4E5
:10043000801301FB024400FB034E840A970A44EA3E
:10044000815447EA8357A4FB076802958D0A05FB90
:1004500007854FEA932C04FB0C542705029D4FEAB5
:10046000065847EA1637B5EB08056EEB070C870E02
:10047000920E47EA811742EA8312A7FB0201B6EB0C
:100480000B0164EB00042B0D43EA0C335E1844EBC4
:100490001C50DA465146E7FB0201C5F313044FEA4C
:1004A0000B3343EA14534FEA0432019C43EA060338
:1004B000A4F10C040294009CCDE900B400F057F9BB
:1004C00003B0BDE8F08F00200146F9E72DE9F04DBB
:1004D00081EA030404F0004B21F0004514464FF07C
:1004E000000A23F0004150EA050220D054EA01023C
:1004F0001DD0C5F30A570246C5F31303C1F3130019
:10050000C1F30A5640F4801543F48013A7EB0608A4
:10051000101BD64608F2FD3873EB050002D308F134
:10052000010801E092185B41B8F1000F03DA0020E6
:100530000146BDE8F08D00204FF480110646844648
:100540000EE0171B73EB050705D3121B63EB0503C6
:1005500006434CEA010C49084FEA300092185B410F
:1005600050EA0107EDD152EA030012D082EA0400FA
:1005700083EA0501084305D0101BAB4106D20122D6
:10058000002306E000224FF0004302E06FF001027A
:1005900053101AEB06004CEB085110EB0A0041EB2C
:1005A0000B01BDE8F04D00F0D3B80EB540F2334179
:1005B00002910021CDE900110A460B4600F0D7F860
:1005C00003B000BDC1F30A5210B5C1F3130140F2EC
:1005D000FF3341F480119A4201DA002010BD40F24D
:1005E00033439A42A2F2334203DC524200F057F8FE
:1005F00010BD904010BD00F0004230F000400AD025
:10060000C10D01F56071C0F3160042EA0151C20844
:1006100040071143704700200146704701F0004336
:1006200030B421F0004150EA010206D00A0DA2F5D3
:100630006072C1F31301002A02DC30BC0020704755
:10064000440F44EAC104C100E01830BC00EBC250C2
:1006500000F047B830B50B460146002020220124A7
:1006600009E021FA02F59D4205D303FA02F5491B80
:1006700004FA02F52844151EA2F10102F1DC30BD96
:10068000202A04DB203A00FA02F100207047914052
:10069000C2F1200320FA03F3194390407047202A47
:1006A00004DB203A21FA02F00021704721FA02F31C
:1006B000D040C2F120029140084319467047202AD9
:1006C00006DBCB17203A41FA02F043EAE07306E07A
:1006D00041FA02F3D040C2F120029140084319468A
:1006E00070470029A8BF7047401C490008BF20F090
:1006F0000100704710B4B0FA80FC00FA0CF050EA28
:10070000010404BF10BC704749B1CCF1200421FAA8
:1007100004F411FA0CF118BF012121430843A3EBA3
:100720000C01CB1D4FEA00614FEA102042BF0020B0
:1007300010BC704700EBC35010440029A4BF10BC8C
:100740007047401C490008BF20F0010010BC7047F2
:1007500010B5141E73F1000408DA401C41F10001C9
:1007600092185B411A4301D120F0010010BD2DE920
:10077000F04D92469B4611B1B1FA81F202E0B0FA17
:1007800080F220329046FFF77BFF04460F4640EA96
:100790000A0041EA0B0153465A46084313D011465A
:1007A00053EA010019D0C8F140025046FFF777FF25
:1007B00005460E46504659464246FFF761FF08433C
:1007C00005D0012004E020463946BDE8F08D002028
:1007D000054346EAE0762C4337430A986305E40A6A
:1007E000A0EB08000022FD0A44EA47540A3002D573
:1007F00000200146E9E7010510196941DDE90845D6
:1008000000196941BDE8F04DA2E770B521F0004341
:1008100003430CD0C1F30A550024D5EB040564EB67
:100820000403D617AD1AB34102DB0020014670BDA8
:10083000201841EB025170BD0EB5C10F80EAE07087
:100840000844CA07002140F233438DE80E000A46EF
:100850000B46FFF78CFF03B000BDC1F30A52C1F392
:10086000130140F2FF3341F480119A4202DA002072
:100870000146704740F233439A42A2F2334202DC0F
:100880005242FFF70CBFFFF7FBBE000030B5041E5D
:1008900071F1000404DB4FF00044404264EB0101BD
:1008A000141E73F1000405DB1C464FF00043524256
:1008B00063EB0403994208BF904230BD064C074DDC
:1008C00006E0E06840F0010394E807009847103420
:1008D000AC42F6D3FFF784FC48880008688800081B
:1008E0002DE9F04D00231A461B1A8A4103DB002034
:1008F0000146BDE8F08DC1F30A52C1F3130141F482
:1009000080154FF0000BD10702D100186D41521E27
:100910000027044640F2FF11384601EB620A3E46CA
:100920008046024600204FF48011FFF7B8FEC2193E
:100930007141BB1846EB0100B4EB030C75EB000CE6
:1009400004D3E41A65EB000517460E46241908F196
:1009500001006D4180463428E3DDF91946EB0600BD
:10096000091BA84103D24FF0FF32134601E00022D9
:1009700013461BEB070046EB0A51BDE8F04DFFF7AD
:10098000E7BE00001CB506A14FF47A73D1E900015F
:10099000CDE9000107226946034802F007F91CBDB2
:1009A000FFFFFFFFFFFFFF00140100202DE9F041D2
:1009B00000272DED028B84B0324D9FED300B009758
:1009C0000297019785ED000B4FF040084FF6FF743A
:1009D0008DF800804FF47A7602E000BF8DF8008039
:1009E000334601226946284802F0E0F833460122E6
:1009F00002A9254802F016F89DF80800000602D565
:100A0000641EA4B2EAD258208DF8000033460122B9
:100A100069461D4802F0CAF83346032201A91A4864
:100A200002F000F89DF804009DF8051038439DF889
:100A3000064041EA002144EA01249FED141B9FED8A
:100A4000150B04F06DFAB0EE408AF0EE608A04EB0C
:100A50008400FFF7AAFD53EC182BFFF737FD9FED3D
:100A60000F1B53EC112BFFF7B9FC41EC100B85ED7C
:100A7000000B04B0BDEC028BBDE8F081000000006B
:100A800000000000180000201401002000000000F9
:100A9000000038400000000000000040000000009E
:100AA00000000440F8B506460020009010201446CF
:100AB0000D468DF800004FF47A773B4601226946D7
:100AC000074802F073F88DF800608DF801508DF83A
:100AD00002403B4603226946014802F067F8F8BD30
:100AE00014010020F8B506460020009008201446A6
:100AF0000D468DF800004FF47A773B460122694697
:100B0000074802F053F88DF800608DF801508DF819
:100B100002403B4603226946014802F047F8F8BD0F
:100B20001401002070B504460068816811F0010FBF
:100B30002DD18168174A11421AD18168D5432940C5
:100B4000491C816000F09AFF06461BE0816811F0A5
:100B5000010F03D181682940491C816000F08EFF9C
:100B6000801B02280ED920680068C043C00709D046
:100B7000E06D40F01000E065206E40F0010020665E
:100B8000012070BD20680168C943C907DED100207B
:100B900070BD00003F000080FEE7704772B6FEE7C0
:100BA0002DE9F047044690F858009CB00E464FF0EF
:100BB0000009012815D0012084F858000025179558
:100BC000189520684FF0A04840450ED1284F009757
:100BD000384602F0A9FD8246206802F0A5FD60B10A
:100BE0000EE002201CB0BDE8F087E06D40F0200070
:100BF000E06584F858500120F4E7BAF1000F09D0FD
:100C0000E06D40F02000E0654FF0010984F8585095
:100C10004846E7E71748326840F61F71002A8268A5
:100C200022F4604216D094F8383042EA43327368B6
:100C30001A438260D8F80820BB6802F0010203F072
:100C400001031A43E2D1B36832681A4383688B43C5
:100C50001A430BE08260D8F80820BB6802F001025A
:100C600003F001031A43D1D182688A438260CDE741
:100C700000010050000300502DE9F84F0027044602
:100C8000009790F85800DFF8E0930D46B846012829
:100C900011D0012684F85860206802F041FD60B14F
:100CA000E06D40F02000E0655FF0010784F85880B7
:100CB0003846BDE8F88F0220FBE7D5E900210C2378
:100CC000206803EA91131844036B01F01F014FF0F1
:100CD0001F0C0CFA01FCC2F3846223EA0C038A4065
:100CE00013430363206802F01BFD8246206802F074
:100CF00013FD5AEA00003CD1AA6829682068B2F1C5
:100D0000004F37D002F01CFD2068416921F00041FE
:100D1000416120686969C268C2F3C1025200914012
:100D20002A69042A31D000EB82002B68026EDFF8BA
:100D30003CC303F0F84302EA0C020B431A4342F0AF
:100D40000041016620682A69A96900EB8200026EF1
:100D500022F080720A430266297F226828690129ED
:100D600010D0002102EB8000026E22F000720A43D4
:100D700002667DE0002202F0E3FC2068416941F058
:100D80000041C5E74FF00071ECE7002102F0BEFC26
:100D9000400320684FF0000172D002F0B7FC90FAD7
:100DA000A0F0B0FA80F1286842036ED090FAA0F06B
:100DB000B0FA80F0814204D100221146206802F08E
:100DC000CEFC0121206802F0A1FC400320684FF016
:100DD00001015DD002F09AFC90FAA0F0B0FA80F127
:100DE0002868420359D090FAA0F0B0FA80F081420E
:100DF00004D100220121206802F0B1FC0221206808
:100E000002F084FC400320684FF0020148D002F059
:100E10007DFC90FAA0F0B0FA80F12868420344D03B
:100E200090FAA0F0B0FA80F0814204D100220221B1
:100E3000206802F094FC0321206802F067FC400364
:100E400020684FF0030133D002F060FC90FAA0F06C
:100E5000B0FA80F1286842032FD090FAA0F0B0FADF
:100E600080F0814204D100220321206802F077FC47
:100E70002068816811F0010F22D0ACE000E004E0AE
:100E800002F044FCC0F384618DE7C0F3846091E715
:100E900002F03CFCC0F38461A2E7C0F38460A6E7E3
:100EA00002F034FCC0F38461B7E7C0F38460BBE7B1
:100EB00002F02CFCC0F38461CCE7C0F38460D0E77F
:100EC0002A7B296850F8B03FC1F3120C23EA0C03C7
:100ED00002F0180C664A22FA0CF20A40134303602F
:100EE000E968494577D1286841031CD090FAA0F100
:100EF000B1FA81F1491C01F01F0109294FEA403183
:100F000032D8002912D000BF90FAA0F1B1FA81F1D5
:100F100001F1010101F01F0106FA01F609D100BF3C
:100F2000C0F3846109E0C0F38461E3E7C0F3846146
:100F3000EEE790FAA0F1B1FA81F101F1010101F0BF
:100F40001F0146EA816102D1C0F3846003E090FA98
:100F5000A0F0B0FA80F000F1010000F01F0000EBFB
:100F6000400041EA005132E000290ED090FAA0F191
:100F7000B1FA81F101F1010101F01F0106FA01F658
:100F800006D100BFC0F3846106E0C0F38461F1E7DD
:100F900090FAA0F1B1FA81F101F1010101F01F0114
:100FA00046EA816102D1C0F3846003E090FAA0F0C8
:100FB000B0FA80F000F1010000F01F002D4A00EBB4
:100FC000400002EB005041EA000141F00071AA68C4
:100FD000206802F0B5FB28482A6802423FF466AE5A
:100FE00026488168264B01F0E0719A4202D0254BD9
:100FF0009A421CD10B021AD42268B2F1A04F7FF49E
:1010000055AE826841F4000122F0E0720A4382602A
:101010001D481E490068B0FBF1F0401C00EB400089
:10102000800000E0401E00900028FBD13EE6184DF5
:10103000184BAA4207D1CD0105D422689A42F5D0B7
:1010400041F0807109E0144DAA42EFD14A02EDD47B
:1010500022689A42EAD041F48001826822F0E0726C
:101060000A43826022E6000000007F4000F0FF0398
:10107000FFFF0700000020FE000008800003005072
:10108000000021C31000C09010000020400D03009C
:10109000000052C700010050000084CB0068006CC3
:1010A00070470000F8B54FF0000504002E4600958B
:1010B00002D0E06D10B107E00120F8BD204600F03D
:1010C000EFF8266684F8586020688168C1F34071A3
:1010D00019B181686A4A1140816020688168C1F352
:1010E000007189B98168674A114041F0805181607F
:1010F000654866490068B0FBF1F04000801C00E0E4
:10110000401E00900028FBD120688168C1F3007167
:1011100041B9E16D41F01001E165216E41F001013D
:101120002166012502F0FCFAE16DC90600D430B158
:10113000E06D40F01000E06501252846F8BDE06D47
:1011400020F4807040F00200E0652068806810F0B4
:10115000010F11D14FF0A04080684D4900F001000F
:10116000896801F00101084306D14A486168826834
:1011700022F47C120A438260E168E06B627F0843DC
:10118000A16841EA4231084394F8241040EA014042
:10119000012904D1218D404A02EB41410843E16A13
:1011A00029B101F47871226B014342EA0100216800
:1011B000CA683A4B1A400243CA6020680169626BF0
:1011C00021F0406111430161206802F0A9FA06464E
:1011D000206802F0A1FA30432ED1207F94F8381015
:1011E000800340EA41022068C16844F20203994347
:1011F0001143C16020690028206801690AD041F4C8
:1012000080310161206850F8C01F22696FF30D0121
:10121000114307E021F480310161206850F8C01FBC
:101220006FF30D01016094F8400001280CD0206894
:10123000016921F001010161606901282068016BE9
:1012400021F00F0111D013E0D4E911010843D4E9D2
:1012500013121143084321680A6940F2FC739A4350
:10126000104340F001000861E6E7226A521E114374
:101270000163E06D20F0020040F00100E0655CE7F2
:10128000C0FFFF5FC0FFFF7F10000020400D030084
:1012900000010050000300500000FEFF0740F0FF77
:1012A00010B586B0044614216846FEF7EBFF2068AF
:1012B000B0F1A04F1BD10F48C16C41F40051C16483
:1012C000C16C01F400510591C16C41F00101C16490
:1012D000C06C694600F001000590012000900320D9
:1012E0000190002002904FF0904000F0DDFA06B02F
:1012F00010BD0000001002402DE9F04104463B48BB
:101300000F46816801F01F05A16908290FD085B13A
:10131000052D0ED0092D0CD0806800F4604060B11E
:10132000E06D40F02000E0650120BDE8F081082676
:1013300004E02068C068C007F1E7042600F09EFBC7
:10134000804615E0781C13D000F098FBA0EB080055
:10135000B84200D867B920680068304208D1E06D13
:1013600040F00400E065002084F858000320DCE72A
:10137000206800683042E5D0E06D40F40070E06520
:10138000206802F0D5F980B1607F70B920680068EC
:1013900000070AD5E06D20F48070E065E06DC004C0
:1013A00003D4E06D40F00100E065114A20684FF081
:1013B000A041904201D10B4600E00346834210D089
:1013C0007DB1052D0DD0092D0BD0904200D00146E6
:1013D000C968082E07D0490401D40C2101600020FF
:1013E000A3E7C168F5E70821F8E700000003005013
:1013F000000100502DE9F04104463848806800F0B3
:101400001F05206802F08CF918B102210846BDE8DA
:10141000F08194F8580001280CD0012084F858007D
:101420002046FFF77FFB01004FF0000304D084F853
:101430005830EBE70220EAE7E06D40F601629043A6
:1014400040F48070E065264A20684FF0A046904244
:1014500001D1374600E00746874200D01DB9E76D4D
:1014600027F48017E765E76DFF0404D5276E27F0A2
:101470000607276600E023661C27076084F85830BB
:101480002068904201D1334600E00346834215D0E4
:10149000A5B1052D12D0092D10D0E36D43F48013B2
:1014A000E365904200D13046C0688001AED5E06D62
:1014B00020F4005040F48050E065A7E7C268920134
:1014C00005D5E26D22F4005242F48052E265826852
:1014D000044B1A40121D826098E700000003005080
:1014E00000010050C0FFFF7F2DE9F047044640791E
:1014F00090460D4601280BD04FF0010984F8059065
:1015000002202071A96808F01006042903D045E0E4
:101510000220BDE8F08700F0B1FA07465FEA080054
:101520004FF0030805D01CE000F0A8FAC01B01280A
:101530000FD82068406B0004F6D4012000F0A2F917
:101540002168686A086416E000F098FAC01B012858
:1015500007D9206940F00800206184F80480032046
:10156000D7E72068406B0028EEDB012000F08AF905
:101570002168686A48642068816C40F2FF32B2409A
:101580009143AA6AB240114381642068C16CFF2272
:10159000B2409143EA6AB2401143C164E86901284C
:1015A00008D12268916B1F20B0408143286AB04067
:1015B000084390632068C06B0721B1408843A96944
:1015C000012903D0022955D06969E9B300216B696B
:1015D000AA681A430A434FF4807101FA06F398434C
:1015E0002B79012B00D0002111434FF4007202FA35
:1015F00006F398436B79012B00D0002220F440477A
:10160000286842EA0108022836D00743216808FA10
:1016100006F03843C863206801684FF48042B24046
:10162000914301602268116840F6FE70B04081432A
:10163000E868B0400843106020680168C022B240EA
:1016400091430160287B00E014E0297C2268C0F30C
:10165000830001F03C0140EA8110116E40F60F73E7
:10166000B3409943B0400143116684F804900020D0
:1016700060714EE70121AAE700F0C8FE05498842E3
:1016800002D947F40047C1E703498842BED947F46D
:101690008047BBE70068890900B4C40470B5040042
:1016A00003D02079002510B105E0012070BD6571DF
:1016B000204600F007F802202071256101202071EA
:1016C000002070BD10B586B0044614216846FEF7B0
:1016D000D9FD1149206888421BD11048C16C41F4E2
:1016E0008031C164C16C01F480310591C16C41F05D
:1016F0000101C164C06C694600F001000590102032
:10170000009003200190002002904FF0904000F0E4
:10171000CBF806B010BD00000008005000100240D9
:1017200018B50068C46B0090104421B114300090CB
:101730000360002018BD0830F9E72DE9F0410446A8
:1017400040790D46012822D04FF0010884F8058029
:101750000226267121680A6805F0100708FA07F0CA
:1017600002430A60404600F08DF82068016885B1A8
:1017700001F47811BE40B14203D1416841F0020149
:10178000416084F8048000206071BDE8F08102208F
:10179000FBE7C1F344010129F3D1416841F00101A4
:1017A000EEE710B590F8253000210122022B03D07E
:1017B0000421C163012122E003681C6824F00E04A7
:1017C0001C60836C1C6824F480741C6003681C68B3
:1017D00024F001041C6090F84430046C03F01F03F3
:1017E00002FA03F36360D0E913345C60436D33B1F4
:1017F0001C6824F480741C60D0E916345C6080F8A6
:101800002520002280F82420084610BD70B590F8ED
:101810002520002401212346022A07D00422C26386
:1018200080F8251080F82430012429E0026815682A
:1018300025F00E0515600268156825F00105156094
:10184000826C156825F48075156090F84420056C4D
:1018500002F01F0201FA02F26A60D0E91325556016
:10186000426D32B1156825F480751560D0E91625F2
:10187000556080F8251080F82430816B01B18847CD
:10188000204670BD70B5044600F0F8F80546601CAF
:1018900002D004484068044400F0F0F8401BA04225
:1018A000FAD370BD040000202DE9FC4FDFF8A0A1A1
:1018B000002301250AF1040B03244FF00F0C0BF158
:1018C000040EBDE005FA03F632406FD04F68012FD9
:1018D00005D0022F03D0112F01D0122F17D1D0F82D
:1018E00008905F0004FA07F829EA08090097D1F880
:1018F0000C8008FA07F848EA0908C0F80880476829
:10190000B7430E79C6F300169E403E434660C66854
:101910004FEA430804FA08F7BE4301978F6807FAB5
:1019200008F73743C7604E68022E01D0122E13D13C
:10193000DE0800EB86060096366A5F07FF0E0CFA9B
:1019400007F926EA0906D1F8109009FA07F949EAD9
:101950000609009EC6F820900668019FBE430F79D5
:1019600007F0030707FA08F7374307604E68F600E9
:1019700065D5384E376E47F001073766366E23F06F
:10198000030706F001060096334E3E44B146B668A2
:101990009F074FEA17780CFA08F7BE43B0F1904F53
:1019A00005D02E4FB84204D1012717E047E00027A9
:1019B00014E02B4FB84201D102270FE0294FB84263
:1019C00001D103270AE0284FB84201D1042705E0DE
:1019D000264FB84201D1052700E0062707FA08F78D
:1019E0003743C9F80870DAF800605746D1F8048028
:1019F00096435FEAC83800D516433E60DBF80060C6
:101A00005F46D1F8048096435FEA883800D51643D4
:101A10003E60DEF800607746D1F8048096435FEAC6
:101A2000C82800D516433E60094F0C373E68D1F8F0
:101A3000048096435FEA882800D516433E605B1C0D
:101A40000A6832FA03F67FF43DAFBDE8FC8F000070
:101A50000004014000100240000001400004004862
:101A600000080048000C004800100048001400481E
:101A70000AB1816170478162704700000148806847
:101A8000704700000400002090F84120202A24D153
:101A900090F84020012A20D0012280F84020242202
:101AA00080F841200268136823F001031360026884
:101AB000136823F480531360026813680B431360A8
:101AC00001680A6842F001020A60202180F8411092
:101AD000002180F84010084670470220704790F8B7
:101AE0004120202A22D190F84020012A1ED0012234
:101AF00080F84020242280F841200268136823F0F7
:101B0000010313600268136823F4706343EA012140
:101B1000116001680A6842F001020A60202180F821
:101B20004110002180F8401008467047022070479D
:101B300070B5040004D094F84100002510B106E00F
:101B4000012070BD84F84050204600F0DFF82420CA
:101B500084F841002068016821F00101016060689B
:101B6000216820F0706008612068816821F40041DC
:101B70008160E0680128A06807D040F40440216833
:101B80008860E068022803D006E040F40040F6E7F1
:101B900021684FF40060486020684168114A114391
:101BA00041602068C16821F40041C160D4E90401AA
:101BB0000843A16940EA01202168C860D4E907010F
:101BC0000843216808602068016841F00101016054
:101BD0006564202084F84100256384F84250002089
:101BE00070BD0000008000022DE9F84F044690F817
:101BF0004100DDF828A01F4690468B4620287ED164
:101C000094F8400001287AD0012084F84000FFF7C2
:101C100035FF0646012200901923D103204601F02A
:101C2000FBFCE0BB212084F84100102084F8420036
:101C300000256564C4F8248067856563618D31483B
:101C4000FF274FF080784FF00079FF2903D92785CF
:101C50003A46009039E0618D218500903AE059467E
:101C6000204601F0C3FC13E001F028FDB8B9606A1A
:101C7000216800788862606A401C6062608D401E46
:101C80006085208D401E80B22085618D01B168B1D4
:101C9000608D3246002851462046E5D100E002E042
:101CA00001F0E6FCD0B10120BDE8F88F53460022D8
:101CB00080212046009601F0AFFC0028F3D1608D12
:101CC000FF2804D927853A4600954346C7E7608D2B
:101CD0002085009594F828204B46C0E721682020F5
:101CE000C86121684A68084B1A404A6084F841007C
:101CF00084F8425084F840500020D5E7FFE70220E6
:101D0000D2E700000020008000E800FEF0B587B0B8
:101D1000044614216846FEF7B5FA1B49206888423C
:101D20002FD11A4CE06C40F00100E064E06C00F050
:101D300001000590E06C40F00200E064E06C1226C7
:101D400000F002000590C81300900025CDE9016560
:101D50000427CDE903576946B006FFF7A5FD8020AB
:101D60000090CDE90165CDE9035769460848FFF7C2
:101D70009BFDA06D40F40010A065A06D00F4001064
:101D8000059007B0F0BD0000005400400010024074
:101D9000000400480248816842681144816070472D
:101DA0000400002010B50024032000F073F80F2079
:101DB00000F008F808B1012401E000F025F8204601
:101DC00010BD000070B50E4E05460024706898B135
:101DD0004FF47A71B1FBF0F00A490968B1FBF0F0F9
:101DE00001F0D9F840B9102D06D200222946501E24
:101DF00000F030F8356000E00124204670BD00009E
:101E000004000020100000200A4882B0016E41F05A
:101E100001010166016E01F001010091816D41F047
:101E200080518165806D00F08050009002B000F01C
:101E3000B3B8000000100240002809DB00F01F02C8
:101E4000012191404009800000F1E020C0F800111C
:101E500070470000F0B40E4B1B680C46C3F302231E
:101E6000C3F10705042D00D90425191D072901D246
:101E7000002300E0DB1E012606FA05F1491E214081
:101E800099409E40761E16403143F0BC03F037B8AF
:101E90000CED00E0064900F0070208684FF6FF036A
:101EA000184040EA0220034A1043086070470000CF
:101EB0000CED00E00000FA05BFF34F8F0548016804
:101EC000054A01F4E06111430160BFF34F8F00BF89
:101ED000FDE700000CED00E00400FA052B492C4B57
:101EE0000A6832214A432B4940B1B0F5007F0868A7
:101EF00029D020F4C06040F480602CE00868C0F372
:101F00004120022804D051F8800F20F4807022E094
:101F1000D1F8800020F48070C1F88000086820F4B7
:101F2000C06040F400700860B2FBF3F0401C00E0B9
:101F3000401E4A69520501D50028F9D1486940057B
:101F40000AD503207047C0F34120022806D051F87B
:101F5000800F40F48070086000207047D1F8800046
:101F600040F48070C1F88000086820F4C06040F43C
:101F700000700860B2FBF3F0401C00E0401E4A69AC
:101F80005205DBD50028F9D1D8E700001000002069
:101F900040420F00007000400248816841F48041D7
:101FA00081607047007000402DE9F84304460068E6
:101FB00000269D4D00035ED5A86D0027C00008D403
:101FC000A86D40F08050A865A86D012700F08050F2
:101FD0000090DFF85892D9F8001041F48071C9F8E8
:101FE0000010FFF74BFD804606E000BFFFF746FDFF
:101FF000A0EB080002282BD8D9F80000C005F5D5C1
:10200000D5F8900010F4407014D0216C814211D0AA
:10201000D5F89000D5F8901020F4407041F480314C
:10202000C5F89010D5F8901021F48031C5F89010C3
:10203000C5F89000C00711D0FFF720FD804641F29F
:10204000883907E0FFF71AFDA0EB0801494501D9DF
:1020500003260BE0D5F890008007F3D5D5F8900063
:10206000216C20F440700843C5F890001FB1A86DA2
:1020700020F08050A8652078C00707D0D5F88800E8
:10208000616820F003000843C5F8880020788007C5
:1020900007D5D5F88800A16820F00C000843C5F8E2
:1020A00088002078400707D5D5F88800E16820F03F
:1020B00030000843C5F888002078000707D5D5F818
:1020C0008800216920F0C0000843C5F88800207806
:1020D000800607D5D5F88800616920F44060084380
:1020E000C5F888002078400607D5D5F88800A16992
:1020F00020F440500843C5F888002078000607D532
:10210000D5F88800E16920F440400843C5F888000C
:102110002088C00507D5D5F88800216A20F4403012
:102120000843C5F888002088800507D5D5F88800C1
:10213000616A20F440200843C5F8880020884005E3
:102140000FD5D5F88800A16A20F440100843C5F8DF
:102150008800A06AB0F5801F03D1E86840F48010C1
:10216000E860208800050FD5D5F88800E16A20F4E2
:1021700040000843C5F88800E06AB0F5800F03D13D
:10218000E86840F48010E8602088C0040FD5D5F8D6
:102190008800216B20F040700843C5F88800206B50
:1021A000B0F1807F03D1E86840F48010E8602088B7
:1021B0004FF0006180040ED5D5F88800626B20F0E6
:1021C00040601043C5F88800606B884203D1E8681E
:1021D00040F48010E860208840040ED5D5F88800CF
:1021E000A26B20F040601043C5F88800A06B8842C5
:1021F00003D1E86840F48010E860208800040FD51F
:10220000D5F88800E16B20F040500843C5F88800FD
:10221000E06BB0F1805F03D1E86840F48030E860A3
:102220003046BDE8F8830000001002400070004016
:102230002DE9F0470E4605004FF0000725D0DFF8E6
:10224000AC81D8F8000000F00F00B0420CD2D8F8F2
:10225000001021F00F013143C8F80010D8F8000039
:1022600000F00F00B04210D12968614CC80741F25C
:10227000883A5AD06868DFF87C91032808D0022891
:1022800020682DD0400500282CDB0120BDE8F08718
:1022900020688001F9D5E06800F00302E068C0F32F
:1022A0000310401C032A19D0534A00BFB2FBF0F0C0
:1022B000E268C2F306225043E268C2F34162521C54
:1022C0005200B0FBF2F0484517D9A06810F0F00FAB
:1022D0000CD0880711D5A86840B10EE0474AE5E761
:1022E0008003D0E700F0BCF8484506D9A06820F08C
:1022F000F00040F08000A0608027A068696820F0AE
:1023000003000843A060FFF7B9FB814606E000BF69
:10231000FFF7B4FBA0EB090151453AD8A068696802
:1023200000F00C00B0EB810FF2D12868810714D5C2
:10233000400703D5A06840F4E060A060287800075B
:1023400005D5A06820F4605040F4E060A060A0686B
:10235000A96820F0F000084304E0802F03D1A068B2
:1023600020F0F000A060D8F80010404601F00F0106
:10237000B14216D9016821F00F0131430160FFF726
:102380007DFB074607E000BFFFF778FBC11B514507
:1023900001D903207AE7D8F8000000F00F00B0421E
:1023A000F2D12878400705D5A068E96820F4E060FC
:1023B0000843A0602878000706D5A068296920F4A2
:1023C000605040EAC100A06000F04AF8A1680C4AE1
:1023D000C1F30311515C01F01F01C84009490860B5
:1023E00009480068BDE8F047FFF7ECBC0020024058
:1023F0000010024000B4C4040024F40000127A006B
:102400001E6A000810000020040000200148006837
:1024100070470000100000200548064900688968E0
:10242000054AC1F30221515C01F01F01C840704709
:1024300010000020001002402E6A000805480649DE
:1024400000688968054AC1F3C221515C01F01F018F
:10245000C840704710000020001002402E6A00089B
:10246000184910B58868C0F381021748012A0BD0BB
:102470008A684310C2F38102022A06D08A68C2F336
:102480008102032A03D0002010BD184610BDCA687F
:1024900002F00304CA68C2F30312521C032C02D0D8
:1024A000B0FBF2F001E0B3FBF2F0CA68C968C2F316
:1024B00006225043C1F34161491C4900B0FBF1F0D1
:1024C00010BD0000001002400024F4002DE9F84384
:1024D00004007AD02078FA4DC00747D0A868E96890
:1024E00000F00C0001F003010C2802D0082817D0DE
:1024F00001E0032914D06068B0F5803F17D0B0F533
:10250000A02F286817D020F480302860286820F495
:10251000802028606068E0B1FFF7B0FA064614E05A
:102520002868800322D560680028D2D01EE0286881
:1025300040F48030EDE740F480202860F7E700BFEA
:10254000FFF79CFA801B642870D828688003F7D5B1
:102550000CE0FFF793FA064605E000BFFFF78EFA9E
:10256000801B6428F0D828688003F7D4207880077F
:102570004CD5A868E96800F00C0001F003010C28B4
:1025800002D004280DD001E002290AD0E06800281A
:1025900028682BD040F480702860FFF76FFA064659
:1025A00019E02868400502D5E068002891D06868E5
:1025B000217C20F0FE4040EA01606860C14800686C
:1025C000FFF700FC002800D120E076E1FFF756FA83
:1025D000801B0228B8D828684005F7D56868217C98
:1025E00020F0FE4040EA016068600FE020F4807057
:1025F0002860FFF743FA064605E000BFFFF73EFA02
:10260000801B0228A0D828684005F7D4207800074E
:1026100029D560690028D5F8940013D040F0010056
:10262000C5F89400FFF72AFA064606E090E000BFDE
:10263000FFF724FA801B022886D8D5F8940080077B
:10264000F6D510E020F00100C5F89400FFF716FA67
:10265000064604E0FFF712FA801B022878D8D5F866
:1026600094008007F6D42078400761D5A86D002635
:10267000C00008D4A86D40F08050A865A86D012660
:1026800000F08050009090480168C90511D401689D
:10269000804641F480710160FFF7F0F9074604E0DD
:1026A000FFF7ECF9C01B022852D8D8F80000C0058B
:1026B000F6D5A068012815D00528D5F8900016D0C9
:1026C00020F00100C5F89000D5F8900020F004003B
:1026D000C5F89000A06841F28838B8B1FFF7CEF98C
:1026E00007460EE0D5F8900040F00100F0E740F01A
:1026F0000400C5F89000F5E7FFF7C0F9C11B41459C
:1027000026D8D5F890008007F6D50CE0FFF7B6F98B
:10271000074604E0FFF7B2F9C11B414518D8D5F8C8
:1027200090008007F6D41EB1A86D20F08050A865F7
:102730002078800629D5A0690028D5F8980013D004
:1027400040F00100C5F89800FFF798F9064606E04A
:1027500077E000BFFFF792F9801B022877D8D5F801
:1027600098008007F6D510E020F00100C5F8980029
:10277000FFF784F9064604E0FFF780F9801B022882
:1027800065D8D5F898008007F6D4E069F0B3A96859
:10279000C1F38101032961D00228286820F08070EC
:1027A00028600BD0E86820F00300E860E86847493B
:1027B0000840E860FFF762F904464BE0FFF75EF976
:1027C000064604E0FFF75AF9801B02283FD8286824
:1027D0008001F7D4F4E908016FF00F0202EB011158
:1027E0000843218A5204490802EB4151A26841EA98
:1027F00002210843217D4FF07E42490802EB4161EE
:102800000843217B40EAC160E96800E062E0304AA9
:1028100011400843E860286840F080702860E8684C
:1028200040F08070E860FFF729F9044605E000BF3A
:10283000FFF724F9001B022809D828688001F7D582
:1028400048E004E0FFF71AF9001B022802D9032030
:10285000BDE8F88328688001F4D43BE00128F7D074
:10286000E868226A00F00301914226D1616A00F013
:10287000F0020901103991421FD1A26A00F4FE4111
:10288000B1EB022F19D194F82C2000F07841B1EB74
:10289000C26F12D1218E00F4C00249084905A1F58A
:1028A0000011914209D194F8341000F0C060490839
:1028B0004906A1F1007181420CD00120C8E7000057
:1028C000001002400400002000700040FFFFEEFEF8
:1028D0000C809F010020BBE770B5040009D0606A3E
:1028E000002540B125616561A56294F85D0040B1A5
:1028F0000CE0012070BD6068B0F5827FF4D0E56126
:10290000F2E784F85C50204600F05CF8022084F87E
:102910005D002068016821F040010160E1684FF42A
:10292000E062914201D9002001E04FF48050B1F5FE
:10293000706F02D0914200D0A562A188228901F473
:10294000827102F404421143227C02F0020211431C
:10295000227D02F001021143228B02F40072114326
:10296000227F02F03802114394F8202002F0800206
:102970001143228D02F40052114322681160A169B3
:10298000042202EA114194F8242000F4805002F05D
:102990001002114394F8342002F008021143A28976
:1029A00002F4706211430143206841602068C169EC
:1029B00021F40061C1612566012084F85D000020DA
:1029C00070BD000010B586B0044614216846FDF7BE
:1029D00059FC1249206888421ED11148016E41F409
:1029E00080510166016E01F480510591C16C41F086
:1029F0000101C164C06C694600F001000590E0204F
:102A00000090022001900020029003900520049085
:102A10004FF09040FEF748FF06B010BD0030014077
:102A2000001002402DE9F84F044640680025984602
:102A300016460F464FF0040BB0F5827F01D1A06817
:102A400088B194F85C00012818D0012084F85C005B
:102A5000FFF714F8814694F85D004FF0000A012852
:102A60000ED0022599E084F85DB013460A46204650
:102A7000CDF8008000F05EF9BDE8F88F0220FBE79A
:102A8000002F77D0002E75D084F85DB0C4F860A018
:102A90002764A4F84460A4F84660C4F838A0A4F8F9
:102AA0003CA0A4F83EA0C4F84CA0C4F850A0E06834
:102AB0004FF4E06188422068426802D922F48052D3
:102AC00001E042F480524260A068B0F5004F09D1A5
:102AD0002068026822F0400202602068026822F446
:102AE0008042026020680268520603D4026842F005
:102AF00040020260E06888421DD93FE0206881689A
:102B0000C9070BD0017B206C0170206C401C206435
:102B1000B4F84600401EA4F846000CE0FEF7AEFFF5
:102B2000A0EB0901414503D3B8F1FF3F03D03BE0DF
:102B3000B8F1000F38D0B4F846000028DED121E00B
:102B400020688168C9070BD0C068216C0880206CA0
:102B5000801C2064B4F84600401EA4F846000DE036
:102B6000FEF78CFFA0EB0901414504D3B8F1FF3F0C
:102B700004D019E010E0B8F1000F15D0B4F8460009
:102B80000028DDD14A464146204601F046F808B10A
:102B900020202066206E00B10125012084F85D0010
:102BA00084F85CA0284667E70325F6E72DE9F84F8F
:102BB000044690F85C0000271D4616468946012809
:102BC0000DD04FF0010B84F85CB0FEF757FF804644
:102BD00094F85D00BA46012804D00227A4E0022040
:102BE000BDE8F88FB9F1000F74D0002E72D0032029
:102BF00084F85D00C4F860A0C4F83890A687E68722
:102C0000C4F840A0A4F844A0A4F846A0C4F850A07A
:102C1000C4F84CA0A068B0F5004F09D12068016845
:102C200021F0400101602068016841F480410160A9
:102C300020680168490603D4016841F04001016041
:102C4000E068B0F5E06F606823D908B1012E1CD1AF
:102C5000A06B21680088C86006E020688168890749
:102C600009D5A16B0988C160A06B801CA063E08FAF
:102C7000401EE08709E0FEF701FFA0EB0800A84234
:102C800002D3681C01D046E0ADB3E08F0028E4D148
:102C900036E008B1012E30D1E08F0128A06B03D9B6
:102CA00021680088C8600FE021680078087314E08C
:102CB000E08722E020688168890714D5E18F012927
:102CC000A16B08D90988C160A06B801CA063E08F4C
:102CD000801EEDE727E009780173A06B401CA0631C
:102CE000E08F401EE4E7FEF7C9FEA0EB0800A84213
:102CF00002D3681C01D00EE06DB1E08F0028D9D15D
:102D000042462946204600F0C2FF08B12020206636
:102D1000A06810B105E0032706E02068C16880685C
:102D20000090206E00B1012784F85DB084F85CA0AB
:102D3000384655E72DE9F05F044690F85C0000271F
:102D40000A9E1D4692468B464FF0010901280ED07F
:102D5000012084F85C00FEF791FE804694F85D0047
:102D6000616801280CD0B1F5827F07D102E0022012
:102D7000BDE8F09FA16809B9042801D0022700E14D
:102D8000BBF1000F24D0BAF1000F21D005B394F8A5
:102D90005D00042802D0052084F85D000020206634
:102DA000C4F840A0A4F84650A4F84450C4F838B081
:102DB000E587A587E0642065E0684FF4E06188421C
:102DC00001D8012D06D92068426822F4805205E01E
:102DD0000127D6E02068426842F4805242602068B1
:102DE0000268520603D4026842F040020260E068C2
:102DF0008842606845D908B1012D3AD1A06B21689D
:102E00000088C860A06B801CA063E08F401EE08734
:102E10002FE02068816889070FD5E18F69B1B9F18A
:102E2000010F0AD1A16B0988C160A06B801CA0634F
:102E3000E08F401EE0874FF0000920688168C907D5
:102E40000FD0B4F8461061B1C068216C0880206CC6
:102E5000801C2064B4F84600401EA4F846004FF0E1
:102E60000109FEF70BFEA0EB0800B04201D3701C75
:102E700075D1E08F0028CCD1B4F846000028C8D125
:102E800076E008B1012D6CD1E08F0128A06B08D944
:102E900021680088C860A06B801CA063E08F801E42
:102EA00007E0216800780873A06B401CA063E08FE6
:102EB000401EE08755E02068816889071AD5E18FB8
:102EC000C1B1B9F1010F15D1E18F0129A16B07D96A
:102ED0000988C160A06B801CA063E08F801E06E0A3
:102EE00009780173A06B401CA063E08F401EE0874F
:102EF0004FF0000920688168C90728D0B4F846104F
:102F000029B3B4F84610012914D9C068216C08808F
:102F1000206C801C2064B4F84600801EA4F8460093
:102F2000B4F84600012810D82068416841F4805167
:102F300041600AE0007B216C0870206C401C20641A
:102F4000B4F84600401EA4F846004FF00109FEF711
:102F500095FDA0EB0800B04202D3701C01D018E030
:102F6000BEB1E08F0028A6D1B4F846000028A2D157
:102F700042463146204600F08AFE10B1012720204B
:102F80002066012084F85D00002084F85C0038464B
:102F9000EEE60327F5E710B5401EB0F1807F01D3C0
:102FA000012010BD4FF0E02460610F21601701F097
:102FB000A6FF0020A06107202061002010BD90F82E
:102FC0008010012918D0012180F880102421C0F838
:102FD000841050F8641B0A680B6823F001030B602F
:102FE00022F000510022026050F8643C1960202158
:102FF00001620277104670470220704770477047A1
:1030000070B5044690F8800001281DD0012084F896
:1030100080002420C4F8840020680568026822F03B
:10302000010202602068826822F060620A438260C6
:10303000204601F0CBF9206805602020C4F8840008
:10304000002084F8800070BD022070BD70B5044679
:1030500090F8800001281DD0012084F880002420F1
:10306000C4F8840020680568026822F0010202604A
:103070002068826822F060420A438260204601F0A4
:10308000A5F9206805602020C4F88400002084F899
:10309000800070BD022070BD70477047704700000F
:1030A0002DE9F04103680446D86919689A6840F62A
:1030B0000F0528424FF0000509D186067ED501F0A4
:1030C000200602F080573E4378D0216FFFE0924EF9
:1030D000924F16400F40374370D0C70709D0CF0535
:1030E00007D501271F62D4F88C3043F00103C4F8E0
:1030F0008C3083070AD5D30708D0276802233B62A8
:10310000D4F88C3043F00403C4F88C3043070AD55C
:10311000D30708D0276804233B62D4F88C3043F0EF
:103120000203C4F88C3003070CD501F020033343AD
:1031300008D0266808233362D4F88C3043F00803A3
:10314000C4F88C3003050BD54B0109D526684FF424
:1031500000633362D4F88C3043F02003C4F88C3021
:10316000D4F88C30002B34D0800609D501F0200033
:1031700002F08051084303D0216F09B120468847EF
:10318000D4F88C0021688968490602D410F0280F11
:1031900021D0204601F0DAF920688168490615D56A
:1031A000816821F040018160E06F78B15C49816302
:1031B000E06FFEF72BFB00280BD000E011E0E06F82
:1031C000816B00E02046BDE8F04108472046FFF74C
:1031D00065FFBDE8F0812046FFF760FFC4F88C5022
:1031E000F7E7E76E2026012F5CD1C7065AD5CF0638
:1031F00058D5102018622068816849062FD5E26FE3
:10320000116849680904090CE3D0B4F85C308B42BA
:10321000DFD9A4F85E1011680968890618D401681E
:1032200021F4807101602068816821F001018160D2
:103230002068816821F040018160C4F88860E566FB
:103240002068016821F010010160E06FFEF7A9FA23
:10325000B4F85C00B4F85E10401A81B21EE0B4F815
:103260005C10B4F85E20891AB4F85E2089B2002A96
:10327000AFD00029ADD0026822F4907202602068BD
:103280008268254BDB431A408260C4F88860E5669B
:1032900025672068026822F0100202602046FFF7CE
:1032A000ADFE96E7C70209D5570207D54FF4801047
:1032B00018622046BDE8F041FFF7EFBE07060AD5C9
:1032C00001F0800702F40002174304D0616F002967
:1032D0007FF478AF7DE742060CD54A060AD5196817
:1032E000204621F040011960C4F88460656700F051
:1032F00027F96EE7020206D54A0004D52046BDE84C
:10330000F041FFF7C9BEC001CBD50029C9DA20467C
:10331000BDE8F041FFF773BE01000010200100047A
:103320003945000810B5040003D0D4F8840010B16A
:1033300007E0012010BD002084F88000204600F046
:1033400027F82420C4F884002068016821F00101D6
:103350000160204601F0D2FA0128EBD0A06A10B13A
:10336000204601F055F82068416821F49041416001
:103370002068816821F02A0181602068016841F09D
:10338000010101602046BDE8104001F0A5B8000031
:1033900010B586B0044614216846FCF773FF174940
:1033A0002068884227D11648016E41F480410166A9
:1033B000016E01F480410591C16C41F00101C164CD
:1033C000C06C694600F0010005904FF4C0600090A9
:1033D00002200190002002900390072004904FF0FB
:1033E0009040FEF761FA002211462520FEF732FDDB
:1033F0002520FEF721FD06B010BD00000038014079
:103400000010024010B4D0F88830202B1BD1B9B185
:10341000B2B190F88030012B15D0012380F88030B4
:103420000023C366094C0368A34206D05C682402EB
:1034300003D51C6844F080641C6010BC01F098BB8C
:10344000012010BC70470220FBE700000080004014
:1034500010B50068084988420CD1084800780A284D
:1034600001D1FEF729FDBDE81040012203490448BF
:10347000FFF7C8BF10BD0000003801400000002069
:10348000780100202DE9F8430446D0F884001F4657
:1034900016460D46202851D1DDB1D6B194F88000F2
:1034A00001284BD0012084F880004FF00008C4F8B8
:1034B0008C802120C4F884001834FEF7DFFAA68738
:1034C0008146E68754F8100C183CB0F5805F03D0B5
:1034D00004E00120BDE8F883206920B12E460025D4
:1034E00084F8808010E00026FAE78021204601F071
:1034F000ABFBB8B9C6B116F8010B21688862B4F805
:103500005600401EA4F85600B4F856004B464FF043
:10351000000200970028E8D14FF04001204601F05A
:1035200093FB30B10320D5E735F8020BC0F3080058
:10353000E3E72020C4F884000020CBE70220C9E79D
:103540007047FEE701688A69D243920701D40022DE
:103550008A6200688169C943C90703D0816941F063
:1035600001018161704700002DE9F04104460068C7
:1035700090460E468069C043C00633D400252027FC
:1035800020688069C043800615D5701CF8D0FEF70E
:1035900075FAA0EB0800B04201D8002EF0D154F823
:1035A000440F40F0200044F804096770A5702570AE
:1035B0000120BDE8F08121681020C8612068C76142
:1035C0002046FFF7BFFF54F8440B4168064A1140FC
:1035D0004160206840F0040044F820096777A5772F
:1035E0002577E5E70020E4E700E800FEF0B5056890
:1035F000059C68684FF48066064FC1F3090106EA2E
:10360000545641EA02413E431943B0432143084323
:103610006860F0BDFF63FF032DE9F0411D461746CA
:103620000E460446DDF8188008E0681C06D0FEF758
:1036300025FAA0EB0800A8420BD855B12068806994
:1036400036EA000012D00020B842EED00020BDE8DB
:10365000F08154F8440F40F0200044F80409202081
:1036600060700020A07020700120F0E70120EBE7DF
:1036700070B516460D4604460DE0324629462046F2
:10368000FFF772FF08B1012070BDFEF7F7F9801B4C
:10369000A84207D835B120688069C0438006ECD4C1
:1036A000002070BD54F8440F40F0200044F8040995
:1036B000202060700020A0702070E4E770B51646EE
:1036C0000D4604460FE0324629462046FFF74CFFE0
:1036D00008B1012070BD681C05D0FEF7CFF9801B32
:1036E000A84207D835B120688069C0438007EAD472
:1036F000002070BD54F8440F40F0200044F8040945
:10370000202060700020A0702070E2E700EB8100B4
:10371000006E00F0F84070478068C0F3C00070474A
:103720008068C0F3800070478068C0F380007047F5
:10373000C06810F4406F01D000207047012070472E
:10374000042303EAD15310B518444369C1F304516B
:1037500007248C40A3438A401343436110BD00EB10
:103760008100016E21F000411143016670470000A5
:1037700030B58BB0002408940994202168460A943F
:10378000FCF780FD1C484FF0A041042501604FF478
:103790004031C0E90114C4600461C0E90545047703
:1037A00044770121016280F82440C462046380F8F8
:1037B0003840C46380F84040FDF774FC08B1FDF761
:1037C000EDF908A90C480894FDF7EAF908B1FDF7EE
:1037D000E5F90A4800900620CDE901047F20059410
:1037E000CDE9030569460448FDF746FA002801D0F3
:1037F000FDF7D4F90BB030BD4800002002003004C2
:1038000000B58DB030216846FCF73CFD11491048E9
:1038100008600846FDF742FF08B1FDF7BFF9022036
:10382000009000208DF804008DF8050002900390B0
:1038300001210490CDE9050102460790694605483B
:10384000FDF752FE002801D0FDF7A8F90DB000BD2C
:1038500000080050B400002030B587B0142168463D
:10386000FCF710FD1A48C16C41F00401C164C16C41
:1038700001F004010591C16C41F02001C164C16CEB
:1038800001F020010591C16C41F00101C164C16CDE
:1038900001F001010591C16C41F00201C164C06CED
:1038A0000C4D00F002004FF4005405900022214618
:1038B0002846FEF7DDF80120CDE900400220029005
:1038C0000020039069462846FDF7EEFF07B030BDA3
:1038D0000010024000080048144810B51249016069
:1038E0001349416000210122C0E9021201614161D6
:1038F0008161C1610162FEF71BF908B1FDF74EF964
:1039000000210A48FEF7C0F808B1FDF747F9002189
:103910000648FEF7E4F808B1FDF740F905484168AC
:1039200041F48011416010BD00540040C8000020E7
:103930007221800000000140124810B5104901605A
:103940004FF48271416000214FF4E062C0E902123D
:103950000222026101224261520282613822C0E9E0
:10396000072107224162C0E90A1201634163FEF7A1
:10397000B3FF002803D0BDE81040FDF70FB910BD1C
:103980000030014014010020184810B516490160AC
:103990004FF4E1314160002181600C22C160C0E937
:1039A00004128161C161016241628162FFF7BAFC68
:1039B00008B1FDF7F3F800210C48FFF747FB08B109
:1039C000FDF7ECF800210948FFF71AFB08B1FDF7F5
:1039D000E5F80648FFF7F3FA002803D0BDE81040E9
:1039E000FDF7DCB810BD0000003801407801002070
:1039F000FEE7FEE770B5002404F1B000C0B200F0AD
:103A0000E7F8002000F0E4F8102000F0E1F80025CD
:103A1000002000F0EFF86D1CEDB2802DF8D3641C8F
:103A2000E4B2082CE8D370BD10B54FF4FA70FDF77E
:103A300029FFAE2000F0CCF8002000F0C9F81020DB
:103A400000F0C6F8402000F0C3F8812000F0C0F874
:103A5000FF2000F0BDF8A12000F0BAF8C82000F067
:103A6000B7F8A62000F0B4F8A82000F0B1F83F2085
:103A700000F0AEF8D32000F0ABF8002000F0A8F87A
:103A8000D52000F0A5F8802000F0A2F8D92000F0A1
:103A90009FF8F12000F09CF8DA2000F099F812204D
:103AA00000F096F8DB2000F093F8402000F090F84A
:103AB000202000F08DF8022000F08AF88D2000F020
:103AC00087F8142000F084F8A42000F081F8A620E4
:103AD00000F07EF8AF2000F07BF8FFF78BFF0021AD
:103AE000BDE810400846AFF3008010B50446B03181
:103AF000C8B200F06DF8102040EA141000F068F829
:103B000004F00F00BDE8104040F0010000F060B884
:103B10002DE9F041203A00240D468046D6B27F2898
:103B200003D900204D1C8046EDB2102B29460FD042
:103B3000FFF7DBFF164906EB460001EB4005285D69
:103B400000F058F8641CE4B2062CF8D3BDE8F0810C
:103B5000FFF7CBFF0F4F00BF04EB0610385C00F0FF
:103B600049F8641CE4B2082CF6D36D1CE9B2404657
:103B7000FFF7BBFF5FF0000404EB06103844007A47
:103B800000F038F8641CE4B2082CF5D3DEE700003E
:103B900020730008487500082DE9F0419846174643
:103BA0000E46044600250DE0434631462046FFF709
:103BB000AFFF0834E4B2782C02D90024B61CF6B268
:103BC0006D1CEDB27A5D002AEED1BDE8F0810000F7
:103BD0001CB500218DF804108DF805004FF6FF701C
:103BE0000090022301AA78210148FDF7FDFF1CBDCA
:103BF000C80000201CB540218DF804108DF8050088
:103C00004FF6FF700090022301AA78210148FDF7CA
:103C1000EBFF1CBDC800002070472DE9F8430446A7
:103C200040684FF48276154689464FF400474FF4BA
:103C30008068B04209D1A068B84201D0404504D1A3
:103C40002068016821F0400101604B46002280217C
:103C50002046009500F0A6F880B96068B04214D103
:103C6000A068B84201D040450FD14B4600224FF426
:103C7000C0612046009500F02FF830B1206E40F072
:103C8000200020660320BDE8F8830020FBE7F8B59C
:103C900015460E460B460092044600224FF4C051D2
:103CA00000F01AF888B9334600228021204600959A
:103CB00000F078F848B9334600224FF4C06120463E
:103CC000009500F009F8002804D0206E40F0200094
:103CD00020660320F8BD00002DE9FC4799461746F1
:103CE0000E4604460A9DFDF7C9FE411BA9EB0105DE
:103CF000FDF7C4FE80462A484FF4C06A0068C0EB56
:103D0000C00000EB8000000D6843009040E0564585
:103D100002D10FB9007B0190B9F1FF3F38D0FDF718
:103D2000ADFEA0EB0800A84203D215B1009860B325
:103D30002CE02068416821F0E00141606068B0F546
:103D4000827F0BD1A068B0F5004F02D0B0F5806F34
:103D500004D12068016821F040010160A06AB0F53B
:103D6000005F09D12068016821F4005101602068DA
:103D7000016841F400510160012084F85D000020D9
:103D800084F85C000320BDE8FC870025401E0090FD
:103D9000206881683140B942B9D10020F3E70000C2
:103DA000100000202DE9F8431E469146884604463F
:103DB000089DFDF763FE401B351AFDF75FFE0746C1
:103DC00025480068C0F3CB30684338E0701C37D01A
:103DD000FDF754FEC01BA84203D215B1009860B392
:103DE0002CE02068416821F0E00141606068B0F596
:103DF000827F0BD1A068B0F5004F02D0B0F5806F84
:103E000004D12068016821F040010160A06AB0F58A
:103E1000005F09D12068016821F400510160206829
:103E2000016841F400510160012084F85D00002028
:103E300084F85C000320BDE8F8830025401E009054
:103E40002068816838EA010004D000214945BDD1CD
:103E50000020F0E70121F9E7100000207047FDF78E
:103E600099BF10B5A4B038216846FCF70BFA1421AD
:103E70001FA8FCF707FA44210EA8FCF703FA00205C
:103E8000FEF72CF80120009000040190022003248A
:103E9000CDE907045521CDE909010B900C900D9057
:103EA0006846FEF713FB08B172B6FEE70F20CDE9B6
:103EB0001F0400242194229404211FA82394FEF7B8
:103EC000B7F908B172B6FEE748F24100CDE90E0439
:103ED00040071D9014940EA8FEF766F8002801D044
:103EE00072B6FEE724B010BD0248016841F47001CB
:103EF0000160704788ED00E010B54B7AADF5337D79
:103F0000002203B14A72C96A9FED3C1AF7EE000A1B
:103F10000B68012B1DD00A7101230B6081ED021A81
:103F20005FF0000201EB8204521C84ED031AB32AF5
:103F3000F8DBC1EDB60A0B7181ED021A5FF00002E9
:103F400001EB8203521C83ED031AB32AF8DBC1EDA7
:103F5000B60AD1EDB61A91ED022A00224FEA0D03FE
:103F600001EB8204D4ED032A03EB8204521CC4ED5E
:103F7000002AB32AF4DBFDEEE12A32EE002A204CBF
:103F800012EE902A03EB820212ED013A12EE902A11
:103F900033EE023A03EB820202ED010A11EE902A9F
:103FA000A24202D071EEA00A0EE0B0EE412AB12288
:103FB00003EB8204521E94ED000A94ED011A30EED8
:103FC000010A84ED000AF3D581ED022A5FF00002B8
:103FD00003EB820494ED000A01EB8204521C84ED91
:103FE000030AB32AF4DBC1EDB60A9FED060AC3EE5D
:103FF000000AC0ED000A0DF5337D10BD0000000081
:10400000000033430000344301210022027080F895
:10401000101300F13403C3624160C0E90C12017255
:10402000427270472DE9F0433E489FED3D0A3E49FC
:1040300080ED120A01250D7500244FF0FF39C1F8FB
:104040000C900C700C724D6001F114004C729FEDDD
:10405000370A00F500624460354E82ED3D0A234682
:1040600040F23A27A1F5FA7106EB830CDCED000A69
:1040700000EB830C0CF5006C5B1CCCED3E0ABB42E4
:10408000F2DB0470C1E9805081F8FC5141684FF4C3
:104090000E7801290BD100214FEA080300EB810CB7
:1040A000D2ED3D0A491CCCED040A9942F6DD1D48CB
:1040B0005430FFF7A9FF1F49002208460D75C1F8CB
:1040C0000C900C700C724D604C7200F614038461FD
:1040D00083ED3D0A10F1140006EB820C9CED000A02
:1040E00000EB820C0CF5006C521C8CED3E0ABA42BF
:1040F000F2DB0470C1E903500D72416801290AD155
:104100000021424600EB810493ED3D0A491C84EDF9
:10411000040A9142F6DDBDE8F0430748FFF774BF9B
:10412000DB0FC93F08320020FC1300200000000014
:10413000386A000808020020703500202DE9F04799
:10414000984C40F217362DED028BE06C411E00F2C8
:104150001632B24200DB0A46934DDFF8508205EB7F
:10416000820202F50052D8ED020A92EDFA0A30EE10
:10417000200A9FED8F1A0127DFF8389220EE010AFE
:1041800000224FF4C57A88ED010A8318B34201DB9F
:10419000A3F2173305EB830C0CF5005CA3EB420391
:1041A0009CEDFA1A03F21533B34201DBA3F2173385
:1041B00005EB830303F50053521CD3EDFA1A09EB08
:1041C00087037F1C31EE811AD3ED001A524501EEB0
:1041D000210ADADD012888ED010A01D540F2163105
:1041E00005EB810000F50050C0EDFA0AE16494EDA2
:1041F000110A01F0BDFCD4ED110ADFED6F8ADFF882
:10420000BCA170EEA80A10EE900AC4ED110A9FED51
:104210006C8A504502DB70EEC80A06E0F5EEC00A73
:10422000F1EE10FA03D270EE880AC4ED110A654867
:10423000D8ED010AC146D0F8040260EE800A4FF0C2
:10424000010841684FF40E77012910D0C0F80480AE
:1042500080F80880002100F5006200BF00EB8103B8
:1042600092ED3D0A491C83ED040AB942F6DD00F5E2
:10427000006100F10C0291ED3E0A002120EE200ABF
:1042800002EB810303F50066D3ED011A96ED3C1AAB
:10429000491CB94221EE211A30EE010AF0DD40F24C
:1042A0003726314602EB8103491E93ED011A83ED57
:1042B000021AF7D5C0ED040A3A493C4854310C3093
:1042C000FFF71AFE94ED120A01F052FCD4ED120A27
:1042D00070EEA80A10EE900AC4ED120A504502DBF7
:1042E00070EEC80A06E0F5EEC00AF1EE10FA03D24D
:1042F00070EE880AC4ED120AD9ED010A28694C460D
:1043000060EE800A416801290FD0C0F8048080F86F
:104310000880002100F5006200EB810392ED3D0A68
:10432000491C83ED040AB942F6DD00F5006200F194
:104330000C0192ED3E0A002220EE200A01EB8203DE
:1043400003F50065D3ED011A95ED3C1A521CBA42F3
:1043500021EE211A30EE010AF0DD00BF01EB8602EA
:10436000761E92ED011A82ED021AF7D50F4DC0EDBF
:10437000040A0C351449281DFFF7BEFD95ED000A0F
:10438000D5ED010A20EE000A00EEA00A01F0B8FC0B
:10439000F0EE000A20EE200A84ED000ABDEC028B4C
:1043A000BDE8F0870832002008020020200000202D
:1043B00095EC2537387B0008920A063FDB0FC94091
:1043C000DB0FC940081200207035002030B5416E67
:1043D000B9B1026891689268C1F342610B4B520F08
:1043E0009C5CE50003F10804A25CB5FBF2F2A0F8C6
:1043F0006A205A5C615CD200B2FBF1F1A0F868104F
:1044000030BD0121A0F86A10F8E700000E6A00082C
:1044100090F82810C90706D001684A68C36A22F4D8
:1044200000321A434A6090F82810890706D50168BF
:104430004A68036B22F480321A434A6090F82810CD
:10444000490706D501684A68436B22F480221A4363
:104450004A6090F82810090706D501684A68836BFE
:1044600022F400421A434A6090F82810C90606D583
:1044700001688A68C36B22F480521A438A6090F8FC
:104480002810890606D501688A68036C22F4005258
:104490001A438A6090F82810490611D501684A68C5
:1044A000436C22F480121A434A60416CB1F5801FBC
:1044B00006D101684A68836C22F4C0021A434A603C
:1044C00090F82810090606D501684A68C06C22F4E5
:1044D000002202434A607047F8B500260446C0F83F
:1044E0008C60FDF7CBFA0546206800686FF07E47C8
:1044F000000708D52B4600224FF4001120460097F4
:1045000000F0A2FB60B92068006840070AD52B467E
:1045100000224FF480012046009700F095FB08B17F
:104520000320F8BD2020C4F88400C4F8880044F8B3
:104530006C6F00202675F8BD10B5806A0021A0F8C8
:104540005E10A0F85610FEF7A9FD10BD01680A68BC
:1045500022F490720A6001688A68094B1A408A60E6
:10456000C16E012904D101680A6822F010020A60B4
:104570002021C0F888100021C16601677047000043
:10458000FEFFFFEF70B5B0F86010D0F88820044649
:104590000068222A04D0816941F00801816170BD60
:1045A000406AA26D08401080A06D801CA065B4F820
:1045B0005E00401EA4F85E00B4F85E000028EED154
:1045C0002068016821F4907101602068816821F001
:1045D000010181602020C4F8880000252567E06E75
:1045E000012804D02046FEF733FFE56670BD206841
:1045F000016821F010010160B4F85C102046FEF75C
:10460000FDFCF2E72DE9F0470446B0F86060006871
:10461000C569D0F800A0D0F80880D4F88810222905
:1046200005D0816941F008018161BDE8F087B4F8E7
:1046300068704FF000095BE02068406AA16D30406F
:104640000880A06D801CA065B4F85E00401EA4F830
:104650005E002068C569690730D0E9070AD05FEAC3
:10466000CA5107D501210162D4F88C0040F0010045
:10467000C4F88C00A8070BD55FEAC87008D0216881
:1046800002200862D4F88C0040F00400C4F88C00CA
:1046900068070BD55FEAC87008D02168042008625B
:1046A000D4F88C0040F00200C4F88C00D4F88C00E0
:1046B00020B12046FEF7F2FCC4F88C90B4F85E00FE
:1046C000B0B92068016821F48071016020688168B8
:1046D000194A114081602020C4F88800C4F8709005
:1046E000E06E01281CD02046FEF7B2FEC4F86C90A4
:1046F0000FB1A806A0D4B4F85E00002895D0B4F895
:104700006810814291D92068816821F080518160D0
:104710000A4820672068016841F02001016084E7B1
:104720002068016821F010010160B4F85C10204697
:10473000FEF764FCDAE70000FEFFFFEF85450008A6
:1047400070B5B0F86010D0F8882004460068222ABE
:1047500004D0816941F00801816170BD406A084060
:10476000A16D0870A06D401CA065B4F85E00401EED
:10477000A4F85E00B4F85E000028EED1206801685D
:1047800021F4907101602068816821F0010181604D
:104790002020C4F8880000252567E06E012804D099
:1047A0002046FEF755FEE56670BD2068016821F0E1
:1047B00010010160B4F85C102046FEF71FFCF2E720
:1047C0002DE9F0470446B0F860600068C569D0F88C
:1047D00000A0D0F80880D4F88810222905D081697B
:1047E00041F008018161BDE8F087B4F868704FF0CE
:1047F00000095BE02068406AA16D30400870A06D40
:10480000401CA065B4F85E00401EA4F85E0020685D
:10481000C569690730D0E9070AD05FEACA5107D5F0
:1048200001210162D4F88C0040F00100C4F88C0032
:10483000A8070BD55FEAC87008D02168022008627B
:10484000D4F88C0040F00400C4F88C0068070BD545
:104850005FEAC87008D0216804200862D4F88C0090
:1048600040F00200C4F88C00D4F88C0020B120463F
:10487000FEF714FCC4F88C90B4F85E00B0B9206860
:10488000016821F48071016020688168194A114033
:1048900081602020C4F88800C4F87090E06E012880
:1048A0001CD02046FEF7D4FDC4F86C900FB1A806CA
:1048B000A0D4B4F85E00002895D0B4F86810814206
:1048C00091D92068816821F0805181600A48206771
:1048D0002068016841F02001016084E720680168D8
:1048E00021F010010160B4F85C102046FEF786FB51
:1048F000DAE70000FEFFFFEF414700082DE9F04135
:104900000446016880682269E369104362690025F2
:104910001A431043DFF82CC20A688B4B1A4002433B
:104920000A6020684168E26821F440511143416007
:104930002168A069614501D0226A10438A68834BCF
:104940001A4002438A602068C16A626A21F00F013E
:104950001143C1627E4923687E488B420DD1D0F855
:10496000880010F0030006D0012855D0022842D05C
:1049700003283FD152E001203DE077498B420BD123
:10498000D0F8880010F00C0035D0042833D0082867
:1049900040D00C282ED141E070498B420BD1D0F889
:1049A000880010F0300026D0102835D0202831D0D3
:1049B00030281FD132E06A498B420BD1D0F88800F1
:1049C00010F0C00017D0402826D0802822D0C02860
:1049D00010D123E063450DD1D0F8880010F4406079
:1049E00009D0B0F5806F17D0B0F5006F12D0B0F5D8
:1049F000406F13D010205B4A5B4F00264FF40041FC
:104A0000634539D160B102280DD004280DD00828A3
:104A100031D10EE00220EEE70420ECE70820EAE7BF
:104A2000FDF7FAFC03E0114603E0FDF719FD010074
:104A30007DD0606A37F810206768B1FBF2F007EBB1
:104A4000470383426CD8B0EB073F69D80023084680
:104A50001946FBF7DFFB090241EA10610202780800
:104A6000101871413A460023FBF7D4FB3F4AA0F5EA
:104A70004071914259D953E0E3694FF6EF788B4288
:104A80002DD109284CD2DFE800F005080D4B274B4B
:104A90004B4B0E00FDF7C0FC01E0FDF7CFFC010021
:104AA00001D144E01146606A37F81000B1FBF0F024
:104AB0004100606801EB5001B1FBF0F080B2A0F161
:104AC000100141452CD84FF6F0710140C0F342006F
:104AD00001432068C1602AE0FDF7C2FCDFE7092836
:104AE0001ED2DFE800F005080D1D1F1D1D1D0E0064
:104AF000FDF792FC01E0FDF7A1FC010001D116E0F9
:104B00001146606A37F81000B1FBF0F1606801EB04
:104B10005001B1FBF0F080B2A0F11001414504D981
:104B2000012504E0FDF79CFCE7E72168C86001204F
:104B3000A4F86A0024F8680F2846A660E660BDE87D
:104B4000F081000000800040F369FFCFFFF4FF1107
:104B5000003801400010024000440040004800407E
:104B6000004C00400024F400F6690008FFFC0F0030
:104B700070B58165A0F85C20A0F85E200021016777
:104B800083684FF48056FF24B34204D10369D3B93C
:104B900040F2FF131DE07F259BB1B3F1805F15D07C
:104BA000A0F86010C0F88C102223C0F88830036889
:104BB0009C6844F001049C60436EB3F1005F0ED02A
:104BC00027E0036943B9A0F86040EBE703691BB134
:104BD0003F23A0F86030E5E7A0F86050E2E7B0F8C6
:104BE0006830934215D88268B24201D1026972B12D
:104BF000114A026780F8801001680A6842F48072E6
:104C00000A600068816841F0805181600FE00B4AC2
:104C1000EFE78268B24201D1026952B1084A0267E5
:104C200080F880100068016841F4907101600020F4
:104C300070BD044AF3E70000C147000805460008BC
:104C400041470008854500082DE9F0479A46174678
:104C50000E4604464FF000094FF02008089D39E049
:104C6000681C37D0FCF70AFFA0EB0A00A84222D844
:104C70000DB32068016849072CD5C069C043000501
:104C800028D421684FF4006008622068016821F48C
:104C9000D07101602068816821F001018160C4F851
:104CA0008480C4F88880C4F88C8000BF84F8809029
:104CB0000320BDE8F0872068016821F4D07101600D
:104CC0002068816821F001018160C4F88480C4F803
:104CD0008880EBE72068C06936EA000004D0002035
:104CE000B842BDD00020E4E70120F9E70148FEF713
:104CF000D7B9000078010020FEE700002DED088BF9
:104D0000FEF792FE00224FF4006311464348FCF781
:104D100007FD00214148FCF710FDFBF733FE082298
:104D200010210020FBF7BEFE142200210C20FBF70F
:104D3000D9FEFFF777F99FED3A9A3A4C3A4F3B4D3F
:104D40009FED3B8BDFF8F0809FED3CAB9FED3DBBD3
:104D500064263E48FCF74EFB64213C48FCF7CCFA45
:104D60003A48FCF79BF900EE100AB8EE400A20EE34
:104D7000090A10EE100AFBF73EFC53EC182BFBF768
:104D800033FBFBF74BFCA060FBF735FC41EC100B51
:104D90002FA053EC102B00F063F8FBF707FE51EC4B
:104DA000100BFBF73BFC3860FFF7C8F92868606020
:104DB000216891FBF6F206FB1212491C21607AB9B8
:104DC000FBF719FC41EC100B23A153EC102B2348EB
:104DD00000F056F81023214A03210520FEF7DCFEDF
:104DE000D8F80000FBF707FC53EC1A2BFBF755FA39
:104DF000B0EE481AF0EE681A53EC112BFBF766FB85
:104E000053EC1B2BFBF7F0FAFBF7DCFB034600220D
:104E100011460248FCF784FC9BE70000B400002028
:104E200000008039340000202800002020000020ED
:104E30006666666666660A40240000200000000080
:104E40000000F83F0000000000FEAF4048000020D6
:104E5000242566203B0000002566000084380020E1
:104E60000FB4054B10B503A9044A029801F0CEF91E
:104E700010BC5DF814FB00003569000840000020FC
:104E80000FB4084B10B504A902AA039801F0BEF9AB
:104E9000044602A9002001F03CFD204610BC5DF84C
:104EA00014FB00001369000803B401984100009846
:104EB00050EAC12018BF04204A0D18BF40F001007D
:104EC00040F2FF72B2EB515F08BF40F002000128D0
:104ED00008BF052002B070474100080218BF042037
:104EE0000A0E18BF40F001004FF07F4232EA010184
:104EF00008BF40F00200012808BF052070470907DD
:104F0000090E002804DB00F1E02080F8001470474F
:104F100000F00F0000F1E02080F8141D7047000041
:104F20002DE9F04D2DED040B2DED0E8B96B0DDE946
:104F30002550279CDDF890A025F0004624F000487D
:104F4000BAF1000F14BF0121002101EB4502FC4919
:104F500053184A1093422AD3002814BF0123002378
:104F600003EB44030B44F7498B4220D358EA00017A
:104F70009FEDF59B76D0DFF8D8B35D4503D1BAF14C
:104F8000000F05D188E0BAF1000F08BF002100D062
:104F9000012101EB450111F5001F08D8002814BFBD
:104FA0000121002101EB440111F5001F0BD99DEDFA
:104FB000261B9DED240B16B0BDEC0E8B04B0BDE896
:104FC000F04D00F051BF0027002DBCBFE1498845DE
:104FD00021DAE1498845A8BF02271CDAC3451ADC5B
:104FE000DE4901EB2851142908DDC1F1340220FA11
:104FF00002F101FA02F282420DD108E058B9C1F182
:10500000140228FA02F101FA02F2424503D101F03A
:105010000101C1F1020756EA0A0124D1002C22DA6B
:10502000002D18BF022F01D0012F0AD0022001F05D
:1050300025F816B0BDEC0E8B04B0BDE8F04D00F0C5
:10504000FBBE022001F01AF800F0F6FE51EC100B46
:1050500081F0004141EC100B16B0BDEC0E8B04B09A
:10506000BDE8F08D18E09FEDBEAB9FEDBF8B002833
:1050700071D1B848804522D105F1804010F58010EB
:1050800008BFBAF1000F07D0B3450ADC002CA8BF57
:105090009DED260BE0DA0DE0B0EE490AF0EE690A6C
:1050A000DAE7002C06DA9DED260B51EC100B81F0AF
:1050B00000416FE0AE48784490ED000BCCE7D84556
:1050C0004DD1002C48DA2EB186423AD1BAF1000F08
:1050D00042D126E0BAF1000F13D0022000F0CEFF3B
:1050E00000F0DEFE8DED020B9DED240B8DED000B2F
:1050F00010EE900A039961F31E0003909DED020BE0
:10510000AAE78DED02AB9DED240B1AEE901A10EE7E
:10511000900A8DED000B61F31E0003909DED020BD4
:105120009AE78DED028B9DED240B18EE901A10EE90
:10513000900A8DED000B61F31E0003909DED020BB4
:105140008AE709DA9DED240B51EC190B53EC102B77
:10515000FBF7BCF91EE020E09DED240B7CE78642C6
:105160001BDAB4F1804F0DD0A4F10050B0F1FF5024
:1051700013D1002D11DB9DED240B51EC100B01F030
:1051800003FC07E09DED240B53EC102B51EC100BAE
:1051900000F0C2BC41EC100B5EE79DED240B51EC1E
:1051A000100B01F0BBFBBAF1000FCDE90E0142D1AB
:1051B0009FED710B46B3A6F1E040B0F17F600CD0DB
:1051C0005E4538D1002D00DAA7B3022F0CBF0120B5
:1051D0004FF0FF30FBF730FBDCE7002D01DD002C4A
:1051E0000DDA002D01DD002C1FDB002D16DA002C5E
:1051F00014DB012F08BF9FED620B3FF42DAFB0EE23
:105200004A0AF0EE6A0A27E7022F18BF002D0CD0D9
:10521000012F0AD1002DFFF61FAF06E0002DB8BF09
:10522000002C08DA012F3FF417AFB0EE480AF0EE79
:10523000680A11E71BE0012000EBE57050EA070166
:1052400015D0791EB0EE498AF0EE698A084308BF8E
:105250009FED4D8B4E480025804570DD4D494E48F1
:10526000884514DDB0420DDB002C19DB2FE0012056
:1052700000F004FF16B0BDEC0E8B04B0BDE8F04D9D
:1052800000F0FEBDB34502DC002C09DC1FE08642C5
:1052900002DA002C1BDA03E05E452BDD002C16DD64
:1052A000022000F0EBFE00F0FBFD8DED020B53EC55
:1052B0001A2B51EC180BFBF797F8CDE90001039975
:1052C000019861F31E0003909DED020BC4E60220DD
:1052D00000F0D4FE00F0F4FD10EE901A18EE900AE3
:1052E0008DED020B8DED008B61F31E0003909DEDA3
:1052F000020BB1E69DED0E0B53EC192B51EC100B8C
:10530000FBF76CF89FED260BCDE9080153EC102B51
:105310009DED080B51EC100BFBF766F89FED221B7F
:1053200053EC112BFBF75DF89DED081B53EC112B93
:10533000FBF75AF89FED1E1B53EC112B3CE08CE061
:10534000FFFF1F00FFFF0F00000000000000F03F04
:105350000000F03F0000F07F0000404301FCFFFF31
:10536000000000000000F07F0000000000000000CE
:105370006637000000000000000000000000008010
:10538000000000000000F0FF000000000000F0BF7F
:105390000000E0410000F043FFFFEF3F000000008D
:1053A000000000000000D03F555555555555D53FDC
:1053B000000000000000E03FFBF713F89DED080B34
:1053C00041EC1A0B53EC102B51EC100BFBF70CF8C3
:1053D00053EC1A2BFBF708F841EC1A0B9FEDFE0B70
:1053E00053EC102B9DED080B51EC100BFAF7FCFF62
:1053F00041EC1B0B9FEDFA0B51EC1A0B53EC102BED
:10540000FAF7F2FF41EC1A0B9FEDF70B53EC102B60
:105410009DED080B51EC100BFAF7E6FF53EC1A2B3D
:10542000FAF7DCFF41EC1A0B51EC1B0B53EC1A2B77
:10543000FAF733FF0690CDE906519DED060B53ECCC
:105440001B2B51EC100BFAF7C9FF53EC1A2BFAF790
:10545000C8FF41EC100B00F0A1B90020B6F5801F89
:105460000EDA9FEDE30B53EC102B9DED0E0B51EC80
:10547000100BFAF7B9FFCDE90E016FF034000E46BC
:1054800000EB2650A0F2FF37C6F31300DA4940F0D4
:105490007F6646F040568842D8BF002408DDD749D1
:1054A0008142C8BF012403DC0024A6F580167F1CBE
:1054B000D348784400EBC4000F9690ED00CB9DEDEF
:1054C0000E0B53EC1C2B51EC100BFAF787FF9DEDE4
:1054D0000E0B41EC1B0B53EC1C2B51EC100BFAF791
:1054E000DCFE41EC100B51EC190B53EC102BFAF7CE
:1054F000EDFF41EC1D0B51EC1B0B53EC1D2BFAF790
:1055000073FF41EC1A0BBF488DED10AB784410953A
:1055100090ED000B4FF0005040EA660000EB844035
:105520008DED080B00F5002009909DED080B53EC64
:105530001C2B51EC100BFAF751FF9DED0E1B53EC99
:10554000112BFAF74EFF41EC100B53EC102B9DED95
:10555000100B51EC100BFAF747FF9DED080B41ECD7
:105560001C0B53EC102B9DED100B51EC100BFAF7AC
:105570003BFF53EC1B2BFAF734FF53EC1C2BFAF7D1
:105580002DFF53EC1D2BFAF72FFF41EC1C0B53ECB6
:105590001A2B51EC1A0BFAF727FF41EC1B0B9A4818
:1055A0000621B0EE4B0AF0EE6B0A784400F0C5FB22
:1055B000B0EE401AF0EE601AB0EE41DAF0EE61DAC9
:1055C00053EC1B2B51EC1B0BFAF70EFF53EC1D2B6E
:1055D000FAF70AFF9DED100B41EC1B0B53EC1A2B55
:1055E00051EC100BFAF759FE53EC1C2BFAF7FCFEAA
:1055F00053EC1B2BFAF751FE9DED100B41EC1B0BEE
:1056000053EC102B51EC100BFAF7EEFE41EC1D0B96
:105610009FED7FEB53EC1E2BFAF73FFE53EC1B2B59
:10562000FAF73BFE0890CDE908519DED080B53ECCD
:105630001E2B51EC100BFAF7D1FE53EC1D2BFAF791
:10564000CDFE53EC1B2BFAF7CCFE9DED080B41EC85
:105650001D0B53EC102B9DED100B51EC100BFAF7BA
:10566000C3FE41EC1B0B53EC1A2B51EC1D0BFAF74C
:10567000BBFE9DED080B41EC1A0B53EC102B51ECCB
:105680001C0BFAF7B1FE53EC1A2BFAF706FE41ECAD
:105690001A0B51EC1B0B53EC1A2BFAF7FEFD0C9076
:1056A000CDE90C519DED0C0B53EC1B2B51EC100B69
:1056B000FAF794FE53EC1A2BFAF793FE41EC1B0B0E
:1056C0009FED550B53EC102B9DED0C0B51EC100B7B
:1056D000FAF78AFE41EC1A0B9FED510B51EC1B0BB4
:1056E00053EC102BFAF780FE41EC1B0B9FED4E0B99
:1056F00053EC102B9DED0C0B51EC100BFAF774FED4
:1057000053EC1B2BFAF7C9FD41EC100B48487844C9
:1057100000EBC40090ED001B51EC100B53EC112B6F
:10572000FAF7BBFD41EC1B0B3846FBF785F8CDE9DA
:10573000080153EC1B2B51EC1A0BFAF7AEFD41ECB0
:10574000100B3C48784400EBC40090ED00CB51ECCA
:10575000100B53EC1C2BFAF7A0FD9DED081B53EC2E
:10576000112BFAF79AFD0690CDE906519DED080B35
:1057700053EC102B9DED060B51EC100BFAF72EFE9F
:1057800053EC1C2BFAF72AFE53EC1A2BFAF726FEE1
:1057900053EC1B2BFAF725FE41EC100B9DED261B5D
:1057A00053EC102B8DED001B00959DED260B51EC5D
:1057B000100BFAF719FE9DED000B41EC1A0B53ECA0
:1057C000102B9DED260B51EC100BFAF707FE9DED0B
:1057D000061B53EC112B2FE0000000604715F73F2C
:1057E000FE822B654715F73F44DF5DF80BAE543E54
:1057F00000000000000040438E9803007AB60B00C2
:10580000E2320000103300001A32000000000000F5
:105810000000000000000840000000E009C7EE3F63
:10582000FD033ADC09C7EE3FF5015B14E02F3EBEF5
:10583000A630000060300000FAF7D6FD53EC1A2BBA
:10584000FAF72BFD9DED060B41EC1A0B53EC102BD8
:105850009DED000B51EC100BFAF7C6FDCDE90C01E4
:105860009DED0C0B51EC1A0B53EC102BFAF715FDB8
:10587000CDE902010C46AA498C422FDB611A08438C
:1058800018D19DED0C0B53EC102B9DED020B51EC40
:10589000100BFAF7A3FD41EC1B0B9FEDA30B51EC92
:1058A0001A0B53EC102BFAF7F8FC53EC1B2BFAF7FE
:1058B000EDFF2DD2022000F0E1FB00F0F1FA10EE36
:1058C000901A18EE900A8DED020B8DED008B61F3AE
:1058D0001E0003909DED020BFFF7BEBB944A24F01F
:1058E0000041914214D39349214408437FF4EFAC23
:1058F0009DED0C0B53EC102B9DED020B51EC100B9E
:10590000FAF76CFD53EC1A2BFAF7C0FF7FF6DFAC09
:1059100024F000408849894A002601EB2051824248
:105920002BDA481C4FF4801121FA00F02044844AFD
:10593000C0F30A517A44A1F2FF3192ED000B814A83
:105940008DED080BCA4020EA0202C0F3130040F4B8
:105950008010C1F1140120FA01F60992002CB8BFA1
:1059600076429DED080B53EC102B9DED0C0B51EC8A
:10597000100BFAF733FDCDE90C019DED0C0B51EC4A
:105980001A0B53EC102BFAF788FC9FED6F0B089065
:10599000CDE9085153EC102B9DED080B51EC100B89
:1059A000FAF722FD41EC1B0B9FED690B53EC102B1A
:1059B0009DED080B51EC100BFAF716FD9DED0C0B4D
:1059C00041EC1C0B53EC102B9DED080B51EC100B14
:1059D000FAF704FD53EC1A2BFAF703FD9FED5E1B5B
:1059E00053EC112BFAF700FD53EC1C2BFAF755FC86
:1059F00041EC1A0B51EC1B0B53EC1A2BFAF74DFC34
:105A0000CDE902019DED020B53EC1B2B51EC100B69
:105A1000FAF7E4FC53EC1A2BFAF7E3FC9DED020BCA
:105A200041EC1A0B53EC102B51EC100BFAF7DCFC89
:105A3000CDE908014A489DED080B0521784400F0A6
:105A40007CF99DED081B51EC100B53EC112BFAF770
:105A5000CBFC9DED021B53EC112BFAF7C2FCCDE9F8
:105A600006019DED020B53EC1A2B51EC100BFAF7CB
:105A7000BBFC53EC1A2BFAF710FC9FED3B0B41ECEF
:105A80001A0B53EC102B9DED060B51EC100BFAF793
:105A9000A5FC9DED060B41EC1B0B53EC102B9DED73
:105AA000020B51EC100BFAF79FFC53EC1B2BFAF78F
:105AB0000DFD53EC1A2BFAF791FC9DED021B53ECF4
:105AC000112BFAF78BFC53EC192BFAF78AFCCDE972
:105AD000020101EB065001150029C8BF039015DC37
