:020000040800F2
:1000000098130020F1010008C14900083F42000890
:10001000BD4900081D0A0008915B000800000000AF
:10002000000000000000000000000000814D0008FA
:10003000D90A000800000000C5490008834D0008E7
:100040000B0200080B0200080B0200080B0200085C
:100050000B0200080B0200080B0200080B0200084C
:100060000B0200080B0200080B020008210A00081E
:100070000B0200080B0200080B0200080B0200082C
:100080000B020008000000000B0200080B02000831
:100090000B0200080B0200080B0200080B0200080C
:1000A0000B0200080B0200080B0200080B020008FC
:1000B0000B0200080B0200080B0200080B020008EC
:1000C0000B0200080B0200080B0200080B020008DC
:1000D0000B020008815B00080B0200080B020008FD
:1000E0000B0200080B0200080B0200080B020008BC
:1000F0000B0200080B0200080B02000800000000C1
:10010000000000000B020008000000000B020008C5
:100110000B02000800000000314E0008494E0008A4
:100120000B0200080B0200080B0200080B0200087B
:100130000B02000800000000000000000B02000895
:100140000B0200080B020008000000000000000085
:10015000000000000000000000000000000000009F
:100160000000000000000000000000000B0200087A
:100170000B0200080000000000000000000000006A
:10018000000000000B02000800000000000000005A
:10019000000000000000000000000000000000005F
:1001A00000000000000000000B0200080B02000825
:1001B0000B0200080B0200080B0200080000000000
:1001C000000000000B02000800000000000000001A
:1001D0000B0200080B020008DFF810D000F020FB33
:1001E0000048004705670008AFF30080981300201F
:1001F0000648804706480047FEE7FEE7FEE7FEE7C1
:10020000FEE7FEE7FEE7FEE7FEE7FEE71D4E00081D
:10021000D90100082DE9F05F0546002092469B4673
:1002200088460646814640241BE02846414647460C
:10023000224600F00EFA53465A46C01A914110D396
:1002400011461846224600F0F5F92D1A67EB010811
:100250004F4622460120002100F0ECF917EB00097F
:100260004E41201EA4F10104DFDC484631462A46F7
:100270004346BDE8F09FD2B201E000F8012B491ED1
:10028000FBD270470022F6E710B513460A46044633
:100290001946FFF7F0FF204610BD2DE9FE4F8046BE
:1002A00081EA0300C00F0C46009021F0004123F0CA
:1002B0000045B8EB0200A94105D2404621469046D0
:1002C0001C460B46024623F00040104347D0270D42
:1002D000C7F30A00C3F30A510290401A0190402864
:1002E0006BDAC3F3130040F4801B0098924620B1F0
:1002F0000023D2EB030A63EB0B0B01985946C0F1C4
:100300004002504600F096F906460D4650465946C2
:10031000019A00F0AEF910EB08006141002487EA71
:10032000115284EAE7731A4340D0009A62B3019AEB
:10033000012A4FEA075215DC001B61EB02014FF066
:10034000004202EA0752CDE90042001C41F580114B
:1003500032462B4600F0E5F903B0BDE8F08F404689
:100360002146F9E7001B61EB0201001C41F58013F7
:1003700000185B412018A2F5001747EB030140EA83
:10038000D570B6196D4111E06D084FEA360645EAA1
:10039000C0754FEA0752001B61EB0201001C41F5DA
:1003A000801149084FEA30000019514132462B466E
:1003B00003B0BDE8F04F00F0A5B90098012240005D
:1003C0000023D0EB020263EBE073009821464FEA72
:1003D000E074B8EB000061EB0401E9E783F000434F
:1003E0005BE781F0004158E72DE9FE4F81EA030405
:1003F00004F0004421F0004100944FF0000B23F082
:10040000004350EA01045ED052EA03045BD0C3F318
:100410000A54C1F30A552C44A4F2F3340194A0FB0E
:100420000254C1F3130141F48011C3F3130343F4E5
:10043000801301FB024400FB034E840A970A44EA3E
:10044000815447EA8357A4FB076802958D0A05FB90
:1004500007854FEA932C04FB0C542705029D4FEAB5
:10046000065847EA1637B5EB08056EEB070C870E02
:10047000920E47EA811742EA8312A7FB0201B6EB0C
:100480000B0164EB00042B0D43EA0C335E1844EBC4
:100490001C50DA465146E7FB0201C5F313044FEA4C
:1004A0000B3343EA14534FEA0432019C43EA060338
:1004B000A4F10C040294009CCDE900B400F031F9E1
:1004C00003B0BDE8F08F00200146F9E72DE9F04DBB
:1004D00081EA030404F0004B21F0004514464FF07C
:1004E000000A23F0004150EA050220D054EA01023C
:1004F0001DD0C5F30A570246C5F31303C1F3130019
:10050000C1F30A5640F4801543F48013A7EB0608A4
:10051000101BD64608F2FD3873EB050002D308F134
:10052000010801E092185B41B8F1000F03DA0020E6
:100530000146BDE8F08D00204FF480110646844648
:100540000EE0171B73EB050705D3121B63EB0503C6
:1005500006434CEA010C49084FEA300092185B410F
:1005600050EA0107EDD152EA030012D082EA0400FA
:1005700083EA0501084305D0101BAB4106D20122D6
:10058000002306E000224FF0004302E06FF001027A
:1005900053101AEB06004CEB085110EB0A0041EB2C
:1005A0000B01BDE8F04D00F0ADB800F0004230F0B6
:1005B00000400AD0C10D01F56071C0F3160042EA97
:1005C0000151C2084007114370470020014670479F
:1005D00001F0004330B421F0004150EA010206D09E
:1005E0000A0DA2F56072C1F31301002A02DC30BCCF
:1005F00000207047440F44EAC104C100E01830BC39
:1006000000EBC25000F047B830B50B460146002061
:100610002022012409E021FA02F59D4205D303FAC4
:1006200002F5491B04FA02F52844151EA2F1010245
:10063000F1DC30BD202A04DB203A00FA02F1002070
:1006400070479140C2F1200320FA03F31943904010
:100650007047202A04DB203A21FA02F0002170477B
:1006600021FA02F3D040C2F120029140084319461A
:100670007047202A06DBCB17203A41FA02F043EA02
:10068000E07306E041FA02F3D040C2F1200291404B
:100690000843194670470029A8BF7047401C49000D
:1006A00008BF20F00100704710B4B0FA80FC00FAD7
:1006B0000CF050EA010404BF10BC704749B1CCF102
:1006C000200421FA04F411FA0CF118BF012121438E
:1006D0000843A3EB0C01CB1D4FEA00614FEA102049
:1006E00042BF002010BC704700EBC35010440029EB
:1006F000A4BF10BC7047401C490008BF20F0010097
:1007000010BC704710B5141E73F1000408DA401CC9
:1007100041F1000192185B411A4301D120F0010020
:1007200010BD2DE9F04D92469B4611B1B1FA81F210
:1007300002E0B0FA80F220329046FFF77BFF0446D9
:100740000F4640EA0A0041EA0B0153465A46084365
:1007500013D0114653EA010019D0C8F140025046A7
:10076000FFF777FF05460E46504659464246FFF7CB
:1007700061FF084305D0012004E020463946BDE86A
:10078000F08D0020054346EAE0762C4337430A9873
:100790006305E40AA0EB08000022FD0A44EA47547E
:1007A0000A3002D500200146E9E701051019694128
:1007B000DDE9084500196941BDE8F04DA2E7C1F344
:1007C0000A52C1F3130140F2FF3341F480119A42FF
:1007D00002DA00200146704740F233439A42A2F207
:1007E000334202DC5242FFF734BFFFF723BF000061
:1007F00030B5041E71F1000404DB4FF000444042A8
:1008000064EB0101141E73F1000405DB1C464FF07C
:100810000043524263EB0403994208BF904230BD4B
:10082000064C074D06E0E06840F0010394E807003D
:1008300098471034AC42F6D3FFF7D2FCFC90000886
:100840001C91000870B50546AC6AE06D00F05000E0
:1008500098BBE06D40F40070E0652068006800F02F
:100860000800A8B1206803F028FE10B32068C06813
:1008700000F40050E8B9E06D20F48070E065E06DB0
:1008800000F48050A8B9E06D40F00100E06510E090
:100890002068C06800F0020058B9E06D20F4807054
:1008A000E065E06D00F4805018B9E06D40F00100A3
:1008B000E065204600F076FC0CE0FFE7E06D00F01C
:1008C000100018B1204600F06FFC03E0606D416B32
:1008D0002846884770BD70B50546AC6AE06D40F0AB
:1008E0004000E065206E40F004002066204600F0E5
:1008F0005BFC70BD70B50446A56A284600F053FC49
:1009000070BD000070B50446206803F0B8FD0646CF
:10091000206803F0B9FD98B396BB2068806800F0AA
:100920000D0001280AD1206881681A4A1140891CEB
:10093000816000BF03202168086009E0E06D40F09D
:100940001000E065206E40F001002066012070BDBF
:1009500001F036FB054614E001F032FB401B022893
:100960000FD92068806800F0010050B1E06D40F0C0
:100970001000E065206E40F0010020660120E6E7EF
:1009800005E02068806800F001000028E4D1002024
:10099000DDE70000C0FFFF7F70B50446206803F06C
:1009A00073FD002836D1206880681B49084048B193
:1009B000E06D40F01000E065206E40F00100206620
:1009C000012070BD206803F03FFD01F0F9FA0546F3
:1009D0001AE0206803F058FD10B9206803F034FDD8
:1009E00001F0EEFA401B02280ED92068006800F0E2
:1009F000010048B9E06D40F01000E065206E40F065
:100A0000010020660120DCE72068006800F001009A
:100A10000028DED00020D4E73F00008000BFFEE7C2
:100A200010B5024801F07DF810BD0000CC00002098
:100A300030B50E4D0468AC4201D20D4901E00C49BD
:100A400020310B460478083C1425B4FBF5F2446CC5
:100A5000A40803EB84048464054C8034C46402F06D
:100A60001F050124AC40046530BD000008040240AD
:100A70000008024001794A1E064B03EB82024265E0
:100A8000044A403282654A1E02F01F0301229A4046
:100A9000C26570470009024030B5D0E913546C605C
:100AA000446D14B1D0E916546C6090F8444004F0E1
:100AB0001F050124AC40056C6C60046863608468A9
:100AC000102C04D10468A2600468E16003E00468AB
:100AD000A1600468E26030BD704772B600BFFEE7F7
:100AE000F8B504460D460020009000BF94F8580069
:100AF000012801D10220F8BD012084F8580000BF70
:100B00002046FFF7FFFE06468EBBE06D20F48850BE
:100B100040F00200E065206881681B4A114005F042
:100B2000804242F000421143816000BF13E0009810
:100B3000401C00901549009888420CD3E06D20F0CD
:100B4000020040F01000E06500BF002084F858006B
:100B500000BF0120CFE720688168C90F0029E6D1D6
:100B6000E06D20F0020040F00100E06504E0FFE7E6
:100B7000E06D40F01000E06500BF002084F85800F0
:100B800000BF3046B7E70000C0FFFF3F02DE0400B1
:100B90002DE9F0439BB004460E464FF00008306844
:100BA00000B100BF00BF94F85800012803D1022013
:100BB0001BB0BDE8F083012084F8580000BF00207E
:100BC000179018902068B0F1A04F02D131480090E2
:100BD00001E000200090009850B9E06D40F0200046
:100BE000E06500BF002084F8580000BF0120DFE767
:100BF000009803F05DFC0746206803F059FCD8BB61
:100C0000D7BB254D306800B394F83800716841EACD
:100C10004030A96821F460410843A8604FF0A0402B
:100C200003F037FC81461B4803F033FC49EA000916
:100C3000B9F1000F27D1B16830680843A96840F6C0
:100C40001F7291430843A8601DE0A86820F460402B
:100C5000A8604FF0A04003F01CFC81460D4803F053
:100C600018FC49EA0009B9F1000F0CD1A86840F658
:100C70001F718843A86006E0FFE7E06D40F02000A8
:100C8000E0654FF0010800BF002084F8580000BF65
:100C900040468DE700010050000300502DE9F84F59
:100CA00005460C464FF0000A00200090FE49E0681F
:100CB000884200D000E000BF00BF95F8580001282E
:100CC00002D10220BDE8F88F012085F8580000BF4E
:100CD000286803F0E8FB00287DD12968D4E90020CA
:100CE00001F1300CC0F3012B0CEB8B03D3F800C0E7
:100CF00000F01F0E4FF01F0B0BFA0EFB2CEA0B0C33
:100D000000F01F0BC2F3846E0EFA0BFE4CEA0E0CC1
:100D1000C3F800C000BF286803F0C5FB81462868FF
:100D200003F0A8FB8046B9F1000F64D1B8F1000FC1
:100D3000FBD1A068B0F1004F0AD1216800222868D9
:100D400003F0CCFB4FF00041286803F0ECFB08E017
:100D5000A2682168286803F0C1FB0021286803F01D
:100D6000E2FB60692968C968C1F3C101490000FA62
:100D700001F7206904283FD028682268216900F122
:100D8000600C0CEB8103D3F800C0DFF820B30CEA51
:100D90000B0C02F0F84B4BF0004B4BEA070B4CEA04
:100DA0000B0CC3F800C000BF2868A269216900F1DC
:100DB000600C0CEB8103D3F800C02CF0807C4CEA73
:100DC000020CC3F800C000BF2868227F2169012AF5
:100DD00002D1520601E0C6E10022134600F1600C88
:100DE0000CEB8102D2F800C02CF0007C4CEA030C22
:100DF000C2F800C000BFA7E00021286803F031FB63
:100E0000C0F3120030B90021286803F02AFBC0F3B8
:100E1000846007E00021286803F023FB90FAA0F02B
:100E2000B0FA80F02168C1F3120119B92168C1F349
:100E3000846104E0216891FAA1F1B1FA81F188425C
:100E400004D100221146286803F062FB01212868C2
:100E500003F007FBC0F3120030B90121286803F04A
:100E600000FBC0F3846007E00121286803F0F9FA71
:100E700090FAA0F0B0FA80F02168C1F3120119B91C
:100E80002168C1F3846104E0216891FAA1F1B1FA0B
:100E900081F1884204D100220121286803F038FB47
:100EA0000221286803F0DDFAC0F3120030B90221F4
:100EB000286803F0D6FAC0F3846007E002212868AE
:100EC00003F0CFFA90FAA0F0B0FA80F02168C1F3F5
:100ED000120119B92168C1F3846104E0216891FA13
:100EE000A1F1B1FA81F1884204D1002202212868DF
:100EF00003F00EFB0321286803F0B3FAC0F31200DD
:100F000030B90321286803F0ACFAC0F3846007E02D
:100F10000321286803F0A5FA90FAA0F0B0FA80F057
:100F20002168C1F3120119B92168C1F3846104E099
:100F3000216891FAA1F1B1FA81F1884204D100222D
:100F40000321286803F0E4FA286803F09DFA0028DA
:100F500072D12868E2682168D0F8B030C1F3120C71
:100F600023EA0C0302F0180BDFF844C12CFA0BFC47
:100F70000CEA010C43EA0C03C0F8B03000BF4A4948
:100F8000E068884258D12368C3F312031BB9236871
:100F9000C3F3846304E0236893FAA3F3B3FA83F3FF
:100FA0005B1C03F01F03092B3ED82368C3F3120315
:100FB0001BB92368C3F3846304E0236893FAA3F3A3
:100FC000B3FA83F35B1C03F01F034FF0010C0CFA20
:100FD00003FC2368C3F312031BB92368C3F38463C0
:100FE00004E0236893FAA3F3B3FA83F35B1C03F0E2
:100FF0001F034CEA836C2368C3F312031BB92368F5
:10100000C3F3846304E0236893FAA3F3B3FA83F38E
:101010005B1C03F01F0303EB43034FF0000B4BEA91
:1010200003534CEA030347E02368C3F3120323B9D5
:101030002368C3F3846305E043E0236893FAA3F3D2
:10104000B3FA83F35B1C03F01F034FF0010C0CFA9F
:1010500003FC2368C3F312031BB92368C3F384633F
:1010600004E0236893FAA3F3B3FA83F35B1C03F061
:101070001F034CEA836C2368C3F312031BB9236874
:10108000C3F3846304E0236893FAA3F3B3FA83F30E
:101090005B1C03F01F030A3B03EB43034FF0007B91
:1010A0004BEA035306E0000000007F4000F0FF031E
:1010B000FFFF07004CEA03031946A268286803F003
:1010C0000DFA2F492068084050B300BF2D488068B2
:1010D00000F0E07600BF2C492068884203D02B49FD
:1010E000206888421DD106F40000D0B92868B0F10C
:1010F000A04F3ED146F40001224803F003FA2448F1
:1011000000682449B0FBF1F0401C00EB4000800077
:10111000009002E00098401E009000980028F9D14D
:1011200027E01D49206888420CD106F0807048B93C
:101130001A49286888421CD046F08071114803F093
:10114000E1F916E016492068884212D106F48000C1
:1011500078B91249286888420BD046F480010948C2
:1011600003F0D0F905E0E86D40F02000E8654FF0AD
:10117000010A00BF002085F8580000BF5046A1E5D5
:101180000000088000030050000021C31000C09040
:1011900010000020400D0300000052C70001005065
:1011A000000084CB70477047704700002DE9F84F6E
:1011B00004464FF000090020009014B90120BDE85A
:1011C000F88F606920B194F82400012800D100BF95
:1011D000E06D30B9204600F01DF90020206684F84B
:1011E000580020688168C1F3407131B1206881687E
:1011F000814A1140816000BF00BF206803F04EF9B2
:10120000B0B9206881687D4A114041F08051816009
:1012100000BF7B4800687B49B0FBF1F0401C4000F8
:10122000009002E00098401E009000980028F9D13C
:10123000206803F033F948B9E06D40F01000E06534
:10124000206E40F0010020664FF00109206803F095
:101250002AF90646E06D00F0100000287CD1002E2F
:10126000FCD1E06D20F4807040F00200E065206861
:1012700003F00AF9B0B94FF0A04003F005F9824637
:10128000614803F001F94AEA000ABAF1000F09D1F6
:1012900060685E49896821F47C1101435B4A916072
:1012A00000BF00BF607FE16B41EA4030E168084366
:1012B000A168084394F8241040EA014594F82400FA
:1012C000012803D1208D401E45EA4045E06A28B13F
:1012D000A08D00F47870216B084305432068C06836
:1012E0004B49084028432168C8602068006920F005
:1012F0004060616B084321680861206803F0D3F8FF
:101300008046206803F0B6F80746B8F1000F50D1C8
:10131000F7BB207F002141EA803194F8380041EA90
:1013200040052068C06844F20201884328432168D0
:10133000C860206988B12068006940F48030216865
:1013400008612068D0F8C0006FF30D0021690843E0
:101350002168C1F8C0000EE045E02068006920F473
:101360008030216808612068D0F8C0006FF30D005C
:101370002168C1F8C00094F84000012813D1606CC6
:1013800040F00101A06C0843E16C0843216D00E0CE
:101390000FE008432168096940F2FC729143084359
:1013A0002168086105E02068006920F001002168DB
:1013B00008616069012809D12068006B20F00F00E6
:1013C000216A491E08432168086305E02068006B14
:1013D00020F00F0021680863E06D20F0020040F06B
:1013E0000100E06505E0E06D40F01000E0654FF0C1
:1013F00001094846E3E60000C0FFFF5FC0FFFF7F32
:1014000010000020400D03000001005000030050B8
:101410000740F0FF10B586B00446142101A8FEF77E
:1014200031FF2068B0F1A04F42D100BF2148C06C0D
:1014300040F400501F49C8640846C06C00F40050D6
:10144000009000BF00BF00BF0846C06C40F0010024
:10145000C8640846C06C00F00100009000BF00BFE7
:101460000F200190032002900020039001A94FF06B
:10147000904000F0B3FC1048104908600520486017
:1014800000210E488160C1608021016149004161F5
:10149000890081612021C1610021016200F0C0FB4F
:1014A00008B1FFF71AFB00BF04486065846200BF03
:1014B00006B010BD0010024008000240CC00002021
:1014C0002DE9F04104460F4690463D4802F0C4FF26
:1014D0000646206802F0E7FF00286DD100BF94F8AF
:1014E0005800012802D10220BDE8F081012084F8D3
:1014F000580000BF1EB1052E01D0092E56D120463E
:10150000FFF74AFA0546002D4BD1E06D40F6016128
:10151000884340F48070E0652A492068884202D1FF
:101520004FF0A04000E020682168884200D01EB93A
:10153000E06D20F48010E065E06D00F4805020B193
:10154000206E20F00600206601E0002020661E4884
:10155000616DC8621D48616D08631D48616D486317
:101560001C202168086000BF002084F8580000BFDC
:101570002068406840F01000216848602068C0681A
:1015800040F001002168C860226802F14001434632
:101590003A46606D00F0ACFB0546206802F096FF0D
:1015A0000BE000BF002084F8580006E0012500BFD2
:1015B000002084F8580000E00225284694E7000047
:1015C000000300500001005045080008F50800081D
:1015D000D7080008704700002DE9F05F04460D466B
:1015E0001646E869012800D100BFA868042800D188
:1015F00000BF00BF6079012802D10220BDE8F09F42
:101600000120607100BF02202071A868042855D114
:1016100000F0D6FC8246D6B90CE000F0D1FCA0EB7D
:101620000A00012806D9206940F008002061032043
:101630002071E3E72068406B00F400400028ECD103
:10164000012000F0B7FB686A2168086419E00CE02B
:1016500000F0B6FCA0EB0A00012806D9206940F092
:101660000800206103202071C8E72068406B00F06B
:1016700000400028ECD1012000F09CFB686A216842
:1016800048642068806C06F0100240F2FF319140FF
:10169000884306F01002A96A9140084321688864D3
:1016A0002068C06C06F01002FF219140884306F0CC
:1016B0001002E96A914008432168C864E86901287A
:1016C0000FD12068876B06F010011F2088408743E8
:1016D000D5F8208006F0100008FA00F007432068D3
:1016E00087632068C76B06F0100107208840874396
:1016F000A869012802D14FF000090CE0A86902286E
:1017000002D14FF0010906E0686910B94FF00109F4
:1017100001E04FF000096969A868084340EA090838
:1017200006F010014FF48070884087432879012823
:1017300001D1000200E0002040EA080806F0100194
:101740004FF40070884087436879012801D1400236
:1017500000E0002040EA080827F4404728680228F3
:101760000FD101F027FC83462C498B4502D947F461
:10177000004708E02A48834502D947F4804702E041
:1017800001E02868074306F0100108FA01F007435A
:101790002068C7632068006806F010024FF480419B
:1017A00091408843216808602068076806F01001AE
:1017B00040F6FE7088408743D5F80C8006F0100193
:1017C00008FA01F00743206807602068006806F007
:1017D0001002C0219140884321680860287BC0F333
:1017E0008308287CC0F3830048EA00282068006E44
:1017F00006F0100240F60F719140884306F0100188
:1018000008FA01F10843216808660120207100BF31
:101810000020607100BF00BFF0E600000068890989
:1018200000B4C404704710B504462068006800F492
:101830000050B0F5005F19D12068406B00F40050F3
:10184000B0F5005F12D104202071206940F0010042
:1018500020614FF40050216848632068006820F43C
:101860008050216808602046FFF7DCFF2068006890
:1018700000F00050B0F1005F19D12068406B00F01B
:101880000050B0F1005F12D104202071206940F0B7
:10189000020020614FF00050216848632068006812
:1018A00020F08050216808602046FFF793FE10BDAD
:1018B00010B504460CB9012010BD207920B90020D4
:1018C0006071204600F008F802202071002020619D
:1018D000012020710020EFE710B586B004461421E6
:1018E00001A8FEF7CFFC1A49206888422DD100BF1D
:1018F0001848C06C40F480301649C8640846C06C73
:1019000000F48030009000BF00BF00BF0846C06CEC
:1019100040F00100C8640846C06C00F0010000906F
:1019200000BF00BF10200190032002900020039010
:1019300001A94FF0904000F051FA002211463620E4
:1019400000F054FE362000F03DFE06B010BD000051
:10195000000800500010024078B5044600200090B6
:101960002068C06B01F010064FF48075B540284028
:1019700000B900BF2068009029B902F10800009D5D
:101980002844009004E002F11400009D28440090D7
:1019900000980360002078BD70B504460D4600BF76
:1019A0006079012801D1022070BD0120607100BF63
:1019B000022020712068006805F01002012191408A
:1019C000084321680860012000F0F4F965B9206837
:1019D000006800F03E00022816D12068406840F000
:1019E0000100216848600FE02068006800F4781169
:1019F00005F0100202209040814205D12068406825
:101A000040F00200216848600120207100BF0020E2
:101A1000607100BF00BFC7E70146002091F8252094
:101A2000022A03D00422CA63012027E00A68126850
:101A300022F00E020B681A608A6C126822F480721F
:101A40008B6C1A600A68126822F001020B681A6037
:101A500091F8442002F01F0301229A400B6C5A6057
:101A6000D1E913325A604A6D42B14A6D126822F4CC
:101A700080724B6D1A60D1E916325A60012281F8EA
:101A8000252000BF002281F8242000BF704770B5D8
:101A90000446002594F8250002280BD00420E063BA
:101AA000012084F8250000BF002084F8240000BF36
:101AB000012534E02068006820F00E0021680860ED
:101AC0002068006820F0010021680860A06C0068B0
:101AD00020F48070A16C086094F8440000F01F01AD
:101AE00001208840216C4860D4E913104860606D83
:101AF00040B1606D006820F48070616D0860D4E9C9
:101B000016104860012084F8250000BF002084F8EA
:101B1000240000BFA06B10B12046A16B8847284667
:101B200070BD70B50446206C05682068066894F89E
:101B3000440000F01F01042088402840E0B106F076
:101B40000400C8B12068006800F0200028B92068AF
:101B5000006820F004002168086094F8440000F058
:101B60001F0104208840216C4860206B002856D05B
:101B70002046216B884752E094F8440000F01F0192
:101B800002208840284018B306F0020000B3206805
:101B9000006800F0200040B92068006820F00A00CA
:101BA00021680860012084F8250094F8440000F0C2
:101BB0001F0102208840216C486000BF002084F88B
:101BC000240000BFE06A50B32046E16A884726E05F
:101BD00094F8440000F01F01082088402840F0B12C
:101BE00006F00800D8B12068006820F00E002168D7
:101BF000086094F8440000F01F0101208840216C27
:101C000048600120E06384F8250000BF002084F8CC
:101C1000240000BF606B10B12046616B884770BD27
:101C200070B504460CB9012070BD2F492068884268
:101C30000BD22E492068401A1421B0FBF1F080002D
:101C400060642A48083820640AE027492068401A5E
:101C50001421B0FBF1F08000606423480838206450
:101C6000022084F825002068056847F6F070854357
:101C7000D4E9020108432169084361690843A16965
:101C80000843E1690843216A084305432068056069
:101C90002046FEF7CDFEA068B0F5804F01D10020B0
:101CA00060602079A16C0860D4E913104860606816
:101CB00060B16068042809D82046FEF7DBFE0020EA
:101CC000616D0860D4E91610486003E0002060658B
:101CD000A065E0650020E063012084F82500002075
:101CE00084F8240000BF9FE7080402400800024077
:101CF0002DE9F04104460D4616461F464FF00008F8
:101D000000BF94F82400012802D10220BDE8F08130
:101D1000012084F8240000BF94F8250001283FD159
:101D2000022084F825000020E0632068006820F08D
:101D30000100216808603B46324629462046FEF7EE
:101D4000ABFE206B30B12068006840F00E002168C7
:101D500008600BE02068006820F00400216808603B
:101D60002068006840F00A0021680860A06C0068E4
:101D700000F4803028B1A06C006840F48070A16C41
:101D80000860606D28B1606D006840F48070616D1E
:101D900008602068006840F001002168086006E0E3
:101DA00000BF002084F8240000BF4FF00208404626
:101DB000ACE7000070B5044600F002F9064625467F
:101DC000681C10B104480068054400BF00F0F8F832
:101DD000801BA842FAD370BD0C00002078B50346E2
:101DE0000022D0E0012696400D6805EA0604002C8A
:101DF00072D04D68012D08D04D68022D05D04D6878
:101E0000112D02D04D68122D13D19868560003256C
:101E1000B540A8435600CD68B5402843986058683F
:101E200001259540A8430D79C5F300159540284339
:101E30005860D86856000325B540A84356008D6801
:101E4000B5402843D8604D68022D02D04D68122D50
:101E500013D1D60803F1200555F826005507EE0EDC
:101E60000F25B540A8435607F60E0D69B540284327
:101E7000D60803F1200545F826001868560003250A
:101E8000B540A8430D7905F003055600B540284339
:101E900018604D6805F08055B5F1805F72D100BFC4
:101EA0003C4D2D6E45F001053A4E356635462D6E9A
:101EB00005F00105009500BF00BF4FEAB635960852
:101EC00055F8260095072E0F0F25B540A843B3F10E
:101ED000904F02D100251AE054E02F4DAB4201D1C2
:101EE000012514E02D4DAB4201D102250FE02C4D10
:101EF000AB4201D103250AE02A4DAB4201D10425B2
:101F000005E0294DAB4201D1052500E006259607E5
:101F1000360FB5402843254D960845F82600244D38
:101F20002868A0434D6805F48035B5F5803F00D1A1
:101F300020431F4D28602D1D2868A0434D6805F4DF
:101F40000035B5F5003F00D12043194D2D1D286007
:101F50002D1D2868A0434D6805F48015B5F5801F38
:101F600000D12043124D083528602D1D2868A0435C
:101F70004D6805F40015B5F5001F00D120430C4D48
:101F80000C352860521C0D68D540002D7FF42AAF17
:101F900078BD00000010024000040048000800481E
:101FA000000C0048001000480014004808000140E0
:101FB000000401400AB1816100E0816270470000C5
:101FC000014800687047000004000020024692F8B3
:101FD000410020282DD100BF92F84000012801D1F6
:101FE00002207047012082F8400000BF242082F8C0
:101FF00041001068006820F0010013681860106844
:10200000006820F480501368186010680068084366
:10201000136818601068006840F0010013681860C9
:10202000202082F8410000BF002082F8400000BF5D
:10203000D7E70220D5E710B502460B4692F84100DB
:1020400020282AD100BF92F84000012801D10220A7
:1020500010BD012082F8400000BF242082F841001A
:102060001068006820F001001468206010680168A2
:1020700021F4706141EA0321106801601068006872
:1020800040F0010014682060202082F8410000BF69
:10209000002082F8400000BFDAE70220D8E7000005
:1020A00010B504460CB9012010BD94F8410028B9C0
:1020B000002084F84000204600F0C2F9242084F873
:1020C00041002068006820F0010021680860606815
:1020D00020F07060216808612068806820F400406A
:1020E00021688860E068012805D1A06840F40040BC
:1020F0002168886004E0A06840F40440216888609A
:10210000E068022802D180022168486020684068A7
:1021100013490843216848602068C06820F40040E3
:102120002168C860D4E904010843A16940EA01209C
:102130002168C860D4E90701084321680860206865
:10214000006840F0010021680860002060642020E1
:1021500084F841000020206384F8420000BFA3E718
:10216000008000022DE9FC4704460F4690461E46BB
:102170000020019094F84100202872D120688069E5
:10218000C0F3C03010B10220BDE8FC8700BF94F856
:102190004000012801D10220F6E7012084F8400028
:1021A00000BF242084F841000020606400BFE06884
:1021B000012806D1C7F3090040F4005040F0007038
:1021C00003E0C7F3090040F4205021684860FFF79E
:1021D000F7FE054620688069C0F3401920688069D1
:1021E000C0F3001A1DE0701C98B1FFF7E9FE401B18
:1021F000B04200D86EB9202084F84100606C40F0F5
:102200002000606400BF002084F8400000BF01206F
:10221000BAE720688069C0F3401920688069C0F37C
:10222000001AB9F1000F02D1BAF1000FDBD020681B
:102230008069C0F30010A8B933460022202120464F
:10224000009502F079F808B101209DE7202021686F
:10225000C86184F8410000BF002084F8400000BF3E
:1022600092E73AE03346002220212046009502F012
:1022700063F808B1012087E710202168C861202099
:102280002168C8610198404512D12068406840F437
:102290008040216848603346002220212046009576
:1022A00002F04AF808B101206EE720202168C861D9
:1022B0000198401C019001984045FFF478AF202020
:1022C00084F84100606C40F02000606400BF002092
:1022D00084F8400000BF012056E7022054E70000C8
:1022E0002DE9F8430446894616461F46DDF820804E
:1022F00094F84100202871D100BF94F840000128D3
:1023000002D10220BDE8F883012084F8400000BF1C
:10231000FFF756FE054619230122D10320460095FA
:1023200002F00AF808B10120ECE7212084F841000E
:10233000102084F842000020606466626785606354
:10234000608DFF280BD9FF2020853B48009094F832
:102350002820C3024946204601F0D4FF0AE0608DE0
:1023600020853548009094F82820030349462046EC
:1023700001F0C8FF3FE02A464146204602F036F809
:1023800008B10120BEE7606A007821688862606A4F
:10239000401C6062608D401E6085208D401E20853F
:1023A000608D40B3208D30BB434600228021204603
:1023B000009501F0C1FF08B10120A3E7608DFF285F
:1023C0000DD9FF2020850020009094F828204FF0A0
:1023D00080734946204601F095FF0CE02AE0608DAD
:1023E00020850020009094F828204FF00073494683
:1023F000204601F087FF608D0028BCD12A46414667
:10240000204601F0C8FF08B101207BE720202168A9
:10241000C861206840680949084021684860202058
:1024200084F84100002084F8420000BF84F8400096
:1024300000BF67E7022065E70020008000E800FE9B
:1024400010B586B00446142101A8FDF71BFF2549ED
:102450002068884244D100BF2348C06C40F001008E
:102460002149C8640846C06C00F00100009000BF1C
:1024700000BF00BF0846C06C40F00200C8640846B8
:10248000C06C00F00200009000BF00BF4FF400409D
:1024900001901220029000200390049004200590E7
:1024A00001A94FF09040FFF799FC80200190122085
:1024B00002900020039004900420059001A90B488D
:1024C000FFF78CFC00BF0848806D40F400100649FF
:1024D00088650846806D00F40010009000BF00BFC2
:1024E00006B010BD00540040001002400004004837
:1024F00003480068034909680844014908607047B7
:10250000040000200C00002010B50024032000F07F
:10251000ABF80F2000F008F808B1012401E000F04A
:102520002FF8204610BD000070B504460025114864
:102530000068D8B10F4800684FF47A71B1FBF0F031
:102540000D490968B1FBF0F6304601F017F958B9AA
:10255000102C07D200222146501E00F047F80748F1
:10256000046004E0012502E0012500E00125284681
:1025700070BD00000C0000201000002008000020AA
:1025800008B500BF0E48006E40F001000C49086617
:102590000846006E00F00100009000BF00BF00BFC1
:1025A0000846806D40F0805088650846806D00F0D8
:1025B0008050009000BF00BF00F028FA08BD000066
:1025C000001002400146084600280DDB00BF00BF96
:1025D00000F01F0301229A4043099B0003F1E0230E
:1025E000C3F8002100BF00BF00BF70472DE9F05FB6
:1025F00080460D46164603F0C5FB074639462A4677
:10260000334601F00700C0F1070ABAF1040F02D9FE
:102610004FF0040A01E0C0F1070AD14600F1040AB4
:10262000BAF1070F02D24FF0000A01E0A0F1030A4D
:10263000D4464FF0010A0AFA09FAAAF1010A0AEA95
:10264000020A0AFA0CFA4FF0010B0BFA0CFBABF181
:10265000010B0BEA030B4AEA0B042146404603F048
:1026600099FBBDE8F09F000000BF00F00702064B99
:1026700019684FF6FF031940044B0B4343EA02214C
:10268000014B196000BF70470CED00E00000FA0537
:1026900000BF00BF00BF00BF00BFBFF34F8F00BF30
:1026A00000BF00BF0948006800F4E0600849084323
:1026B000001D0649086000BF00BF00BFBFF34F8F79
:1026C00000BF00BF00BF00BF00BFFDE70CED00E092
:1026D0000000FA0538B5044600250CB9012038BDC4
:1026E00094F83A00052801D10120F8E794F83A005F
:1026F000022801D10120F2E7A06800B900BFA0695B
:1027000000B100BFA068402800D100BFE06A1028D7
:1027100000D100BF00BF4248006E40F001004049B8
:1027200008660846006E00F00100009000BF00BF80
:1027300094F83A0010B9002084F83900204600F0DF
:1027400073F8A068402802D0A068602826D12068CD
:10275000006820F01000E16A084321680860D4E9AD
:102760000101084321690843217D012901D10902A2
:1027700000E000210843616A0843A16A0843218EF2
:1027800040EAC14194F8340041EA006021680968D8
:10279000244A114008432168086027E02068006847
:1027A00020F01000E16A084321680860D4E90101C3
:1027B0000843E168084321690843217D012901D1CB
:1027C000090200E000210843616A0843A16A084346
:1027D000218E40EAC14194F8340041EA006021684A
:1027E0000968104A11400843216808602068806920
:1027F00000F0004058B9D4E906010843216A0843B3
:102800002168896921F03F0108432168886194F8B3
:102810003A0010B9012084F83A0028465FE700002A
:1028200000100240113E00E010B586B004461421AD
:1028300001A8FDF727FD1E492068884219D100BF75
:102840001C48C06C40F001001A49C8640846C06CBE
:1028500000F00100009000BF00BFE02001900320C5
:1028600002900020039001A94FF09040FFF7B6FAC4
:102870001CE00F49091D2068884217D100BF0D4890
:10288000C06C40F002000B49C8640846C06C00F000
:102890000200009000BF00BF0720019003200290BB
:1028A0000020039001A90448FFF798FA06B010BD74
:1028B00004030140001002400004004801460020CB
:1028C00009B9012014E091F83A20052A01D101202C
:1028D0000EE091F83A20012A09D10A68126842F004
:1028E00001020B681A60042281F83A2000E00120FE
:1028F0007047000002468ABB4148006800F4C0608F
:10290000B0F5806F2BD13E488030006820F4807095
:102910003B4BC3F880001846006820F4C06040F4C8
:10292000007018603748006832235843364BB0FBBC
:10293000F3F0411C00E0491E3148406900F480601A
:10294000B0F5806F01D10029F5D12D48406900F420
:102950008060B0F5806F51D10320704708E02848AF
:102960008030006820F48070254BC3F8800045E07B
:10297000B2F5007F3AD12248006800F4C060B0F59B
:10298000806F2AD11E488030006840F480701C4B54
:10299000C3F880001846006820F4C06040F400705E
:1029A00018601848006832235843174BB0FBF3F007
:1029B000411C00E0491E1248406900F48060B0F5F7
:1029C000806F01D10029F5D10D48406900F4806085
:1029D000B0F5806F12D10320BFE70948803000684E
:1029E00040F48070064BC3F8800007E0044800689C
:1029F00020F4C06040F48060014B18600020ACE718
:102A0000007000401000002040420F000348806822
:102A100040F4804001498860704700000070004029
:102A20002DE9F84304460027B846206800F400204A
:102A3000B0F5002F73D1B946D348806D00F08050B7
:102A400078B900BFD048806D40F08050CE4988658D
:102A50000846806D00F08050009000BF00BF4FF02E
:102A60000109CA48006840F48070C8490860FFF74F
:102A7000A7FA064606E0FFF7A3FA801B022801D951
:102A8000032705E0C148006800F480700028F2D0F8
:102A900000BF002F46D1BC489030006800F440755C
:102AA000CDB1206CA84216D0B7489030006820F411
:102AB0004075B548D0F8900040F48030B249C1F874
:102AC00090000846D0F8900020F48030C1F89000C3
:102AD0000846C0F8905005F00100A0B1FFF770FA69
:102AE000064608E0FFF76CFA801B41F28831884205
:102AF00001D9032706E0A4489030006800F00200E6
:102B00000028EFD000BF5FB99F489030006820F4E4
:102B10004070216C08439C49C1F8900003E00CE030
:102B2000B84600E0B846B9F1010F05D19648806D6E
:102B300020F080509449886500BF207800F00100A3
:102B400048B191488830006820F00300616808436C
:102B50008D49C1F88800207800F00200022809D1D0
:102B600089488830006820F00C00A1680843864935
:102B7000C1F88800207800F00400042809D18248B8
:102B80008830006820F03000E16808437E49C1F8D1
:102B90008800207800F00800082809D17A48883099
:102BA000006820F0C000216908437749C1F8880017
:102BB000207800F02000202809D173488830006870
:102BC00020F44060616908436F49C1F888002078AB
:102BD00000F04000402809D16B488830006820F49C
:102BE0004050A16908436849C1F88800207800F086
:102BF0008000802809D164488830006820F4404073
:102C0000E16908436049C1F88800208800F48070B9
:102C1000B0F5807F09D15C488830006820F44030EE
:102C2000216A08435849C1F88800208800F40070E0
:102C3000B0F5007F09D154488830006820F4402066
:102C4000616A08435049C1F88800208800F4806018
:102C5000B0F5806F13D14C488830006820F44010E4
:102C6000A16A0843484988310860A06AB0F5801F0E
:102C700005D14548C06840F480104349C8602088A9
:102C800000F40060B0F5006F13D13F488830006851
:102C900020F44000E16A08433B4988310860E06A5B
:102CA000B0F5800F05D13848C06840F4801036492F
:102CB000C860208800F48050B0F5805F13D132489E
:102CC0008830006820F04070216B08432E4988311D
:102CD0000860206BB0F1807F05D12B48C06840F4BC
:102CE00080102949C860208800F40050B0F5005FCA
:102CF00013D125488830006820F04060616B08439C
:102D0000214988310860606BB0F1006F05D11E4821
:102D1000C06840F480101C49C860208800F48040DE
:102D2000B0F5804F13D118488830006820F040601B
:102D3000A16B0843144988310860A06BB0F1006FA3
:102D400005D11148C06840F480100F49C860208840
:102D500000F40040B0F5004F13D10B4888300068F4
:102D600020F04050E16B0843074988310860E06B70
:102D7000B0F1805F05D10448C06840F4803002495A
:102D8000C8604046BDE8F883001002400070004073
:102D90002DE9F04104460D464FF0000814B901201A
:102DA000BDE8F0817D48006800F00F00A8420ED217
:102DB0007A48006820F00F002843784908600846E8
:102DC000006800F00F00A84201D00120E8E7207859
:102DD00000F00100002864D06068032823D1704807
:102DE000006800F0007008B90120D9E701F0ECFD9F
:102DF00006466C48864237D96948806800F0F00082
:102E000030B1207800F0020002282DD1A06858BB14
:102E10006348806820F0F00040F0800060498860DE
:102E20004FF0800820E06068022806D15C48006806
:102E300000F4003040B90120B2E75948006800F4BE
:102E4000806008B90120ABE700F0DEF8064655487F
:102E5000864209D95248806820F0F00040F0800096
:102E60004F4988604FF080084D48806820F003008B
:102E7000616808434A498860FFF7A2F8074608E0FE
:102E8000FFF79EF8C01B41F28831884201D9032028
:102E900086E74348806800F00C006168B0EB810F62
:102EA000EED1207800F00200022820D1207800F036
:102EB0000400042805D13A48806840F4E0603849AD
:102EC0008860207800F00800082807D1344880681E
:102ED00020F4605040F4E0603149886030488068F8
:102EE00020F0F000A16808432D49886008E0B8F19F
:102EF000800F05D12A48806820F0F00028498860BA
:102F00002648006800F00F00A84219D9234800683D
:102F100020F00F00284321490860FFF751F80746C9
:102F200008E0FFF74DF8C01B41F28831884201D913
:102F3000032035E71948006800F00F00A842F0D1DF
:102F4000207800F00400042807D11548806820F498
:102F5000E060E168084312498860207800F00800CA
:102F6000082808D10E48806820F46050216940EAA2
:102F7000C1000B49886000F047F809498968C1F32E
:102F80000311094A515C01F01F01C840074908605C
:102F900007480068FFF7C8FA02E700000020024077
:102FA0000010024000B4C404706800081000002043
:102FB0000800002001480068704700001000002051
:102FC00000B5FFF7F7FF05498968C1F30221044AFC
:102FD000515C01F01F01C84000BD0000001002401C
:102FE0008068000800B5FFF7E5FF05498968C1F36F
:102FF000C221044A515C01F01F01C84000BD00001D
:10300000001002408068000870B5224DAD6805F0E0
:103010000C05042D01D120483AE01E4DAD6805F0A5
:103020000C05082D01D11D4832E01A4DAD6805F0A0
:103030000C050C2D2BD1174DED6805F00304154D33
:10304000ED68C5F303156A1C022C0CD0032C09D1C2
:10305000124DB5FBF2F50F4EF668C6F3062605FBDA
:1030600006F10AE000BF0C4DB5FBF2F5094EF6681B
:10307000C6F3062605FB06F100BF00BF054DED684F
:10308000C5F341656D1C6B00B1FBF3F000E000205F
:1030900070BD0000001002400024F40000127A000D
:1030A0002DE9F843044614B90120BDE8F8832078DF
:1030B00000F00100002865D0FC48806800F00C0793
:1030C000FA48C06800F003060C2F01D1032E01D08E
:1030D000082F0AD1F548006800F40030002851D0CC
:1030E000606800284ED10120DFE700BF6068B0F5BE
:1030F000803F06D1ED48006840F48030EB4908601D
:103100001AE06068B0F5A02F0BD1E848006840F4E1
:103110008020E64908600846006840F48030086076
:103120000AE0E248006820F48030E0490860084680
:10313000006820F48020086000BF606888B1FEF756
:103140003FFF054606E0FEF73BFF401B642801D920
:103150000320AAE7D548006800F400300028F2D028
:1031600010E0FEF72DFF054606E0FEF729FF401BA5
:10317000642801D9032098E7CC48006800F40030A7
:103180000028F2D1207800F00200022860D1C74860
:10319000806800F00C07C548C06800F003060C2FDB
:1031A00001D1022E01D0042F18D1C048006800F4CC
:1031B000806018B1E06808B9012076E7BB48406834
:1031C00020F0FE40217C40EA0160B8494860B848E0
:1031D0000068FFF7A9F918B3012066E7E06800B3BB
:1031E000B248006840F48070B0490860FEF7E8FE1D
:1031F000054606E0FEF7E4FE401B022801D9032045
:1032000053E7AA48006800F480600028F2D0A7487D
:10321000406820F0FE40217C40EA0160A3494860FC
:1032200016E0A248006820F48070A0490860FEF70C
:10323000C7FE054606E0FEF7C3FE401B022801D983
:10324000032032E79948006800F480600028F2D13A
:10325000207800F00800082836D16069D0B1934882
:103260009430006840F001009049C1F89400FEF7E6
:10327000A7FE054606E0FEF7A3FE401B022801D983
:10328000032012E789489430006800F0020000280B
:10329000F1D019E085489430006820F0010083499E
:1032A000C1F89400FEF78CFE054606E0FEF788FEA6
:1032B000401B022801D90320F7E67C4894300068BF
:1032C00000F002000028F1D1207800F0040004286A
:1032D00072D14FF000087548806D012121EA10700D
:1032E00078B100BF7148806D40F080506F498865AB
:1032F0000846806D00F08050009000BF00BF4FF086
:1033000001086C48006800F48070B0B96948006832
:1033100040F4807067490860FEF752FE054606E0FB
:10332000FEF74EFE401B022801D90320BDE661488E
:10333000006800F480700028F2D000BFA068012867
:1033400008D15A489030006840F001005749C1F850
:10335000900021E0A06805280FD154489030006803
:1033600040F004005149C1F890000846D0F89000A0
:1033700040F00100C1F890000EE04C489030006829
:1033800020F001004949C1F890000846D0F89000AB
:1033900020F00400C1F8900000BFA068A8B1FEF7BB
:1033A0000FFE054609E0FEF70BFE401B41F2883197
:1033B000884202D9032078E625E03C489030006836
:1033C00000F002000028EED013E0FEF7F9FD0546FC
:1033D00008E0FEF7F5FD401B41F28831884201D933
:1033E000032062E631489030006800F002000028B7
:1033F000EFD1B8F1010F05D12C48806D20F080503D
:103400002A49886500BF207800F02000202836D1A6
:10341000A069D0B125489830006840F001002349E8
:10342000C1F89800FEF7CCFD054606E0FEF7C8FDA2
:10343000401B022801D9032037E61C489830006859
:1034400000F002000028F1D019E018489830006818
:1034500020F001001549C1F89800FEF7B1FD0546BE
:1034600006E0FEF7ADFD401B022801D903201CE653
:103470000E489830006800F002000028F1D1E069A1
:10348000002860D00948806800F00C000C287FD02C
:10349000E069022858D10548006820F0807003498F
:1034A0000860FEF78DFD05460DE0000000100240AB
:1034B0000800002000700040FEF782FD401B02283B
:1034C00001D90320F1E54D48006800F000700028A4
:1034D000F2D1D4E90810401E41EA0011A06A41EA85
:1034E0000021208E0122C2EB500041EA40513420DD
:1034F000005DC2EB500041EA40612C20005D41EAD2
:10350000C0603E49C9683E4A114008433B49C86013
:103510000846006840F0807008600846C06840F0C7
:103520008070C860FEF74CFD054606E0FEF748FDDA
:10353000401B022801D90320B7E53048006800F09D
:1035400000700028F2D056E02C48006820F080700F
:103550002A4908600846C06820F00300C860084691
:10356000C068284908402549C860FEF729FD05467E
:1035700007E00DE0FEF724FD401B022801D90320DF
:1035800093E51E48006800F000700028F2D132E098
:10359000E069012800D188E51848C66806F00301F3
:1035A000206A814225D106F0F001606A401EB1EB2D
:1035B000001F1ED106F4FE41A06AB1EB002F18D106
:1035C00006F078412C20005DB1EBC06F11D106F4FC
:1035D000C001208E0122C2EB5000B1EB405F08D148
:1035E00006F0C0613420005DC2EB5000B1EB406FCB
:1035F00001D0012059E5002057E5000000100240ED
:103600000C809F01FFFFEEFE70B504460CB901204F
:1036100070BD606A38B96068B0F5827F00D105E09E
:103620000021E16102E00021216161610021A162CC
:1036300094F85D0028B9002084F85C00204600F072
:1036400061F8022084F85D002068006820F04000E6
:1036500021680860E068B0F5E06F01D9002501E05D
:103660004FF48055E068B0F5706F05D0E068B0F5B4
:10367000E06F01D00021A162A08800F4827021894E
:1036800001F404410843217C01F002010843217D3B
:1036900001F001010843218B01F400710843217FEF
:1036A00001F0380108432021095D01F08001084341
:1036B000218D01F400510843216808600421A069AC
:1036C00001EA104094F8241001F01001084394F826
:1036D000341001F008010843A18901F47061084326
:1036E00005F480510843216848602068C06920F4CF
:1036F00000602168C86100202066012084F85D0018
:10370000002085E710B586B00446142101A8FCF717
:10371000B9FD17492068884227D100BF1548006EBF
:1037200040F48050134908660846006E00F480504B
:10373000009000BF00BF00BF0846C06C40F0020010
:10374000C8640846C06C00F00200009000BF00BFD3
:103750003820019002200290002003900490052060
:10376000059001A90448FEF739FB06B010BD000022
:1037700000300140001002400004004870B50446CB
:103780002546681EB0F1807F01D301200FE0681E3E
:103790004FF0E02148610F214FF0FF3002F0FAFABC
:1037A00000204FF0E021886107200861002070BDF3
:1037B00070477047704770477047704730B5024692
:1037C0000B4600BF92F83C00012801D1022030BD19
:1037D000012082F83C0000BF022082F83D00106802
:1037E0004168106884681D4D1068A84203D01C4DC4
:1037F0001068A84203D121F47001586801431948A8
:1038000001401868014310684160144D1068A842D7
:1038100013D01068B0F1804F0FD0134D1068A8423C
:103820000BD0124D1068A84207D00D4D1068A84269
:1038300003D00F4D1068A84205D124F08004986889
:10384000044310688460012082F83D0000BF00201E
:1038500082F83C0000BF00BFB9E70000002C014027
:10386000003401408FFFFFFD0004004000080040CD
:1038700000400140704710B504460CB9012010BD4E
:1038800094F83D0028B9002084F83C00204600F060
:1038900029F8022084F83D00211D206801F0DCFA9F
:1038A000012084F8480000BF84F83E0001213F2039
:1038B000015540200155412001554220015543202A
:1038C000015500BF00BF012084F844004520015588
:1038D000462001554720015500BF012084F83D00D6
:1038E0000020CCE738B504461A492068884216D132
:1038F00000BF1948806D40F01000174988650846E0
:10390000806D00F01000009000BF00BF0022114643
:103910003620FEF76BFE3620FEF754FE19E00F4905
:103920002068884215D100BF0B48806D40F0200010
:10393000094988650846806D00F02000009000BFAE
:1039400000BF002211463720FEF750FE3720FEF759
:1039500039FE38BD00100040001002400014004045
:10396000014691F83D00012801D001207047022056
:1039700081F83D000868C06840F001000B68D8601D
:10398000184B0868984213D00868B0F1804F0FD0E8
:10399000154B086898420BD0144B0868984207D022
:1039A000134B0868984203D0124B0868984210D114
:1039B00008688068104B00EA0302062A0FD0B2F5AF
:1039C000803F0CD00868006840F001000B68186068
:1039D00005E00868006840F001000B6818600020EE
:1039E000C4E70000002C0140000400400008004033
:1039F000003401400040014007000100704710B54D
:103A0000044620680069C0F34000D8B12068C0684F
:103A1000C0F34000B0B16FF00200216808610120DE
:103A200020772068806900F0030018B12046FFF776
:103A3000E5FF05E0204600F002F9204600F000F91D
:103A40000020207720680069C0F38000D8B120688A
:103A5000C068C0F38000B0B16FF004002168086155
:103A6000022020772068806900F4407018B1204659
:103A7000FFF7C4FF05E0204600F0E1F8204600F023
:103A8000DFF80020207720680069C0F3C000D8B1BB
:103A90002068C068C0F3C000B0B16FF008002168B2
:103AA0000861042020772068C06900F0030018B185
:103AB0002046FFF7A3FF05E0204600F0C0F82046AF
:103AC00000F0BEF80020207720680069C0F30010E5
:103AD000D8B12068C068C0F30010B0B16FF010001A
:103AE00021680861082020772068C06900F44070D0
:103AF00018B12046FFF782FF05E0204600F09FF84E
:103B0000204600F09DF8002020772068006900F032
:103B1000010058B12068C06800F0010030B16FF0BA
:103B2000010021680861204600F08CF820680069D7
:103B3000C0F3C01058B12068C068C0F3C01030B1E5
:103B40006FF08000216808612046FFF732FE206890
:103B50000069C0F3002058B12068C068C0F3C010ED
:103B600030B16FF48070216808612046FFF720FEB5
:103B700020680069C0F3801058B12068C068C0F3A5
:103B8000801030B16FF0400021680861204600F0DD
:103B90007BF820680069C0F3401058B12068C06805
:103BA000C0F3401030B16FF020002168086120465A
:103BB000FFF700FE20680069C0F3005058B120688C
:103BC000C068C0F3005030B16FF480102168086104
:103BD0002046FFF7F1FD20680069C0F3405058B15E
:103BE0002068C068C0F3405030B16FF40010216805
:103BF00008612046FFF7DFFD20680069C0F38050B0
:103C000058B12068C068C0F3805030B16FF48000B4
:103C1000216808612046FFF7D0FD20680069C0F3E5
:103C2000C05058B12068C068C0F3C05030B16FF4C4
:103C30000000216808612046FFF71CFE10BD704798
:103C4000704700000B4A0168914212D101210A4AD3
:103C500011700A4A11700A490978491C084A117002
:103C600011460978F02904DB002111700121054A71
:103C70001170704700100040160000201500002051
:103C800021000020220000207047014600BF91F86B
:103C90008000012801D102207047012081F88000B6
:103CA00000BF2420C1F88400086802680868006822
:103CB00020F001000B68186022F0005200204866D6
:103CC000086802602020C1F8840000BF002081F84D
:103CD000800000BF00BFDFE77047704770B5044643
:103CE0000D4600BF94F88000012801D1022070BD6C
:103CF000012084F8800000BF2420C4F884002068DC
:103D000006682068006820F00100216808602068CB
:103D1000806820F06060284321688860204601F0B8
:103D20006DF9206806602020C4F8840000BF0020E0
:103D300084F8800000BF00BFD9E770B504460D4687
:103D400000BF94F88000012801D1022070BD01203D
:103D500084F8800000BF2420C4F88400206806682E
:103D60002068006820F001002168086020688068F1
:103D700020F06040284321688860204601F03EF929
:103D8000206806602020C4F8840000BF002084F86A
:103D9000800000BF00BFD9E7704770477047000040
:103DA0002DE9F04704462068C56920680668206848
:103DB000876840F60F0005EA0009B9F1000F0FD13E
:103DC00005F0200060B106F0200010B907F0805027
:103DD00030B1206F10B12046216F8847BDE8F087D1
:103DE000B9F1000F7ED0AD48384018B9AC4830402A
:103DF0000028F7D005F0010058B106F4807040B1FA
:103E0000012021680862D4F88C0040F00100C4F859
:103E10008C0005F0020058B107F0010040B102200B
:103E200021680862D4F88C0040F00400C4F88C00CB
:103E300005F0040058B107F0010040B104202168EA
:103E40000862D4F88C0040F00200C4F88C0005F041
:103E5000080070B106F0200010B99048384040B119
:103E6000082021680862D4F88C0040F00800C4F8EB
:103E70008C0005F4006060B106F0806048B14FF43A
:103E8000006021680862D4F88C0040F02000C4F87B
:103E90008C00D4F88C00002844D005F0200050B1EC
:103EA00006F0200010B907F0805020B1206F10B14B
:103EB0002046216F8847D4F88CA02068806800F0E5
:103EC0004000402802D00AF0280028B3204601F024
:103ED00085F92068806800F04000402818D12068EB
:103EE000806800E01FE020F0400021688860E06FFB
:103EF00050B16C48E16F8863E06FFDF7C8FD88B191
:103F0000E06F816B88470DE02046FFF747FF09E02F
:103F10002046FFF743FF05E02046FFF73FFF002064
:103F2000C4F88C005AE7E06E012879D105F0100042
:103F3000002875D006F01000002871D010202168EC
:103F400008622068806800F0400040283DD1E06FA2
:103F5000006840681FFA80F8B8F1000F34D0B4F858
:103F60005C00404530DDA4F85E80E06F00680068CA
:103F700000F02000F8B92068006820F48070216803
:103F800008602068806820F001002168886020684F
:103F9000806820F04000216888602020C4F88800F4
:103FA0000020E0662068006820F0100021680860AA
:103FB000E06FFDF731FDB4F85C00B4F85E20801AC4
:103FC00081B22046FFF788FE08E734F85C0F61886D
:103FD000401A1FFA80F860885C3CF8B1B8F1000F15
:103FE0001CD02068006820F4907021680860206868
:103FF00080682A49C9430840216888602020C4F8A5
:1040000088000020E06620672068006820F010002B
:104010002168086041462046FFF75EFEDEE6FFE7C6
:1040200005F4801050B107F4800038B14FF48010CF
:10403000216808622046FFF7B0FECFE605F0800059
:1040400058B106F0800010B907F4000028B1606F85
:1040500010B12046616F8847C0E605F0400030B1DE
:1040600006F0400018B1204601F0D6F8B6E605F497
:10407000000030B106F0804018B12046FFF78CFEFA
:10408000ACE605F0807030B106F0004018B1204673
:10409000FFF723FEA2E600BFA0E60000010000102B
:1040A00020010004C351000810B504460CB90120DA
:1040B00010BDA06900B100E000BFD4F8840028B9A9
:1040C000002084F88000204600F02AF82420C4F85C
:1040D00084002068006820F0010021680860204604
:1040E00001F0A0FA012800D1E2E7A06A10B1204651
:1040F00000F0B0FF2068406820F4904021684860DC
:104100002068806820F02A002168886020680068A4
:1041100040F0010021680860204601F017F8C7E769
:1041200010B586B00446142101A8FCF7ABF81C4971
:104130002068884231D100BF1A48006E40F48040A8
:10414000184908660846006E00F48040009000BFE1
:1041500000BF00BF0846C06C40F00100C8640846BC
:10416000C06C00F00100009000BF00BF4FF4C060C1
:1041700001900220029000200390049007200590F7
:1041800001A94FF09040FDF729FE0022114625209D
:10419000FEF72CFA2520FEF715FA06B010BD000038
:1041A000003801400010024070B504460D46164626
:1041B000D4F88800202825D105B10EB9012070BDA2
:1041C00000BF94F88000012801D10220F7E7012008
:1041D00084F8800000BF0020E0660B492068884218
:1041E0000AD02068406800F4000028B12068006808
:1041F00040F080602168086032462946204601F080
:10420000D7FBDCE70220DAE70080004010B5044667
:104210000749206888420AD1064800780A2801D157
:10422000FEF736FA012203490348FFF7BDFF10BD30
:10423000003801400100002000030020704700BF4B
:10424000FEE701688969C1F3400111B100210268EC
:1042500091620168896901F0010129B901688969E0
:1042600041F00101026891617047000070B5044699
:104270000D46164620688069C0F3001000283DD026
:1042800017E0681CA8B1FDF79BFE801BA84200D870
:104290007DB9606C40F020006064202084F841000B
:1042A000002084F8420000BF84F8400000BF0120D5
:1042B00070BD20688069C0F340100028E1D0102054
:1042C0002168C86120202168C8612046FFF7B9FF36
:1042D000206840680A49084021684860606C40F0E6
:1042E00004006064202084F84100002084F842002B
:1042F00000BF84F8400000BF0120D9E70020D7E7C5
:1043000000E800FEF0B5059C05686D684FF4806616
:1043100006EA545666F0FC2646F4C046B543C1F39F
:1043200009064FF47F0707EA02473E431E43264330
:10433000354306687560F0BD2DE9F04104460E4630
:1043400017461D46DDF8188019E0681CB8B1FDF766
:1043500037FEA0EB0800A84200D885B9606C40F099
:1043600020006064202084F84100002084F842008E
:1043700000BF84F8400000BF0120BDE8F081206844
:1043800080693040B04201D1012000E00020B842F5
:10439000DBD00020F1E770B504460D4616461DE05F
:1043A000324629462046FFF761FF08B1012070BD63
:1043B000FDF706FE801BA84200D87DB9606C40F076
:1043C00020006064202084F84100002084F842002E
:1043D00000BF84F8400000BF0120E8E72068806942
:1043E000C0F340100028DBD00020E0E770B50446A1
:1043F0000D4616461FE0324629462046FFF736FF97
:1044000008B1012070BD681CA8B1FDF7D9FD801B63
:10441000A84200D87DB9606C40F020006064202084
:1044200084F84100002084F8420000BF84F8400076
:1044300000BF0120E6E720688069C0F34000002843
:10444000D9D00020DEE700008168024A1140491CF3
:1044500081607047C0FFFF7F0146886800F01F0041
:104460007047024602F1600000EB8103186800F01B
:10447000F840704701468868C0F3C00070470146A5
:104480008868C0F3400070470146886800F001006A
:1044900070470146886800F001007047014688684F
:1044A000C0F30070704701468868C0F38000704711
:1044B00001468868C0F3800070470146C86800F470
:1044C000406008B9012070470020FCE78168024A7B
:1044D0001140091D81607047C0FFFF7F70B500F17A
:1044E0001404C1F3406504EB85031C68C1F3045652
:1044F0000725B540AC43C1F3045502FA05F52C433A
:104500001C6070BD826822F0E0720A4382607047CE
:1045100010B500F1600404EB81031C6824F0004432
:1045200014431C6010BD426922F000420A434261FC
:104530007047000000B58BB00020089009900A90E9
:1045400020216846FBF79EFE4FF0A04033490860EB
:104550004FF440204860002130488160C160016113
:10456000012141610421816100210177417704210A
:104570000162002180F824104FF4B461C1624FF44D
:1045800080610163012180F838100021C16380F847
:104590004010FCF70BFE08B1FCF79FFA00200890D2
:1045A00008A91E48FCF7F4FA08B1FCF796FA1C4873
:1045B000009006200190002002907F2003900420AC
:1045C00004900020059069461448FCF767FB08B189
:1045D000FCF783FA134800900C20019069460F48BD
:1045E000FCF75CFB08B1FCF778FA0F48009012204A
:1045F000019069460948FCF751FB08B1FCF76DFAD8
:104600000A4800901820019069460448FCF746FBD0
:1046100008B1FCF762FA0BB000BD0000600000209A
:1046200002003004040060080800900C1000C01064
:1046300000B58DB0302101A8FBF724FE10481149C8
:1046400008600846FDF734F908B1FCF746FA022085
:10465000019000208DF808008DF809000390049067
:10466000059006900120079000200890002201A9E3
:104670000448FCF7B1FF08B1FCF72FFA0DB000BDFC
:10468000000800502C01002008B500BF1148806CC4
:1046900040F004000F4988640846806C00F0040074
:1046A000009000BF00BF00BF0846806C40F00100D2
:1046B00088640846806C00F00100009000BF00BFD5
:1046C000002211460B20FDF791FF0B20FDF77AFF2A
:1046D00008BD00000010024000B587B0142102A8F8
:1046E000FBF7D0FD00BF2D48C06C40F004002B4903
:1046F000C8640846C06C00F00400019000BF00BF11
:1047000000BF0846C06C40F02000C8640846C06C7A
:1047100000F02000019000BF00BF00BF0846C06C41
:1047200040F00100C8640846C06C00F00100019030
:1047300000BF00BF00BF0846C06C40F00200C86464
:104740000846C06C00F00200019000BF00BF0122CB
:1047500051031348FDF72EFC01224FF4C0511148BC
:10476000FDF728FC4FF40050029001200390002038
:104770000490059002A90A48FDF730FB4FF4C050A1
:10478000029001200390022004900020059002A9CD
:104790000448FDF723FB07B000BD000000100240F5
:1047A000000800480004004810B51248124908608B
:1047B000124848600021104881600121C160002139
:1047C000016141618161C1610162FDF769FC08B16C
:1047D000FCF783F900210848FDF7F8FB08B1FCF766
:1047E0007CF900210448FDF726FC08B1FCF775F9B7
:1047F00010BD0000005400404001002081267000E0
:1048000010B50948094908600020486000210748A0
:104810008160C160016101758161C162FDF75AFF6C
:1048200008B1FCF75AF910BD040301408C010020C7
:1048300010B5094809490860002048600021074870
:104840008160C160016101758161C162FDF742FF54
:1048500008B1FCF742F910BD08030140C80100206F
:1048600010B51148114908604FF48270486000216A
:104870000E4881604FF4E061C160022101610121B5
:104880004161490281611821C161002101624162D7
:1048900081620721C162002101634163FEF7B4FE1A
:1048A00008B1FCF71AF910BD0030014004020020E5
:1048B0000EB500200090019002900F480F4908604B
:1048C00040F2E730486000210C48816040F22B1133
:1048D000C16080218161FEF7CEFF08B1FCF7FDF8D1
:1048E000202000900020029069460448FEF766FFF1
:1048F00008B1FCF7F2F80EBD00100040680200207D
:104900000EB500200090019002900F480F490860FA
:1049100042F20F70486000210C48816041F61F414F
:10492000C16080218161FEF7A6FF08B1FCF7D5F8D0
:1049300000200090029069460448FEF73FFF08B14E
:10494000FCF7CBF80EBD000000140040B4020020BC
:1049500010B51848184908604FF4E130486000214C
:1049600015488160C16001610C21416100218161B4
:10497000C1610162416200200F4988620846FFF769
:1049800093FB08B1FCF7A9F800210B48FFF7D5F914
:1049900008B1FCF7A2F800210748FFF79FF908B11A
:1049A000FCF79BF80448FFF770F908B1FCF795F89D
:1049B00010BD0000003801400003002000BFFEE7EA
:1049C00000BFFEE77047000070B5164DED6805F0BA
:1049D0000304144DED68C5F303156B1C022C0CD0B9
:1049E000032C09D1104DB5FBF3F50E4EF668C6F356
:1049F000062605FB06F10AE000BF0C4DB5FBF3F5FA
:104A0000084EF668C6F3062605FB06F100BF00BF98
:104A1000044DED68C5F341656D1C6A00B1FBF2F011
:104A200070BD00000010024000127A000024F40063
:104A3000F0B503461446812B01DA412900DBF0BDB5
:104A40002348007920B10CB9012000E00020044681
:104A5000012C1DD10846CD1701EB5575ED1005EB66
:104A6000C5151D441B4E755D0A46CE1701EB5676E3
:104A7000F610A1EBC6070126BE403543CE1701EB69
:104A80005676F61006EBC6161E44124FBD551CE0B6
:104A9000CD1701EB5575ED1005EBC5151D440D4EF9
:104AA000755D0A46CE1701EB5676F610A1EBC607E8
:104AB0000126BE40B5430846CE1701EB5676F610E8
:104AC00006EBC6161E44034FBD5500BFB7E70000F6
:104AD000400000207009002010B504460CB90020E9
:104AE00000E0FF2002464FF483610248FBF7C3FB5E
:104AF00010BD000070090020014A108051807047ED
:104B00004000002010B501F05BFE44F62063012256
:104B100078215248FDF726FB08B1002010BD40F671
:104B2000C41400E0641E002CFCD1AE2200217820C9
:104B300001F04EFE20220021782001F049FE1022D3
:104B40000021782001F044FEB0220021782001F0FD
:104B50003FFEC8220021782001F03AFE00221146D3
:104B6000782001F035FE10220021782001F030FE7F
:104B700040220021782001F02BFE812200217820A4
:104B800001F026FEFF220021782001F021FEA12263
:104B90000021782001F01CFEA6220021782001F0DF
:104BA00017FEA8220021782001F012FE3F220021EA
:104BB000782001F00DFEA4220021782001F008FEEB
:104BC000D3220021782001F003FE00221146782034
:104BD00001F0FEFDD5220021782001F0F9FDF02240
:104BE0000021782001F0F4FDD9220021782001F085
:104BF000EFFD22220021782001F0EAFDDA220021D7
:104C0000782001F0E5FD12220021782001F0E0FD7E
:104C1000DB220021782001F0DBFD2022002178201A
:104C200001F0D6FD8D220021782001F0D1FD142263
:104C30000021782001F0CCFDAF220021782001F086
:104C4000C7FD0020FFF748FF00F076F80020044978
:104C5000088048800120487100BF5FE740010020C4
:104C6000400000202DE9F04307460C4690462648B8
:104C7000008821780844812805DA23484088617833
:104C80000844412802DB0020BDE8F083002530E025
:104C9000A7F12000617800FB0150616831F81090A5
:104CA000002622E009FA06F000F4004058B1164A46
:104CB00052882A4491B2144A1288324490B2424631
:104CC000FFF7B6FE10E0B8F1000F01D1012300E0BC
:104CD00000231A460C4B5B882B4499B20A4B1B8865
:104CE000334498B2FFF7A4FE761C2078B042D9D89E
:104CF0006D1C6078A842CBD803480088217808440E
:104D0000014908803846BFE74000002070B50446DE
:104D10000D4616460AE0207832462946FFF7A2FFE4
:104D20002178884201D0207870BD641C207800284A
:104D3000F1D12078F8E7000010B500241BE004F161
:104D4000B000C2B20021782001F042FD00221146DD
:104D5000782001F03DFD10220021782001F038FD7F
:104D60000648812101FB04020B464021782001F016
:104D700043FD601CC4B2082CE1DB10BD70090020AB
:104D8000704710B5FDF7B4FB10BD00B5A5B03821D4
:104D900017A8FBF777FA142112A8FBF773FA44213E
:104DA00001A8FBF76FFA4FF40070FDF7A3FD012097
:104DB00017900004189002201E9003211F910121DA
:104DC00017A84162122181620221C162016341631D
:104DD000FEF766F908B1FBF780FE0F201290032062
:104DE00013900020149015901690022112A8FDF740
:104DF000CFFF08B1FBF771FE48F24100019000209F
:104E0000029007904FF00050109001A8FDF708FEA7
:104E100008B1FBF762FE25B000BD00000348006842
:104E200040F47000014908607047000088ED00E020
:104E300010B50348FEF7E3FD0248FCF7F4FC10BD93
:104E4000680200202C01002010B50248FEF7D7FDB3
:104E500010BD0000B402002010B50268264B984235
:104E60000BD0B0F1804F08D0244B984205D0244B92
:104E7000984202D0234B984203D122F070024B6833
:104E80001A431D4B984214D0B0F1804F11D01B4BE8
:104E900098420ED01A4B98420BD01A4B984208D029
:104EA000194B984205D0194B984202D0184B9842A2
:104EB00003D122F44072CB681A4322F080034C697C
:104EC00043EA040202608B68C3620B6883620A4B88
:104ED00098420BD00B4B984208D00B4B984205D010
:104EE0000A4B984202D00A4B984201D10B690363E6
:104EF0000123436110BD0000002C0140000400406C
:104F000000080040003401400040014000440140DE
:104F10000048014010B52DED048B34488089344998
:104F200001EB800090ED000AB0EE408A2F488089A6
:104F3000401C2E498881084680890C2801DB00200E
:104F400088812A4890ED000A2A48D0ED000A00EE38
:104F5000880A264880ED000A90ED020AB8EE400A61
:104F6000B0EE408A8068401C20498860084690ED79
:104F7000000AC0EE080AF0EE608A28EEA89AC189FD
:104F80001B48303000EB810090ED000AF0EE408AC3
:104F90001648C089401C1549C8810846C0890C289C
:104FA00001DB0020C881114890ED010A1148D0EDC5
:104FB000000A00EEA80A0D4880ED010A90ED010AF2
:104FC000C0EE080AB0EE608AF0EE490A48EE080A20
:104FD000B0EE600A00F0F2FEF0EE000A20EE200AC9
:104FE000054880ED000ABDEC048B10BD880D002043
:104FF0009C9000084C0000205000002070B5456EC9
:105000002DB90125A0F86A50A0F868501CE00823CB
:1050100008240568AD68C5F342610568AD686A0F8C
:105020000A4DAD5C15FB04F5094EB65C95FBF6F533
:10503000A0F86A50054D6D5C15FB03F5044E765CD7
:1050400095FBF6F5A0F8685070BD00006068000898
:105050006868000890F8281001F0010139B1016872
:10506000496821F40031C26A11430268516090F826
:10507000281001F00201022907D10168496821F4D2
:105080008031026B11430268516090F8281001F0E2
:105090000401042907D10168496821F48021426B89
:1050A00011430268516090F8281001F008010829A6
:1050B00007D10168496821F40041826B11430268FD
:1050C000516090F8281001F01001102907D10168F3
:1050D000896821F48051C26B11430268916090F895
:1050E000281001F02001202907D10168896821F4E6
:1050F0000051026C11430268916090F8281001F091
:105100004001402913D10168496821F48011426CA3
:10511000114302685160416CB1F5801F07D10168ED
:10512000496821F4C001826C11430268516090F813
:10513000281001F08001802907D10168496821F415
:105140000021C26C114302685160704738B50446B3
:105150000020C4F88C00FCF733FF05462068006887
:1051600000F0080008280CD16FF07E402B4600228A
:105170004FF400110090204600F0A2FC08B103207B
:1051800038BD2068006800F0040004280CD16FF0DE
:105190007E402B4600224FF480010090204600F014
:1051A0008FFC08B10320EBE72020C4F88400C4F88A
:1051B00088000020E06600BF84F8800000BF00BFC8
:1051C000DEE770B50546AC6A0020A4F85E00A4F8DE
:1051D00056002046FEF7E2FD70BD00000168096838
:1051E00021F490710268116001688968094A1140D0
:1051F00002689160C16E012905D10168096821F03A
:105200001001026811602021C0F888100021C166D9
:1052100001677047FEFFFFEF10B504462068006885
:1052200020F04000216808602020C4F8840000209D
:1052300060672046FFF702F810BD2DE9F0410446F3
:10524000B4F86070D4F88800222837D12068406A0A
:1052500086B2A56D06EA07002880A06D801CA065B7
:10526000B4F85E00401EA4F85E00B4F85E0020BBF7
:105270002068006820F490702168086020688068C9
:1052800020F00100216888602020C4F888000020F8
:105290002067E06E01280BD12068006820F0100024
:1052A00021680860B4F85C102046FEF715FD02E0A6
:1052B0002046FEF7ABFF0020E06605E0206880692D
:1052C00040F0080021688861BDE8F0812DE9F84FC1
:1052D0000446B4F860B02068C56920680068009092
:1052E0002068D0F808A0D4F88800222871D1B4F83A
:1052F000689074E02068406A1FFA80F8A76D08EA99
:105300000B003880A06D801CA065B4F85E00401EC4
:10531000A4F85E002068C56905F00700B0B305F089
:10532000010060B1009800F4807040B10120216854
:105330000862D4F88C0040F00100C4F88C0005F03D
:10534000020058B10AF0010040B102202168086251
:10535000D4F88C0040F00400C4F88C0005F0040080
:1053600058B10AF0010040B1042021680862D4F865
:105370008C0040F00200C4F88C00D4F88C0028B1F6
:105380002046FEF70BFD0020C4F88C00B4F85E0048
:1053900028BB2068006820F48070216808602068BD
:1053A000806821490840216888602020C4F888006E
:1053B00000202067E06E01280CD12068006820F0F2
:1053C000100021680860B4F85C102046FEF784FCE9
:1053D00003E021E02046FEF719FF0020E066B9F166
:1053E000000F03D005F02000002883D1B4F85E60E0
:1053F000C6B1B4F86800B04214DD2068806820F0BF
:10540000805021688860094820672068006840F063
:1054100020002168086005E02068806940F00800ED
:1054200021688861BDE8F88FFEFFFFEF3B5200085E
:1054300070B50446B4F86060D4F88800222837D1EB
:105440002068406A85B2F0B22840A16D0870A06D56
:10545000401CA065B4F85E00401EA4F85E00B4F8DD
:105460005E0020BB2068006820F49070216808600E
:105470002068806820F00100216888602020C4F83E
:10548000880000202067E06E01280BD120680068AA
:1054900020F0100021680860B4F85C102046FEF788
:1054A0001BFC02E02046FEF7B1FE0020E06605E0AE
:1054B0002068806940F008002168886170BD0000A4
:1054C0002DE9F05F0446B4F860A02068C569206843
:1054D000D0F800B02068D0F80890D4F888002228CE
:1054E00070D1B4F8688073E02068406A87B20AF02F
:1054F000FF003840A16D0870A06D401CA065B4F895
:105500005E00401EA4F85E002068C56905F0070033
:10551000A8B305F0010058B10BF4807040B1012030
:1055200021680862D4F88C0040F00100C4F88C00B7
:1055300005F0020058B109F0010040B102202168D5
:105540000862D4F88C0040F00400C4F88C0005F028
:10555000040058B109F0010040B10420216808623C
:10556000D4F88C0040F00200C4F88C00D4F88C0011
:1055700028B12046FEF712FC0020C4F88C00B4F8D5
:105580005E0028BB2068006820F4807021680860F5
:105590002068806821490840216888602020C4F87C
:1055A000880000202067E06E01280CD12068006888
:1055B00020F0100021680860B4F85C102046FEF767
:1055C0008BFB03E021E02046FEF720FE0020E06692
:1055D000B8F1000F03D005F02000002884D1B4F802
:1055E0005E60C6B1B4F86800B04214DD206880681F
:1055F00020F0805021688860094820672068006892
:1056000040F020002168086005E02068806940F0D3
:10561000080021688861BDE8F09F0000FEFFFFEFF1
:10562000315400082DE9FE4F044600200290D6496F
:105630002068884200D100E000BF2169A0680843CB
:1056400061690843E16940EA010820680068CF49C0
:10565000084040EA0800216808602068406820F49B
:105660004050E168084321684860D4F81880C64972
:105670002068884202D0206A40EA080820688068D2
:10568000C349084040EA0800216888602068C06A71
:1056900020F00F00616A08432168C86200BFBD495D
:1056A0002068884216D1BC48006800F0030030B181
:1056B000012808D0022804D0032808D105E00125DC
:1056C00007E0022505E0042503E0082501E0102598
:1056D00000BF6FE0B1492068884216D1AE4800682B
:1056E00000F00C0030B1042808D0082804D00C28A1
:1056F00008D105E0002507E0022505E0042503E0C8
:10570000082501E0102500BF54E0A5492068884223
:1057100016D1A148006800F0300030B1102808D040
:10572000202804D0302808D105E0002507E0022514
:1057300005E0042503E0082501E0102500BF39E05D
:1057400098492068884216D19348006800F0C0004C
:1057500030B1402808D0802804D0C02808D105E006
:10576000002507E0022505E0042503E0082501E007
:10577000102500BF1EE084492068884219D1864860
:10578000006800F4406048B1B0F5806F0AD0B0F511
:10579000006F05D0B0F5406F08D105E0002507E0A7
:1057A000022505E0042503E0082501E0102500BFDF
:1057B00000E0102500BF7449206888425DD135B1F2
:1057C000022D08D0042D08D0082D0DD109E0FDF7D9
:1057D000F7FB06460CE0744E0AE0FDF715FC0646A2
:1057E00006E04FF4004603E000260120029000BFCF
:1057F00000BF002E10D06D49606A31F81000B6FB72
:10580000F0F9606800EB4000484503D86068000389
:10581000484502D201200290AAE06449606A31F84A
:1058200010C06246002330461946FAF7F3FC4FF4E5
:10583000807C00220B46A0FB0C1B03FB0CB300FB7F
:105840000233606840088C461CEB000043EB020109
:10585000CDE90001D4F804C062460023FAF7DAFC6F
:105860000746B7F5407F05D3B7F5801F02D2206801
:10587000C7607DE0012002907AE0E069B0F5004F5A
:1058800040D1092D17D2DFE805F005090D160F16D6
:1058900016161300FDF794FB064610E0FDF7A2FB79
:1058A00006460CE0404E0AE0FDF7AEFB064606E079
:1058B0004FF4004603E000260120029000BF00BF25
:1058C000FEB13A49606A31F81000B6FBF0F04000D2
:1058D000616800EB5100B0FBF1F087B2102F0ED3DE
:1058E000B7F5803F0BD24FF6F07007EA000AC7F316
:1058F00042004AEA000A2068C0F80CA038E0012003
:10590000029035E0092D17D2DFE805F005090D16E4
:105910000F1616161300FDF753FB064610E0FDF7B1
:1059200061FB06460CE0204E0AE0FDF76DFB0646E3
:1059300006E04FF4004603E000260120029000BF7D
:1059400000BFAEB11949606A31F81000B6FBF0F043
:10595000616800EB5100B0FBF1F087B2102F05D366
:10596000B7F5803F02D22068C76001E001200290B5
:105970000120A4F86A00A4F868000020206760678E
:105980000298BDE8FE8F000000800040F369FFCF61
:10599000FFF4FF110038014088100240004400402D
:1059A00000480040004C00400024F4004868000813
:1059B00010B503469965A3F85C20A3F85E2000208B
:1059C000186700BF9868B0F5805F0AD1186920B9E0
:1059D00040F2FF10A3F8600020E0FF20A3F8600071
:1059E0001CE0986848B9186918B9FF20A3F860004E
:1059F00014E07F20A3F8600010E09868B0F1805FA9
:105A000009D1186918B97F20A3F8600006E03F208B
:105A1000A3F8600002E00020A3F8600000BF0020AF
:105A2000C3F88C002220C3F888001868806840F012
:105A300001001C68A060586EB0F1005F20D1B3F87F
:105A4000680090421CDC9868B0F5805F04D118694A
:105A500010B91748186701E01648186700BF002002
:105A600083F8800000BF1868006840F480701C68EC
:105A700020601868806840F080501C68A06015E0C5
:105A80009868B0F5805F04D1186910B90A481867A2
:105A900001E00A48186700BF002083F8800000BFBB
:105AA0001868006840F490701C682060002010BDE9
:105AB000CD520008C15400083B5200083154000880
:105AC0002DE9F04104460D4617469846069E4AE0E9
:105AD000701C002847D0FCF773FAA0EB0800B04216
