:020000040800F2
:1000000018400020A1020008574C0008A74700082C
:10001000554C0008FD1D00085D5F00080000000051
:10002000000000000000000000000000C1500008B7
:10003000FF1D0008000000007D4E0008C3500008AE
:10004000BB020008BB020008BB020008BB0200089C
:10005000BB020008BB020008BB020008BB0200088C
:10006000BB020008BB020008BB020008BB0200087C
:10007000BB020008BB020008BB020008BB0200086C
:10008000BB02000800000000BB020008BB02000821
:10009000BB020008BB020008BB020008BB0200084C
:1000A000BB020008BB020008BB020008BB0200083C
:1000B000BB020008BB020008BB020008BB0200082C
:1000C000BB020008BB020008BB020008BB0200081C
:1000D000BB020008515F0008BB020008BB02000819
:1000E000BB020008BB020008BB020008BB020008FC
:1000F000BB020008BB020008BB02000800000000B1
:1001000000000000BB02000800000000BB02000865
:10011000BB02000800000000BB020008BB02000890
:10012000BB020008BB020008BB020008BB020008BB
:10013000BB0200080000000000000000BB02000835
:10014000BB020008BB020008000000000000000025
:10015000000000000000000000000000000000009F
:10016000000000000000000000000000BB020008CA
:10017000BB020008000000000000000000000000BA
:1001800000000000BB0200080000000000000000AA
:10019000000000000000000000000000000000005F
:1001A0000000000000000000BB020008BB020008C5
:1001B000BB020008BB020008BB02000800000000F0
:1001C00000000000BB02000800000000000000006A
:1001D000BB020008BB02000800F002F800F051F872
:1001E0000AA090E8000C82448344AAF10107DA4592
:1001F00001D100F046F8AFF2090EBAE80F0013F093
:10020000010F18BFFB1A43F0010318470C9E0000B2
:100210002C9E0000103A24BF78C878C1FAD8520743
:1002200024BF30C830C144BF04680C607047000070
:100230000023002400250026103A28BF78C1FBD8EF
:10024000520728BF30C148BF0B607047662907F0CE
:10025000F086002070471FB507F0E1FE9DE803001F
:1002600000F0D0FE00F07CFB04000020002107F02D
:1002700073F8E06000F078FC1FBD10B500F0DDFC05
:1002800010BD00F045FD1146FFF7E5FF07F00EF841
:1002900000F04AFE03B4FFF7F0FF03BC01F044F89E
:1002A0000948804709480047FEE7FEE7FEE7FEE70A
:1002B000FEE7FEE7FEE7FEE7FEE7FEE70448054946
:1002C000054A064B704700004D510008D90100084F
:1002D000183A002018400020183C0020183C00204C
:1002E00053EA020C00F069802DE9F04B4FF0000654
:1002F000002B1FBFB3FA83F503FA05F424FA05F6C1
:100300005E4012BF1643B2FA82F502FA05F4C5F157
:1003100020051EBF22FA05FC44EA0C04203556EAEB
:10032000044C4FEA144418BF641C4FF000084FF00F
:100330000009904271EB030C39D3002919BFB1FABF
:1003400081F701FA07F6B0FA80F700FA07F6C7F16D
:1003500020071EBF20FA07FC46EA0C062037B6FB32
:10036000F4FCA7EB0507103F07F01F0BCBF12006AD
:100370000CFA0BFB2CFA06F644BFB3460026202FDE
:10038000A4BF5E464FF0000B5BEA060C08BF4FF0BF
:10039000010B19EB0B09ABFB027C48EB0608C01BF9
:1003A00006FB02CC0BFB03CC71EB0C01C1E70B4647
:1003B000024641464846BDE8F08B13B54FF00000B9
:1003C0004FF00001AFF30080BDE81C407047000013
:1003D0000FB4044910B503AA029800F0AFFA10BC9C
:1003E0005DF814FB0C3900200FB41CB5074B06AAAE
:1003F0007B4469460090059800F087FA0020694622
:1004000000F096FA1CBC5DF814FB00003D050000EE
:100410002DE9F0410E460446002020622046E168A6
:10042000884730B3252805D0D4E901219047206AB8
:10043000401CF2E7E168204600278847050018D0F5
:10044000A5F14100192802D820354FF40067324643
:10045000294620462760FFF7F9FE40B1012804D065
:10046000F61D26F007060836D8E7361DD6E72846DB
:10047000DAE7206ABDE8F0814FF0000200B51346CC
:1004800094469646203922BFA0E80C50A0E80C50B4
:10049000B1F12001BFF4F7AF090728BFA0E80C5065
:1004A00048BF0CC05DF804EB890028BF40F8042B5E
:1004B00008BF704748BF20F8022B11F0804F18BFCB
:1004C00000F8012B704770477047704710B500F077
:1004D0004BFA006810BD10B5044600F045FA046000
:1004E00010BD70472DE9FF4F0C461E464FF0FF37F9
:1004F0008BB0D2E90001DDF860800A908A46C1F332
:100500000A5505B93D46002108464FF00000BAF1F2
:10051000000F00F4400005DA00EB80004FF44001CA
:1005200001EA50004FEA9059B9F1010F00DDB946D8
:100530000A9850EA4A000ED044F61050A5F2FF3552
:1005400045432F14B8F1000F1ED07542291E1EDD41
:10055000C9F100021CE0B8F1010F4FF0000001D01A
:10056000302103E0F24305E02154401CB042FBDBA4
:1005700030460022002121540B99C1F80880C1E9BE
:1005800000200FB0BDE8F08FBD1B6D1CDEE74A46B2
:1005900000DA694206A800F071FA06AB93E807009A
:1005A00003AB83E8070050460A9900F055FF8DE839
:1005B0000700A0F500501F3800900398002D0ADDB9
:1005C00042F21F014A460844002303A903906846EB
:1005D00001F0BEF909E0A0F500504A461F3800239B
:1005E00003A90390684601F0C8F98DE807000004EC
:1005F000000C03D04FF0FF30410800E01046B8F186
:10060000000F03D00022009215461EE0751E05D48F
:1006100000F0AEF9303262556D1EF9D5B3460122B5
:10062000084302D000227F1C04E02078302801D14A
:1006300000227F1E002A099784D01DE0112D07DAC1
:1006400000F096F9303262556D1C50EA0102F5D186
:10065000084302D00098C8B10EE00021681E05E0F2
:10066000235C625C63542254401E491C8142F7DBC8
:10067000AB46A81B401E0990002004F80B000B9805
:10068000099AC0F80880C0E9002B7AE711264FF0DC
:10069000000857E72DE9F04F88460446D21D22F0A6
:1006A000070191B0D1E90001CDE90A0105F00AFD89
:1006B00002460B98C00F01D02D2007E0206881076B
:1006C00001D52B2002E0202101EAC000032A099075
:1006D00001D0072A05DB03464146204600F08EF98B
:1006E0000BE12078800601D5E06900E00620B8F132
:1006F000650F814606D0B8F1660F18D0B8F1670FC4
:1007000070D131E00020B9F1110F009001DB11230D
:1007100001E009F101030AAA01A90CA8FFF7E2FE12
:10072000DDE90C70002609F10105834647E0012050
:100730004B4600904FF000470AAA01A90CA8FFF70A
:10074000D1FEDDE90DB00C995D46002610B909F126
:1007500001000D18B9EB050003D4C0F1FF3609F113
:100760000105A5EB09002BE0B9F1010F01DA4FF00B
:1007700001090020B9F1110F0090484601DD112355
:1007800000E003460AAA01A90CA8FFF7ABFEDDE9C9
:100790000C704D4600268346207800070AD4AB45EE
:1007A00000DA5D4601A8012D04DD411911F8011C94
:1007B000302907D04F4502DA17F1040F04DA01207F
:1007C00082460FE06D1EEEE7002F02DCED1B3E447B
:1007D00003E0781CA84200DD7D1CB81B00F1010A73
:1007E0004FF000472078000703D4AA4501DB4FF003
:1007F000FF3A0021B7F1004F0DF143088DF8431087
:1008000024D002202B23002F01DA7F422D230A213E
:10081000021EA0F1010000DC5FB197FBF1FC97FB29
:10082000F1F201FB1C7C17460CF1300C08F801CDED
:10083000EEE7A8F1010003702188090501D54521E3
:1008400000E06521A0F1010800F8011C09980FA93A
:10085000A1EB0807FF1D00B10120411901EBEA706F
:10086000A1693844081A401EA0612078C00602D44D
:100870002046AFF30080099828B1D4E901219047C0
:10088000206A401C20622078C00622D52046AFF3A3
:1008900000801EE0002E04DBB34502DD01A8805D70
:1008A00000E03020D4E901219047206A401C2062FA
:1008B000761CAAF101005FEA000A0AD100F050F8A4
:1008C000C0680168405CD4E901219047206A401C5F
:1008D0002062281EA5F10105DCDC07E0D4E9012136
:1008E00018F8010B9047206A401C2062381EA7F1BF
:1008F0000107F3DC2046AFF30080032011B041E68E
:1009000001694A1C02610878704700B58FB0CDE9D3
:1009100001310021059105497944CDE903101146C3
:100920006846FFF775FD0FB000BD0000E5FFFFFF53
:100930000A6802F8010B0A6070470000074B70B5A7
:100940000D467B44FFF7E1FF0446284600F008F916
:1009500010B14FF0FF3070BD204670BD4F690000F0
:1009600000487047D439002000487047B43900204F
:1009700030B5B0F10A024FEA900E71F100034EEA71
:10098000817EB0EB0E0061EB91014FEA101E4EEA42
:10099000017E10EB0E0041EB11114FEA102E4EEAD2
:1009A000016E10EB0E0041EB11214FEA104E4EEAA2
:1009B000014E10EB0E0041EB1141401841F10001D6
:1009C0004FEAD00040EA41704FEAD10110EB8005B8
:1009D0004FEA810444EA907444EB01046D1944EB3E
:1009E0000404521BA3414FF0000348BF0A3200D554
:1009F00030BD401C41F1000130BD00002DE9F04147
:100A00001F46044603260168072A01F4006004DB40
:100A100008B116A505E016A503E008B115A500E08C
:100A200015A521F010002060A069C01EA0610FB1C3
:100A3000401EA0612046AFF300804FB1D4E90121F0
:100A400038469047206A401C2062C01C206206E0A5
:100A5000206AFAE7D4E9012115F8010B9047761EC8
:100A6000F8D22046AFF30080BDE8F0814E414E0041
:100A70006E616E00494E4600696E66002DE9F047D2
:100A8000814616468AB0354878440DC88DE80D0079
:100A900032487844801C03AC0DC884E80D0041F650
:100AA0009B300844372190FBF1F290FBF1F5A5F162
:100AB000800501FB12041B3C02D56442012000E0CA
:100AC0000020DFF898A080460027FA44AAF1BE0A69
:100AD0000EE0E0070AD03246684607EB47010123E3
:100AE0000AEB810100F049FF8DE8070064107F1CCC
:100AF000002CEED1194F7F44AE3F19E0E80715D026
:100B000007EB04100DF1180A90E80E008AE80E00B9
:100B1000C068F04201D1981908903246012306A915
:100B200003A800F02AFF03AB83E807006D10641CE4
:100B3000002DE3D14FF0010332466946B8F1000FB2
:100B400003A802D000F004FF01E000F016FFC9E99D
:100B50000001C9F808200AB0BDE8F08768950000D8
:100B6000007B00F08000704710B542485421FFF729
:100B700083FC41485421FFF77FFC40485421FFF794
:100B80007BFC3F493B483C4A3F4B08603D490A607B
:100B90003A491960531C0365481C1065012008651B
:100BA0003B48344A39A1784400F022F920B938484A
:100BB00078440A3800F0C1F937482F4A35A1784403
:100BC00000F016F920B9344878440A3800F0B5F935
:100BD00032482A4A2FA1784400F00AF920B92F4858
:100BE00078440A3800F0A9F940232248DC000021AB
:100BF000224600F0D9F820B125487844543800F056
:100C00009CF91D4822464023002100F0CDF820B178
:100C100021487844543800F090F9184822461023AF
:100C2000002100F0C1F8002806D01C487844BDE837
:100C30001040563800F081B910BD104870B5006DF5
:100C400020F001040B4800F049F90B4800F046F988
:100C50000A4800F043F909E0206D20F00105204624
:100C600000F03CF9204600F078F82C46002CF3D137
:100C700070BD0000B83800200C3900206039002019
:100C800040000020440000204800002072000000C6
:100C900062940000770000004E9400003A94000037
:100CA0000EB5CDE9000100F01FFB0290694601205E
:100CB000ABBE0EBD08B5694600900220ABBE08BDB4
:100CC0001FB58DE8070069460520ABBE04B010BD16
:100CD0001FB58DE80F0069460620ABBEF6E708B5E4
:100CE000694600900920ABBE08BD1CB5CDE90001E6
:100CF00069460A20ABBE1CBD704708B56946009026
:100D00000C20ABBE08BD000000487047B43900207D
:100D10007546FFF7F9FFAE4605006946534620F0D9
:100D20000700854618B020B5FFF7C8FABDE8204097
:100D30004FF000064FF000074FF000084FF0000B97
:100D400021F00701AC46ACE8C009ACE8C009ACE84A
:100D5000C009ACE8C0098D46704770B50446051F50
:100D600000F034F90068002C14BF446870BD002CFA
:100D700018BFAC423CBF20466468F8D301680A182B
:100D8000AA4218BF456003D12A6805461144016094
:100D900028684119A1421CBF6C6070BD6168696020
:100DA00021680844286070BD70B5C468A50713D0D9
:100DB000650211D4B2F5807F09D0B2F5007F06D06C
:100DC000B2F5806F08D1012300F1240106E05D1E19
:100DD0006FF07F46B54201D3012070BD0161C36150
:100DE000416024F470611143C160002070BD0000B7
:100DF0002DE9F0410C4607461646104600F06EF805
:100E00002078611C61280AD0722802D077283CD152
:100E100002E00125002405E00225042402E0082464
:100E200048F2020511F8010B2B2806D0622809D0E0
:100E300011F8010C74280AD00BE045F0030544F0CA
:100E40000204EFE745F0040544F00104EAE744F04A
:100E5000100438462146FFF723FF411C15D000211E
:100E6000316171604FF40071F560F16170612007CC
:100E700004D530460222002100F022F9306D40F006
:100E8000010030653046BDE8F0810020FBE72DE928
:100E9000F0410D460646104C206DC10704D04108B4
:100EA00004D020F00104F7E722460EE0542000F0C1
:100EB000D8F807000ED0206D47F0010108435421F7
:100EC00020653846FFF7D8FA3A4629463046BDE84D
:100ED000F0418DE70020D6E7B83800202DE9F04733
:100EE00004464FF000094FF0FF37C568D4E9048687
:100EF000A80707D0204600F093F93046FFF7DAFE46
:100F0000002802DA3846BDE8F087280502D54046B9
:100F1000FFF723FF4C212046FFF7AEFA206D20F0AB
:100F2000010020654846EEE710B50446AFF30080A7
:100F30002046BDE81040FFF7ADB910B500F0BAF992
:100F4000BDE8104000F0B0B94FF0013C50F8042B60
:100F500051F8043B9A4221D1A2EB0C03934313EACC
:100F6000CC1317D150F8042B51F8043B9A4215D1F9
:100F7000A2EB0C03934313EACC130BD150F8042BD0
:100F800051F8043B9A4209D1A2EB0C03934313EAB4
:100F9000CC13DBD04FF00000704700BFD01A01BA6D
:100FA000B1FA81F101F0180122FA01F0CB40C1F150
:100FB0002001DBB2C0B2C01A2CFA01F3D11A91435E
:100FC00011EAC311E6D1704770470000004870472E
:100FD000BC390020704770477047704738B50446E9
:100FE0000A4600206946AFF30080002808BF38BDDC
:100FF00002460099204600F0A4F9012038BD0120E6
:1010000000F0F3B9F8B5AFF30080054600200C46B8
:10101000102000BF0646A819A0420DD932466946E5
:101020000020AFF30080070008BF00F0DEF9009851
:10103000A04218BF0546C419FFF7C8FF0560074660
:10104000F01D20F007004619284600F073F9B4425D
:1010500008BFF8BDA21B31463868BDE8F84000F073
:1010600070B970B50646FFF7B1FF056806F10B00D1
:1010700020F00704B4429CBF002070BD2B466A6874
:10108000BAB11068A04210D304F1080188423CBFF5
:101090005068586007D35168101941601168091BE6
:1010A000016058601460101D70BD13465268002A1C
:1010B000E7D121462846FFF791FF0028DED170BD19
:1010C0002DE9F041044616460D464769007B80072E
:1010D0002ED03846FFF703FE50BB3EB3012E02D0A0
:1010E000022E25D104E0204600F045F905441DE01C
:1010F0003846FFF702FEE168002841F01001E16088
:1011000005DA204600F058F80120BDE8F081C90357
:101110000BD56268E16A914200D81146A269114478
:101120002269891A814200DD08460544002D01DA52
:101130000220EAE7E16A6068E268814206D2910330
:10114000E06203D522F4003141F01002A6690027C5
:10115000AE4213DCE16A814201D90B4600E003464E
:1011600003EB060C2369ACEB030CAC4506DD8142B6
:1011700001D98C4600E084469C4505D1A7602760D4
:1011800042F02000A5620DE0AD1BE669AE1B814276
:10119000A66000D90846C01A281A20605819606055
:1011A00022F0200003490840E060002084F84870E5
:1011B000ABE70000BFCFD7FFC16821F4001141F0B9
:1011C0008001C16000218160016070472DE9F04716
:1011D000814614460E464FF0FF383248D5685769AD
:1011E000054209D03846A169FFF77FFD002811DBD1
:1011F0002C48C0430540E5602B46324649463846F8
:10120000FFF75EFDA16920F00042B21A11440028E8
:10121000A16103D02046FFF7CFFF4046BDE8F0872D
:1012200070B504460569C06A6168884200D80846FE
:10123000E16821F42011E160C90312D5A84208D069
:101240002246411B2846FFF7C1FF10B14FF0FF3087
:1012500070BD0020E562C4E90150E06820F48030F0
:10126000E060002070BD10B50446C06820F020008A
:10127000E060A16AA06988420DD02046FFF7D0FF48
:10128000E06820F4405040F01000E060A06AA061E7
:101290002069E062606044F24001E0688843E060F9
:1012A00010BD000010000200002801D000F03CB882
:1012B0007047000010B5014602A000F07DF8012043
:1012C00010BD000053494752545245443A205265DC
:1012D0006469726563743A2063616E2774206F706D
:1012E000656E3A200000000010B5431C02E010F8C3
:1012F000011B71B18107FAD14FF0013202C88C1A7B
:101300008C4314EAC211F9D0C01A0A0603D0C01ED9
:1013100010BDC01A10BD0A0401D0801E10BD090204
:10132000FCD0401E10BD000001491820ABBEFEE7F6
:101330002600020000210160C0E901107047102062
:101340007047034640688C46002818BF88423CBF5F
:1013500003464068F8D318681844884207D00CF157
:10136000030020F00700001D411A521A0146081D13
:101370000A60FFF7F2BC10B50146C268900703D0BF
:10138000900607D5886A0AE0FFF7EEFA01210160AE
:10139000881E10BD8B69486818440B69C01A91F803
:1013A00048301BB191F84910401A10BD1103FCD50B
:1013B0000028FADD401E10BD70B505460C460A2017
:1013C00000E06D1C00F018F835B128780028F8D13D
:1013D00002E0641C00F010F814B120780028F8D165
:1013E000BDE870400A2000F007B810B500F00CF816
:1013F000BDE81040FFF758BF08B569468DF80000FA
:101400000320ABBE08BD000010B5012805D00021A7
:1014100003A0FFF7D1FF012010BD09A1F8E70000EC
:1014200053494752544D454D3A204F7574206F66CD
:101430002068656170206D656D6F72790000000035
:101440003A2048656170206D656D6F727920636F19
:1014500072727570746564005FEA400C08BF91F0A9
:10146000000F4FEA8C234FEAC12243EA51514FEA61
:101470001C5018BF00F5F0404FEA300018BF41F093
:1014800000415FEA6C5C00F02980BCF1FF3F08BFBF
:1014900040F080407047130C06BF12044FF0100C50
:1014A0004FF0000C130E04BF12020CF1080C130FC6
:1014B00004BF12010CF1040C930F04BF92000CF155
:1014C000020CD30F04BF52000CF1010C11464FF077
:1014D0000002A0F11F00A0EB0C00704711F0004FBC
:1014E00008BF704731F000413FF4D5AF0B0C06BF89
:1014F00009044FF0100C4FF0000C0B0E04BF090252
:101500000CF1080C0B0F04BF09010CF1040C8B0F3C
:1015100004BF89000CF1020CCB0F04BF49000CF191
:10152000010CCCF12003A0EB0C0022FA03F302FA29
:101530000CF241EA030100F10100704720F07F4CFA
:1015400080EA030023F07F47ACEB070303F57C53ED
:1015500000F0004003F1FF032DE980494FEA154BED
:1015600009B44FEA144325EA0B4E24EA03480FF26C
:10157000042606EB132749083E785FEA320203FB94
:101580000667C7F5000707FB06F64FEA54374FEA30
:10159000D64606F1020607FB066CCCF1005C4FEA6A
:1015A0001C472CEA074C07FB06F40CFB06F504EB82
:1015B00015464FEA961634BF00204FF000404FEA20
:1015C000D13706FB07FC4FEA1C4C0CFB0BF7D21B78
:1015D00003FB0CF761EB07010CFB0EF7B0EB0740C8
:1015E00072EB17420CFB08F734BFA2EB0742B2EBD9
:1015F000074261EB17414FEA0C444FEA910706FBA3
:1016000007FC4FEA1C4C0CFB0BF7B0EBC74072EB2E
:10161000573203FB0CF734BFA2EBC742B2EBC74211
:1016200061EB57310CFB0EF7B0EBC70072EB577252
:101630000CFB08F734BFA2EBC702B2EBC70261EBA9
:101640005771039F4FEA816141EA921104EBCC0488
:101650004FEAD1374FEA826206FB07FC42EA90125A
:101660004FEA80604FEA1C4C0CFB0BF7D21B03FBCC
:101670000CF761EB07010CFB0EF7B0EB074072EBC8
:1016800017420CFB08F734BFA2EB0742B2EB07424C
:1016900061EB17414FEA8C554FEA910704EB9C240C
:1016A00006FB07FC4FEA1C4C0CFB0BF7B0EBC740EA
:1016B00072EB573203FB0CF734BFA2EBC742B2EB1D
:1016C000C74261EB57310CFB0EF7B0EBC70072EB72
:1016D00057720CFB08F734BFA2EBC702B2EBC7028C
:1016E00061EB577115EB4C254FEA816141EA92118C
:1016F0004FEA82624FEAD13742EA901206FB07FCBA
:1017000044F100044FEA80604FEA1C4C0CFB0BF7DD
:10171000D21B03FB0CF761EB07010CFB0EF7B0EBE0
:10172000074072EB17420CFB08F734BFA2EB0742ED
:10173000B2EB074261EB174115EB1C154FEA813103
:1017400041EA92414FEA823242EA90424FEA8030C7
:101750004FEA0C7644F1000448EA03434EEA0B4892
:101760004FF0000EB2EB080C71EB030724BF62468A
:1017700039464EEB0E0E4FF0000B00185241494116
:101780004BEB0B0BB2EB080C71EB03077BF1000B7F
:1017900024BF624639464EEB0E0E4FF0000B001888
:1017A000524149414BEB0B0BB2EB080C71EB0307B9
:1017B0007BF1000B24BF624639464EEB0E0E51EA18
:1017C000020718BF46F0010616EB0E7655F100022F
:1017D00054F1000103D5BDE88901BDE80088BDE8EA
:1017E0008901BDE80048B619524141EB0101A3F15E
:1017F0000103704780807F7E7D7C7B7A7978777665
:1018000076757473727171706F6E6E6D6C6C6B6ADD
:101810006A6968686766666564646363626161607B
:10182000605F5F5E5E5D5D5C5C5B5B5A5A595958F8
:101830005857575656555555545453535252525162
:10184000515050504F4F4F4E4E4D4D4D4C4C4C4BB8
:101850004B4B4A4A4A4949494848484747474746FF
:10186000464645454544444444434343434242423B
:1018700042414141002B9C4630D477002BD01CB50F
:101880004FEA370703B44FF010004FF01001BAF1E0
:10189000000F06D0BCF1000FDCBF40F0080040F0A4
:1018A00008014FF000000FBCBDE810400BF1010B28
:1018B000BBF1010F08BF5FEA170722BF12F1010257
:1018C00011F101014FF0004143F1000300F000402D
:1018D00043EA00007047F9D35708D0E746EA0646C6
:1018E00013F1400F4FEA16461FDD13F1200FDFBF43
:1018F00016430A46002120335B42BED0C3F12007C5
:1019000046EA064602FA07F74FEA164646EA07068F
:10191000C3F1200722FA03F201FA07F721FA03F1D3
:101920004FF0000342EA0702A7E746EA020646EA4A
:1019300006464FEA164646EA0106BCBF46EA064698
:10194000360C4FF000034FF000024FF0000194E717
:101950002DE9804C9A46934670B491E8380007C848
:1019600031EA400C48BF34EA430C03D5FFF7E6FDEB
:10197000FFF780FFF0BCBDE8008C2DE9804C9A4653
:10198000934670B491E8380007C810F0804F08BF44
:1019900013F0804F03D100F005F8FFF76BFFF0BCA8
:1019A000BDE8008C20F07F4780EA030023F07F4CE5
:1019B00007EB0C03A3F57C5300F00040A3F1FE03FA
:1019C00092F0000F00F0B38095F0000F00F07780E8
:1019D0002DE901494FEA11404FEA144621EA004837
:1019E00000FB06FC24EA064708FB06F607FB08F89E
:1019F00000FB07F718EB06484CEB164C4FEA124B6E
:101A000018EB07484FEA15464CEB174022EA0B4EFD
:101A10000BFB06FC25EA06470EFB06F607FB0EFE4F
:101A20000BFB07F71EEB064E4CEB164C4FF0000677
:101A30001EEB074E4CEB174B18EB0B0840F1000068
:101A400018EB0E0B58EB000840F100008F1A4FF016
:101A500000013CBFC943661B14BFB5EB040C002159
:101A60003CBFC943F61B4FEA17444EEA8E0E27EAE5
:101A700004454FEA1C4704FB07622CEA074C05FBB0
:101A800007F70CFB05F604FB0CFC16EB074642EBD4
:101A9000174216EB0C4642EB1C421BEB060658EBBA
:101AA0000202414146EA9E0601D5BDE80189B61908
:101AB000524141EB0101A3F10103BDE801894FEA65
:101AC00014454FEA114724EA054621EA074C05FB75
:101AD00007F406FB07F70CFB06F105FB0CFC11EB0A
:101AE000074144EB17444FEA124711EB0C4144EB1A
:101AF0001C4422EA074C05FB07F206FB07F70CFB28
:101B000006F605FB0CFC16EB074642EB174216EBFC
:101B10000C4642EB1C456A1854F1000148BF70475F
:101B2000B619524141EB0101A3F10103704795F051
:101B3000000F37D04FEA11424FEA144721EA02461C
:101B400024EA074C02FB07F106FB07F70CFB06F43F
:101B500002FB0CFC14EB074441EB17414FEA15471D
:101B600014EB0C4441EB1C4125EA074C02FB07F542
:101B700006FB07F70CFB06F602FB0CFC16EB074610
:101B800045EB174516EB0C4645EB1C42121951F17B
:101B9000000148BF7047B619524141EB0101A3F162
:101BA000010370474FEA14454FEA114724EA0546FE
:101BB00021EA074C05FB07F106FB07F70CFB06F2D1
:101BC0004FF0000605FB0CFC12EB074241EB1741FE
:101BD00012EB0C4251EB1C4148BF7047921841EB8D
:101BE0000101A3F1010370471CB506A14FF47A73FC
:101BF000D1E90001CDE9000107226946034802F05E
:101C000007F91CBDFFFFFFFFFFFFFF0018010020C9
:101C10002DE9F04100272DED028B84B0324D9FED70
:101C2000300B00970297019785ED000B4FF04008AD
:101C30004FF6FF748DF800804FF47A7602E000BF13
:101C40008DF80080334601226946284802F0E0F80A
:101C50003346012202A9254802F016F89DF8080033
:101C6000000602D5641EA4B2EAD258208DF8000006
:101C70003346012269461D4802F0CAF83346032262
:101C800001A91A4802F000F89DF804009DF805101B
:101C900038439DF8064041EA002144EA01249FEDC3
:101CA000141B9FED150B04F04BFAB0EE408AF0EEDA
:101CB000608A04EB840005F0FBFD53EC182B05F063
:101CC0005BFC9FED0F1B53EC112B06F04DF841EC24
:101CD000100B85ED000B04B0BDEC028BBDE8F0816C
:101CE0000000000000000000180000201801002083
:101CF000000000000000384000000000000000402C
:101D00000000000000000440F8B5064600200090E6
:101D1000102014460D468DF800004FF47A773B46AC
:101D200001226946074802F073F88DF800608DF8CB
:101D300001508DF802403B4603226946014802F0FB
:101D400067F8F8BD18010020F8B50646002000909D
:101D5000082014460D468DF800004FF47A773B4674
:101D600001226946074802F053F88DF800608DF8AB
:101D700001508DF802403B4603226946014802F0BB
:101D800047F8F8BD1801002070B504460068816866
:101D900011F0010F2DD18168174A11421AD18168C3
:101DA000D5432940491C816000F09AFF06461BE09C
:101DB000816811F0010F03D181682940491C8160BD
:101DC00000F08EFF801B02280ED920680068C043F7
:101DD000C00709D0E06D40F01000E065206E40F0D3
:101DE00001002066012070BD20680168C943C90751
:101DF000DED1002070BD00003F000080FEE770478C
:101E000072B6FEE72DE9F047044690F858009CB002
:101E10000E464FF00009012815D0012084F8580023
:101E200000251795189520684FF0A04840450ED121
:101E3000284F0097384602F0A9FD8246206802F03C
:101E4000A5FD60B10EE002201CB0BDE8F087E06D9A
:101E500040F02000E06584F858500120F4E7BAF122
:101E6000000F09D0E06D40F02000E0654FF001095F
:101E700084F858504846E7E71748326840F61F7123
:101E8000002A826822F4604216D094F8383042EA80
:101E9000433273681A438260D8F80820BB6802F0A6
:101EA000010203F001031A43E2D1B36832681A4316
:101EB00083688B431A430BE08260D8F80820BB6824
:101EC00002F0010203F001031A43D1D182688A4370
:101ED0008260CDE700010050000300502DE9F84F6B
:101EE00000270446009790F85800DFF8E0930D466D
:101EF000B846012811D0012684F85860206802F005
:101F000041FD60B1E06D40F02000E0655FF0010749
:101F100084F858803846BDE8F88F0220FBE7D5E901
:101F200000210C23206803EA91131844036B01F08D
:101F30001F014FF01F0C0CFA01FCC2F3846223EA6C
:101F40000C038A4013430363206802F01BFD8246A2
:101F5000206802F013FD5AEA00003CD1AA68296803
:101F60002068B2F1004F37D002F01CFD20684169B3
:101F700021F00041416120686969C268C2F3C10271
:101F8000520091402A69042A31D000EB82002B686C
:101F9000026EDFF83CC303F0F84302EA0C020B4385
:101FA0001A4342F00041016620682A69A96900EBE2
:101FB0008200026E22F080720A430266297F226844
:101FC0002869012910D0002102EB8000026E22F066
:101FD00000720A4302667DE0002202F0E3FC206802
:101FE000416941F00041C5E74FF00071ECE7002185
:101FF00002F0BEFC400320684FF0000172D002F0F6
:10200000B7FC90FAA0F0B0FA80F1286842036ED0D5
:1020100090FAA0F0B0FA80F0814204D1002211467B
:10202000206802F0CEFC0121206802F0A1FC4003F0
:1020300020684FF001015DD002F09AFC90FAA0F008
:10204000B0FA80F12868420359D090FAA0F0B0FAB3
:1020500080F0814204D100220121206802F0B1FC0D
:102060000221206802F084FC400320684FF0020146
:1020700048D002F07DFC90FAA0F0B0FA80F1286818
:10208000420344D090FAA0F0B0FA80F0814204D12B
:1020900000220221206802F094FC0321206802F053
:1020A00067FC400320684FF0030133D002F060FC6E
:1020B00090FAA0F0B0FA80F1286842032FD090FA8D
:1020C000A0F0B0FA80F0814204D100220321206800
:1020D00002F077FC2068816811F0010F22D0ACE09B
:1020E00000E004E002F044FCC0F384618DE7C0F33B
:1020F000846091E702F03CFCC0F38461A2E7C0F386
:102100008460A6E702F034FCC0F38461B7E7C0F353
:102110008460BBE702F02CFCC0F38461CCE7C0F321
:102120008460D0E72A7B296850F8B03FC1F3120CD5
:1021300023EA0C0302F0180C664A22FA0CF20A4059
:1021400013430360E968494577D1286841031CD0EF
:1021500090FAA0F1B1FA81F1491C01F01F0109299F
:102160004FEA403132D8002912D000BF90FAA0F1D6
:10217000B1FA81F101F1010101F01F0106FA01F646
:1021800009D100BFC0F3846109E0C0F38461E3E7D3
:10219000C0F38461EEE790FAA0F1B1FA81F101F1A8
:1021A000010101F01F0146EA816102D1C0F38460A0
:1021B00003E090FAA0F0B0FA80F000F1010000F026
:1021C0001F0000EB400041EA005132E000290ED030
:1021D00090FAA0F1B1FA81F101F1010101F01F01C2
:1021E00006FA01F606D100BFC0F3846106E0C0F331
:1021F0008461F1E790FAA0F1B1FA81F101F10101F6
:1022000001F01F0146EA816102D1C0F3846003E05E
:1022100090FAA0F0B0FA80F000F1010000F01F0089
:102220002D4A00EB400002EB005041EA000141F072
:102230000071AA68206802F0B5FB28482A680242AB
:102240003FF466AE26488168264B01F0E0719A4261
:1022500002D0254B9A421CD10B021AD42268B2F14B
:10226000A04F7FF455AE826841F4000122F0E07285
:102270000A4382601D481E490068B0FBF1F0401C13
:1022800000EB4000800000E0401E00900028FBD1E1
:102290003EE6184D184BAA4207D1CD0105D422685D
:1022A0009A42F5D041F0807109E0144DAA42EFD175
:1022B0004A02EDD422689A42EAD041F48001826851
:1022C00022F0E0720A43826022E6000000007F40B4
:1022D00000F0FF03FFFF0700000020FE0000088061
:1022E00000030050000021C31000C0901000002027
:1022F000400D0300000052C700010050000084CBD5
:102300000068006C70470000F8B54FF0000504004D
:102310002E46009502D0E06D10B107E00120F8BD17
:10232000204600F0EFF8266684F85860206881683F
:10233000C1F3407119B181686A4A11408160206817
:102340008168C1F3007189B98168674A114041F021
:1023500080518160654866490068B0FBF1F040003B
:10236000801C00E0401E00900028FBD1206881689E
:10237000C1F3007141B9E16D41F01001E165216ED9
:1023800041F001012166012502F0FCFAE16DC90668
:1023900000D430B1E06D40F01000E0650125284622
:1023A000F8BDE06D20F4807040F00200E065206828
:1023B000806810F0010F11D14FF0A04080684D49A6
:1023C00000F00100896801F00101084306D14A4884
:1023D0006168826822F47C120A438260E168E06BE3
:1023E000627F0843A16841EA4231084394F824100F
:1023F00040EA0140012904D1218D404A02EB4141CC
:102400000843E16A29B101F47871226B014342EA81
:1024100001002168CA683A4B1A400243CA6020682A
:102420000169626B21F0406111430161206802F093
:10243000A9FA0646206802F0A1FA30432ED1207F87
:1024400094F83810800340EA41022068C16844F2E1
:10245000020399431143C160206900282068016983
:102460000AD041F480310161206850F8C01F226910
:102470006FF30D01114307E021F480310161206801
:1024800050F8C01F6FF30D01016094F8400001285F
:102490000CD02068016921F0010101616069012807
:1024A0002068016B21F00F0111D013E0D4E9110174
:1024B0000843D4E913121143084321680A6940F222
:1024C000FC739A43104340F001000861E6E7226A7A
:1024D000521E11430163E06D20F0020040F0010044
:1024E000E0655CE7C0FFFF5FC0FFFF7F10000020DA
:1024F000400D030000010050000300500000FEFFEB
:102500000740F0FF10B586B0044614216846FDF779
:10251000B3FF2068B0F1A04F1BD10F48C16C41F44C
:102520000051C164C16C01F400510591C16C41F0CE
:102530000101C164C06C694600F0010005900120F2
:10254000009003200190002002904FF0904000F096
:10255000DDFA06B010BD0000001002402DE9F04188
:1025600004463B480F46816801F01F05A169082910
:102570000FD085B1052D0ED0092D0CD0806800F448
:10258000604060B1E06D40F02000E0650120BDE8F2
:10259000F081082604E02068C068C007F1E704263F
:1025A00000F09EFB804615E0781C13D000F098FBED
:1025B000A0EB0800B84200D867B920680068304234
:1025C00008D1E06D40F00400E065002084F8580078
:1025D0000320DCE7206800683042E5D0E06D40F47D
:1025E0000070E065206802F0D5F980B1607F70B9B5
:1025F0002068006800070AD5E06D20F48070E0656F
:10260000E06DC00403D4E06D40F00100E065114AC4
:1026100020684FF0A041904201D10B4600E00346F4
:10262000834210D07DB1052D0DD0092D0BD09042E5
:1026300000D00146C968082E07D0490401D40C21F6
:1026400001600020A3E7C168F5E70821F8E7000072
:1026500000030050000100502DE9F04104463848C5
:10266000806800F01F05206802F08CF918B1022183
:102670000846BDE8F08194F8580001280CD00120EC
:1026800084F858002046FFF77FFB01004FF000035D
:1026900004D084F85830EBE70220EAE7E06D40F61A
:1026A0000162904340F48070E065264A20684FF054
:1026B000A046904201D1374600E00746874200D04D
:1026C0001DB9E76D27F48017E765E76DFF0404D5B2
:1026D000276E27F00607276600E023661C270760A1
:1026E00084F858302068904201D1334600E0034618
:1026F000834215D0A5B1052D12D0092D10D0E36D60
:1027000043F48013E365904200D13046C0688001F5
:10271000AED5E06D20F4005040F48050E065A7E7AE
:10272000C268920105D5E26D22F4005242F4805253
:10273000E2658268044B1A40121D826098E700002F
:102740000003005000010050C0FFFF7F2DE9F0475B
:102750000446407990460D4601280BD04FF0010900
:1027600084F8059002202071A96808F01006042959
:1027700003D045E00220BDE8F08700F0B1FA07463B
:102780005FEA08004FF0030805D01CE000F0A8FA4B
:10279000C01B01280FD82068406B0004F6D401202C
:1027A00000F0A2F92168686A086416E000F098FA5F
:1027B000C01B012807D9206940F00800206184F877
:1027C00004800320D7E72068406B0028EEDB01205F
:1027D00000F08AF92168686A48642068816C40F2D8
:1027E000FF32B2409143AA6AB2401143816420682B
:1027F000C16CFF22B2409143EA6AB2401143C16406
:10280000E869012808D12268916B1F20B0408143FC
:10281000286AB040084390632068C06B0721B1402C
:102820008843A969012903D0022955D06969E9B310
:1028300000216B69AA681A430A434FF4807101FAB8
:1028400006F398432B79012B00D0002111434FF45C
:10285000007202FA06F398436B79012B00D0002234
:1028600020F44047286842EA0108022836D007438E
:10287000216808FA06F03843C863206801684FF4FD
:102880008042B240914301602268116840F6FE70B8
:10289000B0408143E868B040084310602068016898
:1028A000C022B24091430160287B00E014E0297C03
:1028B0002268C0F3830001F03C0140EA8110116EF0
:1028C00040F60F73B3409943B0400143116684F85A
:1028D0000490002060714EE70121AAE700F0C8FED5
:1028E0000549884202D947F40047C1E703498842B5
:1028F000BED947F48047BBE70068890900B4C40427
:1029000070B5040003D02079002510B105E0012046
:1029100070BD6571204600F007F802202071256126
:1029200001202071002070BD10B586B0044614212E
:102930006846FDF7A1FD1149206888421BD1104867
:10294000C16C41F48031C164C16C01F480310591E6
:10295000C16C41F00101C164C06C694600F0010026
:1029600005901020009003200190002002904FF06D
:10297000904000F0CBF806B010BD000000080050F9
:102980000010024018B50068C46B0090104421B1DB
:10299000143000900360002018BD0830F9E72DE9DD
:1029A000F041044640790D46012822D04FF001083D
:1029B00084F805800226267121680A6805F0100750
:1029C00008FA07F002430A60404600F08DF82068DC
:1029D000016885B101F47811BE40B14203D141686C
:1029E00041F00201416084F8048000206071BDE87C
:1029F000F0810220FBE7C1F344010129F3D14168D2
:102A000041F00101EEE710B590F8253000210122D8
:102A1000022B03D00421C163012122E003681C685A
:102A200024F00E041C60836C1C6824F480741C6009
:102A300003681C6824F001041C6090F84430046CA6
:102A400003F01F0302FA03F36360D0E913345C6000
:102A5000436D33B11C6824F480741C60D0E91634D3
:102A60005C6080F82520002280F82420084610BDF4
:102A700070B590F82520002401212346022A07D0B2
:102A80000422C26380F8251080F82430012429E054
:102A90000268156825F00E0515600268156825F0B6
:102AA00001051560826C156825F48075156090F835
:102AB0004420056C02F01F0201FA02F26A60D0E9BC
:102AC00013255560426D32B1156825F48075156087
:102AD000D0E91625556080F8251080F82430816BE8
:102AE00001B18847204670BD70B5044600F0F8F883
:102AF0000546601C02D004484068044400F0F0F829
:102B0000401BA042FAD370BD040000202DE9FC4F09
:102B1000DFF8A0A1002301250AF1040B03244FF0E4
:102B20000F0C0BF1040EBDE005FA03F632406FD036
:102B30004F68012F05D0022F03D0112F01D0122F83
:102B400017D1D0F808905F0004FA07F829EA0809BD
:102B50000097D1F80C8008FA07F848EA0908C0F88D
:102B600008804768B7430E79C6F300169E403E437F
:102B70004660C6684FEA430804FA08F7BE43019767
:102B80008F6807FA08F73743C7604E68022E01D0F6
:102B9000122E13D1DE0800EB86060096366A5F0718
:102BA000FF0E0CFA07F926EA0906D1F8109009FA87
:102BB00007F949EA0609009EC6F820900668019FB9
:102BC000BE430F7907F0030707FA08F7374307609A
:102BD0004E68F60065D5384E376E47F00107376608
:102BE000366E23F0030706F001060096334E3E448E
:102BF000B146B6689F074FEA17780CFA08F7BE434C
:102C0000B0F1904F05D02E4FB84204D1012717E004
:102C100047E0002714E02B4FB84201D102270FE014
:102C2000294FB84201D103270AE0284FB84201D109
:102C3000042705E0264FB84201D1052700E006270A
:102C400007FA08F73743C9F80870DAF80060574602
:102C5000D1F8048096435FEAC83800D516433E6039
:102C6000DBF800605F46D1F8048096435FEA88385D
:102C700000D516433E60DEF800607746D1F8048048
:102C800096435FEAC82800D516433E60094F0C37CB
:102C90003E68D1F8048096435FEA882800D5164341
:102CA0003E605B1C0A6832FA03F67FF43DAFBDE874
:102CB000FC8F0000000401400010024000000140B1
:102CC0000004004800080048000C004800100048BC
:102CD000001400480AB181617047816270470000AA
:102CE00001488068704700000400002090F84120EF
:102CF000202A24D190F84020012A20D0012280F8F7
:102D00004020242280F841200268136823F0010348
:102D100013600268136823F4805313600268136819
:102D20000B43136001680A6842F001020A60202127
:102D300080F84110002180F84010084670470220BA
:102D4000704790F84120202A22D190F84020012A93
:102D50001ED0012280F84020242280F84120026801
:102D6000136823F0010313600268136823F470638F
:102D700043EA0121116001680A6842F001020A6019
:102D8000202180F84110002180F84010084670474B
:102D90000220704770B5040004D094F8410000256B
:102DA00010B106E0012070BD84F84050204600F0CC
:102DB000DFF8242084F841002068016821F0010137
:102DC00001606068216820F0706008612068816897
:102DD00021F400418160E0680128A06807D040F438
:102DE000044021688860E068022803D006E040F4CF
:102DF0000040F6E721684FF40060486020684168B1
:102E0000114A114341602068C16821F40041C1604A
:102E1000D4E904010843A16940EA01202168C8609F
:102E2000D4E907010843216808602068016841F07F
:102E3000010101606564202084F84100256384F865
:102E40004250002070BD0000008000022DE9F84FC4
:102E5000044690F84100DDF828A01F4690468B46B6
:102E600020287ED194F8400001287AD0012084F8EF
:102E70004000FFF735FF0646012200901923D103D9
:102E8000204601F0FBFCE0BB212084F8410010202B
:102E900084F8420000256564C4F824806785656372
:102EA000618D3148FF274FF080784FF00079FF297E
:102EB00003D927853A46009039E0618D218500903D
:102EC0003AE05946204601F0C3FC13E001F028FD2A
:102ED000B8B9606A216800788862606A401C6062E4
:102EE000608D401E6085208D401E80B22085618DE2
:102EF00001B168B1608D3246002851462046E5D1C7
:102F000000E002E001F0E6FCD0B10120BDE8F88F5E
:102F10005346002280212046009601F0AFFC002895
:102F2000F3D1608DFF2804D927853A4600954346A2
:102F3000C7E7608D2085009594F828204B46C0E7B0
:102F400021682020C86121684A68084B1A404A60FD
:102F500084F8410084F8425084F840500020D5E7BE
:102F6000FFE70220D2E700000020008000E800FE1A
:102F7000F0B587B0044614216846FDF77DFA1B4979
:102F8000206888422FD11A4CE06C40F00100E064C8
:102F9000E06C00F001000590E06C40F00200E0649D
:102FA000E06C122600F002000590C8130090002586
:102FB000CDE901650427CDE903576946B006FFF75F
:102FC000A5FD80200090CDE90165CDE90357694654
:102FD0000848FFF79BFDA06D40F40010A065A06DB0
:102FE00000F40010059007B0F0BD00000054004050
:102FF0000010024000040048024881684268114401
:10300000816070470400002010B50024032000F008
:1030100073F80F2000F008F808B1012401E000F077
:1030200025F8204610BD000070B50E4E0546002460
:10303000706898B14FF47A71B1FBF0F00A490968F1
:10304000B1FBF0F001F0D9F840B9102D06D2002202
:103050002946501E00F030F8356000E0012420467B
:1030600070BD000004000020100000200A4882B05B
:10307000016E41F001010166016E01F00101009154
:10308000816D41F080518165806D00F0805000902D
:1030900002B000F0B3B8000000100240002809DBC5
:1030A00000F01F02012191404009800000F1E02062
:1030B000C0F8001170470000F0B40E4B1B680C46BE
:1030C000C3F30223C3F10705042D00D90425191DFC
:1030D000072901D2002300E0DB1E012606FA05F1D4
:1030E000491E214099409E40761E16403143F0BC57
:1030F00003F013B80CED00E0064900F00702086881
:103100004FF6FF03184040EA0220034A10430860CC
:10311000704700000CED00E00000FA05BFF34F8F90
:1031200005480168054A01F4E06111430160BFF3FD
:103130004F8F00BFFDE700000CED00E00400FA0532
:103140002B492C4B0A6832214A432B4940B1B0F538
:10315000007F086829D020F4C06040F480602CE033
:103160000868C0F34120022804D051F8800F20F4F1
:10317000807022E0D1F8800020F48070C1F88000D7
:10318000086820F4C06040F400700860B2FBF3F0FF
:10319000401C00E0401E4A69520501D50028F9D1C3
:1031A000486940050AD503207047C0F34120022832
:1031B00006D051F8800F40F48070086000207047FE
:1031C000D1F8800040F48070C1F88000086820F4D5
:1031D000C06040F400700860B2FBF3F0401C00E0F7
:1031E000401E4A695205DBD50028F9D1D8E7000016
:1031F0001000002040420F0000700040024881682B
:1032000041F4804181607047007000402DE9F8432F
:103210000446006800269D4D00035ED5A86D00277A
:10322000C00008D4A86D40F08050A865A86D0127A3
:1032300000F080500090DFF85892D9F8001041F467
:103240008071C9F80010FFF74BFD804606E000BF13
:10325000FFF746FDA0EB080002282BD8D9F80000A4
:10326000C005F5D5D5F8900010F4407014D0216C4D
:10327000814211D0D5F89000D5F8901020F440701C
:1032800041F48031C5F89010D5F8901021F48031C8
:10329000C5F89010C5F89000C00711D0FFF720FDC9
:1032A000804641F2883907E0FFF71AFDA0EB0801DC
:1032B000494501D903260BE0D5F890008007F3D5E6
:1032C000D5F89000216C20F440700843C5F89000B8
:1032D0001FB1A86D20F08050A8652078C00707D0E6
:1032E000D5F88800616820F003000843C5F888001D
:1032F0002078800707D5D5F88800A16820F00C0059
:103300000843C5F888002078400707D5D5F888001D
:10331000E16820F030000843C5F8880020780007F5
:1033200007D5D5F88800216920F0C0000843C5F80A
:1033300088002078800607D5D5F88800616920F4D8
:1033400040600843C5F888002078400607D5D5F8C6
:103350008800A16920F440500843C5F8880020780F
:10336000000607D5D5F88800E16920F440400843FD
:10337000C5F888002088C00507D5D5F88800216ADF
:1033800020F440300843C5F888002088800507D520
:10339000D5F88800616A20F440200843C5F8880009
:1033A000208840050FD5D5F88800A16A20F4401088
:1033B0000843C5F88800A06AB0F5801F03D1E8680B
:1033C00040F48010E860208800050FD5D5F888000B
:1033D000E16A20F440000843C5F88800E06AB0F5CF
:1033E000800F03D1E86840F48010E8602088C004B2
:1033F0000FD5D5F88800216B20F040700843C5F840
:103400008800206BB0F1807F03D1E86840F4801021
:10341000E86020884FF0006180040ED5D5F8880060
:10342000626B20F040601043C5F88800606B8842F2
:1034300003D1E86840F48010E860208840040ED58D
:10344000D5F88800A26B20F040601043C5F88800D2
:10345000A06B884203D1E86840F48010E8602088BF
:1034600000040FD5D5F88800E16B20F040500843E8
:10347000C5F88800E06BB0F1805F03D1E86840F4E4
:103480008030E8603046BDE8F8830000001002405C
:10349000007000402DE9F0470E4605004FF0000790
:1034A00025D0DFF8AC81D8F8000000F00F00B04262
:1034B0000CD2D8F8001021F00F013143C8F80010E9
:1034C000D8F8000000F00F00B04210D12968614C1C
:1034D000C80741F2883A5AD06868DFF87C9103281F
:1034E00008D0022820682DD0400500282CDB0120C0
:1034F000BDE8F08720688001F9D5E06800F003029C
:10350000E068C0F30310401C032A19D0534A00BFDF
:10351000B2FBF0F0E268C2F306225043E268C2F365
:103520004162521C5200B0FBF2F0484517D9A06826
:1035300010F0F00F0CD0880711D5A86840B10EE04C
:10354000474AE5E78003D0E700F0BCF8484506D9D4
:10355000A06820F0F00040F08000A0608027A06804
:10356000696820F003000843A060FFF7B9FB8146BB
:1035700006E000BFFFF7B4FBA0EB090151453AD8C4
:10358000A068696800F00C00B0EB810FF2D12868E8
:10359000810714D5400703D5A06840F4E060A0601F
:1035A0002878000705D5A06820F4605040F4E0605A
:1035B000A060A068A96820F0F000084304E0802F14
:1035C00003D1A06820F0F000A060D8F800104046B9
:1035D00001F00F01B14216D9016821F00F0131430A
:1035E0000160FFF77DFB074607E000BFFFF778FBB0
:1035F000C11B514501D903207AE7D8F8000000F03B
:103600000F00B042F2D12878400705D5A068E968DC
:1036100020F4E0600843A0602878000706D5A06881
:10362000296920F4605040EAC100A06000F04AF827
:10363000A1680C4AC1F30311515C01F01F01C8409D
:103640000949086009480068BDE8F047FFF7ECBC8D
:10365000002002400010024000B4C4040024F40022
:1036600000127A004E8100081000002004000020A3
:103670000148006870470000100000200548064916
:1036800000688968054AC1F30221515C01F01F01FD
:10369000C840704710000020001002405E81000802
:1036A0000548064900688968054AC1F3C221515C92
:1036B00001F01F01C84070471000002000100240B8
:1036C0005E810008184910B58868C0F38102174868
:1036D000012A0BD08A684310C2F38102022A06D065
:1036E0008A68C2F38102032A03D0002010BD184665
:1036F00010BDCA6802F00304CA68C2F30312521C68
:10370000032C02D0B0FBF2F001E0B3FBF2F0CA6888
:10371000C968C2F306225043C1F34161491C490004
:10372000B0FBF1F010BD0000001002400024F400D6
:103730002DE9F84304007AD02078FA4DC00747D02D
:10374000A868E96800F00C0001F003010C2802D021
:10375000082817D001E0032914D06068B0F5803F35
:1037600017D0B0F5A02F286817D020F4803028603B
:10377000286820F4802028606068E0B1FFF7B0FA84
:10378000064614E02868800322D560680028D2D05D
:103790001EE0286840F48030EDE740F48020286087
:1037A000F7E700BFFFF79CFA801B642870D82868F1
:1037B0008003F7D50CE0FFF793FA064605E000BF5B
:1037C000FFF78EFA801B6428F0D828688003F7D4AE
:1037D000207880074CD5A868E96800F00C0001F05B
:1037E00003010C2802D004280DD001E002290AD0E0
:1037F000E068002828682BD040F480702860FFF72C
:103800006FFA064619E02868400502D5E0680028EE
:1038100091D06868217C20F0FE4040EA0160686039
:10382000C1480068FFF700FC002800D120E076E1E5
:10383000FFF756FA801B0228B8D828684005F7D54C
:103840006868217C20F0FE4040EA016068600FE07B
:1038500020F480702860FFF743FA064605E000BFB9
:10386000FFF73EFA801B0228A0D828684005F7D44D
:103870002078000729D560690028D5F8940013D076
:1038800040F00100C5F89400FFF72AFA064606E06A
:1038900090E000BFFFF724FA801B022886D8D5F8F5
:1038A00094008007F6D510E020F00100C5F89400E0
:1038B000FFF716FA064604E0FFF712FA801B02280B
:1038C00078D8D5F894008007F6D42078400761D5E1
:1038D000A86D0026C00008D4A86D40F08050A865EF
:1038E000A86D012600F08050009090480168C9053D
:1038F00011D40168804641F480710160FFF7F0F94E
:10390000074604E0FFF7ECF9C01B022852D8D8F8AC
:103910000000C005F6D5A068012815D00528D5F807
:10392000900016D020F00100C5F89000D5F8900066
:1039300020F00400C5F89000A06841F28838B8B1C2
:10394000FFF7CEF907460EE0D5F8900040F00100F1
:10395000F0E740F00400C5F89000F5E7FFF7C0F984
:10396000C11B414526D8D5F890008007F6D50CE05C
:10397000FFF7B6F9074604E0FFF7B2F9C11B41456E
:1039800018D8D5F890008007F6D41EB1A86D20F0A5
:103990008050A8652078800629D5A0690028D5F830
:1039A000980013D040F00100C5F89800FFF798F98F
:1039B000064606E077E000BFFFF792F9801B022879
:1039C00077D8D5F898008007F6D510E020F00100F0
:1039D000C5F89800FFF784F9064604E0FFF780F980
:1039E000801B022865D8D5F898008007F6D4E069D6
:1039F000F0B3A968C1F38101032961D002282868C6
:103A000020F0807028600BD0E86820F00300E860A8
:103A1000E86847490840E860FFF762F904464BE070
:103A2000FFF75EF9064604E0FFF75AF9801B02280B
:103A30003FD828688001F7D4F4E908016FF00F023D
:103A400002EB01110843218A5204490802EB41515B
:103A5000A26841EA02210843217D4FF07E424908D5
:103A600002EB41610843217B40EAC160E96800E064
:103A700062E0304A11400843E860286840F08070F6
:103A80002860E86840F08070E860FFF729F9044694
:103A900005E000BFFFF724F9001B022809D82868B9
:103AA0008001F7D548E004E0FFF71AF9001B02286F
:103AB00002D90320BDE8F88328688001F4D43BE0F4
:103AC0000128F7D0E868226A00F00301914226D16C
:103AD000616A00F0F0020901103991421FD1A26A17
:103AE00000F4FE41B1EB022F19D194F82C2000F024
:103AF0007841B1EBC26F12D1218E00F4C0024908A7
:103B00004905A1F50011914209D194F8341000F053
:103B1000C06049084906A1F1007181420CD0012022
:103B2000C8E70000001002400400002000700040C0
:103B3000FFFFEEFE0C809F010020BBE770B5040084
:103B400009D0606A002540B125616561A56294F8DD
:103B50005D0040B10CE0012070BD6068B0F5827F6F
:103B6000F4D0E561F2E784F85C50204600F05CF8A0
:103B7000022084F85D002068016821F040010160A6
:103B8000E1684FF4E062914201D9002001E04FF476
:103B90008050B1F5706F02D0914200D0A562A1882B
:103BA000228901F4827102F404421143227C02F062
:103BB00002021143227D02F001021143228B02F422
:103BC00000721143227F02F03802114394F8202042
:103BD00002F080021143228D02F400521143226848
:103BE0001160A169042202EA114194F8242000F432
:103BF000805002F01002114394F8342002F00802C1
:103C00001143A28902F470621143014320684160AC
:103C10002068C16921F40061C1612566012084F832
:103C20005D00002070BD000010B586B00446142170
:103C30006846FCF721FC1249206888421ED11148D1
:103C4000016E41F480510166016E01F480510591CD
:103C5000C16C41F00101C164C06C694600F0010013
:103C60000590E02000900220019000200290039037
:103C7000052004904FF09040FEF748FF06B010BDBD
:103C800000300140001002402DE9F84F0446406822
:103C90000025984616460F464FF0040BB0F5827F7C
:103CA00001D1A06888B194F85C00012818D00120E7
:103CB00084F85C00FFF714F8814694F85D004FF03B
:103CC000000A01280ED0022599E084F85DB0134661
:103CD0000A462046CDF8008000F05EF9BDE8F88F76
:103CE0000220FBE7002F77D0002E75D084F85DB05E
:103CF000C4F860A02764A4F84460A4F84660C4F83F
:103D000038A0A4F83CA0A4F83EA0C4F84CA0C4F885
:103D100050A0E0684FF4E06188422068426802D910
:103D200022F4805201E042F480524260A068B0F573
:103D3000004F09D12068026822F04002026020682A
:103D4000026822F48042026020680268520603D4AE
:103D5000026842F040020260E06888421DD93FE0FC
:103D600020688168C9070BD0017B206C0170206C32
:103D7000401C2064B4F84600401EA4F846000CE045
:103D8000FEF7AEFFA0EB0901414503D3B8F1FF3FB9
:103D900003D03BE0B8F1000F38D0B4F8460000285B
:103DA000DED121E020688168C9070BD0C068216C92
:103DB0000880206C801C2064B4F84600401EA4F8E3
:103DC00046000DE0FEF78CFFA0EB0901414504D34E
:103DD000B8F1FF3F04D019E010E0B8F1000F15D0A2
:103DE000B4F846000028DDD14A464146204601F09D
:103DF00046F808B120202066206E00B10125012080
:103E000084F85D0084F85CA0284667E70325F6E7A0
:103E10002DE9F84F044690F85C0000271D46164631
:103E2000894601280DD04FF0010B84F85CB0FEF7F5
:103E300057FF804694F85D00BA46012804D0022757
:103E4000A4E00220BDE8F88FB9F1000F74D0002E75
:103E500072D0032084F85D00C4F860A0C4F83890E4
:103E6000A687E687C4F840A0A4F844A0A4F846A01A
:103E7000C4F850A0C4F84CA0A068B0F5004F09D118
:103E80002068016821F0400101602068016841F468
:103E90008041016020680168490603D4016841F04F
:103EA00040010160E068B0F5E06F606823D908B1B7
:103EB000012E1CD1A06B21680088C86006E0206834
:103EC0008168890709D5A16B0988C160A06B801C36
:103ED000A063E08F401EE08709E0FEF701FFA0EB42
:103EE0000800A84202D3681C01D046E0ADB3E08FC1
:103EF0000028E4D136E008B1012E30D1E08F01284E
:103F0000A06B03D921680088C8600FE021680078A1
:103F1000087314E0E08722E020688168890714D5DF
:103F2000E18F0129A16B08D90988C160A06B801CB1
:103F3000A063E08F801EEDE727E009780173A06B96
:103F4000401CA063E08F401EE4E7FEF7C9FEA0EB33
:103F50000800A84202D3681C01D00EE06DB1E08FCA
:103F60000028D9D142462946204600F0C2FF08B1B8
:103F700020202066A06810B105E0032706E0206835
:103F8000C16880680090206E00B1012784F85DB0A0
:103F900084F85CA0384655E72DE9F05F044690F8B8
:103FA0005C0000270A9E1D4692468B464FF0010991
:103FB00001280ED0012084F85C00FEF791FE8046B7
:103FC00094F85D00616801280CD0B1F5827F07D1BB
:103FD00002E00220BDE8F09FA16809B9042801D0E1
:103FE000022700E1BBF1000F24D0BAF1000F21D06D
:103FF00005B394F85D00042802D0052084F85D0024
:1040000000202066C4F840A0A4F84650A4F844500C
:10401000C4F838B0E587A587E0642065E0684FF410
:10402000E061884201D8012D06D92068426822F457
:10403000805205E00127D6E02068426842F48052B1
:10404000426020680268520603D4026842F04002CF
:104050000260E0688842606845D908B1012D3AD114
:10406000A06B21680088C860A06B801CA063E08FF3
:10407000401EE0872FE02068816889070FD5E18F17
:1040800069B1B9F1010F0AD1A16B0988C160A06BB8
:10409000801CA063E08F401EE0874FF0000920687D
:1040A0008168C9070FD0B4F8461061B1C068216CAF
:1040B0000880206C801C2064B4F84600401EA4F8E0
:1040C00046004FF00109FEF70BFEA0EB0800B042DE
:1040D00001D3701C75D1E08F0028CCD1B4F8460014
:1040E0000028C8D176E008B1012D6CD1E08F0128FD
:1040F000A06B08D921680088C860A06B801CA063F1
:10410000E08F801E07E0216800780873A06B401CD8
:10411000A063E08F401EE08755E020688168890732
:104120001AD5E18FC1B1B9F1010F15D1E18F012984
:10413000A16B07D90988C160A06B801CA063E08FC8
:10414000801E06E009780173A06B401CA063E08F1D
:10415000401EE0874FF0000920688168C90728D019
:10416000B4F8461029B3B4F84610012914D9C06830
:10417000216C0880206C801C2064B4F84600801EEE
:10418000A4F84600B4F84600012810D82068416819
:1041900041F4805141600AE0007B216C0870206C82
:1041A000401C2064B4F84600401EA4F846004FF0BE
:1041B0000109FEF795FDA0EB0800B04202D3701C88
:1041C00001D018E0BEB1E08F0028A6D1B4F84600B7
:1041D0000028A2D142463146204600F08AFE10B1A6
:1041E000012720202066012084F85D00002084F84B
:1041F0005C003846EEE60327F5E710B5401EB0F147
:10420000807F01D3012010BD4FF0E02460610F21B9
:10421000601701F082FF0020A061072020610020CC
:1042200010BD90F88010012918D0012180F880106D
:104230002421C0F8841050F8641B0A680B6823F02E
:1042400001030B6022F000510022026050F8643C30
:1042500019602021016202771046704702207047E2
:104260007047704770B5044690F8800001281DD053
:10427000012084F880002420C4F8840020680568A8
:10428000026822F0010202602068826822F0606207
:104290000A438260204601F0CBF9206805602020A7
:1042A000C4F88400002084F8800070BD022070BD36
:1042B00070B5044690F8800001281DD0012084F8D4
:1042C00080002420C4F8840020680568026822F079
:1042D000010202602068826822F060420A43826024
:1042E000204601F0A5F9206805602020C4F884006C
:1042F000002084F8800070BD022070BD70477047B8
:10430000704700002DE9F04103680446D869196838
:104310009A6840F60F0528424FF0000509D186063D
:104320007ED501F0200602F080573E4378D0216F01
:10433000FFE0924E924F16400F40374370D0C707B0
:1043400009D0CF0507D501271F62D4F88C3043F080
:104350000103C4F88C3083070AD5D30708D0276837
:1043600002233B62D4F88C3043F00403C4F88C3051
:1043700043070AD5D30708D0276804233B62D4F843
:104380008C3043F00203C4F88C3003070CD501F0E5
:104390002003334308D0266808233362D4F88C30D6
:1043A00043F00803C4F88C3003050BD54B0109D545
:1043B00026684FF400633362D4F88C3043F0200356
:1043C000C4F88C30D4F88C30002B34D0800609D55A
:1043D00001F0200002F08051084303D0216F09B1A1
:1043E00020468847D4F88C0021688968490602D4A1
:1043F00010F0280F21D0204601F0DAF920688168FA
:10440000490615D5816821F040018160E06F78B1DF
:104410005C498163E06FFEF72BFB00280BD000E0C6
:1044200011E0E06F816B00E02046BDE8F0410847F5
:104430002046FFF765FFBDE8F0812046FFF760FFEB
:10444000C4F88C50F7E7E76E2026012F5CD1C70631
:104450005AD5CF0658D510201862206881684906C1
:104460002FD5E26F116849680904090CE3D0B4F84C
:104470005C308B42DFD9A4F85E10116809688906A8
:1044800018D4016821F4807101602068816821F0EE
:10449000010181602068816821F040018160C4F8D9
:1044A0008860E5662068016821F010010160E06F16
:1044B000FEF7A9FAB4F85C00B4F85E10401A81B2B5
:1044C0001EE0B4F85C10B4F85E20891AB4F85E20DF
:1044D00089B2002AAFD00029ADD0026822F49072D0
:1044E000026020688268254BDB431A408260C4F872
:1044F0008860E56625672068026822F01002026085
:104500002046FFF7ADFE96E7C70209D5570207D54B
:104510004FF4801018622046BDE8F041FFF7EFBE6F
:1045200007060AD501F0800702F40002174304D001
:10453000616F00297FF478AF7DE742060CD54A060B
:104540000AD51968204621F040011960C4F884603A
:10455000656700F027F96EE7020206D54A0004D528
:104560002046BDE8F041FFF7C9BEC001CBD5002908
:10457000C9DA2046BDE8F041FFF773BE0100001024
:10458000200100049D57000810B5040003D0D4F8A2
:10459000840010B107E0012010BD002084F88000E5
:1045A000204600F027F82420C4F884002068016821
:1045B00021F001010160204601F0D2FA0128EBD080
:1045C000A06A10B1204601F055F82068416821F436
:1045D000904141602068816821F02A018160206853
:1045E000016841F0010101602046BDE8104001F082
:1045F000A5B8000010B586B0044614216846FBF744
:104600003BFF17492068884227D11648016E41F4C4
:1046100080410166016E01F480410591C16C41F059
:104620000101C164C06C694600F0010005904FF4BF
:10463000C0600090022001900020029003900720AB
:1046400004904FF09040FEF761FA002211462520B9
:10465000FEF732FD2520FEF721FD06B010BD00005B
:10466000003801400010024010B4D0F88830202BF0
:104670001BD1B9B1B2B190F88030012B15D0012314
:1046800080F880300023C366094C0368A34206D03B
:104690005C68240203D51C6844F080641C6010BC74
:1046A00001F098BB012010BC70470220FBE700001E
:1046B0000080004010B50068084988420CD10848C5
:1046C00000780A2801D1FEF729FDBDE8104001223B
:1046D00003490448FFF7C8BF10BD0000003801407F
:1046E000000000207C0100202DE9F8430446D0F8AA
:1046F00084001F4616460D46202851D1DDB1D6B1A3
:1047000094F8800001284BD0012084F880004FF0FD
:104710000008C4F88C802120C4F884001834FEF707
:10472000DFFAA6878146E68754F8100C183CB0F5EE
:10473000805F03D004E00120BDE8F883206920B148
:104740002E46002584F8808010E00026FAE78021BC
:10475000204601F0ABFBB8B9C6B116F8010B2168D1
:104760008862B4F85600401EA4F85600B4F856000B
:104770004B464FF0000200970028E8D14FF040016F
:10478000204601F093FB30B10320D5E735F8020B4A
:10479000C0F30800E3E72020C4F884000020CBE742
:1047A0000220C9E77047FEE701688A69D243920791
:1047B00001D400228A6200688169C943C90703D015
:1047C000816941F001018161704700002DE9F041EC
:1047D0000446006890460E468069C043C00633D444
:1047E0000025202720688069C043800615D5701CED
:1047F000F8D0FEF775FAA0EB0800B04201D8002E01
:10480000F0D154F8440F40F0200044F804096770D8
:10481000A57025700120BDE8F08121681020C861D5
:104820002068C7612046FFF7BFFF54F8440B41687A
:10483000064A11404160206840F0040044F8200915
:104840006777A5772577E5E70020E4E700E800FE35
:10485000F0B50568059C68684FF48066064FC1F3A3
:10486000090106EA545641EA02413E431943B04366
:10487000214308436860F0BDFF63FF032DE9F04169
:104880001D4617460E460446DDF8188008E0681CF1
:1048900006D0FEF725FAA0EB0800A8420BD855B1C8
:1048A0002068806936EA000012D00020B842EED0BD
:1048B0000020BDE8F08154F8440F40F0200044F897
:1048C0000409202060700020A07020700120F0E713
:1048D0000120EBE770B516460D4604460DE0324662
:1048E00029462046FFF772FF08B1012070BDFEF790
:1048F000F7F9801BA84207D835B120688069C0430A
:104900008006ECD4002070BD54F8440F40F0200025
:1049100044F80409202060700020A0702070E4E7B3
:1049200070B516460D4604460FE03246294620462D
:10493000FFF74CFF08B1012070BD681C05D0FEF7E1
:10494000CFF9801BA84207D835B120688069C043E1
:104950008007EAD4002070BD54F8440F40F02000D6
:1049600044F80409202060700020A0702070E2E765
:1049700000EB8100006E00F0F84070478068C0F3E3
:10498000C00070478068C0F3800070478068C0F343
:1049900080007047C06810F4406F01D0002070475D
:1049A00001207047042303EAD15310B5184443692A
:1049B000C1F3045107248C40A3438A40134343614D
:1049C00010BD00EB8100016E21F000411143016632
:1049D0007047000030B58BB0002408940994202162
:1049E00068460A94FBF748FD1C484FF0A041042597
:1049F00001604FF44031C0E90114C4600461C0E9B2
:104A00000545047744770121016280F82440C4629F
:104A1000046380F83840C46380F84040FDF774FCBC
:104A200008B1FDF7EDF908A90C480894FDF7EAF97B
:104A300008B1FDF7E5F90A4800900620CDE9010428
:104A40007F200594CDE9030569460448FDF746FA41
:104A5000002801D0FDF7D4F90BB030BD4C00002088
:104A60000200300400B58DB030216846FBF704FD2C
:104A70001149104808600846FDF742FF08B1FDF7EC
:104A8000BFF90220009000208DF804008DF8050089
:104A90000290039001210490CDE9050102460790A0
:104AA00069460548FDF752FE002801D0FDF7A8F938
:104AB0000DB000BD00080050B800002030B587B030
:104AC00014216846FBF7D8FC1A48C16C41F0040178
:104AD000C164C16C01F004010591C16C41F0200179
:104AE000C164C16C01F020010591C16C41F001016C
:104AF000C164C16C01F001010591C16C41F002017A
:104B0000C164C06C0C4D00F002004FF4F0440590FD
:104B1000002221462846FEF7DDF80120CDE90040BD
:104B2000022002900020039069462846FDF7EEFF20
:104B300007B030BD0010024000040048144810B512
:104B4000124901601349416000210122C0E90212AB
:104B5000016141618161C1610162FEF71BF908B128
:104B6000FDF74EF900210A48FEF7C0F808B1FDF73D
:104B700047F900210648FEF7E4F808B1FDF740F9CF
:104B80000548416841F48011416010BD0054004067
:104B9000CC0000207221800000000140124810B5B6
:104BA000104901604FF48271416000214FF4E062CE
:104BB000C0E90212022202610122426152028261B4
:104BC0003822C0E9072107224162C0E90A120163C5
:104BD0004163FEF7B3FF002803D0BDE81040FDF7A6
:104BE0000FB910BD0030014018010020184810B561
:104BF000164901604FF4E1314160002181600C22CF
:104C0000C160C0E904128161C161016241628162D7
:104C1000FFF7BAFC08B1FDF7F3F800210C48FFF7E5
:104C200047FB08B1FDF7ECF800210948FFF71AFB34
:104C300008B1FDF7E5F80648FFF7F3FA002803D0BE
:104C4000BDE81040FDF7DCB810BD000000380140A1
:104C50007C010020FEE7FEE770B5002404F1B000FF
:104C6000C0B200F0E7F8002000F0E4F8102000F0F7
:104C7000E1F80025002000F0EFF86D1CEDB2802D6A
:104C8000F8D3641CE4B2082CE8D370BD10B54FF41F
:104C9000FA70FDF729FFAE2000F0CCF8002000F0FC
:104CA000C9F8102000F0C6F8402000F0C3F88120B9
:104CB00000F0C0F8FF2000F0BDF8A12000F0BAF825
:104CC000C82000F0B7F8A62000F0B4F8A82000F043
:104CD000B1F83F2000F0AEF8D32000F0ABF8002090
:104CE00000F0A8F8D52000F0A5F8802000F0A2F888
:104CF000D92000F09FF8F12000F09CF8DA2000F0B5
:104D000099F8122000F096F8DB2000F093F840208C
:104D100000F090F8202000F08DF8022000F08AF8D2
:104D20008D2000F087F8142000F084F8A42000F013
:104D300081F8A62000F07EF8AF2000F07BF8FFF7A6
:104D40008BFF0021BDE810400846AFF3008010B58E
:104D50000446B031C8B200F06DF8102040EA1410DB
:104D600000F068F804F00F00BDE8104040F00100CA
:104D700000F060B82DE9F041203A00240D4680464D
:104D8000D6B27F2803D900204D1C8046EDB2102BEF
:104D900029460FD0FFF7DBFF164906EB460001EB73
:104DA0004005285D00F058F8641CE4B2062CF8D3E6
:104DB000BDE8F081FFF7CBFF0F4F00BF04EB0610FB
:104DC000385C00F049F8641CE4B2082CF6D36D1C82
:104DD000E9B24046FFF7BBFF5FF0000404EB0610AA
:104DE0003844007A00F038F8641CE4B2082CF5D39B
:104DF000DEE70000508A0008788C00082DE9F041B9
:104E0000984617460E46044600250DE043463146B7
:104E10002046FFF7AFFF0834E4B2782C02D9002413
:104E2000B61CF6B26D1CEDB27A5D002AEED1BDE87B
:104E3000F08100001CB500218DF804108DF80500EC
:104E40004FF6FF700090022301AA78210148FDF778
:104E5000FDFF1CBDCC0000201CB540218DF80410C6
:104E60008DF805004FF6FF700090022301AA78210B
:104E70000148FDF7EBFF1CBDCC00002070472DE979
:104E8000F843044640684FF48276154689464FF44D
:104E900000474FF48068B04209D1A068B84201D001
:104EA000404504D12068016821F0400101604B4673
:104EB000002280212046009500F0A6F880B96068A5
:104EC000B04214D1A068B84201D040450FD14B4642
:104ED00000224FF4C0612046009500F02FF830B159
:104EE000206E40F0200020660320BDE8F8830020FB
:104EF000FBE7F8B515460E460B4600920446002225
:104F00004FF4C05100F01AF888B9334600228021CE
:104F10002046009500F078F848B9334600224FF457
:104F2000C0612046009500F009F8002804D0206EEA
:104F300040F0200020660320F8BD00002DE9FC476A
:104F4000994617460E4604460A9DFDF7C9FE411BC9
:104F5000A9EB0105FDF7C4FE80462A484FF4C06A5C
:104F60000068C0EBC00000EB8000000D68430090BB
:104F700040E0564502D10FB9007B0190B9F1FF3FE7
:104F800038D0FDF7ADFEA0EB0800A84203D215B162
:104F9000009860B32CE02068416821F0E001416096
:104FA0006068B0F5827F0BD1A068B0F5004F02D0E9
:104FB000B0F5806F04D12068016821F040010160E4
:104FC000A06AB0F5005F09D12068016821F40051A2
:104FD00001602068016841F400510160012084F8FB
:104FE0005D00002084F85C000320BDE8FC870025FC
:104FF000401E0090206881683140B942B9D100203C
:10500000F3E70000100000202DE9F8431E4691460A
:1050100088460446089DFDF763FE401B351AFDF7E0
:105020005FFE074625480068C0F3CB30684338E090
:10503000701C37D0FDF754FEC01BA84203D215B137
:10504000009860B32CE02068416821F0E0014160E5
:105050006068B0F5827F0BD1A068B0F5004F02D038
:10506000B0F5806F04D12068016821F04001016033
:10507000A06AB0F5005F09D12068016821F40051F1
:1050800001602068016841F400510160012084F84A
:105090005D00002084F85C000320BDE8F883002553
:1050A000401E00902068816838EA010004D0002189
:1050B0004945BDD10020F0E70121F9E710000020AB
:1050C0007047FDF799BF10B5A4B038216846FBF7CB
:1050D000D3F914211FA8FBF7CFF944210EA8FBF741
:1050E000CBF90020FEF72CF801200090000401907D
:1050F00002200324CDE907045521CDE909010B90D5
:105100000C900D906846FEF713FB08B172B6FEE7EF
:105110000F20CDE91F0400242194229404211FA80C
:105120002394FEF7B7F908B172B6FEE748F24100E2
:10513000CDE90E0440071D9014940EA8FEF766F802
:10514000002801D072B6FEE724B010BD0248016805
:1051500041F470010160704788ED00E010B54B7AB2
:10516000ADF5337D002203B14A72C96A9FED3C1A46
:10517000F7EE000A0B68012B1DD00A7101230B60AA
:1051800081ED021A5FF0000201EB8204521C84EDF3
:10519000031AB32AF8DBC1EDB60A0B7181ED021ACE
:1051A0005FF0000201EB8203521C83ED031AB32A65
:1051B000F8DBC1EDB60AD1EDB61A91ED022A002254
:1051C0004FEA0D0301EB8204D4ED032A03EB8204C2
:1051D000521CC4ED002AB32AF4DBFDEEE12A32EEC4
:1051E000002A204C12EE902A03EB820212ED013AC3
:1051F00012EE902A33EE023A03EB820202ED010A2C
:1052000011EE902AA24202D071EEA00A0EE0B0EE9A
:10521000412AB12203EB8204521E94ED000A94ED60
:10522000011A30EE010A84ED000AF3D581ED022A5D
:105230005FF0000203EB820494ED000A01EB8204AC
:10524000521C84ED030AB32AF4DBC1EDB60A9FEDCC
:10525000060AC3EE000AC0ED000A0DF5337D10BD4D
:10526000000000000000334300003443012100220D
:10527000027080F8101300F13403C3624160C0E98A
:105280000C120172427270472DE9F0433E489FEDC7
:105290003D0A3E4980ED120A01250D7500244FF0AC
:1052A000FF39C1F80C900C700C724D6001F11400C4
:1052B0004C729FED370A00F500624460354E82ED76
:1052C0003D0A234640F23A27A1F5FA7106EB830C1A
:1052D000DCED000A00EB830C0CF5006C5B1CCCEDE4
:1052E0003E0ABB42F2DB0470C1E9805081F8FC51F8
:1052F00041684FF40E7801290BD100214FEA0803D1
:1053000000EB810CD2ED3D0A491CCCED040A994218
:10531000F6DD1D485430FFF7A9FF1F49002208465B
:105320000D75C1F80C900C700C724D604C7200F64B
:105330001403846183ED3D0A10F1140006EB820C26
:105340009CED000A00EB820C0CF5006C521C8CEDFD
:105350003E0ABA42F2DB0470C1E903500D724168A3
:1053600001290AD10021424600EB810493ED3D0A58
:10537000491C84ED040A9142F6DDBDE8F04307487C
:10538000FFF774BFDB0FC93F0C3200200014002070
:1053900000000000688100080C0200207435002025
:1053A0002DE9F047984C40F217362DED028BE06C5A
:1053B000411E00F21632B24200DB0A46934DDFF87E
:1053C000508205EB820202F50052D8ED020A92EDFE
:1053D000FA0A30EE200A9FED8F1A0127DFF8389283
:1053E00020EE010A00224FF4C57A88ED010A8318E5
:1053F000B34201DBA3F2173305EB830C0CF5005C21
:10540000A3EB42039CEDFA1A03F21533B34201DB1E
:10541000A3F2173305EB830303F50053521CD3EDBE
:10542000FA1A09EB87037F1C31EE811AD3ED001ABB
:10543000524501EE210ADADD012888ED010A01D585
:1054400040F2163105EB810000F50050C0EDFA0A7C
:10545000E16494ED110A01F09BFCD4ED110ADFED3B
:105460006F8ADFF8BCA170EEA80A10EE900AC4EDB6
:10547000110A9FED6C8A504502DB70EEC80A06E007
:10548000F5EEC00AF1EE10FA03D270EE880AC4ED10
:10549000110A6548D8ED010AC146D0F8040260EE51
:1054A000800A4FF0010841684FF40E77012910D0AF
:1054B000C0F8048080F80880002100F5006200BF79
:1054C00000EB810392ED3D0A491C83ED040AB942C9
:1054D000F6DD00F5006100F10C0291ED3E0A0021BD
:1054E00020EE200A02EB810303F50066D3ED011ADA
:1054F00096ED3C1A491CB94221EE211A30EE010A00
:10550000F0DD40F23726314602EB8103491E93ED70
:10551000011A83ED021AF7D5C0ED040A3A493C4856
:1055200054310C30FFF71AFE94ED120A01F030FCF2
:10553000D4ED120A70EEA80A10EE900AC4ED120A19
:10554000504502DB70EEC80A06E0F5EEC00AF1EE47
:1055500010FA03D270EE880AC4ED120AD9ED010ADE
:1055600028694C4660EE800A416801290FD0C0F8D6
:10557000048080F80880002100F5006200EB8103C0
:1055800092ED3D0A491C83ED040AB942F6DD00F5AF
:10559000006200F10C0192ED3E0A002220EE200A8A
:1055A00001EB820303F50065D3ED011A95ED3C1A7A
:1055B000521CBA4221EE211A30EE010AF0DD00BF82
:1055C00001EB8602761E92ED011A82ED021AF7D5E2
:1055D0000F4DC0ED040A0C351449281DFFF7BEFD20
:1055E00095ED000AD5ED010A20EE000A00EEA00AB2
:1055F00001F096FCF0EE000A20EE200A84ED000A8D
:10560000BDEC028BBDE8F0870C3200200C020020BC
:105610002000002095EC253768920008920A063F8A
:10562000DB0FC940DB0FC9400C120020743500208D
:1056300030B5416EB9B1026891689268C1F34261B8
:105640000B4B520F9C5CE50003F10804A25CB5FB18
:10565000F2F2A0F86A205A5C615CD200B2FBF1F170
:10566000A0F8681030BD0121A0F86A10F8E700002A
:105670003E81000890F82810C90706D001684A68E2
:10568000C36A22F400321A434A6090F8281089074E
:1056900006D501684A68036B22F480321A434A60D7
:1056A00090F82810490706D501684A68436B22F430
:1056B00080221A434A6090F82810090706D501682D
:1056C0004A68836B22F400421A434A6090F828101B
:1056D000C90606D501688A68C36B22F480521A4352
:1056E0008A6090F82810890606D501688A68036CDC
:1056F00022F400521A438A6090F82810490611D506
:1057000001684A68436C22F480121A434A60416C73
:10571000B1F5801F06D101684A68836C22F4C0028B
:105720001A434A6090F82810090606D501684A68AD
:10573000C06C22F4002202434A607047F8B500268C
:105740000446C0F88C60FDF7CBFA05462068006877
:105750006FF07E47000708D52B4600224FF400115A
:105760002046009700F0A2FB60B92068006840075F
:105770000AD52B4600224FF480012046009700F006
:1057800095FB08B10320F8BD2020C4F88400C4F8BC
:10579000880044F86C6F00202675F8BD10B5806A4B
:1057A0000021A0F85E10A0F85610FEF7A9FD10BD6C
:1057B00001680A6822F490720A6001688A68094BDD
:1057C0001A408A60C16E012904D101680A6822F07A
:1057D00010020A602021C0F888100021C16601670C
:1057E00070470000FEFFFFEF70B5B0F86010D0F812
:1057F000882004460068222A04D0816941F008010B
:10580000816170BD406AA26D08401080A06D801C4F
:10581000A065B4F85E00401EA4F85E00B4F85E0017
:105820000028EED12068016821F4907101602068A1
:10583000816821F0010181602020C4F888000025E2
:105840002567E06E012804D02046FEF733FFE566A9
:1058500070BD2068016821F010010160B4F85C108F
:105860002046FEF7FDFCF2E72DE9F0470446B0F8CC
:1058700060600068C569D0F800A0D0F80880D4F84E
:105880008810222905D0816941F008018161BDE8B5
:10589000F087B4F868704FF000095BE02068406A58
:1058A000A16D30400880A06D801CA065B4F85E003A
:1058B000401EA4F85E002068C569690730D0E9077A
:1058C0000AD05FEACA5107D501210162D4F88C00E1
:1058D00040F00100C4F88C00A8070BD55FEAC8703F
:1058E00008D0216802200862D4F88C0040F004003F
:1058F000C4F88C0068070BD55FEAC87008D021682F
:1059000004200862D4F88C0040F00200C4F88C0037
:10591000D4F88C0020B12046FEF7F2FCC4F88C903D
:10592000B4F85E00B0B92068016821F480710160AC
:1059300020688168194A114081602020C4F88800DD
:10594000C4F87090E06E01281CD02046FEF7B2FE2D
:10595000C4F86C900FB1A806A0D4B4F85E0000287B
:1059600095D0B4F86810814291D92068816821F0FF
:10597000805181600A4820672068016841F0200159
:10598000016084E72068016821F010010160B4F82B
:105990005C102046FEF764FCDAE70000FEFFFFEF34
:1059A000E957000870B5B0F86010D0F888200446B8
:1059B0000068222A04D0816941F00801816170BD2C
:1059C000406A0840A16D0870A06D401CA065B4F845
:1059D0005E00401EA4F85E00B4F85E000028EED120
:1059E0002068016821F4907101602068816821F0CD
:1059F000010181602020C4F8880000252567E06E41
:105A0000012804D02046FEF755FEE56670BD2068EB
:105A1000016821F010010160B4F85C102046FEF727
:105A20001FFCF2E72DE9F0470446B0F8606000681B
:105A3000C569D0F800A0D0F80880D4F888102229D1
:105A400005D0816941F008018161BDE8F087B4F8B3
:105A500068704FF000095BE02068406AA16D30403B
:105A60000870A06D401CA065B4F85E00401EA4F84C
:105A70005E002068C569690730D0E9070AD05FEA8F
:105A8000CA5107D501210162D4F88C0040F0010011
:105A9000C4F88C00A8070BD55FEAC87008D021684D
:105AA00002200862D4F88C0040F00400C4F88C0096
:105AB00068070BD55FEAC87008D021680420086227
:105AC000D4F88C0040F00200C4F88C00D4F88C00AC
:105AD00020B12046FEF714FCC4F88C90B4F85E00A8
