:020000040800F2
:10000000E0750020F1010008732A0008BF280008ED
:10001000712A0008410B0008113E00080000000092
:10002000000000000000000000000000B92C0008E3
:10003000430B000800000000752A0008BB2C0008D4
:100040000B0200080B0200080B0200080B0200085C
:100050000B0200080B0200080B0200080B0200084C
:100060000B0200080B0200080B0200080B0200083C
:100070000B0200080B0200080B0200080B0200082C
:100080000B020008000000000B0200080B02000831
:100090000B0200080B0200080B0200080B0200080C
:1000A0000B0200080B0200080B0200080B020008FC
:1000B0000B0200080B0200080B0200080B020008EC
:1000C0000B0200080B0200080B0200080B020008DC
:1000D0000B020008053E00080B0200080B02000896
:1000E0000B0200080B0200080B0200080B020008BC
:1000F0000B0200080B0200080B02000800000000C1
:10010000000000000B020008000000000B020008C5
:100110000B020008000000000B0200080B020008A0
:100120000B0200080B0200080B0200080B0200087B
:100130000B02000800000000000000000B02000895
:100140000B0200080B020008000000000000000085
:10015000000000000000000000000000000000009F
:100160000000000000000000000000000B0200087A
:100170000B0200080000000000000000000000006A
:10018000000000000B02000800000000000000005A
:10019000000000000000000000000000000000005F
:1001A00000000000000000000B0200080B02000825
:1001B0000B0200080B0200080B0200080000000000
:1001C000000000000B02000800000000000000001A
:1001D0000B0200080B020008DFF810D000F06EFBE5
:1001E00000480047955B0008AFF30080E0750020F1
:1001F0000648804706480047FEE7FEE7FEE7FEE7C1
:10020000FEE7FEE7FEE7FEE7FEE7FEE7412D00081A
:10021000D90100082DE9F05F0546002092469B4673
:1002200088460646814640241BE02846414647460C
:10023000224600F034FA53465A46C01A914110D370
:1002400011461846224600F01BFA2D1A67EB0108EA
:100250004F4622460120002100F012FA17EB000958
:100260004E41201EA4F10104DFDC484631462A46F7
:100270004346BDE8F09FD2B201E000F8012B491ED1
:10028000FBD270470022F6E710B513460A46044633
:100290001946FFF7F0FF204610BD2DE9FE4F8046BE
:1002A00081EA0300C00F0C46009021F0004123F0CA
:1002B0000045B8EB0200A94105D2404621469046D0
:1002C0001C460B46024623F00040104347D0270D42
:1002D000C7F30A00C3F30A510290401A0190402864
:1002E0006BDAC3F3130040F4801B0098924620B1F0
:1002F0000023D2EB030A63EB0B0B01985946C0F1C4
:100300004002504600F0BCF906460D46504659469C
:10031000019A00F0D4F910EB08006141002487EA4B
:10032000115284EAE7731A4340D0009A62B3019AEB
:10033000012A4FEA075215DC001B61EB02014FF066
:10034000004202EA0752CDE90042001C41F580114B
:1003500032462B4600F00BFA03B0BDE8F08F404662
:100360002146F9E7001B61EB0201001C41F58013F7
:1003700000185B412018A2F5001747EB030140EA83
:10038000D570B6196D4111E06D084FEA360645EAA1
:10039000C0754FEA0752001B61EB0201001C41F5DA
:1003A000801149084FEA30000019514132462B466E
:1003B00003B0BDE8F04F00F0CBB900980122400037
:1003C0000023D0EB020263EBE073009821464FEA72
:1003D000E074B8EB000061EB0401E9E783F000434F
:1003E0005BE781F0004158E72DE9FE4F81EA030405
:1003F00004F0004421F0004100944FF0000B23F082
:10040000004350EA01045ED052EA03045BD0C3F318
:100410000A54C1F30A552C44A4F2F3340194A0FB0E
:100420000254C1F3130141F48011C3F3130343F4E5
:10043000801301FB024400FB034E840A970A44EA3E
:10044000815447EA8357A4FB076802958D0A05FB90
:1004500007854FEA932C04FB0C542705029D4FEAB5
:10046000065847EA1637B5EB08056EEB070C870E02
:10047000920E47EA811742EA8312A7FB0201B6EB0C
:100480000B0164EB00042B0D43EA0C335E1844EBC4
:100490001C50DA465146E7FB0201C5F313044FEA4C
:1004A0000B3343EA14534FEA0432019C43EA060338
:1004B000A4F10C040294009CCDE900B400F057F9BB
:1004C00003B0BDE8F08F00200146F9E72DE9F04DBB
:1004D00081EA030404F0004B21F0004514464FF07C
:1004E000000A23F0004150EA050220D054EA01023C
:1004F0001DD0C5F30A570246C5F31303C1F3130019
:10050000C1F30A5640F4801543F48013A7EB0608A4
:10051000101BD64608F2FD3873EB050002D308F134
:10052000010801E092185B41B8F1000F03DA0020E6
:100530000146BDE8F08D00204FF480110646844648
:100540000EE0171B73EB050705D3121B63EB0503C6
:1005500006434CEA010C49084FEA300092185B410F
:1005600050EA0107EDD152EA030012D082EA0400FA
:1005700083EA0501084305D0101BAB4106D20122D6
:10058000002306E000224FF0004302E06FF001027A
:1005900053101AEB06004CEB085110EB0A0041EB2C
:1005A0000B01BDE8F04D00F0D3B80EB540F2334179
:1005B00002910021CDE900110A460B4600F0D7F860
:1005C00003B000BDC1F30A5210B5C1F3130140F2EC
:1005D000FF3341F480119A4201DA002010BD40F24D
:1005E00033439A42A2F2334203DC524200F057F8FE
:1005F00010BD904010BD00F0004230F000400AD025
:10060000C10D01F56071C0F3160042EA0151C20844
:1006100040071143704700200146704701F0004336
:1006200030B421F0004150EA010206D00A0DA2F5D3
:100630006072C1F31301002A02DC30BC0020704755
:10064000440F44EAC104C100E01830BC00EBC250C2
:1006500000F047B830B50B460146002020220124A7
:1006600009E021FA02F59D4205D303FA02F5491B80
:1006700004FA02F52844151EA2F10102F1DC30BD96
:10068000202A04DB203A00FA02F100207047914052
:10069000C2F1200320FA03F3194390407047202A47
:1006A00004DB203A21FA02F00021704721FA02F31C
:1006B000D040C2F120029140084319467047202AD9
:1006C00006DBCB17203A41FA02F043EAE07306E07A
:1006D00041FA02F3D040C2F120029140084319468A
:1006E00070470029A8BF7047401C490008BF20F090
:1006F0000100704710B4B0FA80FC00FA0CF050EA28
:10070000010404BF10BC704749B1CCF1200421FAA8
:1007100004F411FA0CF118BF012121430843A3EBA3
:100720000C01CB1D4FEA00614FEA102042BF0020B0
:1007300010BC704700EBC35010440029A4BF10BC8C
:100740007047401C490008BF20F0010010BC7047F2
:1007500010B5141E73F1000408DA401C41F10001C9
:1007600092185B411A4301D120F0010010BD2DE920
:10077000F04D92469B4611B1B1FA81F202E0B0FA17
:1007800080F220329046FFF77BFF04460F4640EA96
:100790000A0041EA0B0153465A46084313D011465A
:1007A00053EA010019D0C8F140025046FFF777FF25
:1007B00005460E46504659464246FFF761FF08433C
:1007C00005D0012004E020463946BDE8F08D002028
:1007D000054346EAE0762C4337430A986305E40A6A
:1007E000A0EB08000022FD0A44EA47540A3002D573
:1007F00000200146E9E7010510196941DDE90845D6
:1008000000196941BDE8F04DA2E770B521F0004341
:1008100003430CD0C1F30A550024D5EB040564EB67
:100820000403D617AD1AB34102DB0020014670BDA8
:10083000201841EB025170BD0EB5C10F80EAE07087
:100840000844CA07002140F233438DE80E000A46EF
:100850000B46FFF78CFF03B000BDC1F30A52C1F392
:10086000130140F2FF3341F480119A4202DA002072
:100870000146704740F233439A42A2F2334202DC0F
:100880005242FFF70CBFFFF7FBBE000030B5041E5D
:1008900071F1000404DB4FF00044404264EB0101BD
:1008A000141E73F1000405DB1C464FF00043524256
:1008B00063EB0403994208BF904230BD064C074DDC
:1008C00006E0E06840F0010394E807009847103420
:1008D000AC42F6D3FFF784FC1069000830690008C9
:1008E0002DE9F04D00231A461B1A8A4103DB002034
:1008F0000146BDE8F08DC1F30A52C1F3130141F482
:1009000080154FF0000BD10702D100186D41521E27
:100910000027044640F2FF11384601EB620A3E46CA
:100920008046024600204FF48011FFF7B8FEC2193E
:100930007141BB1846EB0100B4EB030C75EB000CE6
:1009400004D3E41A65EB000517460E46241908F196
:1009500001006D4180463428E3DDF91946EB0600BD
:10096000091BA84103D24FF0FF32134601E00022D9
:1009700013461BEB070046EB0A51BDE8F04DFFF7AD
:10098000E7BE00001CB506A14FF47A73D1E900015F
:10099000CDE9000107226946034801F0C5FA1CBDF4
:1009A000FFFFFFFFFFFFFF004C0000202DE9F0419B
:1009B000074686B000204FF6FF760190039004466C
:1009C0004FF040084FF47A75009036E08DF80480BF
:1009D0002B46012201A91B4801F0A6FA2B46012251
:1009E00003A9184801F0DCF99DF80C00000602D5B7
:1009F000761EB6B2EAD258208DF804002B460122AA
:100A000001A9104801F090FA2B46032269460D48CF
:100A100001F0C6F90C499DF8002011F8240010439C
:100A20009DF8012042EA00209DF8022042EA0020C1
:100A300020F07F4041F82400641CBC42C6DB06B0B5
:100A4000BDE8F0814C0000204021002070B50D462B
:100A50002DED028B064600241FE09FED121B9FED3B
:100A6000130B03F085FB1348B0EE408AF0EE608A6A
:100A700050F8240000EB8000FFF797FD53EC182B93
:100A8000FFF724FD9FED0C1B53EC112BFFF7A6FC89
:100A9000FFF7C4FD46F82400641CAC42DDDBBDEC6E
:100AA000028B70BD00000000000038400000000014
:100AB0000000004040210020000000000000044031
:100AC000F8B5064600200090102014460D468DF81B
:100AD00000004FF47A773B4601226946074801F04F
:100AE00023FA8DF800608DF801508DF802403B46E6
:100AF00003226946014801F017FAF8BD4C000020B6
:100B0000F8B5064600200090082014460D468DF8E2
:100B100000004FF47A773B4601226946074801F00E
:100B200003FA8DF800608DF801508DF802403B46C5
:100B300003226946014801F0F7F9F8BD4C00002096
:100B4000FEE7704772B6FEE72DE9F04704464079AC
:100B500090460D4601280BD04FF0010984F805900E
:100B600002202071A96808F01006042903D045E08E
:100B70000220BDE8F08700F0B1FA07465FEA0800FE
:100B80004FF0030805D01CE000F0A8FAC01B0128B4
:100B90000FD82068406B0004F6D4012000F0A2F9C1
:100BA0002168686A086416E000F098FAC01B012802
:100BB00007D9206940F00800206184F804800320F0
:100BC000D7E72068406B0028EEDB012000F08AF9AF
:100BD0002168686A48642068816C40F2FF32B24044
:100BE0009143AA6AB240114381642068C16CFF221C
:100BF000B2409143EA6AB2401143C164E8690128F6
:100C000008D12268916B1F20B0408143286AB04010
:100C1000084390632068C06B0721B1408843A969ED
:100C2000012903D0022955D06969E9B300216B6914
:100C3000AA681A430A434FF4807101FA06F39843F5
:100C40002B79012B00D0002111434FF4007202FADE
:100C500006F398436B79012B00D0002220F4404723
:100C6000286842EA0108022836D00743216808FABA
:100C700006F03843C863206801684FF48042B240F0
:100C8000914301602268116840F6FE70B0408143D4
:100C9000E868B0400843106020680168C022B24094
:100CA00091430160287B00E014E0297C2268C0F3B6
:100CB000830001F03C0140EA8110116E40F60F7391
:100CC000B3409943B0400143116684F8049000207A
:100CD00060714EE70121AAE700F042FD0549884214
:100CE00002D947F40047C1E703498842BED947F417
:100CF0008047BBE70068890900B4C40470B50400EC
:100D000003D02079002510B105E0012070BD657188
:100D1000204600F007F80220207125610120207193
:100D2000002070BD10B586B0044614216846FFF758
:100D3000A9FA1149206888421BD11048C16C41F4BE
:100D40008031C164C16C01F480310591C16C41F006
:100D50000101C164C06C694600F0010005901020DB
:100D6000009003200190002002904FF0904000F08E
:100D7000CBF806B010BD0000000800500010024083
:100D800018B50068C46B0090104421B11430009075
:100D90000360002018BD0830F9E72DE9F041044652
:100DA00040790D46012822D04FF0010884F80580D3
:100DB0000226267121680A6805F0100708FA07F074
:100DC00002430A60404600F08DF82068016885B152
:100DD00001F47811BE40B14203D1416841F00201F3
:100DE000416084F8048000206071BDE8F081022039
:100DF000FBE7C1F344010129F3D1416841F001014E
:100E0000EEE710B590F8253000210122022B03D027
:100E10000421C163012122E003681C6824F00E0450
:100E20001C60836C1C6824F480741C6003681C685C
:100E300024F001041C6090F84430046C03F01F039C
:100E400002FA03F36360D0E913345C60436D33B19D
:100E50001C6824F480741C60D0E916345C6080F84F
:100E60002520002280F82420084610BD70B590F897
:100E70002520002401212346022A07D00422C26330
:100E800080F8251080F82430012429E002681568D4
:100E900025F00E0515600268156825F0010515603E
:100EA000826C156825F48075156090F84420056CF7
:100EB00002F01F0201FA02F26A60D0E913255560C0
:100EC000426D32B1156825F480751560D0E916259C
:100ED000556080F8251080F82430816B01B1884777
:100EE000204670BD70B5044600F0F8F80546601C59
:100EF00002D004484068044400F0F0F8401BA042CF
:100F0000FAD370BD040000202DE9FC4FDFF8A0A14A
:100F1000002301250AF1040B03244FF00F0C0BF101
:100F2000040EBDE005FA03F632406FD04F68012F82
:100F300005D0022F03D0112F01D0122F17D1D0F8D6
:100F400008905F0004FA07F829EA08090097D1F829
:100F50000C8008FA07F848EA0908C0F808804768D2
:100F6000B7430E79C6F300169E403E434660C668FE
:100F70004FEA430804FA08F7BE4301978F6807FA5F
:100F800008F73743C7604E68022E01D0122E13D1E6
:100F9000DE0800EB86060096366A5F07FF0E0CFA45
:100FA00007F926EA0906D1F8109009FA07F949EA83
:100FB0000609009EC6F820900668019FBE430F797F
:100FC00007F0030707FA08F7374307604E68F60093
:100FD00065D5384E376E47F001073766366E23F019
:100FE000030706F001060096334E3E44B146B6684C
:100FF0009F074FEA17780CFA08F7BE43B0F1904FFD
:1010000005D02E4FB84204D1012717E047E0002752
:1010100014E02B4FB84201D102270FE0294FB8420C
:1010200001D103270AE0284FB84201D1042705E087
:10103000264FB84201D1052700E0062707FA08F736
:101040003743C9F80870DAF800605746D1F80480D1
:1010500096435FEAC83800D516433E60DBF800606F
:101060005F46D1F8048096435FEA883800D516437E
:101070003E60DEF800607746D1F8048096435FEA70
:10108000C82800D516433E60094F0C373E68D1F89A
:10109000048096435FEA882800D516433E605B1CB7
:1010A0000A6832FA03F67FF43DAFBDE8FC8F00001A
:1010B000000401400010024000000140000400480C
:1010C00000080048000C00480010004800140048C8
:1010D0000AB18161704781627047000001488068F1
:1010E00070470000040000200248816842681144F3
:1010F000816070470400002010B50024032000F038
:1011000073F80F2000F008F808B1012401E000F0A6
:1011100025F8204610BD000070B50E4E054600248F
:10112000706898B14FF47A71B1FBF0F00A49096820
:10113000B1FBF0F001F0EDF840B9102D06D200221D
:101140002946501E00F030F8356000E001242046AA
:1011500070BD000004000020100000200A4882B08A
:10116000016E41F001010166016E01F00101009183
:10117000816D41F080518165806D00F0805000905C
:1011800002B000F0B3B8000000100240002809DBF4
:1011900000F01F02012191404009800000F1E02091
:1011A000C0F8001170470000F0B40E4B1B680C46ED
:1011B000C3F30223C3F10705042D00D90425191D2B
:1011C000072901D2002300E0DB1E012606FA05F103
:1011D000491E214099409E40761E16403143F0BC86
:1011E00002F003BF0CED00E0064900F007020868BA
:1011F0004FF6FF03184040EA0220034A10430860FC
:10120000704700000CED00E00000FA05BFF34F8FBF
:1012100005480168054A01F4E06111430160BFF32C
:101220004F8F00BFFDE700000CED00E00400FA0561
:101230002B492C4B0A6832214A432B4940B1B0F567
:10124000007F086829D020F4C06040F480602CE062
:101250000868C0F34120022804D051F8800F20F420
:10126000807022E0D1F8800020F48070C1F8800006
:10127000086820F4C06040F400700860B2FBF3F02E
:10128000401C00E0401E4A69520501D50028F9D1F2
:10129000486940050AD503207047C0F34120022861
:1012A00006D051F8800F40F480700860002070472D
:1012B000D1F8800040F48070C1F88000086820F404
:1012C000C06040F400700860B2FBF3F0401C00E026
:1012D000401E4A695205DBD50028F9D1D8E7000045
:1012E0001000002040420F0000700040024881685A
:1012F00041F4804181607047007000402DE9F8435F
:101300000446006800269D4D00035ED5A86D0027A9
:10131000C00008D4A86D40F08050A865A86D0127D2
:1013200000F080500090DFF85892D9F8001041F496
:101330008071C9F80010FFF7D1FE804606E000BFBB
:10134000FFF7CCFEA0EB080002282BD8D9F800004C
:10135000C005F5D5D5F8900010F4407014D0216C7C
:10136000814211D0D5F89000D5F8901020F440704B
:1013700041F48031C5F89010D5F8901021F48031F7
:10138000C5F89010C5F89000C00711D0FFF7A6FE71
:10139000804641F2883907E0FFF7A0FEA0EB080184
:1013A000494501D903260BE0D5F890008007F3D515
:1013B000D5F89000216C20F440700843C5F89000E7
:1013C0001FB1A86D20F08050A8652078C00707D015
:1013D000D5F88800616820F003000843C5F888004C
:1013E0002078800707D5D5F88800A16820F00C0088
:1013F0000843C5F888002078400707D5D5F888004D
:10140000E16820F030000843C5F888002078000724
:1014100007D5D5F88800216920F0C0000843C5F839
:1014200088002078800607D5D5F88800616920F407
:1014300040600843C5F888002078400607D5D5F8F5
:101440008800A16920F440500843C5F8880020783E
:10145000000607D5D5F88800E16920F4404008432C
:10146000C5F888002088C00507D5D5F88800216A0E
:1014700020F440300843C5F888002088800507D54F
:10148000D5F88800616A20F440200843C5F8880038
:10149000208840050FD5D5F88800A16A20F44010B7
:1014A0000843C5F88800A06AB0F5801F03D1E8683A
:1014B00040F48010E860208800050FD5D5F888003A
:1014C000E16A20F440000843C5F88800E06AB0F5FE
:1014D000800F03D1E86840F48010E8602088C004E1
:1014E0000FD5D5F88800216B20F040700843C5F86F
:1014F0008800206BB0F1807F03D1E86840F4801051
:10150000E86020884FF0006180040ED5D5F888008F
:10151000626B20F040601043C5F88800606B884221
:1015200003D1E86840F48010E860208840040ED5BC
:10153000D5F88800A26B20F040601043C5F8880001
:10154000A06B884203D1E86840F48010E8602088EE
:1015500000040FD5D5F88800E16B20F04050084317
:10156000C5F88800E06BB0F1805F03D1E86840F413
:101570008030E8603046BDE8F8830000001002408B
:10158000007000402DE9F0470E4605004FF00007BF
:1015900025D0DFF8AC81D8F8000000F00F00B04291
:1015A0000CD2D8F8001021F00F013143C8F8001018
:1015B000D8F8000000F00F00B04210D12968614C4B
:1015C000C80741F2883A5AD06868DFF87C9103284E
:1015D00008D0022820682DD0400500282CDB0120EF
:1015E000BDE8F08720688001F9D5E06800F00302CB
:1015F000E068C0F30310401C032A19D0534A00BF0F
:10160000B2FBF0F0E268C2F306225043E268C2F394
:101610004162521C5200B0FBF2F0484517D9A06855
:1016200010F0F00F0CD0880711D5A86840B10EE07B
:10163000474AE5E78003D0E700F0BCF8484506D903
:10164000A06820F0F00040F08000A0608027A06833
:10165000696820F003000843A060FFF73FFD814662
:1016600006E000BFFFF73AFDA0EB090151453AD86B
:10167000A068696800F00C00B0EB810FF2D1286817
:10168000810714D5400703D5A06840F4E060A0604E
:101690002878000705D5A06820F4605040F4E06089
:1016A000A060A068A96820F0F000084304E0802F43
:1016B00003D1A06820F0F000A060D8F800104046E8
:1016C00001F00F01B14216D9016821F00F01314339
:1016D0000160FFF703FD074607E000BFFFF7FEFCD0
:1016E000C11B514501D903207AE7D8F8000000F06A
:1016F0000F00B042F2D12878400705D5A068E9680C
:1017000020F4E0600843A0602878000706D5A068B0
:10171000296920F4605040EAC100A06000F04AF856
:10172000A1680C4AC1F30311515C01F01F01C840CC
:101730000949086009480068BDE8F047FFF7ECBCBC
:10174000002002400010024000B4C4040024F40051
:1017500000127A005E5C00081000002004000020E7
:101760000148006870470000100000200548064945
:1017700000688968054AC1F30221515C01F01F012C
:10178000C840704710000020001002406E5C000846
:101790000548064900688968054AC1F3C221515CC1
:1017A00001F01F01C84070471000002000100240E7
:1017B0006E5C0008184910B58868C0F381021748AC
:1017C000012A0BD08A684310C2F38102022A06D094
:1017D0008A68C2F38102032A03D0002010BD184694
:1017E00010BDCA6802F00304CA68C2F30312521C97
:1017F000032C02D0B0FBF2F001E0B3FBF2F0CA68B8
:10180000C968C2F306225043C1F34161491C490033
:10181000B0FBF1F010BD0000001002400024F40005
:101820002DE9F84304007AD02078FA4DC00747D05C
:10183000A868E96800F00C0001F003010C2802D050
:10184000082817D001E0032914D06068B0F5803F64
:1018500017D0B0F5A02F286817D020F4803028606A
:10186000286820F4802028606068E0B1FFF736FC2B
:10187000064614E02868800322D560680028D2D08C
:101880001EE0286840F48030EDE740F480202860B6
:10189000F7E700BFFFF722FC801B642870D8286898
:1018A0008003F7D50CE0FFF719FC064605E000BF02
:1018B000FFF714FC801B6428F0D828688003F7D455
:1018C000207880074CD5A868E96800F00C0001F08A
:1018D00003010C2802D004280DD001E002290AD00F
:1018E000E068002828682BD040F480702860FFF75B
:1018F000F5FB064619E02868400502D5E068002897
:1019000091D06868217C20F0FE4040EA0160686068
:10191000C1480068FFF700FC002800D120E076E114
:10192000FFF7DCFB801B0228B8D828684005F7D5F4
:101930006868217C20F0FE4040EA016068600FE0AA
:1019400020F480702860FFF7C9FB064605E000BF61
:10195000FFF7C4FB801B0228A0D828684005F7D4F5
:101960002078000729D560690028D5F8940013D0A5
:1019700040F00100C5F89400FFF7B0FB064606E012
:1019800090E000BFFFF7AAFB801B022886D8D5F89D
:1019900094008007F6D510E020F00100C5F894000F
:1019A000FFF79CFB064604E0FFF798FB801B02282C
:1019B00078D8D5F894008007F6D42078400761D510
:1019C000A86D0026C00008D4A86D40F08050A8651E
:1019D000A86D012600F08050009090480168C9056C
:1019E00011D40168804641F480710160FFF776FBF5
:1019F000074604E0FFF772FBC01B022852D8D8F854
:101A00000000C005F6D5A068012815D00528D5F836
:101A1000900016D020F00100C5F89000D5F8900095
:101A200020F00400C5F89000A06841F28838B8B1F1
:101A3000FFF754FB07460EE0D5F8900040F0010098
:101A4000F0E740F00400C5F89000F5E7FFF746FB2B
:101A5000C11B414526D8D5F890008007F6D50CE08B
:101A6000FFF73CFB074604E0FFF738FBC11B41458D
:101A700018D8D5F890008007F6D41EB1A86D20F0D4
:101A80008050A8652078800629D5A0690028D5F85F
:101A9000980013D040F00100C5F89800FFF71EFB36
:101AA000064606E077E000BFFFF718FB801B022820
:101AB00077D8D5F898008007F6D510E020F001001F
:101AC000C5F89800FFF70AFB064604E0FFF706FB9F
:101AD000801B022865D8D5F898008007F6D4E06905
:101AE000F0B3A968C1F38101032961D002282868F5
:101AF00020F0807028600BD0E86820F00300E860D8
:101B0000E86847490840E860FFF7E8FA04464BE018
:101B1000FFF7E4FA064604E0FFF7E0FA801B02282C
:101B20003FD828688001F7D4F4E908016FF00F026C
:101B300002EB01110843218A5204490802EB41518A
:101B4000A26841EA02210843217D4FF07E42490804
:101B500002EB41610843217B40EAC160E96800E093
:101B600062E0304A11400843E860286840F0807025
:101B70002860E86840F08070E860FFF7AFFA04463C
:101B800005E000BFFFF7AAFA001B022809D8286861
:101B90008001F7D548E004E0FFF7A0FA001B022817
:101BA00002D90320BDE8F88328688001F4D43BE023
:101BB0000128F7D0E868226A00F00301914226D19B
:101BC000616A00F0F0020901103991421FD1A26A46
:101BD00000F4FE41B1EB022F19D194F82C2000F053
:101BE0007841B1EBC26F12D1218E00F4C0024908D6
:101BF0004905A1F50011914209D194F8341000F083
:101C0000C06049084906A1F1007181420CD0012051
:101C1000C8E70000001002400400002000700040EF
:101C2000FFFFEEFE0C809F010020BBE770B50400B3
:101C300009D0606A002540B125616561A56294F80C
:101C40005D0040B10CE0012070BD6068B0F5827F9E
:101C5000F4D0E561F2E784F85C50204600F05CF8CF
:101C6000022084F85D002068016821F040010160D5
:101C7000E1684FF4E062914201D9002001E04FF4A5
:101C80008050B1F5706F02D0914200D0A562A1885A
:101C9000228901F4827102F404421143227C02F091
:101CA00002021143227D02F001021143228B02F451
:101CB00000721143227F02F03802114394F8202071
:101CC00002F080021143228D02F400521143226877
:101CD0001160A169042202EA114194F8242000F461
:101CE000805002F01002114394F8342002F00802F0
:101CF0001143A28902F470621143014320684160DC
:101D00002068C16921F40061C1612566012084F861
:101D10005D00002070BD000070B586B0044614213F
:101D20006846FEF7AFFA1B492068884230D11A484E
:101D3000016E41F480510166016E01F480510591FC
:101D4000C16C41F00101C164C16C01F00101059158
:101D5000C16C41F00201C164C06C022500F00200B8
:101D60000590C02000900024CDE901540526CDE95E
:101D7000034669464FF09040FFF7C6F808200090F0
:101D8000CDE90154CDE9034669460448FFF7BCF8A4
:101D900006B070BD00300140001002400004004851
:101DA0002DE9F84F044640680025984616460F4630
:101DB0004FF0040BB0F5827F01D1A06888B194F890
:101DC0005C00012818D0012084F85C00FFF786F938
:101DD000814694F85D004FF0000A01280ED00225DC
:101DE00099E084F85DB013460A462046CDF800809D
:101DF00000F05EF9BDE8F88F0220FBE7002F77D0F6
:101E0000002E75D084F85DB0C4F860A02764A4F8F3
:101E10004460A4F84660C4F838A0A4F83CA0A4F834
:101E20003EA0C4F84CA0C4F850A0E0684FF4E061B4
:101E300088422068426802D922F4805201E042F4CC
:101E400080524260A068B0F5004F09D12068026856
:101E500022F0400202602068026822F480420260A0
:101E600020680268520603D4026842F04002026011
:101E7000E06888421DD93FE020688168C9070BD01F
:101E8000017B206C0170206C401C2064B4F846007B
:101E9000401EA4F846000CE0FFF720F9A0EB090172
:101EA000414503D3B8F1FF3F03D03BE0B8F1000F49
:101EB00038D0B4F846000028DED121E020688168DF
:101EC000C9070BD0C068216C0880206C801C20647E
:101ED000B4F84600401EA4F846000DE0FFF7FEF8F7
:101EE000A0EB0901414504D3B8F1FF3F04D019E04C
:101EF00010E0B8F1000F15D0B4F846000028DDD18D
:101F00004A464146204600F0B6FD08B12020206632
:101F1000206E00B10125012084F85D0084F85CA0EA
:101F2000284667E70325F6E72DE9F84F044690F8C1
:101F30005C0000271D461646894601280DD04FF04B
:101F4000010B84F85CB0FFF7C9F8804694F85D0097
:101F5000BA46012804D00227A4E00220BDE8F88F89
:101F6000B9F1000F74D0002E72D0032084F85D0008
:101F7000C4F860A0C4F83890A687E687C4F840A0EB
:101F8000A4F844A0A4F846A0C4F850A0C4F84CA0FB
:101F9000A068B0F5004F09D12068016821F0400128
:101FA00001602068016841F4804101602068016897
:101FB000490603D4016841F040010160E068B0F5D2
:101FC000E06F606823D908B1012E1CD1A06B216895
:101FD0000088C86006E020688168890709D5A16B80
:101FE0000988C160A06B801CA063E08F401EE08761
:101FF00009E0FFF773F8A0EB0800A84202D3681CC1
:1020000001D046E0ADB3E08F0028E4D136E008B15E
:10201000012E30D1E08F0128A06B03D92168008800
:10202000C8600FE021680078087314E0E08722E0C0
:1020300020688168890714D5E18F0129A16B08D92F
:102040000988C160A06B801CA063E08F801EEDE753
:1020500027E009780173A06B401CA063E08F401E4D
:10206000E4E7FFF73BF8A0EB0800A84202D3681CA6
:1020700001D00EE06DB1E08F0028D9D1424629464B
:10208000204600F032FD08B120202066A06810B183
:1020900005E0032706E02068C16880680090206E94
:1020A00000B1012784F85DB084F85CA0384655E79C
:1020B0002DE9F05F044690F85C0000270A9E1D465B
:1020C00092468B464FF0010901280ED0012084F87A
:1020D0005C00FFF703F8804694F85D006168012812
:1020E0000CD0B1F5827F07D102E00220BDE8F09F5D
:1020F000A16809B9042801D0022700E1BBF1000F53
:1021000024D0BAF1000F21D005B394F85D00042863
:1021100002D0052084F85D0000202066C4F840A0AD
:10212000A4F84650A4F84450C4F838B0E587A58711
:10213000E0642065E0684FF4E061884201D8012D39
:1021400006D92068426822F4805205E00127D6E0D3
:102150002068426842F48052426020680268520659
:1021600003D4026842F040020260E068884260687E
:1021700045D908B1012D3AD1A06B21680088C8600B
:10218000A06B801CA063E08F401EE0872FE02068DA
:10219000816889070FD5E18F69B1B9F1010F0AD1C3
:1021A000A16B0988C160A06B801CA063E08F401EFA
:1021B000E0874FF0000920688168C9070FD0B4F8A4
:1021C000461061B1C068216C0880206C801C2064BE
:1021D000B4F84600401EA4F846004FF00109FEF78F
:1021E0007DFFA0EB0800B04201D3701C75D1E08FD9
:1021F0000028CCD1B4F846000028C8D176E008B158
:10220000012D6CD1E08F0128A06B08D921680088CE
:10221000C860A06B801CA063E08F801E07E021686F
:1022200000780873A06B401CA063E08F401EE0871D
:1022300055E02068816889071AD5E18FC1B1B9F1ED
:10224000010F15D1E18F0129A16B07D90988C16060
:10225000A06B801CA063E08F801E06E009780173EC
:10226000A06B401CA063E08F401EE0874FF0000988
:1022700020688168C90728D0B4F8461029B3B4F89B
:102280004610012914D9C068216C0880206C801C7C
:102290002064B4F84600801EA4F84600B4F8460056
:1022A000012810D82068416841F4805141600AE05B
:1022B000007B216C0870206C401C2064B4F8460040
:1022C000401EA4F846004FF00109FEF707FFA0EBFF
:1022D0000800B04202D3701C01D018E0BEB1E08FFC
:1022E0000028A6D1B4F846000028A2D142463146C3
:1022F000204600F0FAFB10B10127202020660120C3
:1023000084F85D00002084F85C003846EEE6032780
:10231000F5E710B5401EB0F1807F01D3012010BD5C
:102320004FF0E02460610F21601701F05EFE002095
:10233000A06107202061002010BD90F880100129C5
:1023400018D0012180F880102421C0F8841050F8A2
:10235000641B0A680B6823F001030B6022F0005134
:102360000022026050F8643C19602021016202776B
:1023700010467047022070477047704770B504469A
:1023800090F8800001281DD0012084F880002420CE
:10239000C4F8840020680568026822F00102026027
:1023A0002068826822F060620A438260204601F061
:1023B00099F8206805602020C4F88400002084F883
:1023C000800070BD022070BD70B5044690F880009A
:1023D00001281DD0012084F880002420C4F8840046
:1023E00020680568026822F00102026020688268A5
:1023F00022F060420A438260204601F073F82068B0
:1024000005602020C4F88400002084F8800070BD9E
:10241000022070BD70477047704700002DE9F04101
:1024200003680446D86919689A6840F60F0528427F
:102430004FF0000509D186067ED501F0200602F096
:1024400080573E4378D0216FFFE0924E924F164066
:102450000F40374370D0C70709D0CF0507D50127F4
:102460001F62D4F88C3043F00103C4F88C3083072A
:102470000AD5D30708D0276802233B62D4F88C30F2
:1024800043F00403C4F88C3043070AD5D30708D0BF
:10249000276804233B62D4F88C3043F00203C4F86D
:1024A0008C3003070CD501F02003334308D0266895
:1024B00008233362D4F88C3043F00803C4F88C301E
:1024C00003050BD54B0109D526684FF40063336231
:1024D000D4F88C3043F02003C4F88C30D4F88C301E
:1024E000002B34D0800609D501F0200002F0805185
:1024F000084303D0216F09B120468847D4F88C00E7
:1025000021688968490602D410F0280F21D020469E
:1025100001F0A8F820688168490615D5816821F086
:1025200040018160E06F78B15C498163E06FFEF744
:102530009DFC00280BD000E011E0E06F816B00E013
:102540002046BDE8F04108472046FFF765FFBDE89B
:10255000F0812046FFF760FFC4F88C50F7E7E76E84
:102560002026012F5CD1C7065AD5CF0658D510209A
:1025700018622068816849062FD5E26F11684968A2
:102580000904090CE3D0B4F85C308B42DFD9A4F81D
:102590005E1011680968890618D4016821F48071F9
:1025A00001602068816821F00101816020688168F4
:1025B00021F040018160C4F88860E5662068016808
:1025C00021F010010160E06FFEF71BFCB4F85C0025
:1025D000B4F85E10401A81B21EE0B4F85C10B4F892
:1025E0005E20891AB4F85E2089B2002AAFD0002993
:1025F000ADD0026822F49072026020688268254B98
:10260000DB431A408260C4F88860E566256720686D
:10261000026822F0100202602046FFF7ADFE96E746
:10262000C70209D5570207D54FF48010186220461B
:10263000BDE8F041FFF7EFBE07060AD501F08007BD
:1026400002F40002174304D0616F00297FF478AFD1
:102650007DE742060CD54A060AD51968204621F0C6
:1026600040011960C4F88460656700F027F96EE7DF
:10267000020206D54A0004D52046BDE8F041FFF726
:10268000C9BEC001CBD50029C9DA2046BDE8F0415A
:10269000FFF773BE0100001020010004513600084E
:1026A00010B5040003D0D4F8840010B107E0012075
:1026B00010BD002084F88000204600F027F8242078
:1026C000C4F884002068016821F0010101602046FF
:1026D00001F0A0F90128EBD0A06A10B1204600F06B
:1026E00023FF2068416821F490414160206881689F
:1026F00021F02A0181602068016841F00101016038
:102700002046BDE8104000F073BF000010B586B051
:10271000044614216846FDF7B5FD16492068884235
:1027200025D11548016E41F480410166016E01F426
:1027300080410591C16C41F00401C164C06C6946DF
:1027400000F004000590302000900220019000204D
:1027500002900390072004900848FEF7D5FB002262
:1027600011462520FEF720FD2520FEF70FFD06B0BF
:1027700010BD000000380140001002400008004871
:1027800010B4D0F88830202B1BD1B9B1B2B190F879
:102790008030012B15D0012380F880300023C366E0
:1027A000094C0368A34206D05C68240203D51C6868
:1027B00044F080641C6010BC01F066BA012010BCBB
:1027C00070470220FBE700000080004010B5006861
:1027D000084988420CD1084800780A2801D1FEF740
:1027E00015FDBDE81040012203490448FFF7C8BFAA
:1027F00010BD00000038014000000020B0000020A3
:102800002DE9F8430446D0F884001F4616460D46CD
:10281000202851D1DDB1D6B194F8800001284BD0E9
:10282000012084F880004FF00008C4F88C8021203B
:10283000C4F884001834FEF751FCA6878146E68769
:1028400054F8100C183CB0F5805F03D004E0012070
:10285000BDE8F883206920B12E46002584F88080E9
:1028600010E00026FAE78021204601F079FAB8B995
:10287000C6B116F8010B21688862B4F85600401EF4
:10288000A4F85600B4F856004B464FF000020097EB
:102890000028E8D14FF04001204601F061FA30B144
:1028A0000320D5E735F8020BC0F30800E3E720204A
:1028B000C4F884000020CBE70220C9E77047FEE798
:1028C00000B58DB030216846FDF7DCFC1149104899
:1028D00008600846FEF712FA08B1FEF733F9022045
:1028E000009000208DF804008DF805000290039000
:1028F00001210490CDE9050102460790694605488B
:10290000FEF722F9002801D0FEF71CF90DB000BD3A
:102910000008005038000020F0B587B01421684648
:10292000FDF7B0FC2248C16C41F02001C164C16CCC
:1029300001F020010591C16C41F00401C164C16C3A
:1029400001F004010591C16C41F00101C164C16C49
:1029500001F001010591C16C41F00201C164C06C3C
:10296000144E00F002000590012208213046FEF7C7
:10297000AFFB4FF09047002220213846FEF7A8FB1E
:1029800001240820CDE90004002569463046CDE940
:102990000245FEF7B9FA2020CDE900040220CDE976
:1029A000020569463846FEF7AFFA07B0F0BD0000F1
:1029B0000010024000080048124810B5104901609C
:1029C0004FF48271416000214FF4E062C0E90212CD
:1029D0000222026101224261520282613822C0E970
:1029E000072107224162C0E90A1201634163FFF730
:1029F0001DF9002803D0BDE81040FEF7A3B810BDB4
:102A0000003001404C000020184810B51649016004
:102A10004FF4E1314160002181600C22C160C0E9C6
:102A200004128161C161016241628162FFF738FE77
:102A300008B1FEF787F800210C48FFF7C5FC08B184
:102A4000FEF780F800210948FFF798FC08B1FEF76F
:102A500079F80648FFF771FC002803D0BDE8104064
:102A6000FEF770B810BD000000380140B000002033
:102A7000FEE7FEE770472DE9F843044640684FF44F
:102A80008276154689464FF400474FF48068B0427D
:102A900009D1A068B84201D0404504D1206801683E
:102AA00021F0400101604B46002280212046009524
:102AB00000F0A6F880B96068B04214D1A068B842AE
:102AC00001D040450FD14B4600224FF4C061204653
:102AD000009500F02FF830B1206E40F02000206605
:102AE0000320BDE8F8830020FBE7F8B515460E4645
:102AF0000B460092044600224FF4C05100F01AF831
:102B000088B93346002280212046009500F078F8ED
:102B100048B9334600224FF4C0612046009500F0CA
:102B200009F8002804D0206E40F020002066032021
:102B3000F8BD00002DE9FC47994617460E460446AD
:102B40000A9DFEF7CBFA411BA9EB0105FEF7C6FA79
:102B500080462A484FF4C06A0068C0EBC00000EB12
:102B60008000000D6843009040E0564502D10FB947
:102B7000007B0190B9F1FF3F38D0FEF7AFFAA0EB30
:102B80000800A84203D215B1009860B32CE0206879
:102B9000416821F0E00141606068B0F5827F0BD1AF
:102BA000A068B0F5004F02D0B0F5806F04D1206866
:102BB000016821F040010160A06AB0F5005F09D111
:102BC0002068016821F4005101602068016841F427
:102BD00000510160012084F85D00002084F85C0051
:102BE0000320BDE8FC870025401E00902068816816
:102BF0003140B942B9D10020F3E7000010000020B5
:102C00002DE9F8431E46914688460446089DFEF786
:102C100065FA401B351AFEF761FA07462548006839
:102C2000C0F3CB30684338E0701C37D0FEF756FA5B
:102C3000C01BA84203D215B1009860B32CE02068F5
:102C4000416821F0E00141606068B0F5827F0BD1FE
:102C5000A068B0F5004F02D0B0F5806F04D12068B5
:102C6000016821F040010160A06AB0F5005F09D160
:102C70002068016821F4005101602068016841F476
:102C800000510160012084F85D00002084F85C00A0
:102C90000320BDE8F8830025401E0090206881686D
:102CA00038EA010004D000214945BDD10020F0E7F9
:102CB0000121F9E7100000207047FEF715BA10B5A2
:102CC000A4B038216846FDF7DDFA14211FA8FDF7EE
:102CD000D9FA44210EA8FDF7D5FA0020FEF7A8FA8C
:102CE0000220C1010391402104910421CDE9080192
:102CF00000905521CDE90A1007900C900D90684680
:102D0000FEF78EFD08B172B6FEE70F2000241F907B
:102D10000320CDE92004229404211FA82394FEF768
:102D200031FC08B172B6FEE70120CDE90E040EA811
:102D3000FEF7E4FA002801D072B6FEE724B010BD19
:102D40000248016841F470010160704788ED00E0BD
:102D50002DE9F04F4848082101609FED480A816045
:102D600000ED130A01618161454D012100222974A2
:102D70002A7028462A72074669609FED420A07F5C5
:102D80000163426183EDFD0A3F4B16464FF43E74EA
:102D900017F1100703EB860CDCED000A07EB860C3D
:102DA0000CF5006C761CCCEDFE0AA642F2DB00F8B6
:102DB000102FE860416001722972E86840F23A25FC
:102DC000EE1E47684FF0030A4FF43D79012F10D1F2
:102DD000C0F810A0C0F8EC6B856180ED050A0027F3
:102DE0004FEA090C00EB87087F1C88ED070A67454E
:102DF000F8DB2648DFF888C00746017402700272CB
:102E0000416042720CF500587A6188EDFD0A4FF07E
:102E10000008A346A0F5FE600CF5C05C03EB880437
:102E2000D4ED000A0CEB880404F5006408F10108F5
:102E3000C4EDFE0AD845F1DB07F8102FC0F8FC7787
:102E40007960397280F8F817D0F8FC0741680129D9
:102E50000FD1C0F810A0C0F8EC6B856180ED050AB9
:102E600000214A4600EB8103491C83ED070A914289
:102E7000F8DBBDE8F08F0000B8710020DB0FC93F20
:102E800040410020000000007C5C00083059002018
:102E90002DE9F04FFE4C2DED048B9DB094EDF80A1A
:102EA00001F08EFFD4EDF80ADFEDFA9AFA4970EEE0
:102EB000A90A10EE900AC4EDF80ADFEDF88A8842FC
:102EC00002DB70EEE80A06E0F5EEC00AF1EE10FA59
:102ED00003D270EEA80AC4EDF80AF148F14C1022B2
:102EE000D0ED010AA16FA4F5405520EE200AC1F1F2
:102EF000100001284FF0000008DD10E0014405EB50
:102F0000810101F53051401C81EDF90AA16FC1F139
:102F100010028242F2DC00210846A26F07E00B1883
:102F200005EB830303F53053401C83EDF90AA2F14E
:102F30000F039842F3DBA06F401CA067102801DB51
:102F40001038A067D4F88000401CC4F88000102816
:102F50000ADDE16F08441038E067102801DD103801
:102F6000E0671020C4F88000CF48006880799FEDAA
:102F7000CF8A4FF0000A00287ED1D4F880000838AC
:102F8000C4F8800007D5E16F0818E06701D510305C
:102F9000E067C4F880A0E06F0022002801DA10305A
:102FA000E0670346C0F1100008210DAE082816DCCA
:102FB00000210BE05A1805EB820202F5305292ED27
:102FC000F90A06EB8102491C82ED000A024688429A
:102FD000F0DCC2F108010020C4F87CA00EE0002063
:102FE000E36F034405EB830303F5305393EDF90AD4
:102FF000131806EB8303401C83ED000A8842EFDBC5
:10300000E06F0844E067E8684168012917D00121B2
:103010004160017240F23A2181610321016140F275
:103020003721C0F8EC1B80ED058A00214FF43D727A
:1030300000EB8103491C83ED078A9142F8DB0769A5
:103040004FF0000B8369D0F8EC1BC7EB871C00F135
:103050000C020CEB4C09DE46CDF820B00DAE06EBB1
:103060008B06D2ED020A96ED000A02EB830606F506
:10307000006696EDFB1A00E069E040EE010A4E1C86
:1030800009F1BD0C5B1CC2ED020A0FE002EB8608E1
:1030900098ED041A02EB830808F500685B1CD8ED74
:1030A000FB1A761C41EE210AC2ED020A6645EDDBF1
:1030B0004E460FE002EB860898ED041A02EB8308F7
:1030C00008F500685B1CD8EDFB1A761C41EE210A5E
:1030D000C2ED020A8E42EDDD02EB8106BD3186EDC6
:1030E000040A0BF1010BB1F53D7F01DBA1F53D7148
:1030F0007F1C042F01DAE14614E0089B92ED020ADE
:1031000002EB830303F5A053002783EDF30A089B2A
:103110005B1C089382ED028A3B46491E00D5BD31F7
:103120004FF000090EF1010EBEF1080F96DB0761AA
:103130008361C0F8EC1B00F5A05090EDF60A84ED19
:10314000090A90EDF70A84ED0A0AC4F884A0564EE5
:103150003068407960B9D4F8840005EB800101F54E
:103160004051012891ED099A02DA401CC4F884000C
:1031700094ED0B0A01F024FED4ED0B0A464970EEE3
:10318000A90A10EE900AC4ED0B0A884202DB70EE29
:10319000E80A06E0F5EEC00AF1EE10FA03D270EE8E
:1031A000A80AC4ED0B0A3E48D4F888101022D0EDCE
:1031B000010AC1F11000012820EE200A4FF00000A2
:1031C00008DD12E0014405EB810101F54051401C8E
:1031D00081ED0C0AD4F88810C1F110028242F1DCB2
:1031E00000210846D4F8882007E00B1805EB83037C
:1031F00003F54053401C83ED0C0AA2F10F039842E3
:10320000F3DBD4F88800401CC4F88800102802DBE7
:103210001038C4F88800D4F89000401CC4F890001E
:1032200010280DDDD4F88C1008441038C4F88C0038
:10323000102802DD1038C4F88C001020C4F890006B
:1032400019480068807900287ED1D4F890000838A9
:10325000C4F890000AD5D4F88C100818C4F88C0073
:1032600002D51030C4F88C00C4F890A0D4F88C00BB
:103270000021002802DA1030C4F88C000346C0F1A7
:103280001000082215AE082828DC00211CE00000F0
:10329000406D0020920A063EDB0FC940DB0FC9409B
:1032A0002400002040710020785C0008000000002D
:1032B0005A1805EB820202F5405292ED0C0A06EB19
:1032C0008102491C82ED000A02468842F0DC114668
:1032D000C2F108020020C4F88CA010E05FF00000EA
:1032E000D4F88C30034405EB830303F5405393ED8E
:1032F0000C0A0B1806EB8303401C83ED000A904276
:10330000EEDBD4F88C001044C4F88C007248D0F87E
:10331000FC07416801291AD001214160017240F285
:103320003A2181610321016140F23721C0F8EC1B91
:1033300080ED058A00214FF43D7200BF00EB810350
:10334000491C83ED078A00E087E09142F6DB0769BC
:103350004FF0000B8369D0F8EC1BC7EB871C00F122
:103360000C020CEB4C09DE46CDF820B015AE06EB96
:103370008B06D2ED020A96ED000A02EB830606F5F3
:10338000006609F1BD0C96EDFB1A4E1C5B1C40EE6D
:10339000010AC2ED020A0FE002EB860898ED041A5A
:1033A00002EB830808F500685B1CD8EDFB1A761C5D
:1033B00041EE210AC2ED020A6645EDDB4E460FE002
:1033C00002EB860898ED041A02EB830808F5006802
:1033D0005B1CD8EDFB1A761C41EE210AC2ED020AF5
:1033E0008E42EDDD02EB8106BD3186ED040A0BF164
:1033F000010BB1F53D7F01DBA1F53D717F1C042F71
:1034000001DAE14614E0089B92ED020A02EB830325
:1034100003F5A053002783EDF30A089B5B1C089378
:1034200082ED028A3B46491E00D5BD314FF00009AE
:103430000EF1010EBEF1080F98DB07618361C0F841
:10344000EC1B00F5A05090EDF60A84ED1C0A90EDFF
:10345000F70A84ED1D0AC4F894A0204E3068407924
:10346000F8B9D4F8940005EB800101F5405101282A
:1034700091ED1C8A02DA401CC4F8940029EE090A76
:1034800008EE080A01F064FDF0EE000A144C20EE8C
:10349000200A84ED000A89EE080A00F0B7FD84EDE9
:1034A000020A306831684079401CC0B24871032874
:1034B00002D9316881F805A0306831688079401CF4
:1034C000C0B28871072802D9316881F806A01DB002
:1034D000BDEC048BBDE8F08F40510020785C000803
:1034E0002400002030B5416EB9B10268916892683D
:1034F000C1F342610B4B520F9C5CE50003F10804E1
:10350000A25CB5FBF2F2A0F86A205A5C615CD200C2
:10351000B2FBF1F1A0F8681030BD0121A0F86A10EB
:10352000F8E700004E5C000890F82810C90706D0A4
:1035300001684A68C36A22F400321A434A6090F86C
:103540002810890706D501684A68036B22F4803287
:103550001A434A6090F82810490706D501684A685E
:10356000436B22F480221A434A6090F8281009071E
:1035700006D501684A68836B22F400421A434A6008
:1035800090F82810C90606D501688A68C36B22F432
:1035900080521A438A6090F82810890606D501687F
:1035A0008A68036C22F400521A438A6090F828104B
:1035B000490611D501684A68436C22F480121A4307
:1035C0004A60416CB1F5801F06D101684A68836C7E
:1035D00022F4C0021A434A6090F82810090606D562
:1035E00001684A68C06C22F4002202434A607047B6
:1035F000F8B500260446C0F88C60FDF76FFD05465F
:10360000206800686FF07E47000708D52B4600222F
:103610004FF400112046009700F0A2FB60B920682B
:10362000006840070AD52B4600224FF4800120464F
:10363000009700F095FB08B10320F8BD2020C4F8E6
:103640008400C4F8880044F86C6F00202675F8BD2B
:1036500010B5806A0021A0F85E10A0F85610FEF7A1
:10366000DBFE10BD01680A6822F490720A600168EE
:103670008A68094B1A408A60C16E012904D1016829
:103680000A6822F010020A602021C0F88810002188
:10369000C166016770470000FEFFFFEF70B5B0F82C
:1036A0006010D0F8882004460068222A04D081697E
:1036B00041F00801816170BD406AA26D0840108030
:1036C000A06D801CA065B4F85E00401EA4F85E00EA
:1036D000B4F85E000028EED12068016821F49071F2
:1036E00001602068816821F0010181602020C4F818
:1036F000880000252567E06E012804D02046FFF7EA
:1037000065F8E56670BD2068016821F01001016070
:10371000B4F85C102046FEF72FFEF2E72DE9F047E3
:103720000446B0F860600068C569D0F800A0D0F821
:103730000880D4F88810222905D0816941F0080159
:103740008161BDE8F087B4F868704FF000095BE074
:103750002068406AA16D30400880A06D801CA06583
:10376000B4F85E00401EA4F85E002068C5696907D1
:1037700030D0E9070AD05FEACA5107D501210162BA
:10378000D4F88C0040F00100C4F88C00A8070BD5D9
:103790005FEAC87008D0216802200862D4F88C0063
:1037A00040F00400C4F88C0068070BD55FEAC870CD
:1037B00008D0216804200862D4F88C0040F0020090
:1037C000C4F88C00D4F88C0020B12046FEF724FE0B
:1037D000C4F88C90B4F85E00B0B92068016821F498
:1037E0008071016020688168194A11408160202041
:1037F000C4F88800C4F87090E06E01281CD0204600
:10380000FEF7E4FFC4F86C900FB1A806A0D4B4F89A
:103810005E00002895D0B4F86810814291D92068E4
:10382000816821F0805181600A4820672068016822
:1038300041F02001016084E72068016821F0100157
:103840000160B4F85C102046FEF796FDDAE7000050
:10385000FEFFFFEF9D36000870B5B0F86010D0F89D
:10386000882004460068222A04D0816941F00801BA
:10387000816170BD406A0840A16D0870A06D401C58
:10388000A065B4F85E00401EA4F85E00B4F85E00C7
:103890000028EED12068016821F490710160206851
:1038A000816821F0010181602020C4F88800002592
:1038B0002567E06E012804D02046FEF787FFE56605
:1038C00070BD2068016821F010010160B4F85C103F
:1038D0002046FEF751FDF2E72DE9F0470446B0F827
:1038E00060600068C569D0F800A0D0F80880D4F8FE
:1038F0008810222905D0816941F008018161BDE865
:10390000F087B4F868704FF000095BE02068406A07
:10391000A16D30400870A06D401CA065B4F85E0039
:10392000401EA4F85E002068C569690730D0E90729
:103930000AD05FEACA5107D501210162D4F88C0090
:1039400040F00100C4F88C00A8070BD55FEAC870EE
:1039500008D0216802200862D4F88C0040F00400EE
:10396000C4F88C0068070BD55FEAC87008D02168DE
:1039700004200862D4F88C0040F00200C4F88C00E7
:10398000D4F88C0020B12046FEF746FDC4F88C9098
:10399000B4F85E00B0B92068016821F4807101605C
:1039A00020688168194A114081602020C4F888008D
:1039B000C4F87090E06E01281CD02046FEF706FF88
:1039C000C4F86C900FB1A806A0D4B4F85E0000282B
:1039D00095D0B4F86810814291D92068816821F0AF
:1039E000805181600A4820672068016841F0200109
:1039F000016084E72068016821F010010160B4F8DB
:103A00005C102046FEF7B8FCDAE70000FEFFFFEF8F
:103A1000593800082DE9F0410446016880682269A0
:103A2000E3691043626900251A431043DFF82CC292
:103A30000A688B4B1A4002430A6020684168E268BA
:103A400021F44051114341602168A069614501D0D2
:103A5000226A10438A68834B1A4002438A602068B6
:103A6000C16A626A21F00F011143C1627E49236875
:103A70007E488B420DD1D0F8880010F0030006D0AC
:103A8000012855D0022842D003283FD152E001201E
:103A90003DE077498B420BD1D0F8880010F00C0044
:103AA00035D0042833D0082840D00C282ED141E04E
:103AB00070498B420BD1D0F8880010F0300026D02E
:103AC000102835D0202831D030281FD132E06A4963
:103AD0008B420BD1D0F8880010F0C00017D04028DE
:103AE00026D0802822D0C02810D123E063450DD1F4
:103AF000D0F8880010F4406009D0B0F5806F17D07E
:103B0000B0F5006F12D0B0F5406F13D010205B4AB3
:103B10005B4F00264FF40041634539D160B1022864
:103B20000DD004280DD0082831D10EE00220EEE798
:103B30000420ECE70820EAE7FDF718FE03E0114651
:103B400003E0FDF737FE01007DD0606A37F81020F2
:103B50006768B1FBF2F007EB470383426CD8B0EB28
:103B6000073F69D8002308461946FCF753FB0902B2
:103B700041EA106102027808101871413A460023A8
:103B8000FCF748FB3F4AA0F54071914259D953E0F8
:103B9000E3694FF6EF788B422DD109284CD2DFE84C
:103BA00000F005080D4B274B4B4B0E00FDF7DEFDDB
:103BB00001E0FDF7EDFD010001D144E01146606A2E
:103BC00037F81000B1FBF0F04100606801EB5001E4
:103BD000B1FBF0F080B2A0F1100141452CD84FF6B6
:103BE000F0710140C0F3420001432068C1602AE047
:103BF000FDF7E0FDDFE709281ED2DFE800F0050849
:103C00000D1D1F1D1D1D0E00FDF7B0FD01E0FDF790
:103C1000BFFD010001D116E01146606A37F81000BF
:103C2000B1FBF0F1606801EB5001B1FBF0F080B244
:103C3000A0F11001414504D9012504E0FDF7BAFDCA
:103C4000E7E72168C8600120A4F86A0024F8680F3B
:103C50002846A660E660BDE8F081000000800040D4
:103C6000F369FFCFFFF4FF1100380140001002405C
:103C70000044004000480040004C00400024F40094
:103C8000365C0008FFFC0F0070B58165A0F85C2071
:103C9000A0F85E200021016783684FF48056FF245E
:103CA000B34204D10369D3B940F2FF131DE07F256D
:103CB0009BB1B3F1805F15D0A0F86010C0F88C10F4
:103CC0002223C0F8883003689C6844F001049C609B
:103CD000436EB3F1005F0ED027E0036943B9A0F84B
:103CE0006040EBE703691BB13F23A0F86030E5E7D4
:103CF000A0F86050E2E7B0F86830934215D88268C7
:103D0000B24201D1026972B1114A026780F8801093
:103D100001680A6842F480720A600068816841F0B4
:103D2000805181600FE00B4AEFE78268B24201D117
:103D3000026952B1084A026780F880100068016881
:103D400041F490710160002070BD044AF3E7000067
:103D5000D93800081D370008593800089D3600087A
:103D60002DE9F0479A4617460E4604464FF00009E3
:103D70004FF02008089D39E0681C37D0FDF7AEF9F8
:103D8000A0EB0A00A84222D80DB3206801684907B9
:103D90002CD5C069C043000528D421684FF40060C9
:103DA00008622068016821F4D07101602068816890
:103DB00021F001018160C4F88480C4F88880C4F8CF
:103DC0008C8000BF84F880900320BDE8F0872068D5
:103DD000016821F4D07101602068816821F001013F
:103DE0008160C4F88480C4F88880EBE72068C069EB
:103DF00036EA000004D00020B842BDD00020E4E73D
:103E00000120F9E70148FEF709BB0000B0000020DF
:103E1000FEE700002DED048B00214B48FCF7BDFFB1
:103E2000FCF7B0FD082210210020FCF749FE052216
:103E300000210C20FCF764FE4FF40068002243468A
:103E400011464148FCF79CFF00213F48FCF7A5FFC5
:103E50004046FCF7ABFD41463C48FCF7F7FDFEF75A
:103E600077FF3B4C4FF00009384D3A4E3A4F9FEDEB
:103E70003B8B9FED3C9B4846C4F8009005EB8000CF
:103E800090ED000A86ED000AFFF702F838686060DE
:103E9000FCF7B1FB53EC182BFCF718FB53EC192B78
:103EA000FCF7A2FAFCF78EFB0346002211462648D7
:103EB000FCF766FF6068FCF79EFB41EC100B2BA043
:103EC00053EC102B00F056F82068401C2060404551
:103ED000D4DB4046C4F80090FCF768FD41461B481F
:103EE000FCF7B4FD20682CE005EB800090ED000AA3
:103EF00086ED000AFEF7CCFF386860602168B1F5F6
:103F00007A7F1BDDFCF777FB53EC182BFCF7DEFA0E
:103F100053EC192BFCF768FAFCF754FB034600221C
:103F200011460948FCF72CFF6068FCF764FB41EC84
:103F3000100B0EA053EC102B00F01CF82068401C56
:103F400020604045C5DACFE738000020400100205E
:103F50001400002028000020240000206666666609
:103F600066660A40000000000000B040256C660A4A
:103F7000000000000FB4054B10B503A9044A0298D5
:103F800001F06CFA10BC5DF814FB00007D5B0008CA
:103F90003000002003B401984100009850EAC1208D
:103FA00018BF04204A0D18BF40F0010040F2FF7214
:103FB000B2EB515F08BF40F00200012808BF0520A6
:103FC00002B070474100080218BF04200A0E18BF53
:103FD00040F001004FF07F4232EA010108BF40F09B
:103FE0000200012808BF052070470907090E0028B4
:103FF00004DB00F1E02080F80014704700F00F00AF
:1040000000F1E02080F8141D7047000010B54FF05B
:104010000E412DED028BB0EE408A18EE100A01EB36
:104020004001B1F1145F5CD24FF0FE41B1EB400FA3
:1040300024BF9FED400AF0EE400A12D210F0004F6C
:1040400019BFDFED3D0A9FED3D0ADFED3D0A9FED13
:104050003D0AFFEE001A81EE881AB0EE418A18EE92
:10406000100A4FF0FC41B1EB400F1BD210F0004F93
:10407000DFED351A9FED352A1DBFBEEE001A70EE3A
:10408000E10A30EE420AB6EE001A04BF70EEA10A51
:1040900030EE020A38EE412AF7EE001A48EE011A15
:1040A00082EE218ADFED2A1A9FED2A2A28EE081ACD
:1040B00001EE212ADFED281A41EE021A9FED272A90
:1040C00001EE212ADFED261A41EE021A28EE011A2E
:1040D00001EE210A30EE080ABDEC028B30EE200A18
:1040E00010BD4FF0E441B1EB400F0CD918EE100AAF
:1040F000FFF768FF042808BF01F026F8B0EE480A71
:10410000BDEC028B10BD4FF07F41B1EB400F07D2E9
:10411000B0EE480ABDEC028BBDE8104001F008B8D3
:1041200010F0004F14BF9FED0F0A9FED0F0ABDEC7A
:10413000028B10BD000000000000C9BF22AAFDB91B
:104140000000C93F22AAFD390060ED3EC30ACE3708
:104150002DAD65BD8FB8D53D0FB511BE61C84C3EC4
:10416000A8AAAABEDB0FC9BFDB0FC93F0000000031
:104170002DE9F04D2DED040B2DED0E8B96B0DDE904
:104180002550279CDDF890A025F0004624F000483B
:10419000BAF1000F14BF0121002101EB4502FC49D7
:1041A00053184A1093422AD3002814BF0123002336
:1041B00003EB44030B44F7498B4220D358EA000138
:1041C0009FEDF59B76D0DFF8D8B35D4503D1BAF10A
:1041D000000F05D188E0BAF1000F08BF002100D020
:1041E000012101EB450111F5001F08D8002814BF7B
:1041F0000121002101EB440111F5001F0BD99DEDB8
:10420000261B9DED240B16B0BDEC0E8B04B0BDE853
:10421000F04D00F051BF0027002DBCBFE14988459B
:1042200021DAE1498845A8BF02271CDAC3451ADC18
:10423000DE4901EB2851142908DDC1F1340220FACE
:1042400002F101FA02F282420DD108E058B9C1F13F
:10425000140228FA02F101FA02F2424503D101F0F8
:104260000101C1F1020756EA0A0124D1002C22DA29
:10427000002D18BF022F01D0012F0AD0022001F01B
:1042800025F816B0BDEC0E8B04B0BDE8F04D00F083
:10429000FBBE022001F01AF800F0F6FE51EC100B04
:1042A00081F0004141EC100B16B0BDEC0E8B04B058
:1042B000BDE8F08D18E09FEDBEAB9FEDBF8B0028F1
:1042C00071D1B848804522D105F1804010F58010A9
:1042D00008BFBAF1000F07D0B3450ADC002CA8BF15
:1042E0009DED260BE0DA0DE0B0EE490AF0EE690A2A
:1042F000DAE7002C06DA9DED260B51EC100B81F06D
:1043000000416FE0AE48784490ED000BCCE7D84513
:104310004DD1002C48DA2EB186423AD1BAF1000FC5
:1043200042D126E0BAF1000F13D0022000F0CEFFF8
:1043300000F0DEFE8DED020B9DED240B8DED000BEC
:1043400010EE900A039961F31E0003909DED020B9D
:10435000AAE78DED02AB9DED240B1AEE901A10EE3C
:10436000900A8DED000B61F31E0003909DED020B92
:104370009AE78DED028B9DED240B18EE901A10EE4E
:10438000900A8DED000B61F31E0003909DED020B72
:104390008AE709DA9DED240B51EC190B53EC102B35
:1043A000FCF794F81EE020E09DED240B7CE78642AC
:1043B0001BDAB4F1804F0DD0A4F10050B0F1FF50E2
:1043C00013D1002D11DB9DED240B51EC100B01F0EE
:1043D000FBFB07E09DED240B53EC102B51EC100B75
:1043E00000F0C2BC41EC100B5EE79DED240B51ECDC
:1043F000100B01F0B6FBBAF1000FCDE90E0142D16E
:104400009FED710B46B3A6F1E040B0F17F600CD098
:104410005E4538D1002D00DAA7B3022F0CBF012072
:104420004FF0FF30FCF708FADCE7002D01DD002C2F
:104430000DDA002D01DD002C1FDB002D16DA002C1B
:1044400014DB012F08BF9FED620B3FF42DAFB0EEE0
:104450004A0AF0EE6A0A27E7022F18BF002D0CD097
:10446000012F0AD1002DFFF61FAF06E0002DB8BFC7
:10447000002C08DA012F3FF417AFB0EE480AF0EE37
:10448000680A11E71BE0012000EBE57050EA070124
:1044900015D0791EB0EE498AF0EE698A084308BF4C
:1044A0009FED4D8B4E480025804570DD4D494E48AF
:1044B000884514DDB0420DDB002C19DB2FE0012014
:1044C00000F004FF16B0BDEC0E8B04B0BDE8F04D5B
:1044D00000F0FEBDB34502DC002C09DC1FE0864283
:1044E00002DA002C1BDA03E05E452BDD002C16DD22
:1044F000022000F0EBFE00F0FBFD8DED020B53EC13
:104500001A2B51EC180BFBF76FFFCDE90001039953
:10451000019861F31E0003909DED020BC4E602209A
:1045200000F0D4FE00F0F4FD10EE901A18EE900AA0
:104530008DED020B8DED008B61F31E0003909DED60
:10454000020BB1E69DED0E0B53EC192B51EC100B49
:10455000FBF744FF9FED260BCDE9080153EC102B30
:104560009DED080B51EC100BFBF73EFF9FED221B5E
:1045700053EC112BFBF735FF9DED081B53EC112B72
:10458000FBF732FF9FED1E1B53EC112B3CE08CE040
:10459000FFFF1F00FFFF0F00000000000000F03FC2
:1045A0000000F03F0000F07F0000404301FCFFFFEF
:1045B000000000000000F07F00000000000000008C
:1045C000DE25000000000000000000000000008068
:1045D000000000000000F0FF000000000000F0BF3D
:1045E0000000E0410000F043FFFFEF3F000000004B
:1045F000000000000000D03F555555555555D53F9A
:10460000000000000000E03FFBF7EBFE9DED080B13
:1046100041EC1A0B53EC102B51EC100BFBF7E4FEA2
:1046200053EC1A2BFBF7E0FE41EC1A0B9FEDFE0B4F
:1046300053EC102B9DED080B51EC100BFBF7D4FE47
:1046400041EC1B0B9FEDFA0B51EC1A0B53EC102BAA
:10465000FBF7CAFE41EC1A0B9FEDF70B53EC102B46
:104660009DED080B51EC100BFBF7BEFE53EC1A2B23
:10467000FBF7B4FE41EC1A0B51EC1B0B53EC1A2B5D
:10468000FBF70BFE0690CDE906519DED060B53ECB2
:104690001B2B51EC100BFBF7A1FE53EC1A2BFBF775
:1046A000A0FE41EC100B00F0A1B90020B6F5801F70
:1046B0000EDA9FEDE30B53EC102B9DED0E0B51EC3E
:1046C000100BFBF791FECDE90E016FF034000E46A2
:1046D00000EB2650A0F2FF37C6F31300DA4940F092
:1046E0007F6646F040568842D8BF002408DDD7498F
:1046F0008142C8BF012403DC0024A6F580167F1C7C
:10470000D348784400EBC4000F9690ED00CB9DEDAC
:104710000E0B53EC1C2B51EC100BFBF75FFE9DEDC9
:104720000E0B41EC1B0B53EC1C2B51EC100BFBF74D
:10473000B4FD41EC100B51EC190B53EC102BFBF7B3
:10474000C5FE41EC1D0B51EC1B0B53EC1D2BFBF775
:104750004BFE41EC1A0BBF488DED10AB7844109521
:1047600090ED000B4FF0005040EA660000EB8440F3
:104770008DED080B00F5002009909DED080B53EC22
:104780001C2B51EC100BFBF729FE9DED0E1B53EC7F
:10479000112BFBF726FE41EC100B53EC102B9DED7B
:1047A000100B51EC100BFBF71FFE9DED080B41ECBD
:1047B0001C0B53EC102B9DED100B51EC100BFBF769
:1047C00013FE53EC1B2BFBF70CFE53EC1C2BFBF7DF
:1047D00005FE53EC1D2BFBF707FE41EC1C0B53ECC5
:1047E0001A2B51EC1A0BFBF7FFFD41EC1B0B9A48FF
:1047F0000621B0EE4B0AF0EE6B0A784400F0C5FBE0
:10480000B0EE401AF0EE601AB0EE41DAF0EE61DA86
:1048100053EC1B2B51EC1B0BFBF7E6FD53EC1D2B54
:10482000FBF7E2FD9DED100B41EC1B0B53EC1A2B3B
:1048300051EC100BFBF731FD53EC1C2BFBF7D4FDB7
:1048400053EC1B2BFBF729FD9DED100B41EC1B0BD3
:1048500053EC102B51EC100BFBF7C6FD41EC1D0B7C
:104860009FED7FEB53EC1E2BFBF717FD53EC1B2B3F
:10487000FBF713FD0890CDE908519DED080B53ECB3
:104880001E2B51EC100BFBF7A9FD53EC1D2BFBF776
:10489000A5FD53EC1B2BFBF7A4FD9DED080B41EC94
:1048A0001D0B53EC102B9DED100B51EC100BFBF777
:1048B0009BFD41EC1B0B53EC1A2B51EC1D0BFBF732
:1048C00093FD9DED080B41EC1A0B53EC102B51ECB2
:1048D0001C0BFBF789FD53EC1A2BFBF7DEFC41ECBC
:1048E0001A0B51EC1B0B53EC1A2BFBF7D6FC0C905C
:1048F000CDE90C519DED0C0B53EC1B2B51EC100B27
:10490000FBF76CFD53EC1A2BFBF76BFD41EC1B0B1B
:104910009FED550B53EC102B9DED0C0B51EC100B38
:10492000FBF762FD41EC1A0B9FED510B51EC1B0B99
:1049300053EC102BFBF758FD41EC1B0B9FED4E0B7E
:1049400053EC102B9DED0C0B51EC100BFBF74CFDB9
:1049500053EC1B2BFBF7A1FC41EC100B48487844AF
:1049600000EBC40090ED001B51EC100B53EC112B2D
:10497000FBF793FC41EC1B0B3846FBF75DFFCDE9E1
:10498000080153EC1B2B51EC1A0BFBF786FC41EC96
:10499000100B3C48784400EBC40090ED00CB51EC88
:1049A000100B53EC1C2BFBF778FC9DED081B53EC14
:1049B000112BFBF772FC0690CDE906519DED080B1B
:1049C00053EC102B9DED060B51EC100BFBF706FD85
:1049D00053EC1C2BFBF702FD53EC1A2BFBF7FEFCF0
:1049E00053EC1B2BFBF7FDFC41EC100B9DED261B44
:1049F00053EC102B8DED001B00959DED260B51EC1B
:104A0000100BFBF7F1FC9DED000B41EC1A0B53EC86
:104A1000102B9DED260B51EC100BFBF7DFFC9DEDF1
:104A2000061B53EC112B2FE0000000604715F73FE9
:104A3000FE822B654715F73F44DF5DF80BAE543E11
:104A400000000000000040438E9803007AB60B007F
:104A50005A21000088210000922000000000000080
:104A60000000000000000840000000E009C7EE3F21
:104A7000FD033ADC09C7EE3FF5015B14E02F3EBEB3
:104A80001E1F0000D81E0000FBF7AEFC53EC1A2BD3
:104A9000FBF703FC9DED060B41EC1A0B53EC102BBE
:104AA0009DED000B51EC100BFBF79EFCCDE90C01CA
:104AB0009DED0C0B51EC1A0B53EC102BFBF7EDFB9F
:104AC000CDE902010C46AA498C422FDB611A08434A
:104AD00018D19DED0C0B53EC102B9DED020B51ECFE
:104AE000100BFBF77BFC41EC1B0B9FEDA30B51EC78
:104AF0001A0B53EC102BFBF7D0FB53EC1B2BFBF7E3
:104B0000C5FE2DD2022000F0E1FB00F0F1FA10EE1C
:104B1000901A18EE900A8DED020B8DED008B61F36B
:104B20001E0003909DED020BFFF7BEBB944A24F0DC
:104B30000041914214D39349214408437FF4EFACE0
:104B40009DED0C0B53EC102B9DED020B51EC100B5B
:104B5000FBF744FC53EC1A2BFBF798FE7FF6DFAC17
:104B600024F000408849894A002601EB2051824206
:104B70002BDA481C4FF4801121FA00F02044844ABB
:104B8000C0F30A517A44A1F2FF3192ED000B814A41
:104B90008DED080BCA4020EA0202C0F3130040F476
:104BA0008010C1F1140120FA01F60992002CB8BF5F
:104BB00076429DED080B53EC102B9DED0C0B51EC48
:104BC000100BFBF70BFCCDE90C019DED0C0B51EC30
:104BD0001A0B53EC102BFBF760FB9FED6F0B08904B
:104BE000CDE9085153EC102B9DED080B51EC100B47
:104BF000FBF7FAFB41EC1B0B9FED690B53EC102B01
:104C00009DED080B51EC100BFBF7EEFB9DED0C0B33
:104C100041EC1C0B53EC102B9DED080B51EC100BD1
:104C2000FBF7DCFB53EC1A2BFBF7DBFB9FED5E1B6A
:104C300053EC112BFBF7D8FB53EC1C2BFBF72DFB94
:104C400041EC1A0B51EC1B0B53EC1A2BFBF725FB19
:104C5000CDE902019DED020B53EC1B2B51EC100B27
:104C6000FBF7BCFB53EC1A2BFBF7BBFB9DED020BD8
:104C700041EC1A0B53EC102B51EC100BFBF7B4FB6F
:104C8000CDE908014A489DED080B0521784400F064
:104C90007CF99DED081B51EC100B53EC112BFBF72D
:104CA000A3FB9DED021B53EC112BFBF79AFBCDE907
:104CB00006019DED020B53EC1A2B51EC100BFBF788
:104CC00093FB53EC1A2BFBF7E8FA9FED3B0B41ECFF
:104CD0001A0B53EC102B9DED060B51EC100BFBF750
:104CE0007DFB9DED060B41EC1B0B53EC102B9DED5A
:104CF000020B51EC100BFBF777FB53EC1B2BFBF774
:104D0000E5FB53EC1A2BFBF769FB9DED021B53EC03
:104D1000112BFBF763FB53EC192BFBF762FBCDE97F
:104D2000020101EB065001150029C8BF039015DCF4
:104D30009DED020B324651EC100BFBF766FDFFF7C1
:104D400029F9042808BF00F0E3F932469DED020B73
:104D500051EC100BFBF759FDCDE902019DED020B63
:104D600051EC180B53EC102BFBF73EFBFFF73ABB53
:104D70000000904000000000FE822B654715973C24
:104D800000CC904000346F3F01FCFFFF0000E03F8B
:104D9000601D0000FFFF0F0000000000432EE63FF3
:104DA000396CA80C615C20BEEF39FAFE422EE63F5A
:104DB000301C000000000000000000000000004067
:104DC00000B510EE101A2DED028B81B0524A6846E4
:104DD000B2EB410F2ED94FF0E640B0EB410F94BF3C
:104DE00000204FF0FF3000900098B0EE408A00287D
:104DF0006ADB10F0010F4BD068EE080A9FED471AEE
:104E00009FED470A00EE810A9FED461A10F0020F4F
:104E100000EE801AB7EE000A00EE810A02BF01B070
:104E2000BDEC028B00BD00BF01B0B1EE400ABDEC8D
:104E3000028B00BD3C4B21F00042934241D911F05E
:104E4000004FDFED3A0A20EE201ADFED390A19BFD4
:104E500031EE601A71EE200A31EE201A71EE600A0E
:104E6000BDEEE01A11EE100A9FED321A00F00300B9
:104E700000EEC10A9FED301A009000EEC10A9FEDCE
:104E80002F1A00EEC10A9FED2E1A00EEC10AABE701
:104E900028EE080A9FED2B1ADFED2B0A10F0020F07
:104EA00040EE410A9FED291A00EE201A61EE000A39
:104EB000B0EE480A08EE200AB6D101B0BDEC028B74
:104EC00000BD00F049F98FE718EE100A4000B0F17C
:104ED0007F4F0DD218EE100AFFF774F8042808BFB0
:104EE00000F032F9B0EE480A01B0BDEC028B00BD13
:104EF00009D1012000F0EAF901B0BDEC028B5DF8A8
:104F000004EB00F019B901B0B0EE480ABDEC028B19
:104F10005DF804EB00F00CB9B61F927EB93AB2BA54
:104F2000CA9F2A3DDDFFFFBE490E494683F9223F55
:104F30000000004B0000C93F00A0FD390020A23353
:104F40001A61342C336D4C39DA82083CA0AA2ABE8F
:104F500010B52DED028BB1EEC08A18EE100A20F0CC
:104F60000040C0F1FF40C00F0AD010EE100A20F040
:104F70000040C0F1FF40C00F04BF012000F0A6F9BF
:104F8000B0EE480ABDEC028B10BD70B504462DEDA5
:104F9000028B4D1E00EBC500B0EE408AF0EE608A39
:104FA00090ED000B35F0060017D053EC182B51ECA8
:104FB000100BFBF719FA41EC100B6D1E04EBC5004A
:104FC00090ED001B51EC100B53EC112BFBF765F926
:104FD00041EC100B35F00600E7D1022D36D0042D40
:104FE0001CD0062D1CBFBDEC028B70BD53EC182BE2
:104FF00051EC100BFBF7F8F994ED0A1B53EC112B55
:10500000FBF74BF953EC182BFBF7EEF994ED081B6B
:1050100053EC112BFBF741F941EC100B53EC182B1F
:1050200051EC100BFBF7E0F994ED061B53EC112B40
:10503000FBF733F953EC182BFBF7D6F994ED040B7F
:1050400053EC102BFBF729F941EC100B53EC182B08
:1050500051EC100BFBF7C8F994ED021B53EC112B2C
:10506000FBF71BF953EC182BFBF7BEF994ED001B73
:1050700053EC112BFBF711F9BDEC028B41EC100B3B
:1050800070BD0000000000009FED070B10B553EC51
:10509000102B9FED070B51EC100BFBF717FA41ECAF
:1050A000100B10BD00000000000000000000000018
:1050B000000000000000F03F10B553EC112B51EC44
:1050C000100BFBF7EAF841EC100B10BD00000000DC
:1050D0009FED050B10B553EC102B51EC100BFBF7AB
:1050E000F5F941EC100B10BD0000000000000000BD
:1050F0009FED050B10B553EC102B51EC100BFBF78B
:1051000073F941EC100B10BD0000000000000070AE
:105110009FED050B10B553EC102B51EC100BFBF76A
:1051200063F941EC100B10BD0000000000000010FE
:1051300030EE000A70470000DFED020A80EEA00AA0
:1051400070470000000000009FED020A20EE000AF8
:1051500070470000000000102DE9F0014FF07F4281
:10516000B2EB410F9FBF4FF0FF310160BDE8F0018E
:1051700070474FF0004242EA0123C1F3C752783A28
:10518000551112F01F0C434CCCF120067C44C1F3A6
:10519000C752A2F178024FEA621204EB820254F87D
:1051A000254008BFD2E9015612D0556804FA0CF424
:1051B00025FA06F73C43976805FA0CF527FA06F836
:1051C000D26807FA0CFCF24045EA08054CEA0206F0
:1051D000A4FB034CA5FB0352A6FB03631D449D42A5
:1051E00034BF012600261319334416B1934202D965
:1051F00003E0934201D2012200E00022624402F166
:10520000200C9206DC0C42EA443200EE102A5B03CA
:10521000DFED210AF8EEC01A00EE103A4FEA9C1CAE
:1052200011F0004FB8EE400AC0F800C020EE201A7E
:1052300000EE105ADFED190AB8EE400A20EE200AFF
:1052400071EE810A70EE800A10EE902A02F500627B
:105250006FF30B0200EE902A70EEE11A31EEC11AE4
:10526000DFED101A30EE411A9FED0D0A20EE800A94
:1052700001EE210A9FED0C1A00EE810A04BFBDE881
:10528000F0017047CCF180510160BDE8F001B1EE52
:10529000400A704760170000000000360000802CB4
:1052A00022AAFD29DB0FC92F0000C92F02E008C880
:1052B000121F08C1002AFAD170477047002001E090
:1052C00001C1121F002AFBD170470000014908608C
:1052D00070470000340000202DE9FF5F82B00021FC
:1052E000DDE90430020DDDF840B0034318D044F688
:1052F0001050A2F2FF3242431514119801281FD01A
:10530000A5EB0B00401C5FEA000A4FF000064E4F71
:10531000DFF83891B046504615D5CAF1000413E0C5
:10532000119801244AA3012801D16FEA0B010298C8
:10533000119AC0E90031C0E9024206B0BDE8F09F11
:10534000CBF10000DFE704460021404A491842EB58
:105350000450CDE9001012E0E00707D032463B468A
:1053600040464946FBF740F88046894632463B4670
:1053700010461946FBF738F806460F466410002C15
:10538000EAD1DDE90401DDE90023BAF1000F06DA14
:10539000FBF72AF842464B46FBF726F805E0FBF7F9
:1053A00095F842464B46FBF791F804460E4600221C
:1053B000284BFBF76BFA03D84FF0FF30014607E0AC
:1053C0000022254B20463146FAF767FFFBF745FAE6
:1053D000102409E0002C0ADB0A220023FAF71AFF46
:1053E000039B30321A55641E50EA0102F2D1641C4C
:1053F000039AC4F111031444119A012A03D0012223
:1054000008430DD10AE0084304D000204FF0110BEF
:10541000119072E7A3EB0B056D1E0DE05B4504DDFB
:105420004FF0000205F1010504E003DA4FF000023D
:10543000A5F10105002AECD002981199C0E90231CA
:10544000C0E9004579E70000000014400000F03F8B
:10545000300000000000F0430000E03F2DE9FF4F66
:1054600095B09A46884606460025EEE1252877D174
:1054700000242746F94A0121039400E0044316F86A
:10548000013F203B01FA03F01042F7D130782A287F
:1054900011D06FF02F033078A0F13002092A16D80E
:1054A000039A44F0020402EB820203EB420210442E
:1054B000761C0390EFE758F8042B0392002A03DAD6
:1054C000504244F40054039044F00204761C3078B7
:1054D0002E2816D116F8010F44F004042A280DD006
:1054E0006FF02F023078A0F13003092B09D807EBB9
:1054F000870302EB4303C718761CF3E758F8047BD5
:10550000761C30786C280FD006DC4C2817D0682821
:105510000DD06A2814D104E0742810D07A280FD155
:105520000DE044F400140AE044F4801401E044F473
:1055300040147278824202D104F58014761C761CE5
:10554000307866280BD013DC582877D009DC002887
:1055500075D04528F6D04628F4D047281AD193E1D3
:1055600018E0632835D0642879D0652812D18BE102
:10557000702873D008DC6728F1D069286FD06E28B6
:105580000DD06F2806D1ACE073282CD0752874D0CC
:10559000782853D05246179990476D1C54E1C4F3B4
:1055A0000250022809D003280DD0D8F80010042892
:1055B0000DD00D6008F1040846E1D8F80010EA1794
:1055C000C1E90052F6E7D8F800100D80F2E70D703F
:1055D000F0E718F8041B8DF8001000208DF801008A
:1055E000EB46012003E058F804BB4FF0FF306107A1
:1055F0004FF0000102D40DE009F101018946B942E2
:105600000FDA8145F8DB1BF809100029F4D108E016
:1056100009F1010189468142FADB1BF809100029D2
:10562000F6D103985346A0EB090721463846179A4E
:1056300000F080FA284400EB090507E044E008E1A7
:105640000DE01BF8010B524617999047B9F101097B
:10565000F7D2534621463846179AF2E039E00A213C
:10566000C4F302524FF0000B0091022A06D058F802
:10567000040BC117032A09D00AE023E008F1070050
:1056800020F00702F2E80201904605E000B2C117DF
:10569000042A01D140B2C117002906DA0A460021C6
:1056A000404261EB02012D2202E0220504D52B22AB
:1056B0008DF80420012203E0E20701D02022F7E761
:1056C000914657E00A2100E010214FF0000B0091B5
:1056D0000BE010214FF0000B44F004040827009168
:1056E00003E008204FF0000B0090C4F30252022A9E
:1056F00005D058F8040B0021032A08D008E008F16F
:10570000070020F00702F2E80201904603E080B2B1
:10571000042A00D1C0B24FF0000922072AD53278FE
:10572000702A07D0DDF800C08CF0100C5CEA0B0C7E
:1057300005D00EE040228DF80420012208E050EA56
:10574000010306D030238DF804308DF805200222A5
:105750009146009B83F0080353EA0B030AD150EAF9
:10576000010201D1620705D530228DF804204FF0E7
:1057700001097F1E3278582A04D039A20C920CAA53
:1057800002920BE03BA2F9E75B46009AFAF742FD72
:105790000C9B9B5C029A521E0292137050EA01020B
:1057A000F2D1029804A9081A00F1200B600702D573
:1057B00024F4803400E001275F4502DDA7EB0B00F5
:1057C00000E0002000EB0B01009003984944401AD0
:1057D0000390E00306D453462146179A039800F03D
:1057E000A9F90544002706E001A85246C05D1799B3
:1057F00090476D1C7F1C4F45F6DBE0030CD55346EC
:105800002146179A039800F095F9054404E03020EA
:105810005246179990476D1C0099481E0090002928
:10582000F5DC08E00298029952460078491C029182
:10583000179990476D1CBBF10001ABF1010BF1DC36
:105840005BE100F065F90544761C307800287FF4B0
:105850000DAE19B02846BDE8F08F00000928010000
:1058600030313233343536373839616263646566D6
:105870000000000030313233343536373839414298
:105880004344454600000000600700D4062708F1A5
:10589000070020F00700F0E80223804603F0004CE8
:1058A0005FEA0C0001D097A009E0200501D596A081
:1058B00005E0E00701D095A001E0AFF24C001390A5
:1058C000307823F0004365280CD006DC452809D049
:1058D00046281DD047287FD13BE0662818D067288E
:1058E0007AD136E00021112F01DB112000E0781C75
:1058F000CDE9000104A90CA8FFF7EEFCDDE90D01DC
:105900000C9A4FF0000B07F10109109200914EE044
:105910004FF000400097CDE9011004A90CA8FFF753
:10592000DBFCDDE90D020C9B0F994FF0000B91465B
:105930001093009211B9791C00EB0109B7EB090033
:1059400003D4C0F1FF3B07F10109A9EB0700019067
:1059500042E0012F00DA01270021112F01DD112083
:1059600000E03846CDE9000104A90CA8FFF7B4FC1B
:10597000DDE90D010C9A00914FF0000BB946109231
:1059800021070FD4009A4A4503DA914601E0A9F1B4
:105990000109B9F1010F05DD109AA9F10101515C6E
:1059A0003029F4D0B84202DA10F1040F03DA0121F1
:1059B000CDE9011010E0002803DC8344A9EB0001CD
:1059C00002E0411C494500DD8946A0EB0B00401C6C
:1059D00001904FF000400290200705D401984845FF
:1059E00002DB4FF0FF30019000208DF84B00029851
:1059F0000DF14B07B0F1004F25D002200C902B2069
:105A00000D90029800280CDA404202902D200D9053
:105A100007E00A210298FAF71DFE3031029007F8DC
:105A2000011D0C99481E0C900029F2DC02980028F8
:105A3000EFD1791E0D980870307800F0200040F00A
:105A4000450007F8020D11A8C01BC01D0290139855
:105A5000007800B1012000EB0901019801EBE07131
:105A6000029801440398401A401E0390E00306D4B4
:105A700053462146179A039800F05CF805441398A2
:105A8000007818B15246179990476D1CE00323D552
:105A900053462146179A039800F04CF805441BE042
:105AA000BBF1000F07DB0098584504DD10981799EB
:105AB00010F80B0001E017993020524690470198EA
:105AC0000BF1010B401E05F10105019004D12E20C0
:105AD0005246179990476D1CB9F10001A9F10109CF
