:020000040800F2
:10000000E8060020790200085F1500089F14000828
:100010005D1500087F030008251800080000000097
:10002000000000000000000000000000A51700080C
:10003000810300080000000061150008A7170008F0
:10004000930200089302000893020008930200083C
:10005000930200089302000893020008930200082C
:10006000930200089302000893020008930200081C
:10007000930200089302000893020008930200080C
:100080009302000800000000930200089302000899
:1000900093020008930200089302000893020008EC
:1000A00093020008930200089302000893020008DC
:1000B00093020008930200089302000893020008CC
:1000C00093020008930200089302000893020008BC
:1000D00093020008930200089302000893020008AC
:1000E000930200089302000893020008930200089C
:1000F0009302000893020008930200080000000029
:1001000000000000930200080000000093020008B5
:100110009302000800000000930200089302000808
:10012000930200089302000893020008930200085B
:100130009302000800000000000000009302000885
:100140009302000893020008000000000000000075
:10015000000000000000000000000000000000009F
:1001600000000000000000000000000093020008F2
:1001700093020008000000000000000000000000E2
:1001800000000000930200080000000000000000D2
:10019000000000000000000000000000000000005F
:1001A0000000000000000000930200089302000815
:1001B0009302000893020008930200080000000068
:1001C0000000000093020008000000000000000092
:1001D000930200089302000800F002F800F03CF8D7
:1001E0000AA090E8000C82448344AAF10107DA4592
:1001F00001D100F031F8AFF2090EBAE80F0013F0A8
:10020000010F18BFFB1A43F0010318474017000005
:1002100060170000103A24BF78C878C1FAD8520796
:1002200024BF30C830C144BF04680C607047000070
:100230000023002400250026103A28BF78C1FBD8EF
:10024000520728BF30C148BF0B6070471FB501F08F
:100250006FFB1FBD10B510BD00F058F81146FFF739
:10026000F5FF01F05AFB00F076F803B4FFF7F2FF58
:1002700003BC00F07DF800000948804709480047AA
:10028000FEE7FEE7FEE7FEE7FEE7FEE7FEE7FEE746
:10029000FEE7FEE704480549054A064B70470000A3
:1002A00015180008D9010008E8000020E806002021
:1002B000E8020020E80200204FF0000200B51346DB
:1002C00094469646203922BFA0E80C50A0E80C5076
:1002D000B1F12001BFF4F7AF090728BFA0E80C5027
:1002E00048BF0CC05DF804EB890028BF40F8042B20
:1002F00008BF704748BF20F8022B11F0804F18BF8D
:1003000000F8012B7047704770477047754600F042
:100310002BF8AE4605006946534620F00700854697
:1003200018B020B5FFF7B6FFBDE820404FF000063B
:100330004FF000074FF000084FF0000B21F00701CD
:10034000AC46ACE8C009ACE8C009ACE8C009ACE810
:10035000C0098D46704710B50446AFF300802046B3
:10036000BDE81040FFF781BF0048704784000020BF
:1003700001491820ABBEFEE7260002007047FEE7E9
:10038000704772B6FEE700002DE9FC4FDFF8A0A130
:10039000002301250AF1040B03244FF00F0C0BF18D
:1003A000040EBDE005FA03F632406FD04F68012F0E
:1003B00005D0022F03D0112F01D0122F17D1D0F862
:1003C00008905F0004FA07F829EA08090097D1F8B5
:1003D0000C8008FA07F848EA0908C0F8088047685E
:1003E000B7430E79C6F300169E403E434660C6688A
:1003F0004FEA430804FA08F7BE4301978F6807FAEB
:1004000008F73743C7604E68022E01D0122E13D171
:10041000DE0800EB86060096366A5F07FF0E0CFAD0
:1004200007F926EA0906D1F8109009FA07F949EA0E
:100430000609009EC6F820900668019FBE430F790A
:1004400007F0030707FA08F7374307604E68F6001E
:1004500065D5384E376E47F001073766366E23F0A4
:10046000030706F001060096334E3E44B146B668D7
:100470009F074FEA17780CFA08F7BE43B0F1904F88
:1004800005D02E4FB84204D1012717E047E00027DE
:1004900014E02B4FB84201D102270FE0294FB84298
:1004A00001D103270AE0284FB84201D1042705E013
:1004B000264FB84201D1052700E0062707FA08F7C2
:1004C0003743C9F80870DAF800605746D1F804805D
:1004D00096435FEAC83800D516433E60DBF80060FB
:1004E0005F46D1F8048096435FEA883800D516430A
:1004F0003E60DEF800607746D1F8048096435FEAFC
:10050000C82800D516433E60094F0C373E68D1F825
:10051000048096435FEA882800D516433E605B1C42
:100520000A6832FA03F67FF43DAFBDE8FC8F0000A5
:100530000004014000100240000001400004004897
:1005400000080048000C0048001000480014004853
:100550000AB181617047816270470000014880687C
:100560007047000000000020024881684268114482
:10057000816070470000002010B50024032000F0C7
:1005800065F80F2000F008F808B1012401E000F040
:1005900025F8204610BD000070B50E4E054600241B
:1005A000706898B14FF47A71B1FBF0F00A490968AC
:1005B000B1FBF0F000F05FFF40B9102D06D2002231
:1005C0002946501E00F022F8356000E00124204644
:1005D00070BD0000000000200C0000200A4882B01E
:1005E000016E41F001010166016E01F0010100910F
:1005F000816D41F080518165806D00F080500090E8
:1006000002B000F093B8000000100240F0B40E4BAE
:100610001B680C46C3F30223C3F10705042D00D960
:100620000425191D072901D2002300E0DB1E012645
:1006300006FA05F1491E214099409E40761E16405B
:100640003143F0BC01F03CB90CED00E0064900F08C
:10065000070208684FF6FF03184040EA0220034AE9
:1006600010430860704700000CED00E00000FA0540
:100670002B492C4B0A6832214A432B4940B1B0F533
:10068000007F086829D020F4C06040F480602CE02E
:100690000868C0F34120022804D051F8800F20F4EC
:1006A000807022E0D1F8800020F48070C1F88000D2
:1006B000086820F4C06040F400700860B2FBF3F0FA
:1006C000401C00E0401E4A69520501D50028F9D1BE
:1006D000486940050AD503207047C0F3412002282D
:1006E00006D051F8800F40F48070086000207047F9
:1006F000D1F8800040F48070C1F88000086820F4D0
:10070000C06040F400700860B2FBF3F0401C00E0F1
:10071000401E4A695205DBD50028F9D1D8E7000010
:100720000C00002040420F00007000400248816829
:1007300041F4804181607047007000402DE9F0472E
:100740000E4605004FF0000725D0DFF8AC81D8F841
:10075000000000F00F00B0420CD2D8F8001021F0D9
:100760000F013143C8F80010D8F8000000F00F0066
:10077000B04210D12968614CC80741F2883A5AD07A
:100780006868DFF87C91032808D0022820682DD003
:10079000400500282CDB0120BDE8F087206880019F
:1007A000F9D5E06800F00302E068C0F30310401CD4
:1007B000032A19D0534A00BFB2FBF0F0E268C2F33B
:1007C00006225043E268C2F34162521C5200B0FB61
:1007D000F2F0484517D9A06810F0F00F0CD0880748
:1007E00011D5A86840B10EE0474AE5E78003D0E79D
:1007F00000F092F8484506D9A06820F0F00040F0DB
:100800008000A0608027A068696820F0030008438A
:10081000A060FFF7A3FE814606E000BFFFF79EFE43
:10082000A0EB090151453AD8A068696800F00C00B6
:10083000B0EB810FF2D12868810714D5400703D5AA
:10084000A06840F4E060A0602878000705D5A068A3
:1008500020F4605040F4E060A060A068A96820F037
:10086000F000084304E0802F03D1A06820F0F000DE
:10087000A060D8F80010404601F00F01B14216D92F
:10088000016821F00F0131430160FFF767FE074661
:1008900007E000BFFFF762FEC11B514501D90320ED
:1008A0007AE7D8F8000000F00F00B042F2D12878C3
:1008B000400705D5A068E96820F4E0600843A0601F
:1008C0002878000706D5A068296920F4605040EA1E
:1008D000C100A06000F020F8A1680C4AC1F3031128
:1008E000515C01F01F01C8400949086009480068CF
:1008F000BDE8F047FFF750BE002002400010024064
:1009000000B4C4040024F40000127A003A1900086C
:100910000C00002000000020184910B58868C0F3C2
:1009200081021748012A0BD08A684310C2F3810262
:10093000022A06D08A68C2F38102032A03D000206B
:1009400010BD184610BDCA6802F00304CA68C2F39D
:100950000312521C032C02D0B0FBF2F001E0B3FBF7
:10096000F2F0CA68C968C2F306225043C1F341617C
:10097000491C4900B0FBF1F010BD0000001002401E
:100980000024F4002DE9F84304007AD02078FA4DD1
:10099000C00747D0A868E96800F00C0001F0030127
:1009A0000C2802D0082817D001E0032914D0606871
:1009B000B0F5803F17D0B0F5A02F286817D020F4ED
:1009C00080302860286820F4802028606068E0B1CA
:1009D000FFF7C4FD064614E02868800322D560684E
:1009E0000028D2D01EE0286840F48030EDE740F4C3
:1009F00080202860F7E700BFFFF7B0FD801B642868
:100A000070D828688003F7D50CE0FFF7A7FD0646ED
:100A100005E000BFFFF7A2FD801B6428F0D828681E
:100A20008003F7D4207880074CD5A868E96800F0E7
:100A30000C0001F003010C2802D004280DD001E0C5
:100A400002290AD0E068002828682BD040F4807082
:100A50002860FFF783FD064619E02868400502D5A7
:100A6000E068002891D06868217C20F0FE4040EAD0
:100A700001606860C1480068FFF78EFD002800D162
:100A800020E076E1FFF76AFD801B0228B8D82868CD
:100A90004005F7D56868217C20F0FE4040EA0160FF
:100AA00068600FE020F480702860FFF757FD06466D
:100AB00005E000BFFFF752FD801B0228A0D8286880
:100AC0004005F7D42078000729D560690028D5F8BB
:100AD000940013D040F00100C5F89400FFF73EFDEC
:100AE000064606E090E000BFFFF738FD801B0228B5
:100AF00086D8D5F894008007F6D510E020F00100E4
:100B0000C5F89400FFF72AFD064604E0FFF726FD2E
:100B1000801B022878D8D5F894008007F6D4207876
:100B2000400761D5A86D0026C00008D4A86D40F02C
:100B30008050A865A86D012600F080500090904874
:100B40000168C90511D40168804641F480710160D3
:100B5000FFF704FD074604E0FFF700FDC01B022875
:100B600052D8D8F80000C005F6D5A068012815D0E5
:100B70000528D5F8900016D020F00100C5F89000A7
:100B8000D5F8900020F00400C5F89000A06841F26C
:100B90008838B8B1FFF7E2FC07460EE0D5F89000C0
:100BA00040F00100F0E740F00400C5F89000F5E7E0
:100BB000FFF7D4FCC11B414526D8D5F8900080072B
:100BC000F6D50CE0FFF7CAFC074604E0FFF7C6FCC9
:100BD000C11B414518D8D5F890008007F6D41EB146
:100BE000A86D20F08050A8652078800629D5A069DE
:100BF0000028D5F8980013D040F00100C5F89800FF
:100C0000FFF7ACFC064606E077E000BFFFF7A6FC66
:100C1000801B022877D8D5F898008007F6D510E019
:100C200020F00100C5F89800FFF798FC064604E0A4
:100C3000FFF794FC801B022865D8D5F89800800740
:100C4000F6D4E069F0B3A968C1F38101032961D04A
:100C50000228286820F0807028600BD0E86820F017
:100C60000300E860E86847490840E860FFF776FC61
:100C700004464BE0FFF772FC064604E0FFF76EFC0B
:100C8000801B02283FD828688001F7D4F4E90801C6
:100C90006FF00F0202EB01110843218A5204490848
:100CA00002EB4151A26841EA02210843217D4FF045
:100CB0007E42490802EB41610843217B40EAC16062
:100CC000E96800E062E0304A11400843E8602868C3
:100CD00040F080702860E86840F08070E860FFF7BE
:100CE0003DFC044605E000BFFFF738FC001B02286E
:100CF00009D828688001F7D548E004E0FFF72EFC0A
:100D0000001B022802D90320BDE8F883286880016F
:100D1000F4D43BE00128F7D0E868226A00F0030130
:100D2000914226D1616A00F0F00209011039914226
:100D30001FD1A26A00F4FE41B1EB022F19D194F841
:100D40002C2000F07841B1EBC26F12D1218E00F45B
:100D5000C00249084905A1F50011914209D194F852
:100D6000341000F0C06049084906A1F100718142C9
:100D70000CD00120C8E70000001002400000002055
:100D800000700040FFFFEEFE0C809F010020BBE7DB
:100D900070B5040009D0606A002540B12561656125
:100DA000A56294F85D0040B10CE0012070BD606860
:100DB000B0F5827FF4D0E561F2E784F85C5020461C
:100DC00000F05CF8022084F85D002068016821F0E2
:100DD00040010160E1684FF4E062914201D90020D6
:100DE00001E04FF48050B1F5706F02D0914200D015
:100DF000A562A188228901F4827102F404421143A0
:100E0000227C02F002021143227D02F00102114312
:100E1000228B02F400721143227F02F03802114348
:100E200094F8202002F080021143228D02F4005237
:100E3000114322681160A169042202EA114194F869
:100E4000242000F4805002F01002114394F8342062
:100E500002F008021143A28902F4706211430143B7
:100E6000206841602068C16921F40061C161256684
:100E7000012084F85D00002070BD000070B586B0D0
:100E8000044614216846FFF717FA1B492068884278
:100E900030D11A48016E41F480510166016E01F4AF
:100EA00080510591C16C41F00101C164C16C01F038
:100EB00001010591C16C41F00201C164C06C0225C1
:100EC00000F002000590C02000900024CDE90154FC
:100ED0000526CDE9034669464FF09040FFF754FAE6
:100EE00008200090CDE90154CDE903466946044845
:100EF000FFF74AFA06B070BD003001400010024012
:100F0000000400482DE9F84F044640680025984643
:100F100016460F464FF0040BB0F5827F01D1A06852
:100F200088B194F85C00012818D0012084F85C0096
:100F3000FFF714FB814694F85D004FF0000A01288A
:100F40000ED0022599E084F85DB013460A4620468B
:100F5000CDF8008000F05EF9BDE8F88F0220FBE7D5
:100F6000002F77D0002E75D084F85DB0C4F860A053
:100F70002764A4F84460A4F84660C4F838A0A4F834
:100F80003CA0A4F83EA0C4F84CA0C4F850A0E0686F
:100F90004FF4E06188422068426802D922F480520E
:100FA00001E042F480524260A068B0F5004F09D1E0
:100FB0002068026822F0400202602068026822F481
:100FC0008042026020680268520603D4026842F040
:100FD00040020260E06888421DD93FE020688168D5
:100FE000C9070BD0017B206C0170206C401C206471
:100FF000B4F84600401EA4F846000CE0FFF7AEFA35
:10100000A0EB0901414503D3B8F1FF3F03D03BE01A
:10101000B8F1000F38D0B4F846000028DED121E046
:1010200020688168C9070BD0C068216C0880206CDB
:10103000801C2064B4F84600401EA4F846000DE071
:10104000FFF78CFAA0EB0901414504D3B8F1FF3F4B
:1010500004D019E010E0B8F1000F15D0B4F8460044
:101060000028DDD14A464146204600F07AFA08B110
:1010700020202066206E00B10125012084F85D004B
:1010800084F85CA0284667E70325F6E72DE9F84FCA
:10109000044690F85C0000271D4616468946012844
:1010A0000DD04FF0010B84F85CB0FFF757FA804683
:1010B00094F85D00BA46012804D00227A4E002207B
:1010C000BDE8F88FB9F1000F74D0002E72D0032064
:1010D00084F85D00C4F860A0C4F83890A687E6875D
:1010E000C4F840A0A4F844A0A4F846A0C4F850A0B6
:1010F000C4F84CA0A068B0F5004F09D12068016881
:1011000021F0400101602068016841F480410160E4
:1011100020680168490603D4016841F0400101607C
:10112000E068B0F5E06F606823D908B1012E1CD1EA
:10113000A06B21680088C86006E020688168890784
:1011400009D5A16B0988C160A06B801CA063E08FEA
:10115000401EE08709E0FFF701FAA0EB0800A84273
:1011600002D3681C01D046E0ADB3E08F0028E4D183
:1011700036E008B1012E30D1E08F0128A06B03D9F1
:1011800021680088C8600FE021680078087314E0C7
:10119000E08722E020688168890714D5E18F012962
:1011A000A16B08D90988C160A06B801CA063E08F87
:1011B000801EEDE727E009780173A06B401CA06357
:1011C000E08F401EE4E7FFF7C9F9A0EB0800A84252
:1011D00002D3681C01D00EE06DB1E08F0028D9D198
:1011E00042462946204600F0F6F908B12020206644
:1011F000A06810B105E0032706E02068C168806898
:101200000090206E00B1012784F85DB084F85CA0E6
:10121000384655E72DE9F05F044690F85C0000275A
:101220000A9E1D4692468B464FF0010901280ED0BA
:10123000012084F85C00FFF791F9804694F85D0086
:10124000616801280CD0B1F5827F07D102E002204D
:10125000BDE8F09FA16809B9042801D0022700E188
:10126000BBF1000F24D0BAF1000F21D005B394F8E0
:101270005D00042802D0052084F85D00002020666F
:10128000C4F840A0A4F84650A4F84450C4F838B0BC
:10129000E587A587E0642065E0684FF4E061884257
:1012A00001D8012D06D92068426822F4805205E059
:1012B0000127D6E02068426842F4805242602068EC
:1012C0000268520603D4026842F040020260E068FD
:1012D0008842606845D908B1012D3AD1A06B2168D8
:1012E0000088C860A06B801CA063E08F401EE08770
:1012F0002FE02068816889070FD5E18F69B1B9F1C6
:10130000010F0AD1A16B0988C160A06B801CA0638A
:10131000E08F401EE0874FF0000920688168C90710
:101320000FD0B4F8461061B1C068216C0880206C01
:10133000801C2064B4F84600401EA4F846004FF01C
:101340000109FFF70BF9A0EB0800B04201D3701CB4
:1013500075D1E08F0028CCD1B4F846000028C8D160
:1013600076E008B1012D6CD1E08F0128A06B08D97F
:1013700021680088C860A06B801CA063E08F801E7D
:1013800007E0216800780873A06B401CA063E08F21
:10139000401EE08755E02068816889071AD5E18FF3
:1013A000C1B1B9F1010F15D1E18F0129A16B07D9A5
:1013B0000988C160A06B801CA063E08F801E06E0DE
:1013C00009780173A06B401CA063E08F401EE0878A
:1013D0004FF0000920688168C90728D0B4F846108A
:1013E00029B3B4F84610012914D9C068216C0880CB
:1013F000206C801C2064B4F84600801EA4F84600CF
:10140000B4F84600012810D82068416841F48051A2
:1014100041600AE0007B216C0870206C401C206455
:10142000B4F84600401EA4F846004FF00109FFF74B
:1014300095F8A0EB0800B04202D3701C01D018E070
:10144000BEB1E08F0028A6D1B4F846000028A2D192
:1014500042463146204600F0BEF810B10127202058
:101460002066012084F85D00002084F85C00384686
:10147000EEE60327F5E710B5401EB0F1807F01D3FB
:10148000012010BD4FF0E02460610F21601700F0D3
:1014900017FA0020A06107202061002010BDFEE7A0
:1014A00010B586B014216846FEF706FF1648C16CD9
:1014B00041F02001C164C16C01F020010591C16CB3
:1014C00041F00101C164C16C01F001010591C16CE1
:1014D00041F00201C164C06C4FF0904400F0020082
:1014E0000590002230212046FFF732F8302000908E
:1014F00001200190022002900020039069462046BE
:10150000FEF742FF06B010BD00100240124810B5B1
:10151000104901604FF48271416000214FF4E06294
:10152000C0E902120222026101224261520282617A
:101530002822C0E9072107224162C0E90A1201639B
:101540004163FFF725FC002803D0BDE81040FEF7FB
:1015500018BF10BD0030014014000020FEE7FEE778
:1015600070472DE9F843044640684FF482761546EB
:1015700089464FF400474FF48068B04209D1A06813
:10158000B84201D0404504D12068016821F04001F3
:1015900001604B46002280212046009500F0A6F80D
:1015A00080B96068B04214D1A068B84201D040450B
:1015B0000FD14B4600224FF4C0612046009500F049
:1015C0002FF830B1206E40F0200020660320BDE8E7
:1015D000F8830020FBE7F8B515460E460B4600924F
:1015E000044600224FF4C05100F01AF888B933467F
:1015F000002280212046009500F078F848B9334653
:1016000000224FF4C0612046009500F009F8002840
:1016100004D0206E40F0200020660320F8BD0000BA
:101620002DE9FC47994617460E4604460A9DFEF7EB
:1016300095FF411BA9EB0105FEF790FF80462A4864
:101640004FF4C06A0068C0EBC00000EB8000000DE2
:101650006843009040E0564502D10FB9007B0190ED
:10166000B9F1FF3F38D0FEF779FFA0EB0800A842A0
:1016700003D215B1009860B32CE02068416821F0D6
:10168000E00141606068B0F5827F0BD1A068B0F5E1
:10169000004F02D0B0F5806F04D12068016821F0BE
:1016A00040010160A06AB0F5005F09D120680168BF
:1016B00021F4005101602068016841F4005101608B
:1016C000012084F85D00002084F85C000320BDE860
:1016D000FC870025401E0090206881683140B94297
:1016E000B9D10020F3E700000C0000202DE9F843F9
:1016F0001E46914688460446089DFEF72FFF401B74
:10170000351AFEF72BFF074625480068C0F3CB309B
:10171000684338E0701C37D0FEF720FFC01BA8429A
:1017200003D215B1009860B32CE02068416821F025
:10173000E00141606068B0F5827F0BD1A068B0F530
:10174000004F02D0B0F5806F04D12068016821F00D
:1017500040010160A06AB0F5005F09D1206801680E
:1017600021F4005101602068016841F400510160DA
:10177000012084F85D00002084F85C000320BDE8AF
:10178000F8830025401E00902068816838EA010037
:1017900004D000214945BDD10020F0E70121F9E73F
:1017A0000C0000207047FEF7DFBE00B593B0382173
:1017B0006846FEF781FD14210EA8FEF77DFD00208E
:1017C000FEF756FF0220C10103914021049104213C
:1017D000CDE9080100905521CDE90A1007900C9041
:1017E0000D906846FFF7CEF808B172B6FEE70F20FD
:1017F0000E9003200F900020109011901290042161
:101800000EA8FEF79BFF002801D072B6FEE713B0CA
:1018100000BD00000248016841F47001016070479A
:1018200088ED00E0FEE7000000F05AF8224C10209E
:101830004FF47A7720703B46012221461F48FFF77C
:1018400025FC00252570202060700826A6703B46E8
:10185000032221461948FFF719FC26703B46012256
:1018600021461648FFF712FC257065700520A07010
:101870003B46032221461148FFF708FC5020207008
:101880003B46012221460D48FFF700FC3B46032260
:1018900021460A48FFF736FB582020703B460122BC
:1018A00021460648FFF7F2FB3B4603222146034848
:1018B000FFF728FBFEE700001000002014000020C6
:1018C0000907090E002804DB00F1E02080F800146D
:1018D000704700F00F0000F1E02080F8141D704701
:1018E000014800F003B800007800002060218171F9
:1018F0005021017158214171782181726821C17193
:1019000048218170702141724021017028210172AB
:101910001021C170082141707047FEF72DFEFFF7BE
:1019200044FFFFF7BDFDFFF7F1FDFFF77DFFFCE78B
:101930004FF04070E1EE100A704700000000000018
:101940000000010203040607080900006C190008E2
:101950000000002014000000140200088019000894
:1019600014000020D406000030020008100000001F
:1019700001000000000000000024F400000000004E
:04000005080001D915
:00000001FF
