:020000040800F2
:10000000506B0020F1010008992700082F260008F6
:1000100095270008AD0A0008433C000800000000D6
:10002000000000000000000000000000B12A0008ED
:10003000B10A0008000000009D270008B32A00084C
:100040000B0200080B0200080B0200080B0200085C
:100050000B0200080B0200080B0200080B0200084C
:100060000B0200080B0200080B0200080B0200083C
:100070000B0200080B0200080B0200080B0200082C
:100080000B020008000000000B0200080B02000831
:100090000B0200080B0200080B0200080B0200080C
:1000A0000B0200080B0200080B0200080B020008FC
:1000B0000B0200080B0200080B0200080B020008EC
:1000C0000B0200080B0200080B0200080B020008DC
:1000D0000B0200080B0200080B0200080B020008CC
:1000E0000B0200080B0200080B0200080B020008BC
:1000F0000B0200080B0200080B02000800000000C1
:10010000000000000B020008000000000B020008C5
:100110000B020008000000000B0200080B020008A0
:100120000B0200080B0200080B0200080B0200087B
:100130000B02000800000000000000000B02000895
:100140000B0200080B020008000000000000000085
:10015000000000000000000000000000000000009F
:100160000000000000000000000000000B0200087A
:100170000B0200080000000000000000000000006A
:10018000000000000B02000800000000000000005A
:10019000000000000000000000000000000000005F
:1001A00000000000000000000B0200080B02000825
:1001B0000B0200080B0200080B0200080000000000
:1001C000000000000B02000800000000000000001A
:1001D0000B0200080B020008DFF810D000F058FBFB
:1001E00000480047AD5F0008AFF30080506B00206F
:1001F0000648804706480047FEE7FEE7FEE7FEE7C1
:10020000FEE7FEE7FEE7FEE7FEE7FEE7452B000818
:10021000D90100082DE9F05F0546002092469B4673
:1002200088460646814640241BE02846414647460C
:10023000224600F01CFA53465A46C01A914110D388
:1002400011461846224600F003FA2D1A67EB010802
:100250004F4622460120002100F0FAF917EB000971
:100260004E41201EA4F10104DFDC484631462A46F7
:100270004346BDE8F09FD2B201E000F8012B491ED1
:10028000FBD270470022F6E710B513460A46044633
:100290001946FFF7F0FF204610BD2DE9FE4F8046BE
:1002A00081EA0300C00F0C46009021F0004123F0CA
:1002B0000045B8EB0200A94105D2404621469046D0
:1002C0001C460B46024623F00040104347D0270D42
:1002D000C7F30A00C3F30A510290401A0190402864
:1002E0006BDAC3F3130040F4801B0098924620B1F0
:1002F0000023D2EB030A63EB0B0B01985946C0F1C4
:100300004002504600F0A4F906460D4650465946B4
:10031000019A00F0BCF910EB08006141002487EA63
:10032000115284EAE7731A4340D0009A62B3019AEB
:10033000012A4FEA075215DC001B61EB02014FF066
:10034000004202EA0752CDE90042001C41F580114B
:1003500032462B4600F0BCF903B0BDE8F08F4046B2
:100360002146F9E7001B61EB0201001C41F58013F7
:1003700000185B412018A2F5001747EB030140EA83
:10038000D570B6196D4111E06D084FEA360645EAA1
:10039000C0754FEA0752001B61EB0201001C41F5DA
:1003A000801149084FEA30000019514132462B466E
:1003B00003B0BDE8F04F00F07CB900980122400086
:1003C0000023D0EB020263EBE073009821464FEA72
:1003D000E074B8EB000061EB0401E9E783F000434F
:1003E0005BE781F0004158E72DE9FE4F81EA030405
:1003F00004F0004421F0004100944FF0000B23F082
:10040000004350EA01045ED052EA03045BD0C3F318
:100410000A54C1F30A552C44A4F2F3340194A0FB0E
:100420000254C1F3130141F48011C3F3130343F4E5
:10043000801301FB024400FB034E840A970A44EA3E
:10044000815447EA8357A4FB076802958D0A05FB90
:1004500007854FEA932C04FB0C542705029D4FEAB5
:10046000065847EA1637B5EB08056EEB070C870E02
:10047000920E47EA811742EA8312A7FB0201B6EB0C
:100480000B0164EB00042B0D43EA0C335E1844EBC4
:100490001C50DA465146E7FB0201C5F313044FEA4C
:1004A0000B3343EA14534FEA0432019C43EA060338
:1004B000A4F10C040294009CCDE900B400F008F90A
:1004C00003B0BDE8F08F00200146F9E72DE9F04DBB
:1004D00081EA030404F0004B21F0004514464FF07C
:1004E000000A23F0004150EA050220D054EA01023C
:1004F0001DD0C5F30A570246C5F31303C1F3130019
:10050000C1F30A5640F4801543F48013A7EB0608A4
:10051000101BD64608F2FD3873EB050002D308F134
:10052000010801E092185B41B8F1000F03DA0020E6
:100530000146BDE8F08D00204FF480110646844648
:100540000EE0171B73EB050705D3121B63EB0503C6
:1005500006434CEA010C49084FEA300092185B410F
:1005600050EA0107EDD152EA030012D082EA0400FA
:1005700083EA0501084305D0101BAB4106D20122D6
:10058000002306E000224FF0004302E06FF001027A
:1005900053101AEB06004CEB085110EB0A0041EB2C
:1005A0000B01BDE8F04D00F084B80EB540F23341C8
:1005B00002910021CDE900110A460B4600F088F8AF
:1005C00003B000BD30B5041E71F1000404DB4FF030
:1005D0000044404264EB0101141E73F1000405DB8A
:1005E0001C464FF00043524263EB04038B4208BFAA
:1005F000824230BD30B5041E71F1000404DB4FF0BF
:100600000044404264EB0101141E73F1000405DB59
:100610001C464FF00043524263EB0403994208BF6B
:10062000904230BD30B50B46014600202022012407
:1006300009E021FA02F59D4205D303FA02F5491BB0
:1006400004FA02F52844151EA2F10102F1DC30BDC6
:10065000202A04DB203A00FA02F100207047914082
:10066000C2F1200320FA03F3194390407047202A77
:1006700004DB203A21FA02F00021704721FA02F34C
:10068000D040C2F120029140084319467047202A09
:1006900006DBCB17203A41FA02F043EAE07306E0AA
:1006A00041FA02F3D040C2F12002914008431946BA
:1006B000704710B5141E73F1000408DA401C41F1B4
:1006C000000192185B411A4301D120F0010010BDD6
:1006D0002DE9F04D92469B4611B1B1FA81F202E04C
:1006E000B0FA80F220329046FFF7B2FF04460F4680
:1006F00040EA0A0041EA0B0153465A46084313D028
:10070000114653EA010019D0C8F140025046FFF7E4
:10071000AEFF05460E46504659464246FFF798FF43
:10072000084305D0012004E020463946BDE8F08D9D
:100730000020054346EAE0762C4337430A986305D8
:10074000E40AA0EB08000022FD0A44EA47540A30FC
:1007500002D500200146E9E7010510196941DDE9EC
:10076000084500196941BDE8F04DA2E770B521F0D8
:10077000004303430CD0C1F30A550024D5EB040514
:1007800064EB0403D617AD1AB34102DB0020014627
:1007900070BD201841EB025170BD2DE9F04D0023D2
:1007A0001A461B1A8A4103DB00200146BDE8F08D82
:1007B000C1F30A52C1F3130141F480154FF0000B4D
:1007C000D10702D100186D41521E0027044640F2A5
:1007D000FF11384601EB620A3E4680460246002081
:1007E0004FF48011FFF743FFC2197141BB1846EB6C
:1007F0000100B4EB030C75EB000C04D3E41A65EBB9
:10080000000517460E46241908F101006D41804687
:100810003428E3DDF91946EB0600091BA84103D291
:100820004FF0FF32134601E0002213461BEB070096
:1008300046EB0A51BDE8F04DFFF73BBF0EB5C10FC7
:1008400080EAE0700844CA07002140F233438DE893
:100850000E000A460B46FFF73BFF03B000BDC1F395
:100860000A52C1F3130140F2FF3341F480119A425E
:1008700002DA00200146704740F233439A42A2F266
:10088000334202DC5242FFF7F2BEFFF7E1BE000046
:10089000064C074D06E0E06840F0010394E80700CD
:1008A00098471034AC42F6D3FFF79AFC187400084E
:1008B0003874000870B5C1F30A5201F000450024F5
:1008C000C1F3130140F2FF3341F480119A4201DA7F
:1008D000002070BD40F233439A42A2F2334203DC5F
:1008E0005242FFF7C4FE00E090402C43F1D040425A
:1008F00070BD000038B508A000680090002407E033
:100900004FF47A7301226946044801F0BAFA641C74
:10091000372CF5DB38BD0000FF0000006800002028
:1009200030B52DED068B83B00024FF25002002900A
:10093000019000909FED310B324880ED000B40207C
:100940008DF808004FF47A73012202A92E4801F0B5
:1009500098FA4FF47A73012201A92B4801F0BEF9ED
:1009600000BF9DF8040000F0800020B1281EA5F112
:1009700001018DB2F5D158208DF808004FF47A733B
:10098000012202A9204801F07CFA4FF47A73032275
:1009900069461D4801F0A2F99DF8000020430402B9
:1009A0009DF80100204304029DF80200044324F056
:1009B0007F449FED161B9FED170B03F071FBB0EE0C
:1009C000409AF0EE609A04EB8400FFF7EEFD41ECF4
:1009D0001A0B53EC192BFFF779FD41EC180B9FED27
:1009E0000F0B53EC102BFFF7F9FC064A03C2054826
:1009F00090ED000B03B0BDEC068B30BD0000000095
:100A00000000000038000020680000200000000006
:100A1000000038400000000000000040000000001E
:100A2000000004407CB506460C46154600200190A7
:100A3000009010208DF804004FF47A73012201A970
:100A4000084801F01EFA8DF804608DF805408DF815
:100A500006504FF47A73032201A9024801F011FAFB
:100A60007CBD0000680000207CB506460C4615469B
:100A700000200190009008208DF804004FF47A7354
:100A8000012201A9084801F0FCF98DF804608DF8F5
:100A900005408DF806504FF47A73032201A90248ED
:100AA00001F0EFF97CBD00006800002000BFFEE708
:100AB000704772B600BFFEE778B503460022D0E06B
:100AC000012696400D6805EA0604002C72D04D6898
:100AD000012D08D04D68022D05D04D68112D02D092
:100AE0004D68122D13D1986856000325B540A843D0
:100AF0005600CD68B5402843986058680125954058
:100B0000A8430D79C5F30015954028435860D8686F
:100B100056000325B540A84356008D68B5402843CC
:100B2000D8604D68022D02D04D68122D13D1D60821
:100B300003F1200555F826005507EE0E0F25B540A8
:100B4000A8435607F60E0D69B5402843D60803F1B1
:100B5000200545F82600186856000325B540A8432F
:100B60000D7905F003055600B540284318604D681F
:100B700005F08055B5F1805F72D100BF3C4D2D6E00
:100B800045F001053A4E356635462D6E05F00105F6
:100B9000009500BF00BF4FEAB635960855F826000D
:100BA00095072E0F0F25B540A843B3F1904F02D102
:100BB00000251AE054E02F4DAB4201D1012514E08D
:100BC0002D4DAB4201D102250FE02C4DAB4201D19E
:100BD00003250AE02A4DAB4201D1042505E0294D49
:100BE000AB4201D1052500E006259607360FB5403A
:100BF0002843254D960845F82600244D2868A04333
:100C00004D6805F48035B5F5803F00D120431F4D78
:100C100028602D1D2868A0434D6805F40035B5F502
:100C2000003F00D12043194D2D1D28602D1D28683F
:100C3000A0434D6805F48015B5F5801F00D1204311
:100C4000124D083528602D1D2868A0434D6805F415
:100C50000015B5F5001F00D120430C4D0C35286060
:100C6000521C0D68D540002D7FF42AAF78BD0000DE
:100C7000001002400004004800080048000C004832
:100C80000010004800140048080001400004014022
:100C90000AB1816100E0816270470000014800688C
:100CA00070470000000000200348006803490968FD
:100CB0000844014908607047000000200800002037
:100CC00010B50024032000F097F80F2000F008F87A
:100CD00008B1012401E000F02FF8204610BD00000B
:100CE00070B50446002511480068D8B10F48006867
:100CF0004FF47A71B1FBF0F00D490968B1FBF0F6E1
:100D0000304601F011FB58B9102C07D200222146C1
:100D1000501E00F033F80748046004E0012502E0AB
:100D2000012500E00125284670BD000008000020D4
:100D30000C0000200400002008B500BF0E48006E23
:100D400040F001000C4908660846006E00F0010002
:100D5000009000BF00BF00BF0846806D40F080508B
:100D600088650846806D00F08050009000BF00BF8D
:100D700000F0E2F808BD0000001002402DE9F05F2D
:100D800080460D46164603F001F8074639462A46C6
:100D9000334601F00700C0F1070ABAF1040F02D987
:100DA0004FF0040A01E0C0F1070AD14600F1040A3D
:100DB000BAF1070F02D24FF0000A01E0A0F1030AD6
:100DC000D4464FF0010A0AFA09FAAAF1010A0AEA1E
:100DD000020A0AFA0CFA4FF0010B0BFA0CFBABF10A
:100DE000010B0BEA030B4AEA0B042146404602F0D2
:100DF000D5FFBDE8F09F000000BF00F00702064BE2
:100E000019684FF6FF031940044B0B4343EA0221D4
:100E1000014B196000BF70470CED00E00000FA05BF
:100E200002468ABB4148006800F4C060B0F5806F9C
:100E30002BD13E488030006820F480703B4BC3F8D3
:100E400080001846006820F4C06040F4007018600C
:100E50003748006832235843364BB0FBF3F0411C4F
:100E600000E0491E3148406900F48060B0F5806FB1
:100E700001D10029F5D12D48406900F48060B0F51A
:100E8000806F51D10320704708E028488030006807
:100E900020F48070254BC3F8800045E0B2F5007F58
:100EA0003AD12248006800F4C060B0F5806F2AD1C2
:100EB0001E488030006840F480701C4BC3F88000EE
:100EC0001846006820F4C06040F4007018601848AC
:100ED000006832235843174BB0FBF3F0411C00E08D
:100EE000491E1248406900F48060B0F5806F01D15E
:100EF0000029F5D10D48406900F48060B0F5806F9D
:100F000012D10320BFE709488030006840F48070A8
:100F1000064BC3F8800007E00448006820F4C06076
:100F200040F48060014B18600020ACE70070004086
:100F30000C00002040420F000348806840F48040CD
:100F40000149886070470000007000402DE9F843B7
:100F500004460027B846206800F40020B0F5002FB2
:100F600073D1B946D348806D00F0805078B900BF86
:100F7000D048806D40F08050CE4988650846806D2D
:100F800000F08050009000BF00BF4FF00109CA4838
:100F9000006840F48070C8490860FFF77FFE06468D
:100FA00006E0FFF77BFE801B022801D9032705E03E
:100FB000C148006800F480700028F2D000BF002F04
:100FC00046D1BC489030006800F44075CDB1206C2B
:100FD000A84216D0B7489030006820F44075B54854
:100FE000D0F8900040F48030B249C1F89000084633
:100FF000D0F8900020F48030C1F890000846C0F886
:10100000905005F00100A0B1FFF748FE064608E049
:10101000FFF744FE801B41F28831884201D9032743
:1010200006E0A4489030006800F002000028EFD0ED
:1010300000BF5FB99F489030006820F44070216C79
:1010400008439C49C1F8900003E00CE0B84600E07A
:10105000B846B9F1010F05D19648806D20F0805057
:101060009449886500BF207800F0010048B191489C
:101070008830006820F00300616808438D49C1F89A
:101080008800207800F00200022809D189488830C1
:10109000006820F00C00A16808438649C1F8880068
:1010A000207800F00400042809D1824888300068C4
:1010B00020F03000E16808437E49C1F888002078BC
:1010C00000F00800082809D17A488830006820F02C
:1010D000C000216908437749C1F88800207800F0F2
:1010E0002000202809D173488830006820F440602F
:1010F000616908436F49C1F88800207800F040001A
:10110000402809D16B488830006820F44050A1691C
:1011100008436849C1F88800207800F080008028E2
:1011200009D164488830006820F44040E1690843F0
:101130006049C1F88800208800F48070B0F5807F95
:1011400009D15C488830006820F44030216A0843A7
:101150005849C1F88800208800F40070B0F5007F7D
:1011600009D154488830006820F44020616A08435F
:101170005049C1F88800208800F48060B0F5806F85
:1011800013D14C488830006820F44010A16A08430D
:10119000484988310860A06AB0F5801F05D14548EC
:1011A000C06840F480104349C860208800F40060A3
:1011B000B0F5006F13D13F488830006820F440003C
:1011C000E16A08433B4988310860E06AB0F5800F66
:1011D00005D13848C06840F480103649C86020887E
:1011E00000F48050B0F5805F13D132488830006839
:1011F00020F04070216B08432E4988310860206B35
:10120000B0F1807F05D12B48C06840F48010294997
:10121000C860208800F40050B0F5005F13D1254865
:101220008830006820F04060616B084321498831B4
:101230000860606BB0F1006F05D11E48C06840F4D3
:1012400080101C49C860208800F48040B0F5804FB1
:1012500013D118488830006820F04060A16B084323
:10126000144988310860A06BB0F1006F05D11148B6
:10127000C06840F480100F49C860208800F4004026
:10128000B0F5004F13D10B488830006820F0405073
:10129000E16B0843074988310860E06BB0F1805F7B
:1012A00005D10448C06840F480300249C860404617
:1012B000BDE8F88300100240007000402DE9F041C5
:1012C00004460D464FF0000814B90120BDE8F08136
:1012D0007D48006800F00F00A8420ED27A480068EE
:1012E00020F00F002843784908600846006800F0A5
:1012F0000F00A84201D00120E8E7207800F00100AB
:10130000002864D06068032823D17048006800F08A
:10131000007008B90120D9E701F042FA06466C488E
:10132000864237D96948806800F0F00030B12078F3
:1013300000F0020002282DD1A06858BB63488068E5
:1013400020F0F00040F08000604988604FF0800895
:1013500020E06068022806D15C48006800F4003094
:1013600040B90120B2E75948006800F4806008B92C
:101370000120ABE700F0DEF806465548864209D961
:101380005248806820F0F00040F080004F498860AB
:101390004FF080084D48806820F0030061680843E2
:1013A0004A498860FFF77AFC074608E0FFF776FCB9
:1013B000C01B41F28831884201D9032086E74348A7
:1013C000806800F00C006168B0EB810FEED12078EE
:1013D00000F00200022820D1207800F00400042848
:1013E00005D13A48806840F4E06038498860207848
:1013F00000F00800082807D13448806820F46050C5
:1014000040F4E060314988603048806820F0F000A6
:10141000A16808432D49886008E0B8F1800F05D124
:101420002A48806820F0F000284988602648006833
:1014300000F00F00A84219D92348006820F00F00DF
:10144000284321490860FFF729FC074608E0FFF719
:1014500025FCC01B41F28831884201D9032035E7C1
:101460001948006800F00F00A842F0D1207800F081
:101470000400042807D11548806820F4E060E16882
:10148000084312498860207800F00800082808D135
:101490000E48806820F46050216940EAC1000B4981
:1014A000886000F047F809498968C1F30311094AC7
:1014B000515C01F01F01C8400749086007480068F7
:1014C000FFF70EFC02E7000000200240001002407F
:1014D00000B4C404AA6000080C000020040000202E
:1014E00001480068704700000C00002000B5FFF7BD
:1014F000F7FF05498968C1F30221044A515C01F0F4
:101500001F01C84000BD000000100240BA60000882
:1015100000B5FFF7E5FF05498968C1F3C221044A18
:10152000515C01F01F01C84000BD000000100240E6
:10153000BA60000870B5224DAD6805F00C05042DA9
:1015400001D120483AE01E4DAD6805F00C05082D8C
:1015500001D11D4832E01A4DAD6805F00C050C2D87
:101560002BD1174DED6805F00304154DED68C5F35B
:1015700003156A1C022C0CD0032C09D1124DB5FBAB
:10158000F2F50F4EF668C6F3062605FB06F10AE0F3
:1015900000BF0C4DB5FBF2F5094EF668C6F3062602
:1015A00005FB06F100BF00BF054DED68C5F34165C1
:1015B0006D1C6B00B1FBF3F000E0002070BD00007B
:1015C000001002400024F40000127A002DE9F843D4
:1015D000044614B90120BDE8F883207800F001002A
:1015E000002865D0FC48806800F00C07FA48C06805
:1015F00000F003060C2F01D1032E01D0082F0AD1D1
:10160000F548006800F40030002851D060680028D8
:101610004ED10120DFE700BF6068B0F5803F06D102
:10162000ED48006840F48030EB4908601AE06068DB
:10163000B0F5A02F0BD1E848006840F48020E649BF
:1016400008600846006840F4803008600AE0E2481C
:10165000006820F48030E04908600846006820F403
:101660008020086000BF606888B1FFF717FB05465F
:1016700006E0FFF713FB401B642801D90320AAE70B
:10168000D548006800F400300028F2D010E0FFF7E1
:1016900005FB054606E0FFF701FB401B642801D966
:1016A000032098E7CC48006800F400300028F2D10D
:1016B000207800F00200022860D1C748806800F05E
:1016C0000C07C548C06800F003060C2F01D1022E9C
:1016D00001D0042F18D1C048006800F4806018B110
:1016E000E06808B9012076E7BB48406820F0FE407A
:1016F000217C40EA0160B8494860B8480068FFF7BB
:10170000EFFA18B3012066E7E06800B3B24800685A
:1017100040F48070B0490860FFF7C0FA054606E063
:10172000FFF7BCFA401B022801D9032053E7AA485F
:10173000006800F480600028F2D0A748406820F0DC
:10174000FE40217C40EA0160A349486016E0A248BF
:10175000006820F48070A0490860FFF79FFA0546F2
:1017600006E0FFF79BFA401B022801D9032032E76D
:101770009948006800F480600028F2D1207800F0D9
:101780000800082836D16069D0B1934894300068C9
:1017900040F001009049C1F89400FFF77FFA054638
:1017A00006E0FFF77BFA401B022801D9032012E76D
:1017B00089489430006800F002000028F1D019E058
:1017C00085489430006820F001008349C1F89400F6
:1017D000FFF764FA054606E0FFF760FA401B0228AF
:1017E00001D90320F7E67C489430006800F002003D
:1017F0000028F1D1207800F00400042872D14FF0C5
:1018000000087548806D012121EA107078B100BF91
:101810007148806D40F080506F4988650846806D42
:1018200000F08050009000BF00BF4FF001086C48EE
:10183000006800F48070B0B96948006840F48070B6
:1018400067490860FFF72AFA054606E0FFF726FA1F
:10185000401B022801D90320BDE66148006800F45E
:1018600080700028F2D000BFA068012808D15A4833
:101870009030006840F001005749C1F8900021E025
:10188000A06805280FD154489030006840F004004B
:101890005149C1F890000846D0F8900040F001008E
:1018A000C1F890000EE04C489030006820F0010034
:1018B0004949C1F890000846D0F8900020F0040093
:1018C000C1F8900000BFA068A8B1FFF7E7F905468E
:1018D00009E0FFF7E3F9401B41F28831884202D961
:1018E000032078E625E03C489030006800F00200D4
:1018F0000028EED013E0FFF7D1F9054608E0FFF726
:10190000CDF9401B41F28831884201D9032062E6BB
:1019100031489030006800F002000028EFD1B8F1A3
:10192000010F05D12C48806D20F080502A49886530
:1019300000BF207800F02000202836D1A069D0B167
:1019400025489830006840F001002349C1F898000C
:10195000FFF7A4F9054606E0FFF7A0F9401B0228AF
:1019600001D9032037E61C489830006800F00200D7
:101970000028F1D019E018489830006820F00100E4
:101980001549C1F89800FFF789F9054606E0FFF709
:1019900085F9401B022801D903201CE60E48983027
:1019A000006800F002000028F1D1E069002860D052
:1019B0000948806800F00C000C287FD0E0690228FC
:1019C00058D10548006820F0807003490860FFF78F
:1019D00065F905460DE000000010024004000020FB
:1019E00000700040FFF75AF9401B022801D903207C
:1019F000F1E54D48006800F000700028F2D1D4E90C
:101A00000810401E41EA0011A06A41EA0021208E20
:101A10000122C2EB500041EA40513420005DC2EB8C
:101A2000500041EA40612C20005D41EAC0603E491F
:101A3000C9683E4A114008433B49C86008460068EF
:101A400040F0807008600846C06840F08070C86050
:101A5000FFF724F9054606E0FFF720F9401B0228AE
:101A600001D90320B7E53048006800F00070002875
:101A7000F2D056E02C48006820F080702A490860B7
:101A80000846C06820F00300C8600846C0682849BE
:101A900008402549C860FFF701F9054607E00DE059
:101AA000FFF7FCF8401B022801D9032093E51E48EC
:101AB000006800F000700028F2D132E0E0690128EF
:101AC00000D188E51848C66806F00301206A814203
:101AD00025D106F0F001606A401EB1EB001F1ED157
:101AE00006F4FE41A06AB1EB002F18D106F0784150
:101AF0002C20005DB1EBC06F11D106F4C001208E27
:101B00000122C2EB5000B1EB405F08D106F0C0618A
:101B10003420005DC2EB5000B1EB406F01D00120DA
:101B200059E5002057E50000001002400C809F019D
:101B3000FFFFEEFE70B504460CB9012070BD606A6F
:101B400038B96068B0F5827F00D105E00021E1611D
:101B500002E00021216161610021A16294F85D0031
:101B600028B9002084F85C00204600F061F80220CB
:101B700084F85D002068006820F04000216808605B
:101B8000E068B0F5E06F01D9002501E04FF4805521
:101B9000E068B0F5706F05D0E068B0F5E06F01D097
:101BA0000021A162A08800F48270218901F404411F
:101BB0000843217C01F002010843217D01F001016D
:101BC0000843218B01F400710843217F01F03801A3
:101BD00008432021095D01F080010843218D01F4B3
:101BE00000510843216808600421A06901EA1040FF
:101BF00094F8241001F01001084394F8341001F017
:101C000008010843A18901F47061084305F480517B
:101C10000843216848602068C06920F4006021689A
:101C2000C86100202066012084F85D00002085E75F
:101C300010B586B00446142101A8FEF723FB244901
:101C40002068884242D100BF2248006E40F4805094
:101C5000204908660846006E00F48050009000BFDE
:101C600000BF00BF0846C06C40F00100C8640846D1
:101C7000C06C00F00100009000BF00BF00BF08462C
:101C8000C06C40F00200C8640846C06C00F002005E
:101C9000009000BF00BFC0200190022002900020F1
:101CA000039004900520059001A94FF09040FEF7A5
:101CB00003FF08200190022002900020039004906E
:101CC0000520059001A90448FEF7F6FE06B010BDF8
:101CD0000030014000100240000400482DE9F843A4
:101CE0000446884616461D464FF000096068B0F568
:101CF000827F0DD1A06858B9042084F85D00334676
:101D0000424641462046009500F0B0F9BDE8F88310
:101D100000BF94F85C00012801D10220F6E7012001
:101D200084F85C0000BFFEF7B9FF074694F85D0039
:101D3000012802D04FF0020999E0B8F1000F00D05D
:101D400016B94FF0010992E0042084F85D000020EC
:101D50002066C4F84080A4F84460A4F84660A063FC
:101D6000A087E087E0642065E068B0F5E06F06D901
:101D70002068406820F480502168486005E02068B1
:101D8000406840F4805021684860A068B0F5004F7A
:101D90000BD12068006820F04000216808602068AE
:101DA000006820F48040216808602068006800F026
:101DB0004000402805D02068006840F040002168BD
:101DC0000860E068B0F5E06F22D81CE02068806809
:101DD00000F0010060B12068007B216C0870206C6D
:101DE000401C2064B4F84600401EA4F846000AE0F7
:101DF000FEF754FFC01BA84201D3681C00B915B9F7
:101E00004FF0030933E0B4F846000028DED121E0AA
:101E10001CE02068806800F0010060B12068C068A4
:101E2000216C0880206C801C2064B4F84600401EA1
:101E3000A4F846000AE0FEF731FFC01BA84201D318
:101E4000681C00B915B94FF0030910E0B4F846005A
:101E50000028DED13A462946204600F0D5FC08B1DC
:101E600020202066206E08B14FF0010900BF01203C
:101E700084F85D0000BF002084F85C0000BF484685
:101E800044E72DE9F84F0446884616461D464FF0B4
:101E9000000A00BF94F85C00012802D10220BDE8CE
:101EA000F88F012084F85C0000BFFEF7F7FE0746BC
:101EB000B14694F85D00012802D04FF0020ACBE051
:101EC000B8F1000F00D016B94FF0010AC4E00320AA
:101ED00084F85D0000202066C4F83880A687E68775
:101EE0002064A4F84400A4F846002065E064A068DB
:101EF000B0F5004F0BD12068006820F04000216849
:101F000008602068006840F480402168086020680C
:101F1000006800F04000402805D02068006840F0CC
:101F2000400021680860E068B0F5E06F2FD9606874
:101F300010B1B9F1010F09D1A06B00882168C86008
:101F4000A06B801CA063E08F401EE0871BE0206830
:101F5000806800F0020002280AD1A06B0088216886
:101F6000C860A06B801CA063E08F401EE0870AE081
:101F7000FEF794FEC01BA84201D3681C00B915B936
:101F80004FF0030A68E0E08F0028E0D14AE0606883
:101F900010B1B9F1010F17D1E08F01280AD9A06B58
:101FA00000882168C860A06B801CA063E08F801E41
:101FB000E08709E0A06B007821680873A06B401CE3
:101FC000A063E08F401EE08729E02068806800F071
:101FD0000200022818D1E08F01280AD9A06B0088DE
:101FE0002168C860A06B801CA063E08F801EE08722
:101FF00015E0A06B007821680873A06B401CA063FB
:10200000E08F401EE0870AE0FEF748FEC01BA842B2
:1020100001D3681C00B915B94FF0030A1CE0E08F2A
:102020000028D2D13A462946204600F02EFC08B1BD
:1020300020202066A06850B900BF002000902068D2
:10204000C068009020688068009000BF00BF206ECC
:1020500008B14FF0010A00BF012084F85D0000BF05
:10206000002084F85C0000BF504618E72DE9FF5FB0
:102070000446894692461D460E9E0120019000208E
:10208000009000BF94F85C00012803D1022004B046
:10209000BDE8F09F012084F85C0000BFFEF7FEFD64
:1020A000074694F85D00029060680390A846AB462E
:1020B000029801280BD00398B0F5827F04D1A06864
:1020C00010B90298042802D00220009022E1B9F150
:1020D000000F03D0BAF1000F00D015B90120009015
:1020E00018E194F85D00042802D0052084F85D0012
:1020F00000202066C4F840A0A4F84650A4F844503C
:10210000C4F83890E587A587E0642065E068B0F5FD
:10211000E06F02D8BBF1010F06D92068406820F4B7
:1021200080502168486005E02068406840F4805095
:10213000216848602068006800F04000402805D011
:102140002068006840F0400021680860E068B0F551
:10215000E06F4ED9606810B1B8F1010F09D1A06BE2
:1021600000882168C860A06B801CA063E08F401EBF
:10217000E08736E02068806800F00200022810D175
:10218000E08F70B1019801280BD1A06B0088216805
:10219000C860A06B801CA063E08F401EE087002019
:1021A00001902068806800F0010080B1B4F846001A
:1021B00068B12068C068216C0880206C801C206495
:1021C000B4F84600401EA4F8460001200190FEF736
:1021D00065FDC01BB04204D3701C10B103200090F9
:1021E00098E0E08F0028C5D1B4F846000028C1D19E
:1021F00085E0606810B1B8F1010F17D1E08F0128B8
:102200000AD9A06B00882168C860A06B801CA063FD
:10221000E08F801EE08709E0A06B007821680873DA
:10222000A06B401CA063E08F401EE08760E0206848
:10223000806800F0020002281ED1E08FE0B1019812
:10224000012819D1E08F01280AD9A06B00882168E4
:10225000C860A06B801CA063E08F801EE08709E04F
:10226000A06B007821680873A06B401CA063E08F0E
:10227000401EE087002001902068806800F0010087
:1022800058B3B4F8460040B3B4F84600012816D954
:102290002068C068216C0880206C801C2064B4F821
:1022A0004600801EA4F84600B4F84600012812D863
:1022B0002068406840F48050216848600BE0206846
:1022C000007B216C0870206C401C2064B4F8460030
:1022D000401EA4F8460001200190FEF7DFFCC01B61
:1022E000B04201D3701C00B916B90320009011E070
:1022F000E08F00289BD1B4F84600002897D13A46D9
:102300003146204600F0C1FA18B10120009020208B
:10231000206600BF012084F85D0000BF002084F823
:102320005C0000BF0098B2E670B504462546681E02
:10233000B0F1807F01D301200FE0681E4FF0E02153
:1023400048610F214FF0FF3001F028FD00204FF0D1
:10235000E021886107200861002070BD014600BFB0
:1023600091F88000012801D102207047012081F8F6
:10237000800000BF2420C1F8840008680268086853
:10238000006820F001000B68186022F00052002065
:102390004866086802602020C1F8840000BF002061
:1023A00081F8800000BF00BFDFE770B504460D462E
:1023B00000BF94F88000012801D1022070BD0120E7
:1023C00084F8800000BF2420C4F8840020680668D8
:1023D0002068006820F0010021680860206880689B
:1023E00020F06060284321688860204601F020F9D1
:1023F000206806602020C4F8840000BF002084F814
:10240000800000BF00BFD9E770B504460D4600BF8D
:1024100094F88000012801D1022070BD012084F8C9
:10242000800000BF2420C4F884002068066820686B
:10243000006820F00100216808602068806820F0B2
:102440006040284321688860204601F0F1F8206848
:1024500006602020C4F8840000BF002084F88000BB
:1024600000BF00BFD9E710B504460CB9012010BD6C
:10247000A06900B100E000BFD4F8840028B90020B2
:1024800084F88000204600F02BF82420C4F8840053
:102490002068006820F0010021680860204601F0F3
:1024A000ABF9012800D1E2E7A06A10B1204601F0A3
:1024B000EBF82068406820F490402168486020686C
:1024C000806820F02A00216888602068006840F059
:1024D000010021680860204601F052F9C7E70000BA
:1024E00010B586B00446142101A8FDF7CBFE1749AC
:1024F0002068884227D100BF1548006E40F4804014
:10250000134908660846006E00F48040009000BF42
:1025100000BF00BF0846C06C40F00400C864084615
:10252000C06C00F00400009000BF00BF302001909C
:10253000022002900020039004900720059001A93A
:102540000448FEF7B9FA06B010BD0000003801409B
:1025500000100240000800482DE9F84F04460E46DE
:1025600017469946D4F8840020285ED106B117B9E1
:102570000120BDE8F88F00BF94F88000012801D148
:102580000220F6E7012084F8800000BF00205434C8
:10259000A06321202063FEF781FB824627806780AD
:1025A000543CA068B0F5805F04D1206910B90025C3
:1025B000B04602E035464FF0000800BF002084F826
:1025C000800000BF1DE05346002280212046CDF848
:1025D000009001F0D7FA08B10320CAE745B9B8F86E
:1025E0000000C0F308002168886208F1020803E0D7
:1025F0002878216888626D1CB4F85600401EA4F843
:102600005600B4F856000028DDD153460022402180
:102610002046CDF8009001F0B5FA08B10320A8E7F4
:102620002020C4F884000020A3E70220A1E700BF17
:10263000FEE7000000B587B0142102A8FDF722FED6
:1026400000BF2448C06C40F020002249C8640846FE
:10265000C06C00F02000019000BF00BF00BF084622
:10266000C06C40F00100C8640846C06C00F0010076
:10267000019000BF00BF00BF0846C06C40F00400DE
:10268000C8640846C06C00F00400019000BF00BFA1
:1026900000BF0846C06C40F00200C8640846C06C29
:1026A00000F00200019000BF00BF002230214FF077
:1026B0009040FEF7EDFA30200290012003900220B6
:1026C00004900020059002A94FF09040FEF7F4F925
:1026D00007B000BD0010024010B511481149086054
:1026E0004FF48270486000210E4881604FF4E06131
:1026F000C1600221016101214161490281612821FA
:10270000C16100210162416281620721C162002131
:1027100001634163FFF70EFA08B1FEF7CAF910BD75
:10272000003001406800002010B5184818490860C2
:102730004FF4E1304860002115488160C1600161BB
:102740000C21416100218161C1610162416200206F
:102750000F4988620846FFF786FE08B1FEF7A9F91F
:1027600000210B48FFF750FE08B1FEF7A2F9002147
:102770000748FFF71AFE08B1FEF79BF90448FFF778
:10278000EDFD08B1FEF795F910BD000000380140DD
:10279000CC00002000BFFEE700BFFEE7704700004E
:1027A00070B5164DED6805F00304144DED68C5F3E2
:1027B00003156B1C022C0CD0032C09D1104DB5FB5A
:1027C000F3F50E4EF668C6F3062605FB06F10AE0A1
:1027D00000BF0C4DB5FBF3F5084EF668C6F30626B0
:1027E00005FB06F100BF00BF044DED68C5F3416570
:1027F0006D1C6A00B1FBF2F070BD000000100240D9
:1028000000127A000024F400F8B504460E4615467E
:102810006068B0F5827F0DD1A068B0F5004F03D09D
:10282000A068B0F5806F05D12068006820F04000F6
:10283000216808603346002280212046009500F080
:10284000CBF828B1206E40F0200020660320F8BDB0
:102850006068B0F5827F16D1A068B0F5004F03D054
:10286000A068B0F5806F0ED1334600224FF4C061EE
:102870002046009500F03CF828B1206E40F0200082
:1028800020660320E3E70020E1E7F8B504460E46A2
:102890001546334600224FF4C0512046009500F003
:1028A00027F828B1206E40F0200020660320F8BDF4
:1028B0003346002280212046009500F08DF828B193
:1028C000206E40F0200020660320F0E7334600220F
:1028D0004FF4C0612046009500F00AF828B1206E40
:1028E00040F0200020660320E1E70020DFE7000041
:1028F0002DE9FC4704460D4616469846DDF828901B
:10290000FEF7CCF9A0EB0900A8EB0007FEF7C6F92B
:10291000824630480068C0EBC00000EB8000000D2C
:10292000784300904EE0B5F5C06F04D11EB9206821
:10293000007B019000BF08F10100002842D0FEF7A3
:10294000ADF9A0EB0A00B84200D2A7BB20684068EE
:1029500020F0E000216848606068B0F5827F0DD10A
:10296000A068B0F5004F03D0A068B0F5806F05D126
:102970002068006820F0400021680860A06AB0F577
:10298000005F0DD100BF2068006820F4005021686E
:1029900008602068006840F400502168086000BFAB
:1029A000012084F85D0000BF002084F85C0000BFB7
:1029B0000320BDE8FC87FFE7009800B900270098D6
:1029C000401E0090206880682840B042ABD10020B3
:1029D000EFE700000C0000202DE9F84F04460D46FB
:1029E00090461E46DDF82890FEF758F9A0EB090046
:1029F000371AFEF753F982462C480068C0F3CB30F3
:102A00007843009045E0701C002842D0FEF746F95C
:102A1000A0EB0A00B84200D2A7BB2068406820F0B3
:102A2000E000216848606068B0F5827F0DD1A06841
:102A3000B0F5004F03D0A068B0F5806F05D12068D5
:102A4000006820F0400021680860A06AB0F5005FCF
:102A50000DD100BF2068006820F400502168086094
:102A60002068006840F400502168086000BF012021
:102A700084F85D0000BF002084F85C0000BF0320E4
:102A8000BDE8F88FFFE7009800B900270098401EC6
:102A90000090206880682840A84201D1012000E011
:102AA00000204045AFD10020EAE700000C000020E4
:102AB000704710B5FEF7F8F810BD00B5A5B0382185
:102AC00017A8FDF7DFFB142112A8FDF7DBFB44215B
:102AD00001A8FDF7D7FB0020FEF7A2F9022017900E
:102AE000C0011A9040201B9002201E9002211F91CD
:102AF000042117A84162552181620221C16201634C
:102B00004163FEF763FD08B1FDF7D3FF0F2012907C
:102B1000032013900020149015901690042112A801
:102B2000FEF7CCFB08B1FDF7C4FF012001900020A7
:102B3000029001A8FEF70AFA08B1FDF7BAFF25B026
:102B400000BD00000348006840F4700001490860BF
:102B50007047000088ED00E070B501250574057030
:102B60000025456045720570012642F238252E5435
:102B700002460025057201254560447A447200F141
:102B80001001002656619FED250B00F5815585ED5E
:102B9000400B00230EE0234D05EBC30595ED000B24
:102BA00001F1100541F20816354405EBC30585ED2A
:102BB000000B5B1CB3F5087FEDDB0025157402F1FB
:102BC0001005C560C16800250D7201254D600D72AC
:102BD0000572C1684D68012D1ED14FF4CC760E628E
:102BE00003264E6140F2951601F1100505F580555A
:102BF000C5F8F8609FED090B81ED060B002308E096
:102C00009FED060B01F1280505EBC30585ED000BD3
:102C10005B1CB3F5077FF3DB70BD00000000000014
:102C200000000000D0600008027862B90122027042
:102C30004268012A07D1027A2AB1C1684A68012A8A
:102C400001D102224A60027C32B901220274426937
:102C5000012A01D1022343617047000000B508201A
:102C60000A49C1F83001C1F838019FED090B084647
:102C700080ED260B0820C1F84001C1F84801064844
:102C8000FFF76AFF0548FFF767FF00BD80210020BE
:102C9000182D4454FB21F93F10450020D02200207C
:102CA000F0B52DED0C8BA1B0FE4890ED001BB0EE01
:102CB000410AF0EE610A02F01BF8B0EE408AF0EE35
:102CC000608AF84890ED001BB0EE410AF0EE610A10
:102CD0009FEDF51B53EC112B51EC100BFDF7DDFABA
:102CE000F04A03C2EF4890ED001BB0EE410AF0EE4F
:102CF000610A9FEDEF1B53EC112B51EC100BFDF70C
:102D000079FC11D8E74890ED001BB0EE410AF0EED7
:102D1000610A9FEDE71B53EC112B51EC100BFDF7F3
:102D20005DFBE04A03C220E0DE4890ED001BB0EE00
:102D3000410AF0EE610A9FEDE01B53EC112B51ECC0
:102D4000100BFDF73FFC10D2D64890ED001BB0EE03
:102D5000410AF0EE610A9FEDD61B53EC112B51ECAA
:102D6000100BFDF79AFACF4A03C2D54890ED000B3D
:102D700053EC102B51EC180BFDF736FB41EC180B04
:102D80001025C848D0F83061D0F83001C0F11000EB
:102D9000012817DC00240AE0C248D0F830010119EC
:102DA000C048083000EBC10080ED008B641CBD48BA
:102DB000D0F83001C0F11000A042EDDC0026B94887
:102DC000D0F83051002407E03119B648083000EB44
:102DD000C10080ED008B641CA5F10F00A042F3DC64
:102DE000B048D0F83001401CAE49C1F83001084667
:102DF000D0F83001102805DB0846D0F83001103833
:102E0000C1F83001A748D0F83801401CA549C1F8E5
:102E100038010846D0F83801102818DD0846D0F8E7
:102E20003401D1F83811084410389E49C1F83401F2
:102E30000846D0F83401102805DD0846D0F83401E2
:102E40001038C1F8340110209649C1F838019D4866
:102E50000068807900287CD19248D0F83801083881
:102E60009049C1F838010846D0F83801002817DA2F
:102E70000846D0F83401D1F8381108448949C1F81E
:102E800034010846D0F83401002805DA0846D0F8A5
:102E900034011030C1F8340100208249C1F83801F2
:102EA00000268048D0F83401002806DA7D48D0F8A2
:102EB000340110307B49C1F834017A48D0F834012C
:102EC000C0F1100708257748D0F83401C0F1100090
:102ED000082823DC00240FE07248D0F834010119DF
:102EE0007048083000EBC10090ED000B10A800EB1B
:102EF000C40080ED000B641C6A48D0F83401C0F1B6
:102F00001000A042E8DC6748D0F83401C0F1100698
:102F100000206449C1F83401C7F10805002410E01D
:102F20006048D0F8340101195E48083000EBC10058
:102F300090ED000B301910A901EBC00080ED000BE3
:102F4000641CAC42ECDB5748D0F8340128445549A6
:102F500000E018E0C1F834015B4A5C4910A800F0B9
:102F600031FA5A48103890ED040B4E4880ED220B90
:102F70005648103890ED060B4A4880ED240B00208F
:102F80004849C1F83C014F4800684079B8B9454804
:102F9000D0F83C11883000EBC10090ED000BB0EE92
:102FA000409AF0EE609A3F48D0F83C01012806DADA
:102FB0003C48D0F83C01401C3A49C1F83C01394832
:102FC00090ED261BB0EE410AF0EE610A01F090FE92
:102FD000B0EE408AF0EE608A324890ED261BB0EEEB
:102FE000410AF0EE610A9FED301B53EC112B51ECBE
:102FF000100BFDF752F92B4A983203C2294890ED85
:10300000261BB0EE410AF0EE610A9FED291B53EC3E
:10301000112B51EC100BFDF7EDFA12D8214890ED71
:10302000261BB0EE410AF0EE610A9FED211B53EC26
:10303000112B51EC100BFDF7D1F91A4A983203C24B
:1030400021E0184890ED261BB0EE410AF0EE610A2F
:103050009FED191B53EC112B51EC100BFDF7B2FA3D
:1030600011D2104890ED261BB0EE410AF0EE610A35
:103070009FED0F1B53EC112B51EC100BFDF70DF9CD
:10308000084A983203C20E4890ED000B53EC102B07
:1030900051EC180BFDF7A8F941EC180B102501486D
:1030A00016E000008021002065732D3852C1C03F1A
:1030B000182D4454FB2119400000000000000000BE
:1030C00050000020C860000810450020702100203A
:1030D000D0F84061D0F84001C0F11000012817DCA1
:1030E00000240AE0AA48D0F840010119A848A030FD
:1030F00000EBC10080ED008B641CA548D0F84001B6
:10310000C0F11000A042EDDC0026A148D0F84051EB
:10311000002407E031199E48A03000EBC10080ED8B
:10312000008B641CA5F10F00A042F3DC9848D0F896
:103130004001401C9649C1F840010846D0F84001C2
:10314000102805DB0846D0F840011038C1F84001CE
:103150008F48D0F84801401C8D49C1F84801084605
:10316000D0F84801102818DD0846D0F84401D1F8FD
:103170004811084410388649C1F844010846D0F87F
:103180004401102805DD0846D0F844011038C1F884
:10319000440110207E49C1F848017E4800688079CA
:1031A00000287CD17A48D0F8480108387849C1F81D
:1031B00048010846D0F84801002817DA0846D0F838
:1031C0004401D1F8481108447149C1F84401084646
:1031D000D0F84401002805DA0846D0F84401103040
:1031E000C1F8440100206A49C1F848010026684836
:1031F000D0F84401002806DA6548D0F844011030C0
:103200006349C1F844016248D0F84401C0F1100795
:1032100008255F48D0F84401C0F11000082823DCDD
:1032200000240FE05A48D0F8440101195848A03052
:1032300000EBC10090ED000B684600EBC40080ED90
:10324000000B641C5248D0F84401C0F11000A042A9
:10325000E8DC4F48D0F84401C0F1100600204C498A
:10326000C1F84401C7F10805002410E04848D0F82F
:10327000440101194648A03000EBC10090ED000B5D
:103280003019694601EBC00080ED000B641CAC42B4
:10329000ECDB3F48D0F8440128443D4900E017E00A
:1032A000C1F8440101F5A8723B49684600F08AF86C
:1032B000394890ED000B364880ED480B364890EDCC
:1032C000020B334880ED4A0B00203149C1F84C0114
:1032D000304800684079E8BB2D48D0F84C1100F523
:1032E000907000EBC10090ED000BB0EE408AF0EE64
:1032F000608A2748D0F84C01012806DA2448D0F823
:103300004C01401C2249C1F84C0153EC182B51ECE4
:10331000180BFDF769F841EC1C0B53EC192B51EC21
:10332000190BFDF761F841EC1D0B53EC1C2BFCF75E
:10333000B4FF41EC1B0BB0EE4B0AF0EE6B0A01F050
:103340003BFDB0EE40AAF0EE60AA9FED140B53ECEB
:10335000102B00E016E051EC1A0BFDF745F8114A6E
:1033600003C253EC182B51EC190BFDF7AFF841ECED
:103370001A0BB0EE4A0AF0EE6A0A00F025FD0A4880
:1033800080ED000B02F020FE21B0BDEC0C8BF0BDF7
:1033900080210020C860000860210020000000009B
:1033A00000000040480000205800002000B50348FD
:1033B000FFF73AFC0248FFF737FC00BD104500203C
:1033C000D02200202DE9F74F2DED028B82B0069818
:1033D000C4686068012825D0002020720120606048
:1033E00020724FF4CC7121620321616140F295118A
:1033F00004F1100000F58050C0F8F8109FED8A0B22
:1034000084ED060B4FF0000809E09FED870B04F1F7
:10341000280000EBC80080ED000B08F10108B8F5AA
:10342000077FF2DB04F110054FF0000B284600F592
:103430008050D0F8F860D4F814A0276A00200090DB
:103440000AF10100C0EB001000EBC00087380190CA
:10345000D846C4E041F20810284400EBC70090EDC4
:10346000002BB0EE420AF0EE620A049800EBCB00AB
:1034700090ED002BB0EE421AF0EE621A53EC102BD6
:1034800051EC110BFCF7B0FF41EC180B95ED021B52
:10349000B0EE410AF0EE610A53EC102BFCF7FDFE92
:1034A000C5E902017F1C06F101092BE041F2081079
:1034B000284400EBC70090ED002BB0EE420AF0EE7E
:1034C000620A05F1180000EBC90090ED002BB0EE88
:1034D000421AF0EE621A53EC102B51EC110BFCF770
:1034E00083FF41EC180B95ED021BB0EE410AF0EEA4
:1034F000610A53EC102BFCF7D0FEC5E902017F1CDA
:1035000009F10109019887308145CFDBDDF804908E
:103510002BE041F20810284400EBC70090ED002B8F
:10352000B0EE420AF0EE620A05F1180000EBC900A5
:1035300090ED002BB0EE421AF0EE621A53EC102B15
:1035400051EC110BFCF750FF41EC180B95ED021BF1
:10355000B0EE410AF0EE610A53EC102BFCF79DFE31
:10356000C5E902017F1C09F10109B145D1DD0498CB
:1035700000EBCB0090ED000B05F1180000EBC6004E
:1035800080ED000B0BF1010B8736B6F5077F01DBF1
:10359000A6F507760AF1010ABAF1040F03DA0198D9
:1035A0008730019019E095ED020B42F208202918AE
:1035B000009801EBC00080ED000B0098401C0090CB
:1035C0009FED190B85ED020B4FF0000A0027761EC8
:1035D000002E00DA87360020019008F10108B8F1CA
:1035E000080FFFF637AF04F1100000F58050C0F867
:1035F000F8602762C4F814A004F1100000F5005030
:1036000090ED820B059880ED000B04F1100042F262
:103610000821084490ED020B059880ED020B02B0E2
:10362000BDEC028BBDE8FE8F000000000000000032
:1036300070B5456E2DB90125A0F86A50A0F8685004
:103640001CE0082308240568AD68C5F342610568DD
:10365000AD686A0F0A4DAD5C15FB04F5094EB65C0A
:1036600095FBF6F5A0F86A50054D6D5C15FB03F56A
:10367000044E765C95FBF6F5A0F8685070BD00002E
:103680009A600008A260000890F8281001F001017B
:1036900039B10168496821F40031C26A11430268F6
:1036A000516090F8281001F00201022907D1016849
:1036B000496821F48031026B11430268516090F82F
:1036C000281001F00401042907D10168496821F498
:1036D0008021426B11430268516090F8281001F07C
:1036E0000801082907D10168496821F40041826B6B
:1036F00011430268516090F8281001F01001102960
:1037000007D10168896821F48051C26B11430268B6
:10371000916090F8281001F02001202907D101685C
:10372000896821F40051026C11430268916090F89D
:10373000281001F04001402913D10168496821F4A3
:103740008011426C114302685160416CB1F5801FD9
:1037500007D10168496821F4C001826C11430268F5
:10376000516090F8281001F08001802907D101688C
:10377000496821F40021C26C11430268516070470E
:1037800038B504460020C4F88C00FDF787FA0546DA
:103790002068006800F0080008280CD16FF07E4017
:1037A0002B4600224FF400110090204600F0EAF969
:1037B00008B1032038BD2068006800F00400042828
:1037C0000CD16FF07E402B4600224FF48001009018
:1037D000204600F0D7F908B10320EBE72020C4F819
:1037E0008400C4F888000020E06600BF84F88000F0
:1037F00000BF00BFDEE700002DE9FE4F04460020B9
:103800000290D6492068884200D100E000BF2169BB
:10381000A068084361690843E16940EA010820683B
:103820000068CF49084040EA080021680860206825
:10383000406820F44050E168084321684860D4F8AB
:103840001880C6492068884202D0206A40EA0808E9
:1038500020688068C349084040EA08002168886001
:103860002068C06A20F00F00616A08432168C862BE
:1038700000BFBD492068884216D1BC48006800F0EE
:10388000030030B1012808D0022804D0032808D151
:1038900005E0012507E0022505E0042503E00825F1
:1038A00001E0102500BF6FE0B1492068884216D1C1
:1038B000AE48006800F00C0030B1042808D0082899
:1038C00004D00C2808D105E0002507E0022505E01A
:1038D000042503E0082501E0102500BF54E0A549B8
:1038E0002068884216D1A148006800F0300030B14D
:1038F000102808D0202804D0302808D105E0002561
:1039000007E0022505E0042503E0082501E0102575
:1039100000BF39E098492068884216D19348006872
:1039200000F0C00030B1402808D0802804D0C02862
:1039300008D105E0002507E0022505E0042503E0A5
:10394000082501E0102500BF1EE084492068884258
:1039500019D18648006800F4406048B1B0F5806F26
:103960000AD0B0F5006F05D0B0F5406F08D105E082
:10397000002507E0022505E0042503E0082501E015
:10398000102500BF00E0102500BF74492068884260
:103990005DD135B1022D08D0042D08D0082D0DD1F0
:1039A00009E0FDF7A3FD06460CE0744E0AE0FDF7C2
:1039B000C1FD064606E04FF4004603E00026012064
:1039C000029000BF00BF002E10D06D49606A31F830
:1039D0001000B6FBF0F9606800EB4000484503D8E2
:1039E00060680003484502D201200290AAE06449C1
:1039F000606A31F810C06246002330461946FCF771
:103A000009FC4FF4807C00220B46A0FB0C1B03FB3F
:103A10000CB300FB0233606840088C461CEB0000CE
:103A200043EB0201CDE90001D4F804C06246002353
:103A3000FCF7F0FB0746B7F5407F05D3B7F5801FCD
:103A400002D22068C7607DE0012002907AE0E06940
:103A5000B0F5004F40D1092D17D2DFE805F0050978
:103A60000D160F1616161300FDF740FD064610E062
:103A7000FDF74EFD06460CE0404E0AE0FDF75AFD0C
:103A8000064606E04FF4004603E0002601200290BF
:103A900000BF00BFFEB13A49606A31F81000B6FBC2
:103AA000F0F04000616800EB5100B0FBF1F087B22C
:103AB000102F0ED3B7F5803F0BD24FF6F07007EA08
:103AC000000AC7F342004AEA000A2068C0F80CA0C6
:103AD00038E00120029035E0092D17D2DFE805F02B
:103AE00005090D160F1616161300FDF7FFFC064606
:103AF00010E0FDF70DFD06460CE0204E0AE0FDF754
:103B000019FD064606E04FF4004603E000260120BA
:103B1000029000BF00BFAEB11949606A31F81000D1
:103B2000B6FBF0F0616800EB5100B0FBF1F087B23A
:103B3000102F05D3B7F5803F02D22068C76001E09F
:103B4000012002900120A4F86A00A4F86800002077
:103B5000206760670298BDE8FE8F0000008000408B
:103B6000F369FFCFFFF4FF110038014088100240D5
:103B70000044004000480040004C00400024F40095
:103B8000826000082DE9F04104460D46174698462C
:103B9000069E4AE0701C002847D0FDF77FF8A0EB96
:103BA0000800B04200D8C6B92068006820F4D07080
:103BB000216808602068806820F001002168886022
:103BC0002020C4F88400C4F8880000BF002084F8D6
:103BD000800000BF0320BDE8F0812068006800F08D
:103BE000040010B32068C069C0F3C020E8B14FF4EE
:103BF0000060216808622068006820F4D0702168A5
:103C000008602068806820F001002168886020201A
:103C1000C4F88400C4F88800C4F88C0000BF0020F9
:103C200084F8800000BF0320D5E72068C0692840E1
:103C3000A84201D1012000E00020B842AAD0002013
:103C4000C9E700BFFEE70000FCF754FE0822102180
:103C50000020FCF7E7FE022200210C20FCF704FF05
:103C60001DE0FCF75DFE28482849096800EBC1000B
:103C700080ED000B24482549096800EBC10090ED58
:103C8000001BB0EE410AF0EE610A53EC102B20A0AD
:103C900000F054F81D480068401C1C4908601B488F
:103CA0000068B0F5806FDCDB002018490860FEF783
:103CB000D5FF19A000F042F825E014480068B0F5DF
:103CC000806F1EDA10481149096800EBC10090EDC1
:103CD000000B174880ED000BFEF7E2FF154890ED52
:103CE000000B154880ED000B90ED000B53EC102BF2
:103CF00007A000F023F805480068401C034908604D
:103D000001E0FFF753FBD8E760010020100000201E
:103D1000256C660A000000002A2A2A2A2A2A2A2A52
:103D20002A2A2A2A2A2A2A2A2A2A2A2A2A0D0A005A
:103D30005000002048000020200000200FB4054B58
:103D400010B503A9044A029801F092FD10BC5DF879
:103D500014FB0000915F00086000002003B401988C
:103D60004100009850EAC12018BF04204A0D18BF36
:103D700040F0010040F2FF72B2EB515F08BF40F02B
:103D80000200012808BF052002B070470248006801
:103D9000C0F30220704700000CED00E010B50028D1
:103DA00004DB0A07130E054A135406E00A07140E33
:103DB000034A00F00F031B1FD45410BD00E400E0C1
:103DC00018ED00E00000000070B59B482DED020BDF
:103DD0002DED068B079D25F00044A04218DC974886
:103DE000844202DC0AD1069840B19DED060BBDEC81
:103DF000068B02B0BDE8704001F01EBC002DCCBFA8
:103E00009FED8F0B9FED900BBDEC068B02B070BD4C
:103E10008F48A04215DD8F48A042D8BF4FF0FF3435
:103E200058DD9DED060B51EC100BFFF797FF0428B2
:103E300008BF01F035FC9DED060BBDEC068B02B012
:103E400070BD9DED060B51EC100B02F094F8CDE91E
:103E5000060181489FED828BA0423CDD8248A04252
:103E60001FDD00249FED82AB9DED060B53EC1A2B5A
:103E700051EC100BFCF711FA9DED060B41EC190B00
:103E800053EC1A2B51EC100BFCF7AEFA53EC182B39
:103E9000FCF7A4FA53EC192BFCF718FBCDE906014B
:103EA00049E09DED060B012453EC182B51EC100B4F
:103EB000FCF7F3F99DED060B41EC190B53EC182BB5
:103EC00051EC100BFCF78AFA53EC192BFCF7FEFAB5
:103ED000CDE906012FE06848A0421FDD02249FEDD6
:103EE000689B9DED060B53EC192B51EC100BFCF766
:103EF0007BFA53EC182BFCF7D0F99DED060B41EC47
:103F0000180B53EC192B51EC100BFCF767FA53EC20
:103F1000182BFCF7DBFACDE906010CE09DED060B52
:103F2000032453EC102B9FED580B51EC100BFCF7B6
:103F3000CDFACDE906019DED060B53EC102B51ECAB
:103F4000100BFCF751FA41EC180B53EC182BFCF753
:103F50004BFA41EC190B4E480621B0EE490AF0EE3F
:103F6000690A784401F03CFA53EC182B51EC100B21
:103F7000FCF73AFA41EC180B4648B0EE490AF0EE6D
:103F8000690A0521784401F02BFA53EC192B51EC06
:103F9000100BFCF729FA41EC100B51EC180B53EC09
:103FA000102B002C0EDAFCF778F99DED061B53EC74
:103FB000112BFCF719FA9DED061B53EC112BFCF7A6
:103FC00010FA35E0FCF769F99DED061B53EC112B57
:103FD000FCF70AFA41EC100B2F48784400EBC400C0
:103FE00090ED001B51EC100B53EC112BFCF7F6F984
:103FF0009DED061B53EC112BFCF7F0F941EC100B77
:104000002648784400EBC40090ED001B51EC100BE7
:1040100053EC112BFCF7E5F941EC100B002DA2BF7E
:10402000BDEC068B02B070BD51EC100B81F000416D
:1040300041EC100B01E70000000010440000F07F8D
:10404000182D4454FB21F93F182D4454FB21F9BF8E
:104050000000DC3F0000203E0000F33F00000000B5
:10406000000000000000F03F0000E63F00000000FC
:10407000000000000000004000800340000000003D
:10408000000000000000F83F000000000000F0BF4A
:10409000D23200008832000012320000CA31000023
:1040A0002DE9F04D2DED040B2DED0E8B96B0DDE9D5
:1040B0002550279CDDF890A025F0004624F000480C
:1040C000BAF1000F14BF0121002101EB4502FC49A8
:1040D00053184A1093422AD3002814BF0123002307
:1040E00003EB44030B44F7498B4220D358EA000109
:1040F0009FEDF59B76D0DFF8D8B35D4503D1BAF1DB
:10410000000F05D188E0BAF1000F08BF002100D0F0
:10411000012101EB450111F5001F08D8002814BF4B
:104120000121002101EB440111F5001F0BD99DED88
:10413000261B9DED240B16B0BDEC0E8B04B0BDE824
:10414000F04D01F083BA0027002DBCBFE14988453E
:1041500021DAE1498845A8BF02271CDAC3451ADCE9
:10416000DE4901EB2851142908DDC1F1340220FA9F
:1041700002F101FA02F282420DD108E058B9C1F110
:10418000140228FA02F101FA02F2424503D101F0C9
:104190000101C1F1020756EA0A0124D1002C22DAFA
:1041A000002D18BF022F01D0012F0AD0022001F0EC
:1041B00097FA16B0BDEC0E8B04B0BDE8F04D01F0DF
:1041C00023BA022001F08CFA01F01EFA51EC100B18
:1041D00081F0004141EC100B16B0BDEC0E8B04B029
:1041E000BDE8F08D18E09FEDBEAB9FEDBF8B0028C2
:1041F00071D1B848804522D105F1804010F580107A
:1042000008BFBAF1000F07D0B3450ADC002CA8BFE5
:104210009DED260BE0DA0DE0B0EE490AF0EE690AFA
:10422000DAE7002C06DA9DED260B51EC100B81F03D
:1042300000416FE0AE48784490ED000BCCE7D845E4
:104240004DD1002C48DA2EB186423AD1BAF1000F96
:1042500042D126E0BAF1000F13D0022001F040FA5B
:1042600001F00EFA8DED020B9DED240B8DED000B90
:1042700010EE900A039961F31E0003909DED020B6E
:10428000AAE78DED02AB9DED240B1AEE901A10EE0D
:10429000900A8DED000B61F31E0003909DED020B63
:1042A0009AE78DED028B9DED240B18EE901A10EE1F
:1042B000900A8DED000B61F31E0003909DED020B43
:1042C0008AE709DA9DED240B51EC190B53EC102B06
:1042D000FCF7FCF81EE020E09DED240B7CE7864215
:1042E0001BDAB4F1804F0DD0A4F10050B0F1FF50B3
:1042F00013D1002D11DB9DED240B51EC100B01F0BF
:1043000089FE07E09DED240B53EC102B51EC100BB4
:1043100000F0C2BC41EC100B5EE79DED240B51ECAC
:10432000100B01F028FEBAF1000FCDE90E0142D1C9
:104330009FED710B46B3A6F1E040B0F17F600CD069
:104340005E4538D1002D00DAA7B3022F0CBF012043
:104350004FF0FF30FCF772FADCE7002D01DD002C96
:104360000DDA002D01DD002C1FDB002D16DA002CEC
:1043700014DB012F08BF9FED620B3FF42DAFB0EEB1
:104380004A0AF0EE6A0A27E7022F18BF002D0CD068
:10439000012F0AD1002DFFF61FAF06E0002DB8BF98
:1043A000002C08DA012F3FF417AFB0EE480AF0EE08
:1043B000680A11E71BE0012000EBE57050EA0701F5
:1043C00015D0791EB0EE498AF0EE698A084308BF1D
:1043D0009FED4D8B4E480025804570DD4D494E4880
:1043E000884514DDB0420DDB002C19DB2FE00120E5
:1043F00001F076F916B0BDEC0E8B04B0BDE8F04DBF
:1044000001F02EB9B34502DC002C09DC1FE0864226
:1044100002DA002C1BDA03E05E452BDD002C16DDF2
:10442000022001F05DF901F02BF98DED020B53EC48
:104430001A2B51EC180BFBF7D7FFCDE900010399BC
:10444000019861F31E0003909DED020BC4E602206B
:1044500001F046F901F024F910EE901A18EE900AD6
:104460008DED020B8DED008B61F31E0003909DED31
:10447000020BB1E69DED0E0B53EC192B51EC100B1A
:10448000FBF7ACFF9FED260BCDE9080153EC102B99
:104490009DED080B51EC100BFBF7A6FF9FED221BC7
:1044A00053EC112BFBF79DFF9DED081B53EC112BDB
:1044B000FBF79AFF9FED1E1B53EC112B3CE08CE0A9
:1044C000FFFF1F00FFFF0F00000000000000F03F93
:1044D0000000F03F0000F07F0000404301FCFFFFC0
:1044E000000000000000F07F00000000000000005D
:1044F000E630000000000000000000000000008026
:10450000000000000000F0FF000000000000F0BF0D
:104510000000E0410000F043FFFFEF3F000000001B
:10452000000000000000D03F555555555555D53F6A
:10453000000000000000E03FFBF753FF9DED080B7B
:1045400041EC1A0B53EC102B51EC100BFBF74CFF0A
:1045500053EC1A2BFBF748FF41EC1A0B9FEDFE0BB7
:1045600053EC102B9DED080B51EC100BFBF73CFFAF
:1045700041EC1B0B9FEDFA0B51EC1A0B53EC102B7B
:10458000FBF732FF41EC1A0B9FEDF70B53EC102BAE
:104590009DED080B51EC100BFBF726FF53EC1A2B8B
:1045A000FBF71CFF41EC1A0B51EC1B0B53EC1A2BC5
:1045B000FBF773FE0690CDE906519DED060B53EC1B
:1045C0001B2B51EC100BFBF709FF53EC1A2BFBF7DD
:1045D00008FF41EC100B00F0A1B90020B6F5801FD8
:1045E0000EDA9FEDE30B53EC102B9DED0E0B51EC0F
:1045F000100BFBF7F9FECDE90E016FF034000E460B
:1046000000EB2650A0F2FF37C6F31300DA4940F062
:104610007F6646F040568842D8BF002408DDD7495F
:104620008142C8BF012403DC0024A6F580167F1C4C
:10463000D348784400EBC4000F9690ED00CB9DED7D
:104640000E0B53EC1C2B51EC100BFBF7C7FE9DED32
:104650000E0B41EC1B0B53EC1C2B51EC100BFBF71E
:104660001CFE41EC100B51EC190B53EC102BFBF71B
:104670002DFF41EC1D0B51EC1B0B53EC1D2BFBF7DD
:10468000B3FE41EC1A0BBF488DED10AB784410958A
:1046900090ED000B4FF0005040EA660000EB8440C4
:1046A0008DED080B00F5002009909DED080B53ECF3
:1046B0001C2B51EC100BFBF791FE9DED0E1B53ECE8
:1046C000112BFBF78EFE41EC100B53EC102B9DEDE4
:1046D000100B51EC100BFBF787FE9DED080B41EC26
:1046E0001C0B53EC102B9DED100B51EC100BFBF73A
:1046F0007BFE53EC1B2BFBF774FE53EC1C2BFBF7E0
:104700006DFE53EC1D2BFBF76FFE41EC1C0B53ECC5
:104710001A2B51EC1A0BFBF767FE41EC1B0B9A4866
:104720000621B0EE4B0AF0EE6B0A784400F058FE1A
:10473000B0EE401AF0EE601AB0EE41DAF0EE61DA57
:1047400053EC1B2B51EC1B0BFBF74EFE53EC1D2BBC
:10475000FBF74AFE9DED100B41EC1B0B53EC1A2BA3
:1047600051EC100BFBF799FD53EC1C2BFBF73CFEB7
:1047700053EC1B2BFBF791FD9DED100B41EC1B0B3C
:1047800053EC102B51EC100BFBF72EFE41EC1D0BE4
:104790009FED7FEB53EC1E2BFBF77FFD53EC1B2BA8
:1047A000FBF77BFD0890CDE908519DED080B53EC1C
:1047B0001E2B51EC100BFBF711FE53EC1D2BFBF7DE
:1047C0000DFE53EC1B2BFBF70CFE9DED080B41EC93
:1047D0001D0B53EC102B9DED100B51EC100BFBF748
:1047E00003FE41EC1B0B53EC1A2B51EC1D0BFBF79A
:1047F000FBFD9DED080B41EC1A0B53EC102B51EC1B
:104800001C0BFBF7F1FD53EC1A2BFBF746FD41ECBB
:104810001A0B51EC1B0B53EC1A2BFBF73EFD0C90C3
:10482000CDE90C519DED0C0B53EC1B2B51EC100BF7
:10483000FBF7D4FD53EC1A2BFBF7D3FD41EC1B0B1C
:104840009FED550B53EC102B9DED0C0B51EC100B09
:10485000FBF7CAFD41EC1A0B9FED510B51EC1B0B02
:1048600053EC102BFBF7C0FD41EC1B0B9FED4E0BE7
:1048700053EC102B9DED0C0B51EC100BFBF7B4FD22
:1048800053EC1B2BFBF709FD41EC100B4848784417
:1048900000EBC40090ED001B51EC100B53EC112BFE
:1048A000FBF7FBFC41EC1B0B3846FBF7C7FFCDE9E0
:1048B000080153EC1B2B51EC1A0BFBF7EEFC41ECFF
:1048C000100B3C48784400EBC40090ED00CB51EC59
:1048D000100B53EC1C2BFBF7E0FC9DED081B53EC7D
:1048E000112BFBF7DAFC0690CDE906519DED080B84
:1048F00053EC102B9DED060B51EC100BFBF76EFDEE
:1049000053EC1C2BFBF76AFD53EC1A2BFBF766FDEF
:1049100053EC1B2BFBF765FD41EC100B9DED261BAB
:1049200053EC102B8DED001B00959DED260B51ECEB
:10493000100BFBF759FD9DED000B41EC1A0B53ECEE
:10494000102B9DED260B51EC100BFBF747FD9DED59
:10495000061B53EC112B2FE0000000604715F73FBA
:10496000FE822B654715F73F44DF5DF80BAE543EE2
:1049700000000000000040438E9803007AB60B0050
:10498000322C0000902C00006A2B00000000000078
:104990000000000000000840000000E009C7EE3FF2
:1049A000FD033ADC09C7EE3FF5015B14E02F3EBE84
:1049B000F6290000B0290000FBF716FD53EC1A2B76
:1049C000FBF76BFC9DED060B41EC1A0B53EC102B27
:1049D0009DED000B51EC100BFBF706FDCDE90C0132
:1049E0009DED0C0B51EC1A0B53EC102BFBF755FC07
:1049F000CDE902010C46AA498C422FDB611A08431B
:104A000018D19DED0C0B53EC102B9DED020B51ECCE
:104A1000100BFBF7E3FC41EC1B0B9FEDA30B51ECE0
:104A20001A0B53EC102BFBF738FC53EC1B2BFBF74A
:104A3000E1FD2DD2022000F053FE00F021FE10EE29
:104A4000901A18EE900A8DED020B8DED008B61F33C
:104A50001E0003909DED020BFFF7BEBB944A24F0AD
:104A60000041914214D39349214408437FF4EFACB1
:104A70009DED0C0B53EC102B9DED020B51EC100B2C
:104A8000FBF7ACFC53EC1A2BFBF7B4FD7FF6DFAC65
:104A900024F000408849894A002601EB20518242D7
:104AA0002BDA481C4FF4801121FA00F02044844A8C
:104AB000C0F30A517A44A1F2FF3192ED000B814A12
:104AC0008DED080BCA4020EA0202C0F3130040F447
:104AD0008010C1F1140120FA01F60992002CB8BF30
:104AE00076429DED080B53EC102B9DED0C0B51EC19
:104AF000100BFBF773FCCDE90C019DED0C0B51EC99
:104B00001A0B53EC102BFBF7C8FB9FED6F0B0890B3
:104B1000CDE9085153EC102B9DED080B51EC100B17
:104B2000FBF762FC41EC1B0B9FED690B53EC102B68
:104B30009DED080B51EC100BFBF756FC9DED0C0B9B
:104B400041EC1C0B53EC102B9DED080B51EC100BA2
:104B5000FBF744FC53EC1A2BFBF743FC9FED5E1B69
:104B600053EC112BFBF740FC53EC1C2BFBF795FB94
:104B700041EC1A0B51EC1B0B53EC1A2BFBF78DFB82
:104B8000CDE902019DED020B53EC1B2B51EC100BF8
:104B9000FBF724FC53EC1A2BFBF723FC9DED020BD7
:104BA00041EC1A0B53EC102B51EC100BFBF71CFCD7
:104BB000CDE908014A489DED080B0521784400F035
:104BC0000FFC9DED081B51EC100B53EC112BFBF768
:104BD0000BFC9DED021B53EC112BFBF702FCCDE906
:104BE00006019DED020B53EC1A2B51EC100BFBF759
:104BF000FBFB53EC1A2BFBF750FB9FED3B0B41ECFF
:104C00001A0B53EC102B9DED060B51EC100BFBF720
:104C1000E5FB9DED060B41EC1B0B53EC102B9DEDC2
:104C2000020B51EC100BFBF7DFFB53EC1B2BFBF7DC
:104C30004DFC53EC1A2BFBF7D1FB9DED021B53EC03
:104C4000112BFBF7CBFB53EC192BFBF7CAFBCDE980
:104C5000020101EB065001150029C8BF039015DCC5
:104C60009DED020B324651EC100BFBF77FFDFFF779
:104C700075F8042808BF00F013FD32469DED020BC5
:104C800051EC100BFBF772FDCDE902019DED020B1B
:104C900051EC180B53EC102BFBF7A6FBFFF73ABBBC
:104CA0000000904000000000FE822B654715973CF5
:104CB00000CC904000346F3F01FCFFFF0000E03F5C
:104CC00068280000FFFF0F0000000000432EE63FB1
:104CD000396CA80C615C20BEEF39FAFE422EE63F2B
:104CE0000827000000000000000000000000004055
:104CF00010B52F499FED2C1B2DED020B84B00598AC
:104D000020F000408842DCBF00209DED040B32DD26
:104D10002849884209D1049840B94FF0010000F0B9
:104D2000DFFC00F09DFC06B010BD05DB9DED040B23
:104D300000F082FC06B010BD68469DED040B00F04B
:104D40007BF810F0030011D0012818D09DED021B54
:104D50009DED000B02281AD000F08AFA51EC100BDE
:104D600081F0004106B041EC100B10BD9DED021B1F
:104D70009DED000B012000F0AFFB06B010BD9DEDD6
:104D8000021B9DED000B00F073FA06B010BD012070
:104D900000F0A2FB51EC100B81F0004106B041EC99
:104DA000100B10BD0000000000000000000000001B
:104DB000FB21E93F0000F07F00B52DED048BB0EE44
:104DC000409AF0EE609A83B051EC190BFBF7E5FCCA
:104DD00041EC180B18EE100A18EE901A8DED008BAE
:104DE000002818BF0120084320F00040C0F17F6078
:104DF00000F1E040C00F14D019EE101A19EE900A1D
:104E00008DED009B002918BF0121084320F00040D0
:104E1000C0F17F6000F1E040C00F04BF012000F04E
:104E20005FFCB0EE480A03B0F0EE680ABDEC048BFC
:104E300000BD0000000000002DE9F14F04462DEDFB
:104E4000020B2DED088B8AB09FEDE70B80ED020B76
:104E5000139EE74826F0004585420ADC9DED120BC3
:104E6000002084ED000B0AB0BDEC088B03B0BDE858
:104E7000F08FE0489FEDE0AB9FEDE1BBA84247DD3E
:104E8000E14F9FEDE39B9FEDE48B9DED120B53EC07
:104E90001A2B51EC100B002E1CDDFBF79FFA41EC96
:104EA000100BBD4208D053EC1B2B51EC100BFBF741
:104EB00095FAC4E900010BE053EC192B51EC100BEF
:104EC000FBF78CFA53EC182BFBF788FAC4E90001C6
:104ED0000120C8E7FBF7E1F941EC100BBD4208D017
:104EE00053EC1B2B51EC100BFBF7D7F9C4E9000175
:104EF0000BE053EC192B51EC100BFBF7CEF953ECF4
:104F0000182BFBF7CAF9C4E900014FF0FF30AAE7FC
:104F1000C348A84279DB9DED120B51EC100B01F058
:104F20002AF841EC180B9FEDC00B53EC102BFBF74C
:104F30005BFA9FEDBF1B53EC112BFBF7AEF9FBF7B0
:104F4000B9FC0746FBF77AFC41EC190B53EC1A2B22
:104F5000FBF74AFA53EC182BFBF743FA41EC180B1A
:104F600053EC1B2B51EC190BFBF73EFADFF8C8A2F0
:104F700041EC100B4FEA15580125FA4453EC102B65
:104F800051EC180BFBF72AFA032DC4E900013DD0C0
:104F9000C1F30A5005EB4511A8EB0000113981421D
:104FA00034DA0AEB051BB0EE48AA9BED000BF0EEDD
:104FB00068AA53EC102B51EC190BFBF715FA41ECD6
:104FC0001B0B51EC1A0B53EC1B2BFBF707FA41ECB4
:104FD000180B51EC1A0B53EC182BFBF7FFF953ECA1
:104FE0001B2BFBF7FBF99BED020B41EC1A0B53EC6F
:104FF000102B51EC190BFBF7F7F953EC1A2BFBF7BD
:10500000EDF941EC100B6D1CB8E70EE0002EA8BFC7
:105010003846BFF628AF94ED000B51EC100B81F031
:105020000041C4E9000178421DE7C6F3130040F4D3
:10503000801EC6F30A50A0F2F530471100F01F059C
:10504000C5F12000DDF848B00890002006900790D8
:105050000520EC467949002D07EB0002794408BF92
:1050600051F8221009D051F8223001EB8201AB40F7
:105070004A68089922FA01F11943A1FB0E26A1FB07
:105080000B131A449A4234BF0123002303EB060892
:105090000CEB8003D3E901A60E448E4234BF0121FC
:1050A000002192448A4411B1924502D903E092450D
:1050B00001D2012100E00021C3E901A641444CF8DE
:1050C0002010011EA0F10100C4DC029800F1005084
:1050D000850F0298DDE903678000DDF81480FBF797
:1050E000ADFB41EC1A0B3046FBF75FFA9FED541B0A
:1050F00053EC112BFBF778F941EC1B0B3846FBF70F
:1051000054FA9FED511B53EC112BFBF76DF941EC59
:10511000180B4046FBF749FA9FED4D1B53EC112B42
:10512000FBF762F941EC190B51EC180B53EC192BFE
:10513000FBF7B3F853EC1B2BFBF7AFF853EC1A2B30
:10514000FBF7ABF8CDE90801002008909DED080BB6
:1051500053EC1A2B51EC100BFBF740F953EC1B2BC3
:10516000FBF73CF953EC182BFBF738F953EC192BF0
:10517000FBF737F99FED381B53EC112BFBF734F994
:105180009FED370B41EC180B53EC102B9DED080BEA
:1051900051EC100BFBF728F953EC182BFBF77DF8BB
:1051A0009FED310B41EC180B53EC102B9DED080BD0
:1051B00051EC100BFBF718F953EC182BFBF76DF8BB
:1051C00041EC100B139810F0004F06D06D4251ECDB
:1051D000100B81F0004141EC100B284684ED000BD0
:1051E00041E6000000000000000000000000000098
:1051F000FB21E93F7CD9024000004054FB21F93FEC
:105200003163621A61B4D03DFB21F93F0000000018
:105210000000601A61B4D03D7370032E8A19A33B5D
:10522000FB2139410000000083C8C96D305FE43FB5
:10523000000000000000E03FAA230000F822000068
:10524000000000000000103E000000000000103CC4
:10525000000000000000103A182D4454FB21F93DD5
:105260003326A611460B113C00000054FB21F93DEA
:1052700010B52DED040B2DED088B82B0B0EE419AE8
:10528000F0EE619A0B9820F000449FED4BABB4F127
:10529000795F11DA9DED0A0B51EC100BFBF70AFB5D
:1052A000002801BFB0EE4A0AF0EE6A0A02B0BDEC77
:1052B000088B04BF04B010BD9DED0A0B53EC102BFE
:1052C00051EC100BFBF790F841EC180B3C48062111
:1052D000B0EE480AF0EE680A784400F081F853EC2A
:1052E000182B51EC100BFBF77FF89DED0A0B41ECEE
:1052F0001B0B53EC192B51EC100BFBF775F841EC21
:10530000190B53EC1B2B51EC180BFBF76DF853ECFE
:10531000192BFBF763F89FED2C0B41EC190B53ECA9
:10532000102B51EC180BFBF75FF841EC100B2848E1
:10533000844210DA53EC192B51EC100BFBF74EF8AA
:1053400053EC1A2BFBF74DF841EC100B02B0BDECFF
:10535000088B04B010BD1F48A042BCBF9FED1E1BB0
:105360008DED001B06DBA4F50010019000200090DD
:105370009DED001B51EC100B53EC112BFBF72EF89D
:105380009DED000B41EC180B53EC102B51EC1A0B5C
:10539000FBF724F841EC1A0B53EC192B51EC180BCA
:1053A000FBF71CF853EC1A2BFBF71BF841EC100B26
:1053B000CCE7000000000000000000000000F03F0B
:1053C0001420000000000000000000000000E03F8A
:1053D0003333D33F0000E93F000000000000D23F1C
:1053E00070B504462DED028B4D1E00EBC500B0EEEE
:1053F000408AF0EE608A90ED000B35F0060017D081
:1054000053EC182B51EC100BFAF7EEFF41EC100B9C
:105410006D1E04EBC50090ED001B51EC100B53EC1E
:10542000112BFAF73AFF41EC100B35F00600E7D1EB
:10543000022D36D0042D1CD0062D1CBFBDEC028BD6
:1054400070BD53EC182B51EC100BFAF7CDFF94ED17
:105450000A1B53EC112BFAF720FF53EC182BFAF729
:10546000C3FF94ED081B53EC112BFAF716FF41EC28
:10547000100B53EC182B51EC100BFAF7B5FF94ED11
:10548000061B53EC112BFAF708FF53EC182BFAF715
:10549000ABFF94ED040B53EC102BFAF7FEFE41EC3E
:1054A000100B53EC182B51EC100BFAF79DFF94EDF9
:1054B000021B53EC112BFAF7F0FE53EC182BFAF702
:1054C00093FF94ED001B53EC112BFAF7E6FEBDECB5
:1054D000028B41EC100B70BD31B504462DED040B71
:1054E0002DED0A8BB0EE41BAF0EE61BA0B989DED4E
:1054F0000A0B20F00040B0F1795F0DDA51EC100B8F
:10550000FEF72CFC042808BF00F0CAF89DED0A0B3A
:10551000BDEC0A8B05B030BD53EC102B51EC100BD9
:10552000FAF762FF41EC180B9DED0A0B53EC182BB8
:1055300051EC100BFAF758FF41EC190B2C48B0EE68
:10554000480AF0EE680A05217844FFF749FF9FED0D
:105550002ACBB0EE40AAF0EE60AA9CB353EC1C2B11
:1055600051EC190BFAF740FF41EC1C0B53EC1A2BD2
:1055700051EC190BFAF738FF9FED210B41EC190B99
:1055800053EC102B51EC1B0BFAF72EFF53EC192B9D
:10559000FAF724FF53EC182BFAF726FF53EC1B2BDA
:1055A000FAF71CFF53EC1C2BFAF718FF9DED0A1BB2
:1055B00053EC112BFAF715FFBDEC0A8B05B041EC4B
:1055C000100B30BDFFE753EC1A2B51EC180BFAF718
:1055D0000BFF53EC1C2BFAF760FE53EC192BFAF778
:1055E00003FF9DED0A1B53EC112BFAF756FEE3E780
:1055F000A41E000000000000495555555555C5BF73
:10560000000000000000E03F9FED070B10B553ECD9
:10561000102B9FED070B51EC100BFAF757FF41ECE5
:10562000100B10BD00000000000000000000000092
:10563000000000000000F03F10B553EC102B51ECBF
:10564000100BFAF72AFE41EC100B10BD10B553EC0D
:10565000112B51EC100BFAF720FE41EC100B10BD92
:105660009FED050B10B553EC102B51EC100BFAF716
:105670002DFF41EC100B10BD0000000000000000E9
:105680009FED050B10B553EC102B51EC100BFAF7F6
:10569000ABFE41EC100B10BD0000000000000070DC
:1056A0009FED050B10B553EC102B51EC100BFAF7D6
:1056B0009BFE41EC100B10BD00000000000000102C
:1056C00002E008C8121F08C1002AFAD170477047CB
:1056D000002001E001C1121F002AFBD17047000029
:1056E0000149086070470000640000202DE9FF5F59
:1056F00082B00021DDE90430020DDDF840B0034343
:1057000018D044F61050A2F2FF32424315141198FB
:1057100001281FD0A5EB0B00401C5FEA000A4FF0E8
:1057200000064E4FDFF83891B046504615D5CAF105
:10573000000413E0119801244AA3012801D16FEA63
:105740000B010298119AC0E90031C0E9024206B08B
:10575000BDE8F09FCBF10000DFE704460021404A9E
:10576000491842EB0450CDE9001012E0E00707D0E1
:1057700032463B4640464946FAF736FE8046894661
:1057800032463B4610461946FAF72EFE06460F46AD
:105790006410002CEAD1DDE90401DDE90023BAF14F
:1057A000000F06DAFAF720FE42464B46FAF71CFED7
:1057B00005E0FAF78BFE42464B46FAF787FE0446B1
:1057C0000E460022284BFAF715FF03D84FF0FF30A2
:1057D000014607E00022254B20463146FAF75DFDE1
:1057E000FBF73DF8102409E0002C0ADB0A22002315
:1057F000FAF710FD039B30321A55641E50EA01027D
:10580000F2D1641C039AC4F111031444119A012AC1
:1058100003D0012208430DD10AE0084304D0002040
:105820004FF0110B119072E7A3EB0B056D1E0DE00D
:105830005B4504DD4FF0000205F1010504E003DAE9
:105840004FF00002A5F10105002AECD00298119951
:10585000C0E90231C0E9004579E7000000001440CA
:105860000000F03F300000000000F0430000E03F87
:105870002DE9FF4F95B09A46884606460025EEE191
:10588000252877D100242746F94A0121039400E016
:10589000044316F8013F203B01FA03F01042F7D110
:1058A00030782A2811D06FF02F033078A0F1300221
:1058B000092A16D8039A44F0020402EB820203EB91
:1058C00042021044761C0390EFE758F8042B039231
:1058D000002A03DA504244F40054039044F00204D6
:1058E000761C30782E2816D116F8010F44F00404E7
:1058F0002A280DD06FF02F023078A0F13003092B49
:1059000009D807EB870302EB4303C718761CF3E7BC
:1059100058F8047B761C30786C280FD006DC4C28B5
:1059200017D068280DD06A2814D104E0742810D04C
:105930007A280FD10DE044F400140AE044F48014F6
:1059400001E044F440147278824202D104F58014DC
:10595000761C761C307866280BD013DC582877D05C
:1059600009DC002875D04528F6D04628F4D0472811
:105970001AD193E118E0632835D0642879D06528DE
:1059800012D18BE1702873D008DC6728F1D0692828
:105990006FD06E280DD06F2806D1ACE073282CD0C4
:1059A000752874D0782853D05246179990476D1CAB
:1059B00054E1C4F30250022809D003280DD0D8F8CE
:1059C000001004280DD00D6008F1040846E1D8F855
:1059D0000010EA17C1E90052F6E7D8F800100D8070
:1059E000F2E70D70F0E718F8041B8DF800100020A6
:1059F0008DF80100EB46012003E058F804BB4FF09E
:105A0000FF3061074FF0000102D40DE009F1010100
:105A10008946B9420FDA8145F8DB1BF809100029E5
:105A2000F4D108E009F1010189468142FADB1BF853
:105A300009100029F6D103985346A0EB0907214627
:105A40003846179A00F080FA284400EB090507E071
:105A500044E008E10DE01BF8010B5246179990470E
:105A6000B9F10109F7D2534621463846179AF2E0B8
:105A700039E00A21C4F302524FF0000B0091022AD0
:105A800006D058F8040BC117032A09D00AE023E016
:105A900008F1070020F00702F2E80201904605E055
:105AA00000B2C117042A01D140B2C117002906DA99
:105AB0000A460021404261EB02012D2202E022054C
:105AC00004D52B228DF80420012203E0E20701D047
:105AD0002022F7E7914657E00A2100E010214FF01D
