:020000040800F2
:1000000040660020F10100083D3200087D30000804
:1000100039320008010C0008DD4B00080000000028
:10002000000000000000000000000000553500083E
:10003000050C000800000000413200085735000898
:100040000B0200080B0200080B0200080B0200085C
:100050000B0200080B0200080B0200080B0200084C
:100060000B0200080B0200080B0200080B0200083C
:100070000B0200080B0200080B0200080B0200082C
:100080000B020008000000000B0200080B02000831
:100090000B0200080B0200080B0200080B0200080C
:1000A0000B0200080B0200080B0200080B020008FC
:1000B0000B0200080B0200080B0200080B020008EC
:1000C0000B0200080B0200080B0200080B020008DC
:1000D0000B020008CD4B00080B0200080B020008C1
:1000E0000B0200080B0200080B0200080B020008BC
:1000F0000B0200080B0200080B02000800000000C1
:10010000000000000B020008000000000B020008C5
:100110000B020008000000000B0200080B020008A0
:100120000B0200080B0200080B0200080B0200087B
:100130000B02000800000000000000000B02000895
:100140000B0200080B020008000000000000000085
:10015000000000000000000000000000000000009F
:100160000000000000000000000000000B0200087A
:100170000B0200080000000000000000000000006A
:10018000000000000B02000800000000000000005A
:10019000000000000000000000000000000000005F
:1001A00000000000000000000B0200080B02000825
:1001B0000B0200080B0200080B0200080000000000
:1001C000000000000B02000800000000000000001A
:1001D0000B0200080B020008DFF810D000F0D6FB7D
:1001E0000048004755700008AFF3008040660020CB
:1001F0000648804706480047FEE7FEE7FEE7FEE7C1
:10020000FEE7FEE7FEE7FEE7FEE7FEE7E93500086A
:10021000D90100082DE9F05F0546002092469B4673
:1002200088460646814640241BE02846414647460C
:10023000224600F064FA53465A46C01A914110D340
:1002400011461846224600F04BFA2D1A67EB0108BA
:100250004F4622460120002100F042FA17EB000928
:100260004E41201EA4F10104DFDC484631462A46F7
:100270004346BDE8F09FD2B201E000F8012B491ED1
:10028000FBD270470022F6E710B513460A46044633
:100290001946FFF7F0FF204610BD2DE9FE4F8046BE
:1002A00081EA0300C00F0C46009021F0004123F0CA
:1002B0000045B8EB0200A94105D2404621469046D0
:1002C0001C460B46024623F00040104347D0270D42
:1002D000C7F30A00C3F30A510290401A0190402864
:1002E0006BDAC3F3130040F4801B0098924620B1F0
:1002F0000023D2EB030A63EB0B0B01985946C0F1C4
:100300004002504600F0ECF906460D46504659466C
:10031000019A00F004FA10EB08006141002487EA1A
:10032000115284EAE7731A4340D0009A62B3019AEB
:10033000012A4FEA075215DC001B61EB02014FF066
:10034000004202EA0752CDE90042001C41F580114B
:1003500032462B4600F03BFA03B0BDE8F08F404632
:100360002146F9E7001B61EB0201001C41F58013F7
:1003700000185B412018A2F5001747EB030140EA83
:10038000D570B6196D4111E06D084FEA360645EAA1
:10039000C0754FEA0752001B61EB0201001C41F5DA
:1003A000801149084FEA30000019514132462B466E
:1003B00003B0BDE8F04F00F0FBB900980122400007
:1003C0000023D0EB020263EBE073009821464FEA72
:1003D000E074B8EB000061EB0401E9E783F000434F
:1003E0005BE781F0004158E72DE9FE4F81EA030405
:1003F00004F0004421F0004100944FF0000B23F082
:10040000004350EA01045ED052EA03045BD0C3F318
:100410000A54C1F30A552C44A4F2F3340194A0FB0E
:100420000254C1F3130141F48011C3F3130343F4E5
:10043000801301FB024400FB034E840A970A44EA3E
:10044000815447EA8357A4FB076802958D0A05FB90
:1004500007854FEA932C04FB0C542705029D4FEAB5
:10046000065847EA1637B5EB08056EEB070C870E02
:10047000920E47EA811742EA8312A7FB0201B6EB0C
:100480000B0164EB00042B0D43EA0C335E1844EBC4
:100490001C50DA465146E7FB0201C5F313044FEA4C
:1004A0000B3343EA14534FEA0432019C43EA060338
:1004B000A4F10C040294009CCDE900B400F087F98B
:1004C00003B0BDE8F08F00200146F9E72DE9F04DBB
:1004D00081EA030404F0004B21F0004514464FF07C
:1004E000000A23F0004150EA050220D054EA01023C
:1004F0001DD0C5F30A570246C5F31303C1F3130019
:10050000C1F30A5640F4801543F48013A7EB0608A4
:10051000101BD64608F2FD3873EB050002D308F134
:10052000010801E092185B41B8F1000F03DA0020E6
:100530000146BDE8F08D00204FF480110646844648
:100540000EE0171B73EB050705D3121B63EB0503C6
:1005500006434CEA010C49084FEA300092185B410F
:1005600050EA0107EDD152EA030012D082EA0400FA
:1005700083EA0501084305D0101BAB4106D20122D6
:10058000002306E000224FF0004302E06FF001027A
:1005900053101AEB06004CEB085110EB0A0041EB2C
:1005A0000B01BDE8F04D00F003B90EB540F2334148
:1005B00002910021CDE900110A460B4600F007F92F
:1005C00003B000BDC1F30A5210B5C1F3130140F2EC
:1005D000FF3341F480119A4201DA002010BD40F24D
:1005E00033439A42A2F2334203DC524200F087F8CE
:1005F00010BD904010BD00F0004230F000400AD025
:10060000C10D01F56071C0F3160042EA0151C20844
:1006100040071143704700200146704730B5041E63
:1006200071F1000404DB4FF00044404264EB01012F
:10063000141E73F1000405DB1C464FF000435242C8
:1006400063EB04038B4208BF824230BD30B5041E09
:1006500071F1000404DB4FF00044404264EB0101FF
:10066000141E73F1000405DB1C464FF00043524298
:1006700063EB0403994208BF904230BD01F0004390
:1006800030B421F0004150EA010206D00A0DA2F573
:100690006072C1F31301002A02DC30BC00207047F5
:1006A000440F44EAC104C100E01830BC00EBC25062
:1006B00000F047B830B50B46014600202022012447
:1006C00009E021FA02F59D4205D303FA02F5491B20
:1006D00004FA02F52844151EA2F10102F1DC30BD36
:1006E000202A04DB203A00FA02F1002070479140F2
:1006F000C2F1200320FA03F3194390407047202AE7
:1007000004DB203A21FA02F00021704721FA02F3BB
:10071000D040C2F120029140084319467047202A78
:1007200006DBCB17203A41FA02F043EAE07306E019
:1007300041FA02F3D040C2F1200291400843194629
:1007400070470029A8BF7047401C490008BF20F02F
:100750000100704710B4B0FA80FC00FA0CF050EAC7
:10076000010404BF10BC704749B1CCF1200421FA48
:1007700004F411FA0CF118BF012121430843A3EB43
:100780000C01CB1D4FEA00614FEA102042BF002050
:1007900010BC704700EBC35010440029A4BF10BC2C
:1007A0007047401C490008BF20F0010010BC704792
:1007B00010B5141E73F1000408DA401C41F1000169
:1007C00092185B411A4301D120F0010010BD2DE9C0
:1007D000F04D92469B4611B1B1FA81F202E0B0FAB7
:1007E00080F220329046FFF77BFF04460F4640EA36
:1007F0000A0041EA0B0153465A46084313D01146FA
:1008000053EA010019D0C8F140025046FFF777FFC4
:1008100005460E46504659464246FFF761FF0843DB
:1008200005D0012004E020463946BDE8F08D0020C7
:10083000054346EAE0762C4337430A986305E40A09
:10084000A0EB08000022FD0A44EA47540A3002D512
:1008500000200146E9E7010510196941DDE9084575
:1008600000196941BDE8F04DA2E770B521F00043E1
:1008700003430CD0C1F30A550024D5EB040564EB07
:100880000403D617AD1AB34102DB0020014670BD48
:10089000201841EB025170BD2DE9F04D00231A469E
:1008A0001B1A8A4103DB00200146BDE8F08DC1F32D
:1008B0000A52C1F3130141F480154FF0000BD10728
:1008C00002D100186D41521E0027044640F2FF116C
:1008D000384601EB620A3E468046024600204FF44D
:1008E0008011FFF70CFFC2197141BB1846EB0100E4
:1008F000B4EB030C75EB000C04D3E41A65EB0005B4
:1009000017460E46241908F101006D41804634282F
:10091000E3DDF91946EB0600091BA84103D24FF0AD
:10092000FF32134601E0002213461BEB070046EBA3
:100930000A51BDE8F04DFFF73BBF0EB5C10F80EA8D
:10094000E0700844CA07002140F233438DE80E00EE
:100950000A460B46FFF73BFF03B000BDC1F30A5246
:10096000C1F3130140F2FF3341F480119A4202DADD
:1009700000200146704740F233439A42A2F23342CC
:1009800002DC5242FFF7BBBEFFF7AABE064C074D82
:1009900006E0E06840F0010394E80700984710344F
:1009A000AC42F6D3FFF71CFCC07B0008E07B0008DC
:1009B00070B5C1F30A5201F000450024C1F31301E0
:1009C00040F2FF3341F480119A4201DA002070BDF9
:1009D00040F233439A42A2F2334203DC5242FFF721
:1009E0008EFE00E090402C43F1D0404270BD0000EC
:1009F0001CB506A103C9CDE900014FF47A730722A3
:100A00006946044801F089FD1CBD0000FFFFFFFF9F
:100A1000FFFFFF0058000020FEB505464FF6FF76A9
:100A20000020029001900090002462E040208DF8A8
:100A300008004FF47A73012202A92F4801F06DFDDE
:100A40004FF47A73012201A92B4801F093FC10E0C6
:100A500040208DF808004FF47A73012202A926483D
:100A600001F05BFD4FF47A73012201A9224801F0E5
:100A700081FC9DF8040000F0800020B1301EA6F13A
:100A800001018EB2E4D158208DF808004FF47A733A
:100A9000012202A9184801F040FD4FF47A730322A5
:100AA0006946154801F066FC144850F824009DF88A
:100AB000001008430002114941F82400084650F88C
:100AC00024009DF80110084300020C4941F824005D
:100AD000084650F824009DF802100843074941F8E1
:100AE0002400084650F8240020F07F4041F82400FC
:100AF000641CAC429ADBFEBD580000204C21002053
:100B000070B52DED088B05460E46002425E09FEDBF
:100B1000151B9FED160B04F017FBB0EE40AAF0EE8C
:100B200060AA144951F8241001EB8100FFF73DFD44
:100B300041EC1B0B53EC1A2BFFF7C8FC41EC190BD3
:100B40009FED0D0B53EC102BFFF748FC41EC180BFD
:100B5000FFF794FD45F82400641CB442D7DBBDECDC
:100B6000088B70BD0000000000003840000000004D
:100B7000000000404C210020000000000000044064
:100B8000F8B506460C4615460020009010208DF85A
:100B900000004FF47A7301226946084801F0BDFC59
:100BA0008DF800608DF801408DF802504FF47A7393
:100BB00003226946014801F0B0FCF8BD580000204E
:100BC000F8B506460C4615460020009008208DF822
:100BD00000004FF47A7301226946084801F09DFC39
:100BE0008DF800608DF801408DF802504FF47A7353
:100BF00003226946014801F090FCF8BD580000202E
:100C000000BFFEE7704772B600BFFEE72DE9F05F58
:100C100004460D461646E869012800D100BFA868C1
:100C2000042800D100BF00BF6079012802D1022052
:100C3000BDE8F09F0120607100BF02202071A8680C
:100C4000042855D100F040FB8246D6B90CE000F0F4
:100C50003BFBA0EB0A00012806D9206940F0080000
:100C6000206103202071E3E72068406B00F400401E
:100C70000028ECD1012000F021FA686A216808649C
:100C800019E00CE000F020FBA0EB0A00012806D9D7
:100C9000206940F00800206103202071C8E7206827
:100CA000406B00F000400028ECD1012000F006FA73
:100CB000686A216848642068806C06F0100240F27F
:100CC000FF319140884306F01002A96A9140084321
:100CD000216888642068C06C06F01002FF219140F2
:100CE000884306F01002E96A914008432168C8640D
:100CF000E86901280FD12068876B06F010011F20DA
:100D000088408743D5F8208006F0100008FA00F0EC
:100D10000743206887632068C76B06F0100107202F
:100D200088408743A869012802D14FF000090CE0F0
:100D3000A869022802D14FF0010906E0686910B9DC
:100D40004FF0010901E04FF000096969A868084304
:100D500040EA090806F010014FF48070884087438C
:100D60002879012801D1000200E0002040EA0808AB
:100D700006F010014FF4007088408743687901281D
:100D800001D1400200E0002040EA080827F4404773
:100D9000286802280FD100F0EFFE83462C498B45CE
:100DA00002D947F4004708E02A48834502D947F4AE
:100DB000804702E001E02868074306F0100108FAC6
:100DC00001F007432068C7632068006806F010023E
:100DD0004FF480419140884321680860206807688B
:100DE00006F0100140F6FE7088408743D5F80C806D
:100DF00006F0100108FA01F0074320680760206838
:100E0000006806F01002C021914088432168086004
:100E1000287BC0F38308287CC0F3830048EA0028BD
:100E20002068006E06F0100240F60F719140884372
:100E300006F0100108FA01F1084321680866012054
:100E4000207100BF0020607100BF00BFF0E600000D
:100E50000068890900B4C40410B504460CB9012027
:100E600010BD207920B900206071204600F008F8FC
:100E70000220207100202061012020710020EFE776
:100E800010B586B00446142101A8FFF7FBF91649F6
:100E90002068884225D100BF1448C06C40F48030DF
:100EA0001249C8640846C06C00F48030009000BF4E
:100EB00000BF00BF0846C06C40F00100C86408468F
:100EC000C06C00F00100009000BF00BF1020019036
:100ED000032002900020039001A94FF0904000F001
:100EE00001F906B010BD00000008005000100240DB
:100EF00078B50446002000902068C06B01F0100611
:100F00004FF48075B540284000B900BF20680090BC
:100F100029B902F10800009D2844009004E002F184
:100F20001400009D2844009000980360002078BDC4
:100F300070B504460D4600BF6079012801D102203A
:100F400070BD0120607100BF022020712068006820
:100F500005F010020121914008432168086001203A
:100F600000F0ACF865B92068006800F03E00022887
:100F700016D12068406840F00100216848600FE009
:100F80002068006800F4781105F0100202209040FB
:100F9000814205D12068406840F002002168486025
:100FA0000120207100BF0020607100BF00BFC7E7B3
:100FB0000146002091F82520022A03D00422CA63AA
:100FC000012027E00A68126822F00E020B681A60FE
:100FD0008A6C126822F480728B6C1A600A6812683C
:100FE00022F001020B681A6091F8442002F01F03FE
:100FF00001229A400B6C5A60D1E913325A604A6D53
:1010000042B14A6D126822F480724B6D1A60D1E9C8
:1010100016325A60012281F8252000BF002281F893
:10102000242000BF704770B50446002594F82500C1
:1010300002280BD00420E063012084F8250000BFC3
:10104000002084F8240000BF012534E020680068F7
:1010500020F00E00216808602068006820F0010080
:1010600021680860A06C006820F48070A16C0860A2
:1010700094F8440000F01F0101208840216C486072
:10108000D4E913104860606D40B1606D006820F4D1
:101090008070616D0860D4E916104860012084F802
:1010A000250000BF002084F8240000BFA06B10B111
:1010B0002046A16B8847284670BD000070B50446E5
:1010C00000F002F906462546681C10B10448006885
:1010D000054400BF00F0F8F8801BA842FAD370BDA9
:1010E0000C00002078B503460022D0E0012696408F
:1010F0000D6805EA0604002C72D04D68012D08D059
:101100004D68022D05D04D68112D02D04D68122D6D
:1011100013D1986856000325B540A8435600CD6802
:10112000B54028439860586801259540A8430D793B
:10113000C5F30015954028435860D868560003252C
:10114000B540A84356008D68B5402843D8604D6827
:10115000022D02D04D68122D13D1D60803F12005BF
:1011600055F826005507EE0E0F25B540A843560743
:10117000F60E0D69B5402843D60803F1200545F861
:101180002600186856000325B540A8430D7905F0E0
:1011900003055600B540284318604D6805F080559A
:1011A000B5F1805F72D100BF3C4D2D6E45F0010559
:1011B0003A4E356635462D6E05F00105009500BFA7
:1011C00000BF4FEAB635960855F8260095072E0F52
:1011D0000F25B540A843B3F1904F02D100251AE086
:1011E00054E02F4DAB4201D1012514E02D4DAB420F
:1011F00001D102250FE02C4DAB4201D103250AE0BD
:101200002A4DAB4201D1042505E0294DAB4201D165
:10121000052500E006259607360FB5402843254DE5
:10122000960845F82600244D2868A0434D6805F42B
:101230008035B5F5803F00D120431F4D28602D1D1E
:101240002868A0434D6805F40035B5F5003F00D18E
:101250002043194D2D1D28602D1D2868A0434D6881
:1012600005F48015B5F5801F00D12043124D0835D7
:1012700028602D1D2868A0434D6805F40015B5F5BC
:10128000001F00D120430C4D0C352860521C0D6806
:10129000D540002D7FF42AAF78BD00000010024039
:1012A0000004004800080048000C004800100048F6
:1012B0000014004808000140000401400AB18161A7
:1012C00000E081627047000001480068704700003C
:1012D00004000020034800680349096808440149E4
:1012E00008607047040000200C00002010B50024A6
:1012F000032000F0ABF80F2000F008F808B101243B
:1013000001E000F02FF8204610BD000070B5044643
:10131000002511480068D8B10F4800684FF47A7171
:10132000B1FBF0F00D490968B1FBF0F6304601F071
:1013300047FB58B9102C07D200222146501E00F05E
:1013400047F80748046004E0012502E0012500E0B9
:101350000125284670BD00000C0000201000002070
:101360000800002008B500BF0E48006E40F00100E4
:101370000C4908660846006E00F00100009000BFAE
:1013800000BF00BF0846806D40F080508865084669
:10139000806D00F08050009000BF00BF00F018F991
:1013A00008BD0000001002400146084600280DDB81
:1013B00000BF00BF00F01F0301229A4043099B00B9
:1013C00003F1E023C3F8002100BF00BF00BF704756
:1013D0002DE9F05F80460D46164603F02BFD0746CB
:1013E00039462A46334601F00700C0F1070ABAF130
:1013F000040F02D94FF0040A01E0C0F1070AD146F8
:1014000000F1040ABAF1070F02D24FF0000A01E01E
:10141000A0F1030AD4464FF0010A0AFA09FAAAF128
:10142000010A0AEA020A0AFA0CFA4FF0010B0BFA57
:101430000CFBABF1010B0BEA030B4AEA0B04214650
:10144000404603F0FFFCBDE8F09F000000BF00F045
:101450000702064B19684FF6FF031940044B0B4374
:1014600043EA0221014B196000BF70470CED00E018
:101470000000FA0500BF00BF00BF00BF00BFBFF300
:101480004F8F00BF00BF00BF0948006800F4E06054
:1014900008490843001D0649086000BF00BF00BF9F
:1014A000BFF34F8F00BF00BF00BF00BF00BFFDE70D
:1014B0000CED00E00000FA0502468ABB41480068D6
:1014C00000F4C060B0F5806F2BD13E4880300068DA
:1014D00020F480703B4BC3F880001846006820F46D
:1014E000C06040F4007018603748006832235843E9
:1014F000364BB0FBF3F0411C00E0491E3148406917
:1015000000F48060B0F5806F01D10029F5D12D483D
:10151000406900F48060B0F5806F51D103207047BE
:1015200008E028488030006820F48070254BC3F81C
:10153000800045E0B2F5007F3AD12248006800F40F
:10154000C060B0F5806F2AD11E488030006840F43A
:1015500080701C4BC3F880001846006820F4C060FF
:1015600040F4007018601848006832235843174B45
:10157000B0FBF3F0411C00E0491E1248406900F442
:101580008060B0F5806F01D10029F5D10D48406928
:1015900000F48060B0F5806F12D10320BFE70948E6
:1015A0008030006840F48070064BC3F8800007E08C
:1015B0000448006820F4C06040F48060014B18606B
:1015C0000020ACE7007000401000002040420F00F7
:1015D0000348806840F480400149886070470000FB
:1015E000007000402DE9F84304460027B846206803
:1015F00000F40020B0F5002F73D1B946D348806DB8
:1016000000F0805078B900BFD048806D40F0805025
:10161000CE4988650846806D00F08050009000BF7C
:1016200000BF4FF00109CA48006840F48070C84903
:101630000860FFF749FE064606E0FFF745FE801BFF
:10164000022801D9032705E0C148006800F4807032
:101650000028F2D000BF002F46D1BC48903000686F
:1016600000F44075CDB1206CA84216D0B748903038
:10167000006820F44075B548D0F8900040F4803000
:10168000B249C1F890000846D0F8900020F48030AC
:10169000C1F890000846C0F8905005F00100A0B1D4
:1016A000FFF712FE064608E0FFF70EFE801B41F230
:1016B0008831884201D9032706E0A44890300068A9
:1016C00000F002000028EFD000BF5FB99F489030C3
:1016D000006820F44070216C08439C49C1F89000D8
:1016E00003E00CE0B84600E0B846B9F1010F05D1BF
:1016F0009648806D20F080509449886500BF20781E
:1017000000F0010048B191488830006820F00300E3
:10171000616808438D49C1F88800207800F0020014
:10172000022809D189488830006820F00C00A1689F
:1017300008438649C1F88800207800F00400042896
:1017400009D182488830006820F03000E168084301
:101750007E49C1F88800207800F00800082809D1E7
:101760007A488830006820F0C00021690843774932
:10177000C1F88800207800F02000202809D17348A3
:101780008830006820F44060616908436F49C1F8FF
:101790008800207800F04000402809D16B4888304C
:1017A000006820F44050A16908436849C1F88800E6
:1017B000207800F08000802809D1644888300068D3
:1017C00020F44040E16908436049C1F8880020885E
:1017D00000F48070B0F5807F09D15C4888300068E3
:1017E00020F44030216A08435849C1F88800208815
:1017F00000F40070B0F5007F09D1544888300068CB
:1018000020F44020616A08435049C1F888002088CC
:1018100000F48060B0F5806F13D14C4888300068C8
:1018200020F44010A16A0843484988310860A06A42
:10183000B0F5801F05D14548C06840F48010434989
:10184000C860208800F40060B0F5006F13D13F48F5
:101850008830006820F44000E16A08433B49883141
:101860000860E06AB0F5800F05D13848C06840F4E0
:1018700080103649C860208800F48050B0F5805F41
:1018800013D132488830006820F04070216B084343
:101890002E4988310860206BB0F1807F05D12B483C
:1018A000C06840F480102949C860208800F40050C6
:1018B000B0F5005F13D125488830006820F0406003
:1018C000616B0843214988310860606BB0F1006F9B
:1018D00005D11E48C06840F480101C49C8602088AB
:1018E00000F48040B0F5804F13D11848883000686C
:1018F00020F04060A16B0843144988310860A06B58
:10190000B0F1006F05D11148C06840F480100F4954
:10191000C860208800F40040B0F5004F13D10B4898
:101920008830006820F04050E16B08430749883157
:101930000860E06BB0F1805F05D10448C06840F4F6
:1019400080300249C8604046BDE8F883001002407C
:10195000007000402DE9F04104460D464FF00008AC
:1019600014B90120BDE8F0817D48006800F00F0047
:10197000A8420ED27A48006820F00F002843784928
:1019800008600846006800F00F00A84201D001205E
:10199000E8E7207800F00100002864D060680328A0
:1019A00023D17048006800F0007008B90120D9E721
:1019B00001F048FC06466C48864237D96948806881
:1019C00000F0F00030B1207800F0020002282DD1A4
:1019D000A06858BB6348806820F0F00040F08000A9
:1019E000604988604FF0800820E06068022806D1D6
:1019F0005C48006800F4003040B90120B2E7594863
:101A0000006800F4806008B90120ABE700F0DEF860
:101A100006465548864209D95248806820F0F000B1
:101A200040F080004F4988604FF080084D48806842
:101A300020F00300616808434A498860FFF744FCCE
:101A4000074608E0FFF740FCC01B41F2883188429E
:101A500001D9032086E74348806800F00C006168E4
:101A6000B0EB810FEED1207800F00200022820D1E7
:101A7000207800F00400042805D13A48806840F43A
:101A8000E06038498860207800F00800082807D115
:101A90003448806820F4605040F4E0603149886048
:101AA0003048806820F0F000A16808432D49886024
:101AB00008E0B8F1800F05D12A48806820F0F000D6
:101AC000284988602648006800F00F00A84219D90C
:101AD0002348006820F00F00284321490860FFF7E1
:101AE000F3FB074608E0FFF7EFFBC01B41F288312C
:101AF000884201D9032035E71948006800F00F003B
:101B0000A842F0D1207800F00400042807D115483D
:101B1000806820F4E060E16808431249886020781A
:101B200000F00800082808D10E48806820F46050B2
:101B3000216940EAC1000B49886000F047F8094973
:101B40008968C1F30311094A515C01F01F01C840C3
:101B50000749086007480068FFF7D8FB02E7000064
:101B6000002002400010024000B4C4046A71000862
:101B700010000020080000200148006870470000A5
:101B80001000002000B5FFF7F7FF05498968C1F391
:101B90000221044A515C01F01F01C84000BD000051
:101BA000001002407A71000800B5FFF7E5FF054913
:101BB0008968C1F3C221044A515C01F01F01C84089
:101BC00000BD0000001002407A71000870B5224D7F
:101BD000AD6805F00C05042D01D120483AE01E4DFA
:101BE000AD6805F00C05082D01D11D4832E01A4DF5
:101BF000AD6805F00C050C2D2BD1174DED6805F0E7
:101C00000304154DED68C5F303156A1C022C0CD0B6
:101C1000032C09D1124DB5FBF2F50F4EF668C6F351
:101C2000062605FB06F10AE000BF0C4DB5FBF2F5F8
:101C3000094EF668C6F3062605FB06F100BF00BF95
:101C4000054DED68C5F341656D1C6B00B1FBF3F00C
:101C500000E0002070BD0000001002400024F400ED
:101C600000127A002DE9F843044614B90120BDE8BA
:101C7000F883207800F00100002865D0FC488068D7
:101C800000F00C07FA48C06800F003060C2F01D1E1
:101C9000032E01D0082F0AD1F548006800F4003067
:101CA000002851D0606800284ED10120DFE700BF36
:101CB0006068B0F5803F06D1ED48006840F48030A0
:101CC000EB4908601AE06068B0F5A02F0BD1E84836
:101CD000006840F48020E64908600846006840F447
:101CE000803008600AE0E248006820F48030E04973
:101CF00008600846006820F48020086000BF606823
:101D000088B1FFF7E1FA054606E0FFF7DDFA401B70
:101D1000642801D90320AAE7D548006800F4003000
:101D20000028F2D010E0FFF7CFFA054606E0FFF7F3
:101D3000CBFA401B642801D9032098E7CC480068FF
:101D400000F400300028F2D1207800F002000228D0
:101D500060D1C748806800F00C07C548C06800F033
:101D600003060C2F01D1022E01D0042F18D1C04838
:101D7000006800F4806018B1E06808B9012076E7D7
:101D8000BB48406820F0FE40217C40EA0160B84931
:101D90004860B8480068FFF7B9FA18B3012066E751
:101DA000E06800B3B248006840F48070B049086051
:101DB000FFF78AFA054606E0FFF786FA401B02287D
:101DC00001D9032053E7AA48006800F48060002886
:101DD000F2D0A748406820F0FE40217C40EA016034
:101DE000A349486016E0A248006820F48070A0492A
:101DF0000860FFF769FA054606E0FFF765FA401B41
:101E0000022801D9032032E79948006800F4806075
:101E10000028F2D1207800F00800082836D1606947
:101E2000D0B193489430006840F001009049C1F867
:101E30009400FFF749FA054606E0FFF745FA401B14
:101E4000022801D9032012E789489430006800F085
:101E500002000028F1D019E085489430006820F095
:101E600001008349C1F89400FFF72EFA054606E009
:101E7000FFF72AFA401B022801D90320F7E67C4825
:101E80009430006800F002000028F1D1207800F0C2
:101E90000400042872D14FF000087548806D0121BC
:101EA00021EA107078B100BF7148806D40F0805019
:101EB0006F4988650846806D00F08050009000BF33
:101EC00000BF4FF001086C48006800F48070B0B9A2
:101ED0006948006840F4807067490860FFF7F4F9CA
:101EE000054606E0FFF7F0F9401B022801D9032060
:101EF000BDE66148006800F480700028F2D000BFA1
:101F0000A068012808D15A489030006840F00100CC
:101F10005749C1F8900021E0A06805280FD1544826
:101F20009030006840F004005149C1F89000084624
:101F3000D0F8900040F00100C1F890000EE04C484D
:101F40009030006820F001004949C1F8900008462F
:101F5000D0F8900020F00400C1F8900000BFA06805
:101F6000A8B1FFF7B1F9054609E0FFF7ADF9401B4D
:101F700041F28831884202D9032078E625E03C48C6
:101F80009030006800F002000028EED013E0FFF768
:101F90009BF9054608E0FFF797F9401B41F28831AD
:101FA000884201D9032062E631489030006800F091
:101FB00002000028EFD1B8F1010F05D12C48806D47
:101FC00020F080502A49886500BF207800F020006A
:101FD000202836D1A069D0B125489830006840F05B
:101FE00001002349C1F89800FFF76EF9054606E0A5
:101FF000FFF76AF9401B022801D9032037E61C4885
:102000009830006800F002000028F1D019E018486C
:102010009830006820F001001549C1F89800FFF7DA
:1020200053F9054606E0FFF74FF9401B022801D996
:1020300003201CE60E489830006800F002000028DB
:10204000F1D1E069002860D00948806800F00C00F8
:102050000C287FD0E069022858D10548006820F09C
:10206000807003490860FFF72FF905460DE0000076
:10207000001002400800002000700040FFF724F923
:10208000401B022801D90320F1E54D48006800F00B
:1020900000700028F2D1D4E90810401E41EA001176
:1020A000A06A41EA0021208E0122C2EB500041EAE1
:1020B00040513420005DC2EB500041EA40612C20C9
:1020C000005D41EAC0603E49C9683E4A114008438C
:1020D0003B49C8600846006840F0807008600846C8
:1020E000C06840F08070C860FFF7EEF8054606E073
:1020F000FFF7EAF8401B022801D90320B7E5304872
:10210000006800F000700028F2D056E02C4800680B
:1021100020F080702A4908600846C06820F003005B
:10212000C8600846C068284908402549C860FFF7CC
:10213000CBF8054607E00DE0FFF7C6F8401B022884
:1021400001D9032093E51E48006800F000700028C4
:10215000F2D132E0E069012800D188E51848C6686C
:1021600006F00301206A814225D106F0F001606A81
:10217000401EB1EB001F1ED106F4FE41A06AB1EB78
:10218000002F18D106F078412C20005DB1EBC06F14
:1021900011D106F4C001208E0122C2EB5000B1EB38
:1021A000405F08D106F0C0613420005DC2EB5000F2
:1021B000B1EB406F01D0012059E5002057E5000048
:1021C000001002400C809F01FFFFEEFE70B5044638
:1021D0000CB9012070BD606A38B96068B0F5827FC3
:1021E00000D105E00021E16102E00021216161618F
:1021F0000021A16294F85D0028B9002084F85C00F9
:10220000204600F061F8022084F85D002068006834
:1022100020F0400021680860E068B0F5E06F01D967
:10222000002501E04FF48055E068B0F5706F05D0EF
:10223000E068B0F5E06F01D00021A162A08800F451
:102240008270218901F404410843217C01F00201DC
:102250000843217D01F001010843218B01F4007145
:102260000843217F01F0380108432021095D01F076
:1022700080010843218D01F4005108432168086062
:102280000421A06901EA104094F8241001F0100123
:10229000084394F8341001F008010843A18901F4BF
:1022A0007061084305F48051084321684860206844
:1022B000C06920F400602168C86100202066012008
:1022C00084F85D00002085E710B586B0044614212F
:1022D00001A8FDF7D7FF24492068884242D100BFFA
:1022E0002248006E40F48050204908660846006E7F
:1022F00000F48050009000BF00BF00BF0846C06CD3
:1023000040F00100C8640846C06C00F00100009075
:1023100000BF00BF00BF0846C06C40F00200C864A8
:102320000846C06C00F00200009000BF00BFC02053
:102330000190022002900020039004900520059057
:1023400001A94FF09040FEF7CDFE08200190022039
:1023500002900020039004900520059001A90448F4
:10236000FEF7C0FE06B010BD003001400010024074
:10237000000400482DE9F8430446884616461D46E9
:102380004FF000096068B0F5827F0DD1A06858B9A0
:10239000042084F85D0033464246414620460095BD
:1023A00000F0B0F9BDE8F88300BF94F85C000128A4
:1023B00001D10220F6E7012084F85C0000BFFEF79F
:1023C00083FF074694F85D00012802D04FF0020910
:1023D00099E0B8F1000F00D016B94FF0010992E072
:1023E000042084F85D0000202066C4F84080A4F832
:1023F0004460A4F84660A063A087E087E06420659D
:10240000E068B0F5E06F06D92068406820F480509D
:102410002168486005E02068406840F480502168E9
:102420004860A068B0F5004F0BD12068006820F02C
:102430004000216808602068006820F4804021681E
:1024400008602068006800F04000402805D020683F
:10245000006840F0400021680860E068B0F5E06F77
:1024600022D81CE02068806800F0010060B120687C
:10247000007B216C0870206C401C2064B4F846007E
:10248000401EA4F846000AE0FEF71EFFC01BA8424B
:1024900001D3681C00B915B94FF0030933E0B4F853
:1024A00046000028DED121E01CE02068806800F0B2
:1024B000010060B12068C068216C0880206C801C1D
:1024C0002064B4F84600401EA4F846000AE0FEF777
:1024D000FBFEC01BA84201D3681C00B915B94FF020
:1024E000030910E0B4F846000028DED13A46294638
:1024F000204600F0DBFE08B120202066206E08B1E7
:102500004FF0010900BF012084F85D0000BF0020EA
:1025100084F85C0000BF484644E72DE9F84F0446C4
:10252000884616461D464FF0000A00BF94F85C002E
:10253000012802D10220BDE8F88F012084F85C0058
:1025400000BFFEF7C1FE0746B14694F85D000128C2
:1025500002D04FF0020ACBE0B8F1000F00D016B95C
:102560004FF0010AC4E0032084F85D0000202066DB
:10257000C4F83880A687E6872064A4F84400A4F84D
:1025800046002065E064A068B0F5004F0BD12068DC
:10259000006820F04000216808602068006840F46E
:1025A0008040216808602068006800F040004028F2
:1025B00005D02068006840F0400021680860E068AD
:1025C000B0F5E06F2FD9606810B1B9F1010F09D1F2
:1025D000A06B00882168C860A06B801CA063E08F9E
:1025E000401EE0871BE02068806800F0020002289F
:1025F0000AD1A06B00882168C860A06B801CA06312
:10260000E08F401EE0870AE0FEF75EFEC01BA84296
:1026100001D3681C00B915B94FF0030A68E0E08FD8
:102620000028E0D14AE0606810B1B9F1010F17D17C
:10263000E08F01280AD9A06B00882168C860A06BD0
:10264000801CA063E08F801EE08709E0A06B00780B
:1026500021680873A06B401CA063E08F401EE087D8
:1026600029E02068806800F00200022818D1E08F7D
:1026700001280AD9A06B00882168C860A06B801C63
:10268000A063E08F801EE08715E0A06B00782168D2
:102690000873A06B401CA063E08F401EE0870AE037
:1026A000FEF712FEC01BA84201D3681C00B915B981
:1026B0004FF0030A1CE0E08F0028D2D13A462946A9
:1026C000204600F034FE08B120202066A06850B9F2
:1026D00000BF002000902068C068009020688068DB
:1026E000009000BF00BF206E08B14FF0010A00BF8C
:1026F000012084F85D0000BF002084F85C0000BF6A
:10270000504618E72DE9FF5F0446894692461D466C
:102710000E9E012001900020009000BF94F85C0004
:10272000012803D1022004B0BDE8F09F012084F805
:102730005C0000BFFEF7C8FD074694F85D000290FC
:1027400060680390A846AB46029801280BD0039816
:10275000B0F5827F04D1A06810B90298042802D095
:102760000220009022E1B9F1000F03D0BAF1000F6E
:1027700000D015B90120009018E194F85D000428FC
:1027800002D0052084F85D0000202066C4F840A037
:10279000A4F84650A4F84450C4F83890E587A587BB
:1027A000E0642065E068B0F5E06F02D8BBF1010F8E
:1027B00006D92068406820F480502168486005E010
:1027C0002068406840F480502168486020680068B4
:1027D00000F04000402805D02068006840F040002C
:1027E00021680860E068B0F5E06F4ED9606810B10C
:1027F000B8F1010F09D1A06B00882168C860A06BF7
:10280000801CA063E08F401EE08736E0206880686F
:1028100000F00200022810D1E08F70B10198012869
:102820000BD1A06B00882168C860A06B801CA063DE
:10283000E08F401EE087002001902068806800F053
:10284000010080B1B4F8460068B12068C068216C0E
:102850000880206C801C2064B4F84600401EA4F858
:10286000460001200190FEF72FFDC01BB04204D3AB
:10287000701C10B10320009098E0E08F0028C5D1B3
:10288000B4F846000028C1D185E0606810B1B8F105
:10289000010F17D1E08F01280AD9A06B00882168A9
:1028A000C860A06B801CA063E08F801EE08709E0F9
:1028B000A06B007821680873A06B401CA063E08FB8
:1028C000401EE08760E02068806800F00200022877
:1028D0001ED1E08FE0B10198012819D1E08F0128C5
:1028E0000AD9A06B00882168C860A06B801CA06317
:1028F000E08F801EE08709E0A06B007821680873F4
:10290000A06B401CA063E08F401EE0870020019078
:102910002068806800F0010058B3B4F8460040B366
:10292000B4F84600012816D92068C068216C0880D8
:10293000206C801C2064B4F84600801EA4F8460079
:10294000B4F84600012812D82068406840F480504E
:10295000216848600BE02068007B216C0870206CC7
:10296000401C2064B4F84600401EA4F84600012034
:102970000190FEF7A9FCC01BB04201D3701C00B946
:1029800016B90320009011E0E08F00289BD1B4F825
:102990004600002897D13A463146204600F0C7FC51
:1029A00018B1012000902020206600BF012084F88B
:1029B0005D0000BF002084F85C0000BF0098B2E614
:1029C00070B504462546681EB0F1807F01D3012012
:1029D0000FE0681E4FF0E02148610F214FF0FF30FB
:1029E00002F030FA00204FF0E021886107200861F2
:1029F000002070BD014600BF91F88000012801D180
:102A000002207047012081F8800000BF2420C1F817
:102A10008400086802680868006820F001000B68FC
:102A2000186022F0005200204866086802602020EA
:102A3000C1F8840000BF002081F8800000BF00BF03
:102A4000DFE77047704770B504460D4600BF94F845
:102A50008000012801D1022070BD012084F880008F
:102A600000BF2420C4F8840020680668206800683D
:102A700020F00100216808602068806820F0606014
:102A8000284321688860204601F0DEFA206806604D
:102A90002020C4F8840000BF002084F8800000BF1C
:102AA00000BFD9E770B504460D4600BF94F880001A
:102AB000012801D1022070BD012084F8800000BFF0
:102AC0002420C4F88400206806682068006820F08C
:102AD0000100216808602068806820F06040284379
:102AE00021688860204601F0AFFA20680660202047
:102AF000C4F8840000BF002084F8800000BF00BF3D
:102B0000D9E77047704770472DE9F04704462068C1
:102B1000C569206806682068876840F60F0005EAE6
:102B20000009B9F1000F0FD105F0200060B106F0E7
:102B3000200010B907F0805030B1206F10B120464E
:102B4000216F8847BDE8F087B9F1000F7ED0AD480E
:102B5000384018B9AC4830400028F7D005F00100E3
:102B600058B106F4807040B1012021680862D4F8A1
:102B70008C0040F00100C4F88C0005F0020058B150
:102B800007F0010040B1022021680862D4F88C00EF
:102B900040F00400C4F88C0005F0040058B107F0C0
:102BA000010040B1042021680862D4F88C0040F094
:102BB0000200C4F88C0005F0080070B106F0200097
:102BC00010B99048384040B1082021680862D4F814
:102BD0008C0040F00800C4F88C0005F4006060B17F
:102BE00006F0806048B14FF4006021680862D4F8B4
:102BF0008C0040F02000C4F88C00D4F88C00002831
:102C000044D005F0200050B106F0200010B907F0C4
:102C1000805020B1206F10B12046216F8847D4F832
:102C20008CA02068806800F04000402802D00AF0A4
:102C3000280028B3204601F0F7FA2068806800F0E9
:102C40004000402818D12068806800E01FE020F094
:102C5000400021688860E06F50B16C48E16F886384
:102C6000E06FFEF7E0F988B1E06F816B88470DE017
:102C70002046FFF748FF09E02046FFF744FF05E044
:102C80002046FFF740FF0020C4F88C005AE7E06EB2
:102C9000012879D105F01000002875D006F0100049
:102CA000002871D01020216808622068806800F038
:102CB000400040283DD1E06F006840681FFA80F86E
:102CC000B8F1000F34D0B4F85C00404530DDA4F812
:102CD0005E80E06F0068006800F02000F8B92068AE
:102CE000006820F48070216808602068806820F007
:102CF0000100216888602068806820F04000216819
:102D000088602020C4F888000020E0662068006801
:102D100020F0100021680860E06FFEF749F9B4F870
:102D20005C00B4F85E20801A81B22046FFF789FE6D
:102D300008E734F85C0F6188401A1FFA80F8608851
:102D40005C3CF8B1B8F1000F1CD02068006820F49A
:102D5000907021680860206880682A49C94308404B
:102D6000216888602020C4F888000020E066206781
:102D70002068006820F01000216808604146204665
:102D8000FFF75FFEDEE6FFE705F4801050B107F4C1
:102D9000800038B14FF48010216808622046FFF7A8
:102DA000B1FECFE605F0800058B106F0800010B902
:102DB00007F4000028B1606F10B12046616F8847AA
:102DC000C0E605F0400030B106F0400018B12046E2
:102DD00001F048FAB6E605F4000030B106F0804094
:102DE00018B12046FFF78DFEACE605F0807030B1DB
:102DF00006F0004018B12046FFF724FEA2E600BF0F
:102E0000A0E6000001000010200100040F420008AD
:102E100010B504460CB9012010BDA06900B100E056
:102E200000BFD4F8840028B9002084F88000204630
:102E300000F02AF82420C4F884002068006820F0FC
:102E4000010021680860204601F012FC012800D131
:102E5000E2E7A06A10B1204601F022F9206840683C
:102E600020F49040216848602068806820F02A00A3
:102E7000216888602068006840F0010021680860CF
:102E8000204601F089F9C7E710B586B00446142141
:102E900001A8FDF7F7F91B49206888422FD100BF30
:102EA0001948006E40F48040174908660846006ED5
:102EB00000F48040009000BF00BF00BF0846C06C17
:102EC00040F00400C8640846C06C00F004000090A4
:102ED00000BF00BF3020019002200290002003902C
:102EE00004900720059001A90848FEF7FBF800228E
:102EF00011462520FEF76CFA2520FEF755FA06B09C
:102F000010BD0000003801400010024000080048D9
:102F100070B504460D461646D4F88800202825D101
:102F200005B10EB9012070BD00BF94F880000128E2
:102F300001D10220F7E7012084F8800000BF0020C3
:102F4000E0660B49206888420AD02068406800F497
:102F5000000028B12068006840F0806021680860A7
:102F600032462946204601F049FDDCE70220DAE737
:102F70000080004010B504460749206888420AD105
:102F8000064800780A2801D1FEF774FA01220349A5
:102F90000348FFF7BDFF10BD0038014001000020CD
:102FA000BC0000202DE9F84F04460E46174699460E
:102FB000D4F8840020285ED106B117B90120BDE8FD
:102FC000F88F00BF94F88000012801D10220F6E7B5
:102FD000012084F8800000BF00205434A063212029
:102FE0002063FEF771F9824627806780543CA06811
:102FF000B0F5805F04D1206910B90025B04602E029
:1030000035464FF0000800BF002084F8800000BF64
:103010001DE05346002280212046CDF8009001F0AB
:1030200075FD08B10320CAE745B9B8F80000C0F340
:1030300008002168886208F1020803E02878216806
:1030400088626D1CB4F85600401EA4F85600B4F80F
:1030500056000028DDD15346002240212046CDF8FD
:10306000009001F053FD08B10320A8E72020C4F828
:1030700084000020A3E70220A1E7704700BFFEE71D
:1030800000B58DB0302101A8FDF7FCF810481149BA
:1030900008600846FDF7E0FE08B1FDF7B4FD022028
:1030A000019000208DF808008DF80900039004902D
:1030B000059006900120079000200890002201A9A9
:1030C0000448FDF7A3FD08B1FDF79DFD0DB000BD5F
:1030D000000800504400002000B587B0142102A869
:1030E000FDF7D0F800BF2448C06C40F02000224912
:1030F000C8640846C06C00F02000019000BF00BF0B
:1031000000BF0846C06C40F00100C8640846C06CAF
:1031100000F00100019000BF00BF00BF0846C06C76
:1031200040F00400C8640846C06C00F00400019040
:1031300000BF00BF00BF0846C06C40F00200C8647A
:103140000846C06C00F00200019000BF00BF0022E2
:1031500020214FF09040FEF7B1F82020029001208E
:103160000390022004900020059002A94FF09040A7
:10317000FDF7B8FF07B000BD0010024010B51148C0
:10318000114908604FF48270486000210E48816048
:103190004FF4E061C16002210161012141614902F6
:1031A00081613821C1610021016241628162072190
:1031B000C162002101634163FFF708F808B1FDF720
:1031C00022FD10BD003001405800002010B5184805
:1031D000184908604FF4E1304860002115488160CB
:1031E000C16001610C21416100218161C161016205
:1031F000416200200F4988620846FFF709FE08B1C6
:10320000FDF701FD00210B48FFF74CFC08B1FDF76D
:10321000FAFC00210748FFF716FC08B1FDF7F3FCA4
:103220000448FFF7E7FB08B1FDF7EDFC10BD000017
:1032300000380140BC00002000BFFEE700BFFEE7F1
:103240007047000070B5164DED6805F00304144D8D
:10325000ED68C5F303156B1C022C0CD0032C09D1AF
:10326000104DB5FBF3F50E4EF668C6F3062605FBCA
:1032700006F10AE000BF0C4DB5FBF3F5084EF66809
:10328000C6F3062605FB06F100BF00BF044DED683E
:10329000C5F341656D1C6A00B1FBF2F070BD000022
:1032A0000010024000127A000024F400F8B5044631
:1032B0000E4615466068B0F5827F0DD1A068B0F566
:1032C000004F03D0A068B0F5806F05D1206800687A
:1032D00020F040002168086033460022802120460B
:1032E000009500F0CBF828B1206E40F02000206659
:1032F0000320F8BD6068B0F5827F16D1A068B0F5F4
:10330000004F03D0A068B0F5806F0ED13346002285
:103310004FF4C0612046009500F03CF828B1206EC3
:1033200040F0200020660320E3E70020E1E7F8B545
:1033300004460E461546334600224FF4C05120463F
:10334000009500F027F828B1206E40F0200020669C
:103350000320F8BD3346002280212046009500F06E
:103360008DF828B1206E40F0200020660320F0E7A1
:10337000334600224FF4C0612046009500F00AF861
:1033800028B1206E40F0200020660320E1E70020F5
:10339000DFE700002DE9FC4704460D461646984637
:1033A000DDF82890FDF790FFA0EB0900A8EB0007DF
:1033B000FDF78AFF824630480068C0EBC00000EB92
:1033C0008000000D784300904EE0B5F5C06F04D149
:1033D0001EB92068007B019000BF08F101000028A1
:1033E00042D0FDF771FFA0EB0A00B84200D2A7BBA4
:1033F0002068406820F0E000216848606068B0F50F
:10340000827F0DD1A068B0F5004F03D0A068B0F561
:10341000806F05D12068006820F0400021680860B6
:10342000A06AB0F5005F0DD100BF2068006820F4ED
:103430000050216808602068006840F4005021684E
:10344000086000BF012084F85D0000BF002084F800
:103450005C0000BF0320BDE8FC87FFE7009800B9CF
:1034600000270098401E0090206880682840B042E5
:10347000ABD10020EFE70000100000202DE9F84F4D
:1034800004460D4690461E46DDF82890FDF71CFFC9
:10349000A0EB0900371AFDF717FF82462C48006899
:1034A000C0F3CB307843009045E0701C002842D038
:1034B000FDF70AFFA0EB0A00B84200D2A7BB2068C4
:1034C000406820F0E000216848606068B0F5827FC5
:1034D0000DD1A068B0F5004F03D0A068B0F5806FA3
:1034E00005D12068006820F0400021680860A06ACB
:1034F000B0F5005F0DD100BF2068006820F40050D7
:10350000216808602068006840F400502168086065
:1035100000BF012084F85D0000BF002084F85C003B
:1035200000BF0320BDE8F88FFFE7009800B900272F
:103530000098401E0090206880682840A84201D171
:10354000012000E000204045AFD10020EAE7000064
:1035500010000020704710B5FDF7BCFE10BD00B58F
:10356000A5B0382117A8FCF78DFE142112A8FCF78E
:1035700089FE442101A8FCF785FE0020FDF79CFF91
:1035800002201790C0011A9040201B9002201E902C
:1035900002211F91042117A8416255218162022155
:1035A000C16201634163FEF75DFB08B1FDF72BFBD0
:1035B0000F20129003201390002014901590169065
:1035C000042112A8FEF7C6F908B1FDF71CFB012083
:1035D00001900020029001A8FEF704F808B1FDF761
:1035E00012FB25B000BD00000348006840F47000E5
:1035F000014908607047000088ED00E070B50125C2
:10360000057405700025456045720570012641F27C
:1036100010052E5402460025057201254560447AA6
:10362000447200F11001002656619FED210A00F25C
:103630001C4585EDFE0A00230BE01E4D05EB8305BE
:1036400095ED000A01F6080505EB830585ED000AF6
:103650005B1CB3F5FE7FF0DB0025157402F110054D
:10366000C560C16800250D7201254D600D7205729F
:10367000C1684D68012D1AD140F27D168E61032676
:103680000E614FF4BD76C1F8FC679FED090A81ED2C
:10369000050A002308E09FED060A01F11C0505EB71
:1036A000830585ED000A5B1CB3F5FC7FF3DB70BD81
:1036B0000000000088710008027862B901220270DF
:1036C0004268012A07D1027A2AB1C1684A68012AF0
:1036D00001D102224A60027C32B90122027442699D
:1036E000012A01D1022343617047000000B5082080
:1036F0000B49C1F89800C1F8A0009FED0A0A0846DE
:1037000080ED130A0820C1F8A800C1F8B0000648EF
:10371000FFF774FF0248B830FFF770FF00BD0000EC
:103720005C410020DB0FC93F285200202DE9F04109
:103730002DED088B90B0FC4890ED000A10EE101AA9
:103740000846FCF758FF41EC1A0BB0EE4A0AF0EEBF
:103750006A0A02F021FBB0EE409AF0EE609A51EC5A
:10376000190BFCF78BFF08EE100AEF4890ED000AEA
:1037700010EE101A0846FCF73EFF41EC1A0B9FEDC5
:10378000EB0B53EC102BFCF788FD41EC190BFCF70D
:1037900075FFE5490860084690ED000A10EE101A22
:1037A0000846FCF728FF41EC190B9FEDE20B53ECA8
:1037B000102BFCF74BFF16D8DB4890ED000A10EEFB
:1037C000101A0846FCF717FF41EC1A0B9FEDD90BB6
:1037D00053EC102BFCF702FE41EC190BFCF74EFFEB
:1037E000D149086026E0D04890ED000A10EE101A8A
:1037F0000846FCF700FF41EC190B9FEDD00B53EC92
:10380000102BFCF70BFF15D2C74890ED000A10EE05
:10381000101A0846FCF7EFFE41EC1A0B9FEDC50BA2
:1038200053EC102BFCF739FD41EC190BFCF726FF8C
:10383000BD490860C34890ED000A28EE000AB0EECA
:10384000408A1025B848D0F89860D0F89800C0F1A8
:103850001000012817DC00240AE0B348D0F89800D3
:103860000119B148001D00EB810080ED008A641C45
:10387000AD48D0F89800C0F11000A042EDDC002661
:10388000A948D0F89850002407E03119A648001D37
:1038900000EB810080ED008A641CA5F10F00A042BE
:1038A000F3DCA148D0F89800401C9F49C1F898006B
:1038B0000846D0F89800102805DB0846D0F8980094
:1038C0001038C1F898009848D0F8A000401C9649DC
:1038D000C1F8A0000846D0F8A000102818DD08465E
:1038E000D0F89C00D1F8A010084410388E49C1F8D7
:1038F0009C000846D0F89C00102805DD0846D0F84A
:103900009C001038C1F89C0010208749C1F8A00025
:103910008D480068807900287ED18348D0F8A000C7
:1039200008388149C1F8A0000846D0F8A000002856
:1039300017DA0846D0F89C00D1F8A01008447A495C
:10394000C1F89C000846D0F89C00002805DA08461B
:10395000D0F89C001030C1F89C0000207249C1F8DA
:10396000A00000267048D0F89C00002806DA6E48B7
:10397000D0F89C0010306C49C1F89C006A48D0F81F
:103980009C00C0F1100708256748D0F89C00C0F1E2
:103990001000082823DC00240FE06348D0F89C00C6
:1039A00001196148001D00EB810090ED000A08A894
:1039B00000EB840080ED000A641C5B48D0F89C009A
:1039C000C0F11000A042E8DC5748D0F89C00C0F1DC
:1039D000100600205449C1F89C00C7F108050024D6
:1039E00010E05148D0F89C0001194F48001D00EB31
:1039F000810090ED000A301908A901EB800080EDEC
:103A0000000A641CAC42ECDB4748D0F89C00284418
:103A10004549C1F89C0000E016E04C4A4C4908A812
:103A200000F044FA4A48083890ED020A3E4880ED1A
:103A3000110A4748083890ED030A3B4880ED120A06
:103A400000203949C1F8A4003F480068407998B97E
:103A50003548D0F8A410443000EB8100D0ED008A46
:103A60003148D0F8A400012806DA2F48D0F8A40085
:103A7000401C2D49C1F8A4002B4890ED130A10EE0C
:103A8000101A0846FCF7B7FD41EC1A0BB0EE4A0AD3
:103A9000F0EE6A0A02F080F9B0EE409AF0EE609A19
:103AA00051EC190BFCF7EAFD08EE100A1E4890EDE8
:103AB000130A10EE101A0846FCF79DFD41EC1A0B94
:103AC0009FED1A0B53EC102BFCF7E7FB41EC190BA5
:103AD000FCF7D4FD1449C864084690ED130A10EEB3
:103AE000101A0846FCF787FD41EC190B9FED110BEE
:103AF00053EC102BFCF7AAFD2CD80B4890ED130AC1
:103B000010EE101A0846FCF776FD41EC1A0B9FEDFB
:103B1000090B53EC102BFCF761FC41EC190BFCF783
:103B2000ADFD0149C8643CE05C41002065732D385F
:103B300052C1C03F182D4454FB2119400000000021
:103B4000000000003400002084710008285200208A
:103B500054410020C74890ED130A10EE101A084691
:103B6000FCF749FD41EC190B1FED0C0B53EC102B2E
:103B7000FCF754FD15D2BF4890ED130A10EE101A51
:103B80000846FCF738FD41EC1A0B1FED160B53EC01
:103B9000102BFCF782FB41EC190BFCF76FFDB549CC
:103BA000C864B54890ED000A28EE000AB0EE408ADD
:103BB0001025B048D0F8A860D0F8A800C0F11000D7
:103BC000012817DC00240AE0AA48D0F8A80001194F
:103BD000A848503000EB810080ED008A641CA548A5
:103BE000D0F8A800C0F11000A042EDDC0026A148EA
:103BF000D0F8A850002407E031199E48503000EB5F
:103C0000810080ED008A641CA5F10F00A042F3DC66
:103C10009848D0F8A800401C9649C1F8A80008466A
:103C2000D0F8A800102805DB0846D0F8A800103806
:103C3000C1F8A8008F48D0F8B000401C8D49C1F8E9
:103C4000B0000846D0F8B000102818DD0846D0F8BB
:103C5000AC00D1F8B010084410388649C1F8AC0067
:103C60000846D0F8AC00102805DD0846D0F8AC00B6
:103C70001038C1F8AC0010207E49C1F8B0007F4870
:103C80000068807900287CD17A48D0F8B0000838E4
:103C90007849C1F8B0000846D0F8B000002817DA1B
:103CA0000846D0F8AC00D1F8B01008447149C1F80A
:103CB000AC000846D0F8AC00002805DA0846D0F879
:103CC000AC001030C1F8AC0000206A49C1F8B00067
:103CD00000266848D0F8AC00002806DA6548D0F81D
:103CE000AC0010306349C1F8AC006248D0F8AC00B9
:103CF000C0F1100708255F48D0F8AC00C0F11000F3
:103D0000082823DC00240FE05A48D0F8AC00011941
:103D10005848503000EB810090ED000A684600EBF7
:103D2000840080ED000A641C5248D0F8AC00C0F159
:103D30001000A042E8DC4F48D0F8AC00C0F11006FB
:103D400000204C49C1F8AC00C7F10805002410E080
:103D50004848D0F8AC0001194648503000EB8100CB
:103D600090ED000A3019694601EB800080ED000AF1
:103D7000641CAC42ECDB3F48D0F8AC0028443D4921
:103D800000E017E0C1F8AC0001F1B8023C49684618
:103D900000F08CF83A4890ED000A364880ED240A8D
:103DA000374890ED010A334880ED250A002031495B
:103DB000C1F8B400314800684079E8BB2D48D0F81C
:103DC000B410903000EB810090ED000AB0EE408A14
:103DD0002848D0F8B400012806DA2648D0F8B40004
:103DE000401C2449C1F8B40028EEA80A08EE080ACD
:103DF00010EE101A0846FCF7FEFB41EC1B0BB0EE70
:103E00004B0AF0EE6B0A02F02BF8B0EE40AAF0EE8F
:103E100060AA9FED1C0B53EC102B51EC1A0BFCF716
:103E2000E3FA41EC190BFCF729FC1849086088EE0D
:103E3000880A10EE108A00E014E04046FCF7DBFB35
:103E400041EC1A0BB0EE4A0AF0EE6A0A01F010F8E3
:103E5000B0EE409AF0EE609A51EC190BFCF70EFCB4
:103E60000B49086003F010F910B0BDEC088BBDE8F9
:103E7000F08100005C4100203400002084710008C3
:103E80004C410020000000000000004030000020F5
:103E90003800002000B50348FFF70EFC0248FFF78A
:103EA0000BFC00BD28520020144200202DE9F74FE2
:103EB00080468946DDF808B0DBF80C00D0F804B085
:103EC000BBF1010F27D04FF0000B80F808B04FF086
:103ED000010BC0F804B080F808B040F27D1BC0F8B8
:103EE00018B04FF0030BC0F810B04FF4BD7BC0F812
:103EF000FCB79FED540A80ED050A002408E09FED11
:103F0000510A00F11C0B0BEB840B8BED000A641CB7
:103F1000B4F5FC7FF3DB00F10C010027D0F8FC279F
:103F200006698369BA4606F1010BCBEB8B1B4FF098
:103F30007E0ECEEB4B0C002470E091ED020A08EBF4
:103F4000870BDBED000A01F2FC7B0BEB830B9BED97
:103F5000001A00EE810A81ED020A5B1C551C13E079
:103F600091ED020A01F1100B0BEB850BDBED000A62
:103F700001F2FC7B0BEB830B9BED001A00EE810A38
:103F800081ED020A5B1C6D1C0CF17E0B5D45E7DBCD
:103F9000654613E091ED020A01F1100B0BEB850B66
:103FA000DBED000A01F2FC7B0BEB830B9BED001AAF
:103FB00000EE810A81ED020A5B1C6D1C9542E9DD71
:103FC00008EB870B9BED000A01F1100B0BEB820B4A
:103FD0008BED000A7F1C7E32B2F5FC7F01DBA2F57F
:103FE000FC72761C042E02DA0CF17E0C15E091EDC9
:103FF000020A01F6EC7B0BEB8A0B8BED000A0AF14F
:10400000010A9FED100A81ED020A00260023521ECC
:10401000002A00DA7E324FF0000C641C082C8CDB86
:10402000C0F8FC278361066100F60C4B9BEDFB0A90
:1040300089ED000A00F6F87B9BED010A89ED010A83
:10404000BDE8FE8F0000000070B5456E2DB901255A
:10405000A0F86A50A0F868501CE0082308240568FE
:10406000AD68C5F342610568AD686A0F0A4DAD5C85
:1040700015FB04F5094EB65C95FBF6F5A0F86A5001
:10408000054D6D5C15FB03F5044E765C95FBF6F56E
:10409000A0F8685070BD00005A71000862710008F5
:1040A00090F8281001F0010139B10168496821F444
:1040B0000031C26A11430268516090F8281001F083
:1040C0000201022907D10168496821F48031026B9D
:1040D00011430268516090F8281001F0040104298E
:1040E00007D10168496821F48021426B11430268BD
:1040F000516090F8281001F00801082907D10168E3
:10410000496821F40041826B11430268516090F8C4
:10411000281001F01001102907D10168896821F4E5
:104120008051C26B11430268916090F8281001F031
:104130002001202907D10168896821F40051026C0F
:1041400011430268916090F8281001F04001402965
:1041500013D10168496821F48011426C114302684F
:104160005160416CB1F5801F07D10168496821F4A5
:10417000C001826C11430268516090F8281001F070
:104180008001802907D10168496821F40021C26CAF
:10419000114302685160704738B504460020C4F8E6
:1041A0008C00FDF791F805462068006800F00800D3
:1041B00008280CD16FF07E402B4600224FF40011EE
:1041C0000090204600F0A2FC08B1032038BD206812
:1041D000006800F0040004280CD16FF07E402B46EC
:1041E00000224FF480010090204600F08FFC08B1BF
:1041F0000320EBE72020C4F88400C4F888000020E6
:10420000E06600BF84F8800000BF00BFDEE770B545
:104210000546AC6A0020A4F85E00A4F856002046CB
:10422000FEF771FC70BD00000168096821F490710F
:104230000268116001688968094A1140026891604A
:10424000C16E012905D10168096821F010010268D9
:1042500011602021C0F888100021C16601677047F5
:10426000FEFFFFEF10B504462068006820F0400014
:10427000216808602020C4F8840000206067204680
:10428000FEF7FBFE10BD2DE9F0410446B4F8607066
:10429000D4F88800222837D12068406A86B2A56DFC
:1042A00006EA07002880A06D801CA065B4F85E00B7
:1042B000401EA4F85E00B4F85E0020BB20680068D1
:1042C00020F49070216808602068806820F0010068
:1042D000216888602020C4F8880000202067E06EF4
:1042E00001280BD12068006820F0100021680860C8
:1042F000B4F85C102046FEF7A4FB02E02046FEF76F
:1043000039FE0020E06605E02068806940F0080082
:1043100021688861BDE8F0812DE9F84F0446B4F8C2
:1043200060B02068C5692068006800902068D0F8F7
:1043300008A0D4F88800222871D1B4F8689074E0FD
:104340002068406A1FFA80F8A76D08EA0B003880E1
:10435000A06D801CA065B4F85E00401EA4F85E004D
:104360002068C56905F00700B0B305F0010060B131
:10437000009800F4807040B1012021680862D4F8F0
:104380008C0040F00100C4F88C0005F0020058B128
:104390000AF0010040B1022021680862D4F88C00C4
:1043A00040F00400C4F88C0005F0040058B10AF095
:1043B000010040B1042021680862D4F88C0040F06C
:1043C0000200C4F88C00D4F88C0028B12046FEF717
:1043D0009AFB0020C4F88C00B4F85E0028BB20686B
:1043E000006820F480702168086020688068214996
:1043F0000840216888602020C4F8880000202067D9
:10440000E06E01280CD12068006820F010002168BF
:104410000860B4F85C102046FEF713FB03E021E0CF
:104420002046FEF7A7FD0020E066B9F1000F03D09B
:1044300005F02000002883D1B4F85E60C6B1B4F85E
:104440006800B04214DD2068806820F08050216848
:104450008860094820672068006840F020002168D3
:10446000086005E02068806940F0080021688861E4
:10447000BDE8F88FFEFFFFEF8742000870B50446E5
:10448000B4F86060D4F88800222837D12068406AE8
:1044900085B2F0B22840A16D0870A06D401CA065E7
:1044A000B4F85E00401EA4F85E00B4F85E0020BBC5
:1044B0002068006820F49070216808602068806897
:1044C00020F00100216888602020C4F888000020C6
:1044D0002067E06E01280BD12068006820F01000F2
:1044E00021680860B4F85C102046FEF7AAFA02E0E2
:1044F0002046FEF73FFD0020E06605E02068806969
:1045000040F008002168886170BD00002DE9F05F6F
:104510000446B4F860A02068C5692068D0F800B0EF
:104520002068D0F80890D4F88800222870D1B4F818
:10453000688073E02068406A87B20AF0FF00384064
:10454000A16D0870A06D401CA065B4F85E00401E0F
:10455000A4F85E002068C56905F00700A8B305F05F
:10456000010058B10BF4807040B10120216808624D
:10457000D4F88C0040F00100C4F88C0005F0020073
:1045800058B109F0010040B1022021680862D4F856
:104590008C0040F00400C4F88C0005F0040058B111
:1045A00009F0010040B1042021680862D4F88C00B1
:1045B00040F00200C4F88C00D4F88C0028B12046EA
:1045C000FEF7A1FA0020C4F88C00B4F85E0028BB06
:1045D0002068006820F48070216808602068806886
:1045E00021490840216888602020C4F88800002004
:1045F0002067E06E01280CD12068006820F01000D0
:1046000021680860B4F85C102046FEF71AFA03E04F
:1046100021E02046FEF7AEFC0020E066B8F1000F76
:1046200003D005F02000002884D1B4F85E60C6B144
:10463000B4F86800B04214DD2068806820F0805033
:1046400021688860094820672068006840F02000E1
:104650002168086005E02068806940F00800216852
:104660008861BDE8F09F0000FEFFFFEF7D44000879
:104670002DE9FE4F044600200290D649206888426A
:1046800000D100E000BF2169A068084361690843C8
:10469000E16940EA010820680068CF49084040EA23
:1046A0000800216808602068406820F44050E168F4
:1046B000084321684860D4F81880C64920688842B9
:1046C00002D0206A40EA080820688068C349084090
:1046D00040EA0800216888602068C06A20F00F0066
:1046E000616A08432168C86200BFBD4920688842EA
:1046F00016D1BC48006800F0030030B1012808D092
:10470000022804D0032808D105E0012507E002258E
:1047100005E0042503E0082501E0102500BF6FE057
:10472000B1492068884216D1AE48006800F00C00FC
:1047300030B1042808D0082804D00C2808D105E09E
:10474000002507E0022505E0042503E0082501E037
:10475000102500BF54E0A5492068884216D1A14821
:10476000006800F0300030B1102808D0202804D0B4
:10477000302808D105E0002507E0022505E00425E2
:1047800003E0082501E0102500BF39E098492068C2
:10479000884216D19348006800F0C00030B140282C
:1047A00008D0802804D0C02808D105E0002507E003
:1047B000022505E0042503E0082501E0102500BFDF
:1047C0001EE084492068884219D18648006800F4B8
:1047D000406048B1B0F5806F0AD0B0F5006F05D0E9
:1047E000B0F5406F08D105E0002507E0022505E09F
:1047F000042503E0082501E0102500BF00E0102596
:1048000000BF7449206888425DD135B1022D08D0BF
:10481000042D08D0082D0DD109E0FDF7B3F90646A7
:104820000CE0744E0AE0FDF7D1F9064606E04FF4BD
:10483000004603E000260120029000BF00BF002ECA
:1048400010D06D49606A31F81000B6FBF0F960686D
:1048500000EB4000484503D860680003484502D299
:1048600001200290AAE06449606A31F810C06246F3
:10487000002330461946FBF7CDFC4FF4807C002224
:104880000B46A0FB0C1B03FB0CB300FB0233606860
:1048900040088C461CEB000043EB0201CDE900010F
:1048A000D4F804C062460023FBF7B4FC0746B7F512
:1048B000407F05D3B7F5801F02D22068C7607DE036
:1048C000012002907AE0E069B0F5004F40D1092D57
:1048D00017D2DFE805F005090D160F16161613009E
:1048E000FDF750F9064610E0FDF75EF906460CE0CC
:1048F000404E0AE0FDF76AF9064606E04FF400462E
:1049000003E000260120029000BF00BFFEB13A493B
:10491000606A31F81000B6FBF0F04000616800EB0F
:104920005100B0FBF1F087B2102F0ED3B7F5803FE6
:104930000BD24FF6F07007EA000AC7F342004AEACA
:10494000000A2068C0F80CA038E00120029035E091
:10495000092D17D2DFE805F005090D160F161616FA
:104960001300FDF70FF9064610E0FDF71DF90646A6
:104970000CE0204E0AE0FDF729F9064606E04FF468
:10498000004603E000260120029000BF00BFAEB148
:104990001949606A31F81000B6FBF0F0616800EB6D
:1049A0005100B0FBF1F087B2102F05D3B7F5803F6F
:1049B00002D22068C76001E0012002900120A4F823
:1049C0006A00A4F868000020206760670298BDE8CC
:1049D000FE8F000000800040F369FFCFFFF4FF115D
:1049E0000038014088100240004400400048004068
:1049F000004C00400024F4004271000810B503464A
:104A00009965A3F85C20A3F85E200020186700BF1A
:104A10009868B0F5805F0AD1186920B940F2FF109C
:104A2000A3F8600020E0FF20A3F860001CE0986875
:104A300048B9186918B9FF20A3F8600014E07F2076
:104A4000A3F8600010E09868B0F1805F09D11869A0
:104A500018B97F20A3F8600006E03F20A3F86000AB
:104A600002E00020A3F8600000BF0020C3F88C0023
:104A70002220C3F888001868806840F001001C6894
:104A8000A060586EB0F1005F20D1B3F8680090428A
:104A90001CDC9868B0F5805F04D1186910B917481C
:104AA000186701E01648186700BF002083F88000EF
:104AB00000BF1868006840F480701C6820601868A7
:104AC000806840F080501C68A06015E09868B0F5E0
:104AD000805F04D1186910B90A48186701E00A48D4
:104AE000186700BF002083F8800000BF18680068C6
:104AF00040F490701C682060002010BD194300082D
:104B00000D450008874200087D4400082DE9F0416A
:104B100004460D4617469846069E4AE0701C00283B
:104B200047D0FCF7D1FBA0EB0800B04200D8C6B9D3
:104B30002068006820F4D0702168086020688068D0
:104B400020F00100216888602020C4F88400C4F8A7
:104B5000880000BF002084F8800000BF0320BDE86B
:104B6000F0812068006800F0040010B32068C0697C
:104B7000C0F3C020E8B14FF40060216808622068EB
:104B8000006820F4D070216808602068806820F0F8
:104B90000100216888602020C4F88400C4F88800DF
:104BA000C4F88C0000BF002084F8800000BF032000
:104BB000D5E72068C0692840A84201D1012000E063
:104BC0000020B842AAD00020C9E7000010B5024872
:104BD000FDF79AFF10BD0000BC00002000BFFEE7FB
:104BE0002DED068BFBF704FF082210210020FBF7B8
:104BF000C7FF052200210C20FBF7E2FF4FF4006302
:104C0000002211466348FCF773F900216148FCF764
:104C10008FF94FF40060FBF7FFFE4FF400615E4830
:104C2000FBF76EFFFEF762FD5CA000F0DBF80020F2
:104C3000614908608DE058485F49096800EB8100D0
:104C400090ED000A5D4880ED000AFEF76FFD5C48BC
:104C500090ED000A5B4880ED000A0068FBF7CBFC92
:104C600041EC1A0B9FED580B53EC102BFBF72EFC6D
:104C700041EC190B9FED560B53EC102BFBF7B4FBDB
:104C800041EC180BFBF79EFC04462346002211461C
:104C90004048FCF72DF900213E48FCF749F9494806
:104CA0000068FBF7A8FC41EC180B53EC182B4AA04A
:104CB00000F098F84048006840F20C61884238D013
:104CC0003D48006840F23E61884232D03A48006870
:104CD000B0F5CE6F2DD03848006840F2A26188420E
:104CE00027D03548006840F2D461884221D032484C
:104CF000006840F2067188421BD02F480068B0F56A
:104D0000E76F16D02C48006840F26A71884210D0D4
:104D10002948006840F29C7188420AD02648006801
:104D200040F2CE71884204D023480068B0F5006F8D
:104D30000AD12B4890ED000A2248D0ED000A30EE4F
:104D4000200A274880ED000A1B480068401C1A49C9
:104D5000086019480068B0F5006FFFF66CAFFFF708
:104D600099F80EA000F03EF81D4890ED000AF2EE12
:104D7000060A80EE201A11EE104A2046FBF73BFC93
:104D800041EC180B53EC182B13A000F02BF800BFCC
:104D9000FEE70000440000204C0100202A2A2A2AB5
:104DA0002A2A2A2A2A2A2A2A2A2A2A2A2A2A2A2A63
:104DB0002A2A2A0A000000001400002034000020E3
:104DC000300000201C0000206666666666660A40A9
:104DD000000000000000B040256C660A00000000E2
:104DE000200000200FB4054B10B503A9044A029817
:104DF00001F092FD10BC5DF814FB00003970000852
:104E00003C00002003B401984100009850EAC12002
:104E100018BF04204A0D18BF40F0010040F2FF7295
:104E2000B2EB515F08BF40F00200012808BF052027
:104E300002B0704702480068C0F3022070470000CB
:104E40000CED00E010B5002804DB0A07130E054A3C
:104E5000135406E00A07140E034A00F00F031B1F49
:104E6000D45410BD00E400E018ED00E000000000A4
:104E700070B59B482DED020B2DED068B079D25F09F
:104E80000044A04218DC9748844202DC0AD106980C
:104E900040B19DED060BBDEC068B02B0BDE8704045
:104EA00001F01EBC002DCCBF9FED8F0B9FED900B32
:104EB000BDEC068B02B070BD8F48A04215DD8F4857
:104EC000A042D8BF4FF0FF3458DD9DED060B51ECEA
:104ED000100BFFF797FF042808BF01F035FC9DED8C
:104EE000060BBDEC068B02B070BD9DED060B51ECC0
:104EF000100B02F094F8CDE9060181489FED828BFA
:104F0000A0423CDD8248A0421FDD00249FED82AB21
:104F10009DED060B53EC1A2B51EC100BFBF7BDF972
:104F20009DED060B41EC190B53EC1A2B51EC100BB9
:104F3000FBF75AFA53EC182BFBF750FA53EC192BEA
:104F4000FBF7C4FACDE9060149E09DED060B01240B
:104F500053EC182B51EC100BFBF79FF99DED060B52
:104F600041EC190B53EC182B51EC100BFBF736FAF4
:104F700053EC192BFBF7AAFACDE906012FE068489C
:104F8000A0421FDD02249FED689B9DED060B53ECB4
:104F9000192B51EC100BFBF727FA53EC182BFBF7EE
:104FA0007CF99DED060B41EC180B53EC192B51ECE1
:104FB000100BFBF713FA53EC182BFBF787FACDE92C
:104FC00006010CE09DED060B032453EC102B9FED26
:104FD000580B51EC100BFBF779FACDE906019DED6A
:104FE000060B53EC102B51EC100BFBF7FDF941ECC9
:104FF000180B53EC182BFBF7F7F941EC190B4E4843
:105000000621B0EE490AF0EE690A784401F03CFA54
:1050100053EC182B51EC100BFBF7E6F941EC180B95
:105020004648B0EE490AF0EE690A0521784401F0DD
:105030002BFA53EC192B51EC100BFBF7D5F941EC83
:10504000100B51EC180B53EC102B002C0EDAFBF765
:1050500024F99DED061B53EC112BFBF7C5F99DEDD3
:10506000061B53EC112BFBF7BCF935E0FBF715F9E8
:105070009DED061B53EC112BFBF7B6F941EC100B21
:105080002F48784400EBC40090ED001B51EC100B4E
:1050900053EC112BFBF7A2F99DED061B53EC112BE2
:1050A000FBF79CF941EC100B2648784400EBC40058
:1050B00090ED001B51EC100B53EC112BFBF791F909
:1050C00041EC100B002DA2BFBDEC068B02B070BDF1
:1050D00051EC100B81F0004141EC100B01E7000096
:1050E000000010440000F07F182D4454FB21F93FCC
:1050F000182D4454FB21F9BF0000DC3F0000203E86
:105100000000F33F00000000000000000000F03F3E
:105110000000E63F0000000000000000000000402A
:105120000080034000000000000000000000F83F85
:10513000000000000000F0BFD22900008829000014
:1051400012290000CA2800002DE9F04D2DED040BB6
:105150002DED0E8B96B0DDE92550279CDDF890A053
:1051600025F0004624F00048BAF1000F14BF0121D9
:10517000002101EB4502FC4953184A1093422AD3FF
:10518000002814BF0123002303EB44030B44F74919
:105190008B4220D358EA00019FEDF59B76D0DFF8D3
:1051A000D8B35D4503D1BAF1000F05D188E0BAF15B
:1051B000000F08BF002100D0012101EB450111F5CE
:1051C000001F08D8002814BF0121002101EB440171
:1051D00011F5001F0BD99DED261B9DED240B16B07C
:1051E000BDEC0E8B04B0BDE8F04D01F083BA002792
:1051F000002DBCBFE149884521DAE1498845A8BFB7
:1052000002271CDAC3451ADCDE4901EB28511429B8
:1052100008DDC1F1340220FA02F101FA02F2824201
:105220000DD108E058B9C1F1140228FA02F101FACF
:1052300002F2424503D101F00101C1F1020756EA31
:105240000A0124D1002C22DA002D18BF022F01D030
:10525000012F0AD0022001F097FA16B0BDEC0E8B98
:1052600004B0BDE8F04D01F023BA022001F08CFA41
:1052700001F01EFA51EC100B81F0004141EC100BD3
:1052800016B0BDEC0E8B04B0BDE8F08D18E09FEDBC
:10529000BEAB9FEDBF8B002871D1B848804522D1AD
:1052A00005F1804010F5801008BFBAF1000F07D05B
:1052B000B3450ADC002CA8BF9DED260BE0DA0DE01B
:1052C000B0EE490AF0EE690ADAE7002C06DA9DED45
:1052D000260B51EC100B81F000416FE0AE48784492
:1052E00090ED000BCCE7D8454DD1002C48DA2EB11B
:1052F00086423AD1BAF1000F42D126E0BAF1000F4E
:1053000013D0022001F040FA01F00EFA8DED020BED
:105310009DED240B8DED000B10EE900A039961F3C7
:105320001E0003909DED020BAAE78DED02AB9DEDF3
:10533000240B1AEE901A10EE900A8DED000B61F31B
:105340001E0003909DED020B9AE78DED028B9DED03
:10535000240B18EE901A10EE900A8DED000B61F3FD
:105360001E0003909DED020B8AE709DA9DED240BE8
:1053700051EC190B53EC102BFBF7A8F81EE020E0C2
:105380009DED240B7CE786421BDAB4F1804F0DD0F3
:10539000A4F10050B0F1FF5013D1002D11DB9DEDB1
:1053A000240B51EC100B01F095FE07E09DED240B52
:1053B00053EC102B51EC100B00F0C2BC41EC100B65
:1053C0005EE79DED240B51EC100B01F028FEBAF1C5
:1053D000000FCDE90E0142D19FED710B46B3A6F14E
:1053E000E040B0F17F600CD05E4538D1002D00DA8E
:1053F000A7B3022F0CBF01204FF0FF30FBF79DFA3F
:10540000DCE7002D01DD002C0DDA002D01DD002C84
:105410001FDB002D16DA002C14DB012F08BF9FEDD7
:10542000620B3FF42DAFB0EE4A0AF0EE6A0A27E7AE
:10543000022F18BF002D0CD0012F0AD1002DFFF62E
:105440001FAF06E0002DB8BF002C08DA012F3FF493
:1054500017AFB0EE480AF0EE680A11E71BE0012032
:1054600000EBE57050EA070115D0791EB0EE498ACD
:10547000F0EE698A084308BF9FED4D8B4E4800252A
:10548000804570DD4D494E48884514DDB0420DDB46
:10549000002C19DB2FE0012001F076F916B0BDECED
:1054A0000E8B04B0BDE8F04D01F02EB9B34502DC1F
:1054B000002C09DC1FE0864202DA002C1BDA03E034
:1054C0005E452BDD002C16DD022001F05DF901F0B8
:1054D0002BF98DED020B53EC1A2B51EC180BFAF74C
:1054E00083FFCDE900010399019861F31E00039049
:1054F0009DED020BC4E6022001F046F901F024F90B
:1055000010EE901A18EE900A8DED020B8DED008BC7
:1055100061F31E0003909DED020BB1E69DED0E0BB5
:1055200053EC192B51EC100BFAF758FF9FED260B9B
:10553000CDE9080153EC102B9DED080B51EC100B3D
:10554000FAF752FF9FED221B53EC112BFAF749FF9C
:105550009DED081B53EC112BFAF746FF9FED1E1B28
:1055600053EC112B3CE08CE0FFFF1F00FFFF0F000E
:10557000000000000000F03F0000F03F0000F07F5E
:105580000000404301FCFFFF000000000000F07F2E
:105590000000000000000000E627000000000000FE
:1055A0000000000000000080000000000000F0FF8C
:1055B000000000000000F0BF0000E0410000F043E8
:1055C000FFFFEF3F00000000000000000000D03FA0
:1055D000555555555555D53F000000000000E03F9A
:1055E000FAF7FFFE9DED080B41EC1A0B53EC102B64
:1055F00051EC100BFAF7F8FE53EC1A2BFAF7F4FE05
:1056000041EC1A0B9FEDFE0B53EC102B9DED080B9C
:1056100051EC100BFAF7E8FE41EC1B0B9FEDFA0B77
:1056200051EC1A0B53EC102BFAF7DEFE41EC1A0B7F
:105630009FEDF70B53EC102B9DED080B51EC100B6D
:10564000FAF7D2FE53EC1A2BFAF7C8FE41EC1A0B0C
:1056500051EC1B0B53EC1A2BFAF71FFE0690CDE909
:1056600006519DED060B53EC1B2B51EC100BFAF77A
:10567000B5FE53EC1A2BFAF7B4FE41EC100B00F018
:10568000A1B90020B6F5801F0EDA9FEDE30B53ECB5
:10569000102B9DED0E0B51EC100BFAF7A5FECDE98A
:1056A0000E016FF034000E4600EB2650A0F2FF37DB
:1056B000C6F31300DA4940F07F6646F04056884250
:1056C000D8BF002408DDD7498142C8BF012403DCCC
:1056D0000024A6F580167F1CD348784400EBC40054
:1056E0000F9690ED00CB9DED0E0B53EC1C2B51EC67
:1056F000100BFAF773FE9DED0E0B41EC1B0B53ECF8
:105700001C2B51EC100BFAF7C8FD41EC100B51ECBF
:10571000190B53EC102BFAF7D9FE41EC1D0B51EC91
:105720001B0B53EC1D2BFAF75FFE41EC1A0BBF4825
:105730008DED10AB7844109590ED000B4FF00050BC
:1057400040EA660000EB84408DED080B00F5002078
:1057500009909DED080B53EC1C2B51EC100BFAF744
:105760003DFE9DED0E1B53EC112BFAF73AFE41EC7A
:10577000100B53EC102B9DED100B51EC100BFAF7A6
:1057800033FE9DED080B41EC1C0B53EC102B9DEDF3
:10579000100B51EC100BFAF727FE53EC1B2BFAF70A
:1057A00020FE53EC1C2BFAF719FE53EC1D2BFAF7D5
:1057B0001BFE41EC1C0B53EC1A2B51EC1A0BFAF7A5
:1057C00013FE41EC1B0B9A480621B0EE4B0AF0EE9B
:1057D0006B0A784400F058FEB0EE401AF0EE601A02
:1057E000B0EE41DAF0EE61DA53EC1B2B51EC1B0BFF
:1057F000FAF7FAFD53EC1D2BFAF7F6FD9DED100BB1
:1058000041EC1B0B53EC1A2B51EC100BFAF745FD36
:1058100053EC1C2BFAF7E8FD53EC1B2BFAF73DFD7C
:105820009DED100B41EC1B0B53EC102B51EC100BAE
:10583000FAF7DAFD41EC1D0B9FED7FEB53EC1E2BCD
:10584000FAF72BFD53EC1B2BFAF727FD0890CDE957
:1058500008519DED080B53EC1E2B51EC100BFAF781
:10586000BDFD53EC1D2BFAF7B9FD53EC1B2BFAF7DA
:10587000B8FD9DED080B41EC1D0B53EC102B9DED7D
:10588000100B51EC100BFAF7AFFD41EC1B0B53EC76
:105890001A2B51EC1D0BFAF7A7FD9DED080B41ECFF
:1058A0001A0B53EC102B51EC1C0BFAF79DFD53EC2B
:1058B0001A2BFAF7F2FC41EC1A0B51EC1B0B53ECD0
:1058C0001A2BFAF7EAFC0C90CDE90C519DED0C0B6C
:1058D00053EC1B2B51EC100BFAF780FD53EC1A2BF9
:1058E000FAF77FFD41EC1B0B9FED550B53EC102B92
:1058F0009DED0C0B51EC100BFAF776FD41EC1A0BF9
:105900009FED510B51EC1B0B53EC102BFAF76CFD78
:1059100041EC1B0B9FED4E0B53EC102B9DED0C0B34
:1059200051EC100BFAF760FD53EC1B2BFAF7B5FCAA
:1059300041EC100B4848784400EBC40090ED001B8C
:1059400051EC100B53EC112BFAF7A7FC41EC1B0B9D
:105950003846FAF7F2FFCDE9080153EC1B2B51EC66
:105960001A0BFAF79AFC41EC100B3C48784400EB18
:10597000C40090ED00CB51EC100B53EC1C2BFAF74C
:105980008CFC9DED081B53EC112BFAF786FC06905E
:10599000CDE906519DED080B53EC102B9DED060B48
:1059A00051EC100BFAF71AFD53EC1C2BFAF716FD0D
:1059B00053EC1A2BFAF712FD53EC1B2BFAF711FDDF
:1059C00041EC100B9DED261B53EC102B8DED001BB5
:1059D00000959DED260B51EC100BFAF705FD9DEDA2
:1059E000000B41EC1A0B53EC102B9DED260B51ECE8
:1059F000100BFAF7F3FC9DED061B53EC112B2FE077
:105A0000000000604715F73FFE822B654715F73F02
:105A100044DF5DF80BAE543E000000000000404340
:105A20008E9803007AB60B0032230000902300000A
:105A30006A22000000000000000000000000084092
:105A4000000000E009C7EE3FFD033ADC09C7EE3F66
:105A5000F5015B14E02F3EBEF6200000B0200000F0
:105A6000FAF7C2FC53EC1A2BFAF717FC9DED060B64
:105A700041EC1A0B53EC102B9DED000B51EC100B6D
:105A8000FAF7B2FCCDE90C019DED0C0B51EC1A0BB1
:105A900053EC102BFAF701FCCDE902010C46AA49A0
:105AA0008C422FDB611A084318D19DED0C0B53EC8F
:105AB000102B9DED020B51EC100BFAF78FFC41EC13
:105AC0001B0B9FEDA30B51EC1A0B53EC102BFAF7A9
:105AD000E4FB53EC1B2BFAF7B9FD2DD2022000F0AA
