:020000040800F2
:1000000040050020F10100080B210008D11F000865
:10001000092100085D09000891280008000000007F
:100020000000000000000000000000007523000830
:100030005F090008000000000D2100087723000878
:100040000B0200080B0200080B0200080B0200085C
:100050000B0200080B0200080B0200080B0200084C
:100060000B0200080B0200080B0200080B0200083C
:100070000B0200080B0200080B0200080B0200082C
:100080000B020008000000000B0200080B02000831
:100090000B0200080B0200080B0200080B0200080C
:1000A0000B0200080B0200080B0200080B020008FC
:1000B0000B0200080B0200080B0200080B020008EC
:1000C0000B0200080B0200080B0200080B020008DC
:1000D0000B0200080B0200080B0200080B020008CC
:1000E0000B0200080B0200080B0200080B020008BC
:1000F0000B0200080B0200080B02000800000000C1
:10010000000000000B020008000000000B020008C5
:100110000B020008000000000B0200080B020008A0
:100120000B0200080B0200080B0200080B0200087B
:100130000B02000800000000000000000B02000895
:100140000B0200080B020008000000000000000085
:10015000000000000000000000000000000000009F
:100160000000000000000000000000000B0200087A
:100170000B0200080000000000000000000000006A
:10018000000000000B02000800000000000000005A
:10019000000000000000000000000000000000005F
:1001A00000000000000000000B0200080B02000825
:1001B0000B0200080B0200080B0200080000000000
:1001C000000000000B02000800000000000000001A
:1001D0000B0200080B020008DFF810D000F0EEFA66
:1001E00000480047E1400008AFF3008040050020D0
:1001F0000648804706480047FEE7FEE7FEE7FEE7C1
:10020000FEE7FEE7FEE7FEE7FEE7FEE7FD23000868
:10021000D90100082DE9F05F0546002092469B4673
:1002200088460646814640241BE02846414647460C
:10023000224600F07AF953465A46C01A914110D32B
:1002400011461846224600F061F92D1A67EB0108A5
:100250004F4622460120002100F058F917EB000913
:100260004E41201EA4F10104DFDC484631462A46F7
:100270004346BDE8F09FD2B201E000F8012B491ED1
:10028000FBD270470022F6E710B513460A46044633
:100290001946FFF7F0FF204610BD2DE9FE4F8046BE
:1002A00081EA0300C00F0C46009021F0004123F0CA
:1002B0000045B8EB0200A94105D2404621469046D0
:1002C0001C460B46024623F00040104347D0270D42
:1002D000C7F30A00C3F30A510290401A0190402864
:1002E0006BDAC3F3130040F4801B0098924620B1F0
:1002F0000023D2EB030A63EB0B0B01985946C0F1C4
:100300004002504600F002F906460D465046594656
:10031000019A00F01AF910EB08006141002487EA05
:10032000115284EAE7731A4340D0009A62B3019AEB
:10033000012A4FEA075215DC001B61EB02014FF066
:10034000004202EA0752CDE90042001C41F580114B
:1003500032462B4600F01AF903B0BDE8F08F404654
:100360002146F9E7001B61EB0201001C41F58013F7
:1003700000185B412018A2F5001747EB030140EA83
:10038000D570B6196D4111E06D084FEA360645EAA1
:10039000C0754FEA0752001B61EB0201001C41F5DA
:1003A000801149084FEA30000019514132462B466E
:1003B00003B0BDE8F04F00F0DAB800980122400029
:1003C0000023D0EB020263EBE073009821464FEA72
:1003D000E074B8EB000061EB0401E9E783F000434F
:1003E0005BE781F0004158E72DE9F04D81EA030415
:1003F00004F0004B21F0004514464FF0000A23F0B2
:10040000004150EA050220D054EA01021DD0C5F394
:100410000A570246C5F31303C1F31300C1F30A568A
:1004200040F4801543F48013A7EB0608101BD64652
:1004300008F2FD3873EB050002D308F1010801E072
:1004400092185B41B8F1000F03DA00200146BDE8C5
:10045000F08D00204FF48011064684460EE0171BF5
:1004600073EB050705D3121B63EB050306434CEA48
:10047000010C49084FEA300092185B4150EA01072D
:10048000EDD152EA030012D082EA040083EA0501AA
:10049000084305D0101BAB4106D20122002306E021
:1004A00000224FF0004302E06FF0010253101AEBFC
:1004B00006004CEB085110EB0A0041EB0B01BDE8C4
:1004C000F04D00F054B80EB540F2334102910021D6
:1004D000CDE900110A460B4600F058F803B000BD04
:1004E00030B50B46014600202022012409E021FA04
:1004F00002F59D4205D303FA02F5491B04FA02F501
:100500002844151EA2F10102F1DC30BD202A04DBD3
:10051000203A00FA02F1002070479140C2F1200316
:1005200020FA03F3194390407047202A04DB203A55
:1005300021FA02F00021704721FA02F3D040C2F103
:1005400020029140084319467047202A06DBCB174A
:10055000203A41FA02F043EAE07306E041FA02F37E
:10056000D040C2F12002914008431946704710B5AF
:10057000141E73F1000408DA401C41F100019218C6
:100580005B411A4301D120F0010010BD2DE9F04D6F
:1005900092469B4611B1B1FA81F202E0B0FA80F2C4
:1005A00020329046FFF7B2FF04460F4640EA0A00A9
:1005B00041EA0B0153465A46084313D0114653EA09
:1005C000010019D0C8F140025046FFF7AEFF0546C2
:1005D0000E46504659464246FFF798FF084305D05D
:1005E000012004E020463946BDE8F08D0020054397
:1005F00046EAE0762C4337430A986305E40AA0EB09
:1006000008000022FD0A44EA47540A3002D50020BF
:100610000146E9E7010510196941DDE908450019BE
:100620006941BDE8F04DA2E72DE9FE4F81EA0304E0
:1006300004F0004421F0004100944FF0000B23F03F
:10064000004350EA01045ED052EA03045BD0C3F3D6
:100650000A54C1F30A552C44A4F2F3340194A0FBCC
:100660000254C1F3130141F48011C3F3130343F4A3
:10067000801301FB024400FB034E840A970A44EAFC
:10068000815447EA8357A4FB076802958D0A05FB4E
:1006900007854FEA932C04FB0C542705029D4FEA73
:1006A000065847EA1637B5EB08056EEB070C870EC0
:1006B000920E47EA811742EA8312A7FB0201B6EBCA
:1006C0000B0164EB00042B0D43EA0C335E1844EB82
:1006D0001C50DA465146E7FB0201C5F313044FEA0A
:1006E0000B3343EA14534FEA0432019C43EA0603F6
:1006F000A4F10C040294009CCDE900B4FFF746FF7E
:1007000003B0BDE8F08F00200146F9E770B521F095
:10071000004303430CD0C1F30A550024D5EB040574
:1007200064EB0403D617AD1AB34102DB0020014687
:1007300070BD201841EB025170BD0EB5C10F80EAAB
:10074000E0700844CA07002140F233438DE80E00F0
:100750000A460B46FFF71AFF03B000BDC1F30A5269
:10076000C1F3130140F2FF3341F480119A4202DADF
:1007700000200146704740F233439A42A2F23342CE
:1007800002DC5242FFF7D1BEFFF7C0BE30B5041EF7
:1007900071F1000404DB4FF00044404264EB0101BE
:1007A000141E73F1000405DB1C464FF00043524257
:1007B00063EB0403994208BF904230BD064C074DDD
:1007C00006E0E06840F0010394E807009847103421
:1007D000AC42F6D3FFF704FD384200085842000847
:1007E0002DE9F04D00231A461B1A8A4103DB002035
:1007F0000146BDE8F08DC1F30A52C1F3130141F483
:1008000080154FF0000BD10702D100186D41521E28
:100810000027044640F2FF11384601EB620A3E46CB
:100820008046024600204FF48011FFF77EFEC21979
:100830007141BB1846EB0100B4EB030C75EB000CE7
:1008400004D3E41A65EB000517460E46241908F197
:1008500001006D4180463428E3DDF91946EB0600BE
:10086000091BA84103D24FF0FF32134601E00022DA
:1008700013461BEB070046EB0A51BDE8F04DFFF7AE
:1008800076BE000038B508A0002400684FF47A75E1
:1008900000902B4601226946044801F05FF8641C71
:1008A000372CF6DB38BD0000FF0000003C000020C4
:1008B000F8B5064600200090102014460D468DF82D
:1008C00000004FF47A773B4601226946074801F061
:1008D00045F88DF800608DF801508DF802403B46D8
:1008E00003226946014801F039F8F8BD3C000020B8
:1008F000F8B5064600200090082014460D468DF8F5
:1009000000004FF47A773B4601226946074801F020
:1009100025F88DF800608DF801508DF802403B46B7
:1009200003226946014801F019F8F8BD3C00002097
:10093000074810B5807901F0EBFB41F288330122C2
:100940000449054800F046FF0248007810BD000049
:1009500030010020280000203C000020FEE7704706
:1009600072B6FEE770B5044600F0F8F80546601C64
:1009700002D004484068044400F0F0F8401BA04254
:10098000FAD370BD000000202DE9FC4FDFF8A0A1D4
:10099000002301250AF1040B03244FF00F0C0BF187
:1009A000040EBDE005FA03F632406FD04F68012F08
:1009B00005D0022F03D0112F01D0122F17D1D0F85C
:1009C00008905F0004FA07F829EA08090097D1F8AF
:1009D0000C8008FA07F848EA0908C0F80880476858
:1009E000B7430E79C6F300169E403E434660C66884
:1009F0004FEA430804FA08F7BE4301978F6807FAE5
:100A000008F73743C7604E68022E01D0122E13D16B
:100A1000DE0800EB86060096366A5F07FF0E0CFACA
:100A200007F926EA0906D1F8109009FA07F949EA08
:100A30000609009EC6F820900668019FBE430F7904
:100A400007F0030707FA08F7374307604E68F60018
:100A500065D5384E376E47F001073766366E23F09E
:100A6000030706F001060096334E3E44B146B668D1
:100A70009F074FEA17780CFA08F7BE43B0F1904F82
:100A800005D02E4FB84204D1012717E047E00027D8
:100A900014E02B4FB84201D102270FE0294FB84292
:100AA00001D103270AE0284FB84201D1042705E00D
:100AB000264FB84201D1052700E0062707FA08F7BC
:100AC0003743C9F80870DAF800605746D1F8048057
:100AD00096435FEAC83800D516433E60DBF80060F5
:100AE0005F46D1F8048096435FEA883800D5164304
:100AF0003E60DEF800607746D1F8048096435FEAF6
:100B0000C82800D516433E60094F0C373E68D1F81F
:100B1000048096435FEA882800D516433E605B1C3C
:100B20000A6832FA03F67FF43DAFBDE8FC8F00009F
:100B30000004014000100240000001400004004891
:100B400000080048000C004800100048001400484D
:100B50000AB1816170478162704700000148806876
:100B6000704700000000002002488168426811447C
:100B7000816070470000002010B50024032000F0C1
:100B800065F80F2000F008F808B1012401E000F03A
:100B900025F8204610BD000070B50E4E0546002415
:100BA000706898B14FF47A71B1FBF0F00A490968A6
:100BB000B1FBF0F001F0C7F840B9102D06D20022C9
:100BC0002946501E00F022F8356000E0012420463E
:100BD00070BD0000000000200C0000200A4882B018
:100BE000016E41F001010166016E01F00101009109
:100BF000816D41F080518165806D00F080500090E2
:100C000002B000F093B8000000100240F0B40E4BA8
:100C10001B680C46C3F30223C3F10705042D00D95A
:100C20000425191D072901D2002300E0DB1E01263F
:100C300006FA05F1491E214099409E40761E164055
:100C40003143F0BC01F0CEBE0CED00E0064900F0EF
:100C5000070208684FF6FF03184040EA0220034AE3
:100C600010430860704700000CED00E00000FA053A
:100C70002B492C4B0A6832214A432B4940B1B0F52D
:100C8000007F086829D020F4C06040F480602CE028
:100C90000868C0F34120022804D051F8800F20F4E6
:100CA000807022E0D1F8800020F48070C1F88000CC
:100CB000086820F4C06040F400700860B2FBF3F0F4
:100CC000401C00E0401E4A69520501D50028F9D1B8
:100CD000486940050AD503207047C0F34120022827
:100CE00006D051F8800F40F48070086000207047F3
:100CF000D1F8800040F48070C1F88000086820F4CA
:100D0000C06040F400700860B2FBF3F0401C00E0EB
:100D1000401E4A695205DBD50028F9D1D8E700000A
:100D20000C00002040420F00007000400248816823
:100D300041F4804181607047007000402DE9F84324
:100D40000446006800269D4D00035ED5A86D00276F
:100D5000C00008D4A86D40F08050A865A86D012798
:100D600000F080500090DFF85892D9F8001041F45C
:100D70008071C9F80010FFF7F1FE804606E000BF61
:100D8000FFF7ECFEA0EB080002282BD8D9F80000F2
:100D9000C005F5D5D5F8900010F4407014D0216C42
:100DA000814211D0D5F89000D5F8901020F4407011
:100DB00041F48031C5F89010D5F8901021F48031BD
:100DC000C5F89010C5F89000C00711D0FFF7C6FE17
:100DD000804641F2883907E0FFF7C0FEA0EB08012A
:100DE000494501D903260BE0D5F890008007F3D5DB
:100DF000D5F89000216C20F440700843C5F89000AD
:100E00001FB1A86D20F08050A8652078C00707D0DA
:100E1000D5F88800616820F003000843C5F8880011
:100E20002078800707D5D5F88800A16820F00C004D
:100E30000843C5F888002078400707D5D5F8880012
:100E4000E16820F030000843C5F8880020780007EA
:100E500007D5D5F88800216920F0C0000843C5F8FF
:100E600088002078800607D5D5F88800616920F4CD
:100E700040600843C5F888002078400607D5D5F8BB
:100E80008800A16920F440500843C5F88800207804
:100E9000000607D5D5F88800E16920F440400843F2
:100EA000C5F888002088C00507D5D5F88800216AD4
:100EB00020F440300843C5F888002088800507D515
:100EC000D5F88800616A20F440200843C5F88800FE
:100ED000208840050FD5D5F88800A16A20F440107D
:100EE0000843C5F88800A06AB0F5801F03D1E86800
:100EF00040F48010E860208800050FD5D5F8880000
:100F0000E16A20F440000843C5F88800E06AB0F5C3
:100F1000800F03D1E86840F48010E8602088C004A6
:100F20000FD5D5F88800216B20F040700843C5F834
:100F30008800206BB0F1807F03D1E86840F4801016
:100F4000E86020884FF0006180040ED5D5F8880055
:100F5000626B20F040601043C5F88800606B8842E7
:100F600003D1E86840F48010E860208840040ED582
:100F7000D5F88800A26B20F040601043C5F88800C7
:100F8000A06B884203D1E86840F48010E8602088B4
:100F900000040FD5D5F88800E16B20F040500843DD
:100FA000C5F88800E06BB0F1805F03D1E86840F4D9
:100FB0008030E8603046BDE8F88300000010024051
:100FC000007000402DE9F0470E4605004FF0000785
:100FD00025D0DFF8AC81D8F8000000F00F00B04257
:100FE0000CD2D8F8001021F00F013143C8F80010DE
:100FF000D8F8000000F00F00B04210D12968614C11
:10100000C80741F2883A5AD06868DFF87C91032813
:1010100008D0022820682DD0400500282CDB0120B4
:10102000BDE8F08720688001F9D5E06800F0030290
:10103000E068C0F30310401C032A19D0534A00BFD4
:10104000B2FBF0F0E268C2F306225043E268C2F35A
:101050004162521C5200B0FBF2F0484517D9A0681B
:1010600010F0F00F0CD0880711D5A86840B10EE041
:10107000474AE5E78003D0E700F0B6F8484506D9CF
:10108000A06820F0F00040F08000A0608027A068F9
:10109000696820F003000843A060FFF75FFD814608
:1010A00006E000BFFFF75AFDA0EB090151453AD811
:1010B000A068696800F00C00B0EB810FF2D12868DD
:1010C000810714D5400703D5A06840F4E060A06014
:1010D0002878000705D5A06820F4605040F4E0604F
:1010E000A060A068A96820F0F000084304E0802F09
:1010F00003D1A06820F0F000A060D8F800104046AE
:1011000001F00F01B14216D9016821F00F013143FE
:101110000160FFF723FD074607E000BFFFF71EFD54
:10112000C11B514501D903207AE7D8F8000000F02F
:101130000F00B042F2D12878400705D5A068E968D1
:1011400020F4E0600843A0602878000706D5A06876
:10115000296920F4605040EAC100A06000F044F822
:10116000A1680C4AC1F30311515C01F01F01C84092
:101170000949086009480068BDE8F047FFF70CBD61
:10118000002002400010024000B4C4040024F40017
:1011900000127A00904100080C000020000000209E
:1011A0000548064900688968054AC1F30221515C77
:1011B00001F01F01C84070470C00002000100240E1
:1011C000A04100080548064900688968054AC1F33E
:1011D000C221515C01F01F01C84070470C00002083
:1011E00000100240A0410008184910B58868C0F3FB
:1011F00081021748012A0BD08A684310C2F381028A
:10120000022A06D08A68C2F38102032A03D0002092
:1012100010BD184610BDCA6802F00304CA68C2F3C4
:101220000312521C032C02D0B0FBF2F001E0B3FB1E
:10123000F2F0CA68C968C2F306225043C1F34161A3
:10124000491C4900B0FBF1F010BD00000010024045
:101250000024F4002DE9F84304007AD02078FA4DF8
:10126000C00747D0A868E96800F00C0001F003014E
:101270000C2802D0082817D001E0032914D0606898
:10128000B0F5803F17D0B0F5A02F286817D020F414
:1012900080302860286820F4802028606068E0B1F1
:1012A000FFF75CFC064614E02868800322D56068DE
:1012B0000028D2D01EE0286840F48030EDE740F4EA
:1012C00080202860F7E700BFFFF748FC801B6428F8
:1012D00070D828688003F7D50CE0FFF73FFC06467E
:1012E00005E000BFFFF73AFC801B6428F0D82868AF
:1012F0008003F7D4207880074CD5A868E96800F00F
:101300000C0001F003010C2802D004280DD001E0EC
:1013100002290AD0E068002828682BD040F48070A9
:101320002860FFF71BFC064619E02868400502D537
:10133000E068002891D06868217C20F0FE4040EAF7
:1013400001606860C1480068FFF726FC002800D1F2
:1013500020E076E1FFF702FC801B0228B8D828685D
:101360004005F7D56868217C20F0FE4040EA016026
:1013700068600FE020F480702860FFF7EFFB0646FE
:1013800005E000BFFFF7EAFB801B0228A0D8286811
:101390004005F7D42078000729D560690028D5F8E2
:1013A000940013D040F00100C5F89400FFF7D6FB7D
:1013B000064606E090E000BFFFF7D0FB801B022846
:1013C00086D8D5F894008007F6D510E020F001000B
:1013D000C5F89400FFF7C2FB064604E0FFF7BEFB2A
:1013E000801B022878D8D5F894008007F6D420789E
:1013F000400761D5A86D0026C00008D4A86D40F054
:101400008050A865A86D012600F08050009090489B
:101410000168C90511D40168804641F480710160FA
:10142000FFF79CFB074604E0FFF798FBC01B022870
:1014300052D8D8F80000C005F6D5A068012815D00C
:101440000528D5F8900016D020F00100C5F89000CE
:10145000D5F8900020F00400C5F89000A06841F293
:101460008838B8B1FFF77AFB07460EE0D5F8900050
:1014700040F00100F0E740F00400C5F89000F5E707
:10148000FFF76CFBC11B414526D8D5F890008007BB
:10149000F6D50CE0FFF762FB074604E0FFF75EFBC2
:1014A000C11B414518D8D5F890008007F6D41EB16D
:1014B000A86D20F08050A8652078800629D5A06905
:1014C0000028D5F8980013D040F00100C5F8980026
:1014D000FFF744FB064606E077E000BFFFF73EFB60
:1014E000801B022877D8D5F898008007F6D510E041
:1014F00020F00100C5F89800FFF730FB064604E035
:10150000FFF72CFB801B022865D8D5F898008007D0
:10151000F6D4E069F0B3A968C1F38101032961D071
:101520000228286820F0807028600BD0E86820F03E
:101530000300E860E86847490840E860FFF70EFBF1
:1015400004464BE0FFF70AFB064604E0FFF706FB04
:10155000801B02283FD828688001F7D4F4E90801ED
:101560006FF00F0202EB01110843218A520449086F
:1015700002EB4151A26841EA02210843217D4FF06C
:101580007E42490802EB41610843217B40EAC16089
:10159000E96800E062E0304A11400843E8602868EA
:1015A00040F080702860E86840F08070E860FFF7E5
:1015B000D5FA044605E000BFFFF7D0FA001B022869
:1015C00009D828688001F7D548E004E0FFF7C6FA9B
:1015D000001B022802D90320BDE8F8832868800197
:1015E000F4D43BE00128F7D0E868226A00F0030158
:1015F000914226D1616A00F0F0020901103991424E
:101600001FD1A26A00F4FE41B1EB022F19D194F868
:101610002C2000F07841B1EBC26F12D1218E00F482
:10162000C00249084905A1F50011914209D194F879
:10163000341000F0C06049084906A1F100718142F0
:101640000CD00120C8E7000000100240000000207C
:1016500000700040FFFFEEFE0C809F010020BBE702
:1016600070B5040009D0606A002540B1256165614C
:10167000A56294F85D0040B10CE0012070BD606887
:10168000B0F5827FF4D0E561F2E784F85C50204643
:1016900000F05CF8022084F85D002068016821F009
:1016A00040010160E1684FF4E062914201D90020FD
:1016B00001E04FF48050B1F5706F02D0914200D03C
:1016C000A562A188228901F4827102F404421143C7
:1016D000227C02F002021143227D02F0010211433A
:1016E000228B02F400721143227F02F03802114370
:1016F00094F8202002F080021143228D02F400525F
:10170000114322681160A169042202EA114194F890
:10171000242000F4805002F01002114394F8342089
:1017200002F008021143A28902F4706211430143DE
:10173000206841602068C16921F40061C1612566AB
:10174000012084F85D00002070BD000070B586B0F7
:10175000044614216846FEF795FD1B49206888421F
:1017600030D11A48016E41F480510166016E01F4D6
:1017700080510591C16C41F00101C164C16C01F05F
:1017800001010591C16C41F00201C164C06C0225E8
:1017900000F002000590C02000900024CDE9015423
:1017A0000526CDE9034669464FF09040FFF7ECF877
:1017B00008200090CDE90154CDE90346694604486C
:1017C000FFF7E2F806B070BD0030014000100240A3
:1017D000000400482DE9F84F04464068002598466B
:1017E00016460F464FF0040BB0F5827F01D1A0687A
:1017F00088B194F85C00012818D0012084F85C00BE
:10180000FFF7ACF9814694F85D004FF0000A01281B
:101810000ED0022599E084F85DB013460A462046B2
:10182000CDF8008000F05EF9BDE8F88F0220FBE7FC
:10183000002F77D0002E75D084F85DB0C4F860A07A
:101840002764A4F84460A4F84660C4F838A0A4F85B
:101850003CA0A4F83EA0C4F84CA0C4F850A0E06896
:101860004FF4E06188422068426802D922F4805235
:1018700001E042F480524260A068B0F5004F09D107
:101880002068026822F0400202602068026822F4A8
:101890008042026020680268520603D4026842F067
:1018A00040020260E06888421DD93FE020688168FC
:1018B000C9070BD0017B206C0170206C401C206498
:1018C000B4F84600401EA4F846000CE0FFF746F9C5
:1018D000A0EB0901414503D3B8F1FF3F03D03BE042
:1018E000B8F1000F38D0B4F846000028DED121E06E
:1018F00020688168C9070BD0C068216C0880206C03
:10190000801C2064B4F84600401EA4F846000DE098
:10191000FFF724F9A0EB0901414504D3B8F1FF3FDB
:1019200004D019E010E0B8F1000F15D0B4F846006B
:101930000028DDD14A464146204600F0FBFB08B1B5
:1019400020202066206E00B10125012084F85D0072
:1019500084F85CA0284667E70325F6E72DE9F84FF1
:10196000044690F85C0000271D461646894601286B
:101970000DD04FF0010B84F85CB0FFF7EFF8804614
:1019800094F85D00BA46012804D00227A4E00220A2
:10199000BDE8F88FB9F1000F74D0002E72D003208B
:1019A00084F85D00C4F860A0C4F83890A687E68784
:1019B000C4F840A0A4F844A0A4F846A0C4F850A0DD
:1019C000C4F84CA0A068B0F5004F09D120680168A8
:1019D00021F0400101602068016841F4804101600C
:1019E00020680168490603D4016841F040010160A4
:1019F000E068B0F5E06F606823D908B1012E1CD112
:101A0000A06B21680088C86006E0206881688907AB
:101A100009D5A16B0988C160A06B801CA063E08F11
:101A2000401EE08709E0FFF799F8A0EB0800A84204
:101A300002D3681C01D046E0ADB3E08F0028E4D1AA
:101A400036E008B1012E30D1E08F0128A06B03D918
:101A500021680088C8600FE021680078087314E0EE
:101A6000E08722E020688168890714D5E18F012989
:101A7000A16B08D90988C160A06B801CA063E08FAE
:101A8000801EEDE727E009780173A06B401CA0637E
:101A9000E08F401EE4E7FFF761F8A0EB0800A842E2
:101AA00002D3681C01D00EE06DB1E08F0028D9D1BF
:101AB00042462946204600F077FB08B120202066E8
:101AC000A06810B105E0032706E02068C1688068BF
:101AD0000090206E00B1012784F85DB084F85CA00E
:101AE000384655E72DE9F05F044690F85C00002782
:101AF0000A9E1D4692468B464FF0010901280ED0E2
:101B0000012084F85C00FFF729F8804694F85D0016
:101B1000616801280CD0B1F5827F07D102E0022074
:101B2000BDE8F09FA16809B9042801D0022700E1AF
:101B3000BBF1000F24D0BAF1000F21D005B394F807
:101B40005D00042802D0052084F85D000020206696
:101B5000C4F840A0A4F84650A4F84450C4F838B0E3
:101B6000E587A587E0642065E0684FF4E06188427E
:101B700001D8012D06D92068426822F4805205E080
:101B80000127D6E02068426842F480524260206813
:101B90000268520603D4026842F040020260E06824
:101BA0008842606845D908B1012D3AD1A06B2168FF
:101BB0000088C860A06B801CA063E08F401EE08797
:101BC0002FE02068816889070FD5E18F69B1B9F1ED
:101BD000010F0AD1A16B0988C160A06B801CA063B2
:101BE000E08F401EE0874FF0000920688168C90738
:101BF0000FD0B4F8461061B1C068216C0880206C29
:101C0000801C2064B4F84600401EA4F846004FF043
:101C10000109FEF7A3FFA0EB0800B04201D3701C3E
:101C200075D1E08F0028CCD1B4F846000028C8D187
:101C300076E008B1012D6CD1E08F0128A06B08D9A6
:101C400021680088C860A06B801CA063E08F801EA4
:101C500007E0216800780873A06B401CA063E08F48
:101C6000401EE08755E02068816889071AD5E18F1A
:101C7000C1B1B9F1010F15D1E18F0129A16B07D9CC
:101C80000988C160A06B801CA063E08F801E06E005
:101C900009780173A06B401CA063E08F401EE087B1
:101CA0004FF0000920688168C90728D0B4F84610B1
:101CB00029B3B4F84610012914D9C068216C0880F2
:101CC000206C801C2064B4F84600801EA4F84600F6
:101CD000B4F84600012810D82068416841F48051CA
:101CE00041600AE0007B216C0870206C401C20647D
:101CF000B4F84600401EA4F846004FF00109FEF774
:101D00002DFFA0EB0800B04202D3701C01D018E0F8
:101D1000BEB1E08F0028A6D1B4F846000028A2D1B9
:101D200042463146204600F03FFA10B101272020FC
:101D30002066012084F85D00002084F85C003846AD
:101D4000EEE60327F5E710B5401EB0F1807F01D322
:101D5000012010BD4FF0E02460610F21601700F0FA
:101D600041FE0020A06107202061002010BD90F8F6
:101D70008010012918D0012180F880102421C0F89A
:101D8000841050F8641B0A680B6823F001030B6091
:101D900022F000510022026050F8643C19602021BA
:101DA00001620277104670470220704770B5044602
:101DB00090F8800001281DD0012084F880002420A4
:101DC000C4F8840020680568026822F001020260FD
:101DD0002068826822F060620A438260204600F038
:101DE00015FB206805602020C4F88400002084F8DA
:101DF000800070BD022070BD70B5044690F8800070
:101E000001281DD0012084F880002420C4F884001B
:101E100020680568026822F001020260206882687A
:101E200022F060420A438260204600F0EFFA206808
:101E300005602020C4F88400002084F8800070BD74
:101E4000022070BD10B5040003D0D4F8840010B196
:101E500007E0012010BD002084F88000204600F03B
:101E600027F82420C4F884002068016821F00101CB
:101E70000160204600F080FB0128EBD0A06A10B181
:101E8000204600F0E5FA2068416821F49041416065
:101E90002068816821F02A0181602068016841F092
:101EA000010101602046BDE8104000F035BB000094
:101EB00010B586B0044614216846FEF7E3F91249CE
:101EC000206888421DD11148016E41F480410166AD
:101ED000016E01F480410591C16C41F00401C164BF
:101EE000C06C694600F0040005903020009002208C
:101EF0000190002002900390072004900448FEF710
:101F000043FD06B010BD0000003801400010024043
:101F1000000800482DE9F8430446D0F884001F4625
:101F200016460D46202851D1DDB1D6B194F8800077
:101F300001284BD0012084F880004FF00008C4F83D
:101F40008C802120C4F884001834FEF707FEA68791
:101F50008146E68754F8100C183CB0F5805F03D03A
:101F600004E00120BDE8F883206920B12E46002559
:101F700084F8808010E00026FAE78021204600F0F7
:101F800035FCB8B9C6B116F8010B21688862B4F8FF
:101F90005600401EA4F85600B4F856004B464FF0C9
:101FA000000200970028E8D14FF04001204600F0E1
:101FB0001DFC30B10320D5E735F8020BC0F3080053
:101FC000E3E72020C4F884000020CBE70220C9E723
:101FD000FEE7000010B586B014216846FEF752F9FE
:101FE0001A48C16C41F02001C164C16C01F02001AC
:101FF0000591C16C41F00101C164C16C01F00101A6
:102000000591C16C41F00401C164C16C01F004018F
:102010000591C16C41F00201C164C06C4FF0904465
:1020200000F002000590002230212046FEF790FDCE
:1020300030200090012001900220029000200390A7
:1020400069462046FEF7A0FC06B010BD0010024015
:10205000124810B5104901604FF4827141600021AF
:102060004FF4E062C0E902120222026101224261E1
:10207000520282612822C0E9072107224162C0E999
:102080000A1201634163FFF7EBFA002803D0BDE8B1
:102090001040FEF765BC10BD003001403C00002040
:1020A000184810B5164901604FF4E1314160002134
:1020B00081600C22C160C0E904128161C1610162CA
:1020C00041628162FFF7BEFE08B1FEF749FC0021C4
:1020D0000C48FFF791FE08B1FEF742FC00210948C9
:1020E000FFF764FE08B1FEF73BFC0648FFF73FFE32
:1020F000002803D0BDE81040FEF732BC10BD000040
:1021000000380140A0000020FEE7FEE77047000015
:1021100001B582B000208DF804004FF47A70009071
:10212000012301AA02A90248FFF7DCFC00200EBD32
:102130003C0000202DE9F843044640684FF48276C5
:10214000154689464FF400474FF48068B04209D1E4
:10215000A068B84201D0404504D12068016821F050
:10216000400101604B46002280212046009500F08E
:10217000A5F880B96068B04214D1A068B84201D017
:1021800040450FD14B4600224FF4C06120460095D8
:1021900000F02EF830B1206E40F0200020660320C1
:1021A000BDE8F8830020FBE7F8B515460E460B4660
:1021B0000092044600224FF4C05100F019F888B98B
:1021C0003346002280212046009500F077F848B978
:1021D000334600224FF4C0612046009500F008F815
:1021E000002804D0206E40F0200020660320F8BDB7
:1021F0002DE9FC47994617460E4604460A9DFEF710
:10220000ADFC411BA9EB0105FEF7A8FC80462A485E
:102210004FF4C06A0068C0EBC00000EB8000000D06
:102220006843009040E0564502D10FB9007B019011
:10223000B9F1FF3F38D0FEF791FCA0EB0800A842AF
:1022400003D215B1009860B32CE02068416821F0FA
:10225000E00141606068B0F5827F0BD1A068B0F505
:10226000004F02D0B0F5806F04D12068016821F0E2
:1022700040010160A06AB0F5005F09D120680168E3
:1022800021F4005101602068016841F400510160AF
:10229000012084F85D00002084F85C000320BDE884
:1022A000FC870025401E0090206881683140B942BB
:1022B000B9D10020F3E700000C0000202DE9F8431D
:1022C0001E46914688460446089DFEF747FC401B83
:1022D000351AFEF743FC074625480068C0F3CB30AB
:1022E000684338E0701C37D0FEF738FCC01BA842AA
:1022F00003D215B1009860B32CE02068416821F04A
:10230000E00141606068B0F5827F0BD1A068B0F554
:10231000004F02D0B0F5806F04D12068016821F031
:1023200040010160A06AB0F5005F09D12068016832
:1023300021F4005101602068016841F400510160FE
:10234000012084F85D00002084F85C000320BDE8D3
:10235000F8830025401E00902068816838EA01005B
:1023600004D000214945BDD10020F0E70121F9E763
:102370000C0000207047FEF7F7BB10B5A4B0382161
:102380006846FDF77FFF14211FA8FDF77BFF44215E
:102390000EA8FDF777FF0020FEF76AFC0220C101BE
:1023A0000391402104910421CDE9080100905521B9
:1023B000CDE90A1007900C900D906846FEF74AFF91
:1023C00008B172B6FEE70F2000241F900320CDE96C
:1023D0002004229404211FA82394FEF7F3FD08B1E2
:1023E00072B6FEE70120CDE90E040EA8FEF7A6FCAA
:1023F000002801D072B6FEE724B010BD0248016883
:1024000041F470010160704788ED00E030B5416E25
:10241000B9B1026891689268C1F342610B4B520FE7
:102420009C5CE50003F10804A25CB5FBF2F2A0F8A5
:102430006A205A5C615CD200B2FBF1F1A0F868102E
:1024400030BD0121A0F86A10F8E7000080410008C3
:1024500090F82810C90706D001684A68C36A22F4B8
:1024600000321A434A6090F82810890706D501689F
:102470004A68036B22F480321A434A6090F82810AD
:10248000490706D501684A68436B22F480221A4343
:102490004A6090F82810090706D501684A68836BDE
:1024A00022F400421A434A6090F82810C90606D563
:1024B00001688A68C36B22F480521A438A6090F8DC
:1024C0002810890606D501688A68036C22F4005238
:1024D0001A438A6090F82810490611D501684A68A5
:1024E000436C22F480121A434A60416CB1F5801F9C
:1024F00006D101684A68836C22F4C0021A434A601C
:1025000090F82810090606D501684A68C06C22F4C4
:10251000002202434A607047F8B500260446C0F81E
:102520008C60FEF71BFB0546206800686FF07E4755
:10253000000708D52B4600224FF4001120460097D3
:1025400000F054F960B92068006840070AD52B46AE
:1025500000224FF480012046009700F047F908B1AF
:102560000320F8BD2020C4F88400C4F8880044F893
:102570006C6F00202675F8BD2DE9F0410446016816
:1025800080682269E3691043626900251A43104399
:10259000DFF82CC20A688B4B1A4002430A6020689D
:1025A0004168E26821F44051114341602168A0690B
:1025B000614501D0226A10438A68834B1A40024366
:1025C0008A602068C16A626A21F00F011143C1620A
:1025D0007E4923687E488B420DD1D0F8880010F0E8
:1025E000030006D0012855D0022842D003283FD14D
:1025F00052E001203DE077498B420BD1D0F88800B2
:1026000010F00C0035D0042833D0082840D00C2816
:102610002ED141E070498B420BD1D0F8880010F0E8
:10262000300026D0102835D0202831D030281FD1B6
:1026300032E06A498B420BD1D0F8880010F0C0001C
:1026400017D0402826D0802822D0C02810D123E0DF
:1026500063450DD1D0F8880010F4406009D0B0F582
:10266000806F17D0B0F5006F12D0B0F5406F13D067
:1026700010205B4A5B4F00264FF40041634539D17F
:1026800060B102280DD004280DD0082831D10EE009
:102690000220EEE70420ECE70820EAE7FEF780FDE1
:1026A00003E0114603E0FEF79FFD01007DD0606A64
:1026B00037F810206768B1FBF2F007EB470383425D
:1026C0006CD8B0EB073F69D8002308461946FDF7E0
:1026D000A1FD090241EA1061020278081018714157
:1026E0003A460023FDF796FD3F4AA0F5407191421E
:1026F00059D953E0E3694FF6EF788B422DD1092881
:102700004CD2DFE800F005080D4B274B4B4B0E0079
:10271000FEF746FD01E0FEF755FD010001D144E062
:102720001146606A37F81000B1FBF0F041006068B4
:1027300001EB5001B1FBF0F080B2A0F11001414576
:102740002CD84FF6F0710140C0F3420001432068DD
:10275000C1602AE0FEF748FDDFE709281ED2DFE866
:1027600000F005080D1D1F1D1D1D0E00FEF718FDB4
:1027700001E0FEF727FD010001D116E01146606A75
:1027800037F81000B1FBF0F1606801EB5001B1FBCC
:10279000F0F080B2A0F11001414504D9012504E018
:1027A000FEF722FDE7E72168C8600120A4F86A006F
:1027B00024F8680F2846A660E660BDE8F0810000B6
:1027C00000800040F369FFCFFFF4FF1100380140A3
:1027D000001002400044004000480040004C00400F
:1027E0000024F40068410008FFFC0F002DE9F047C9
:1027F0009A4617460E4604464FF000094FF020084F
:10280000089D39E0681C37D0FEF7A8F9A0EB0A0054
:10281000A84222D80DB32068016849072CD5C069A9
:10282000C043000528D421684FF400600862206886
:10283000016821F4D07101602068816821F00101F4
:102840008160C4F88480C4F88880C4F88C8000BF9C
:1028500084F880900320BDE8F0872068016821F4A7
:10286000D07101602068816821F001018160C4F8A5
:102870008480C4F88880EBE72068C06936EA0000ED
:1028800004D00020B842BDD00020E4E70120F9E7E1
:10289000FEE700002DED028BFDF7F4FF1420FEF79C
:1028A00061F8FEF745F833490822087080210020BE
:1028B000FDF7FEFF022200210C20FEF719F8DFF8D9
:1028C000B4902C4C00274FF0400809F10109E61D97
:1028D0004FF47A752749E76086F800802B4601227D
:1028E000C91D2548FFF73AF822492B460122491C09
:1028F0002148FEF76FFF99F800000006EAD458203F
:102900001C4930702B460122C91D1B48FFF726F8D1
:1029100018492B460322091D1748FEF75BFF15488F
:10292000227B001D9FED151B01789FED160B1143B7
:102930004278807842EA012240EA022020F07F407B
:10294000E06000F061F8E068B0EE408AF0EE608A86
:1029500000EB8000FDF7B7FD53EC182BFDF744FDAD
:1029600041EC100B09A084ED040B53EC102B00F08C
:1029700011F8AFE7100000203C000020000000002C
:10298000000038400000000000000040256C660A8E
:10299000000000000FB4054B10B503A9044A0298CB
:1029A00001F002F810BC5DF814FB0000C9400008FB
:1029B0003400002003B401984100009850EAC1207F
:1029C00018BF04204A0D18BF40F0010040F2FF720A
:1029D000B2EB515F08BF40F00200012808BF05209C
:1029E00002B070470907090E002804DB00F1E0205F
:1029F00080F80014704700F00F0000F1E02080F82C
:102A0000141D7047000000002DE9F04D2DED040B62
:102A10002DED0E8B96B0DDE92550279CDDF890A0BA
:102A200025F0004624F00048BAF1000F14BF012140
:102A3000002101EB4502FC4953184A1093422AD366
:102A4000002814BF0123002303EB44030B44F74980
:102A50008B4220D358EA00019FEDF59B76D0DFF83A
:102A6000D8B35D4503D1BAF1000F05D188E0BAF1C2
:102A7000000F08BF002100D0012101EB450111F535
:102A8000001F08D8002814BF0121002101EB4401D8
:102A900011F5001F0BD99DED261B9DED240B16B0E3
:102AA000BDEC0E8B04B0BDE8F04D00F069BE002710
:102AB000002DBCBFE149884521DAE1498845A8BF1E
:102AC00002271CDAC3451ADCDE4901EB2851142920
:102AD00008DDC1F1340220FA02F101FA02F2824269
:102AE0000DD108E058B9C1F1140228FA02F101FA37
:102AF00002F2424503D101F00101C1F1020756EA99
:102B00000A0124D1002C22DA002D18BF022F01D097
:102B1000012F0AD0022000F07FFE16B0BDEC0E8B14
:102B200004B0BDE8F04D00F013BE022000F074FECA
:102B300000F00EFE51EC100B81F0004141EC100B47
:102B400016B0BDEC0E8B04B0BDE8F08D18E09FED23
:102B5000BEAB9FEDBF8B002871D1B848804522D114
:102B600005F1804010F5801008BFBAF1000F07D0C2
:102B7000B3450ADC002CA8BF9DED260BE0DA0DE082
:102B8000B0EE490AF0EE690ADAE7002C06DA9DEDAC
:102B9000260B51EC100B81F000416FE0AE487844F9
:102BA00090ED000BCCE7D8454DD1002C48DA2EB182
:102BB00086423AD1BAF1000F42D126E0BAF1000FB5
:102BC00013D0022000F028FE00F0F6FD8DED020B80
:102BD0009DED240B8DED000B10EE900A039961F32F
:102BE0001E0003909DED020BAAE78DED02AB9DED5B
:102BF000240B1AEE901A10EE900A8DED000B61F383
:102C00001E0003909DED020B9AE78DED028B9DED6A
:102C1000240B18EE901A10EE900A8DED000B61F364
:102C20001E0003909DED020B8AE709DA9DED240B4F
:102C300051EC190B53EC102BFDF7D6FB1EE020E0F6
:102C40009DED240B7CE786421BDAB4F1804F0DD05A
:102C5000A4F10050B0F1FF5013D1002D11DB9DED18
:102C6000240B51EC100B01F048FA07E09DED240B0A
:102C700053EC102B51EC100B00F0C2BC41EC100BCC
:102C80005EE79DED240B51EC100B01F010FABAF148
:102C9000000FCDE90E0142D19FED710B46B3A6F1B5
:102CA000E040B0F17F600CD05E4538D1002D00DAF5
:102CB000A7B3022F0CBF01204FF0FF30FDF73DFD01
:102CC000DCE7002D01DD002C0DDA002D01DD002CEC
:102CD0001FDB002D16DA002C14DB012F08BF9FED3F
:102CE000620B3FF42DAFB0EE4A0AF0EE6A0A27E716
:102CF000022F18BF002D0CD0012F0AD1002DFFF696
:102D00001FAF06E0002DB8BF002C08DA012F3FF4FA
:102D100017AFB0EE480AF0EE680A11E71BE0012099
:102D200000EBE57050EA070115D0791EB0EE498A34
:102D3000F0EE698A084308BF9FED4D8B4E48002591
:102D4000804570DD4D494E48884514DDB0420DDBAD
:102D5000002C19DB2FE0012000F05EFD16B0BDEC69
:102D60000E8B04B0BDE8F04D00F016BDB34502DC9B
:102D7000002C09DC1FE0864202DA002C1BDA03E09B
:102D80005E452BDD002C16DD022000F045FD00F035
:102D900013FD8DED020B53EC1A2B51EC180BFDF7C4
:102DA00043FCCDE900010399019861F31E000390F3
:102DB0009DED020BC4E6022000F02EFD00F00CFD9C
:102DC00010EE901A18EE900A8DED020B8DED008B2F
:102DD00061F31E0003909DED020BB1E69DED0E0B1D
:102DE00053EC192B51EC100BFDF7F8FA9FED260B65
:102DF000CDE9080153EC102B9DED080B51EC100BA5
:102E0000FDF712FC9FED221B53EC112BFDF7E9FAA5
:102E10009DED081B53EC112BFDF706FC9FED1E1BCF
:102E200053EC112B3CE08CE0FFFF1F00FFFF0F0075
:102E3000000000000000F03F0000F03F0000F07FC5
:102E40000000404301FCFFFF000000000000F07F95
:102E500000000000000000008E16000000000000CE
:102E60000000000000000080000000000000F0FFF3
:102E7000000000000000F0BF0000E0410000F0434F
:102E8000FFFFEF3F00000000000000000000D03F07
:102E9000555555555555D53F000000000000E03F01
:102EA000FDF79FFA9DED080B41EC1A0B53EC102B2C
:102EB00051EC100BFDF7B8FB53EC1A2BFDF7B4FBEC
:102EC00041EC1A0B9FEDFE0B53EC102B9DED080B04
:102ED00051EC100BFDF7A8FB41EC1B0B9FEDFA0B1F
:102EE00051EC1A0B53EC102BFDF79EFB41EC1A0B27
:102EF0009FEDF70B53EC102B9DED080B51EC100BD5
:102F0000FDF792FB53EC1A2BFDF768FA41EC1A0B14
:102F100051EC1B0B53EC1A2BFDF7BFF90690CDE9D2
:102F200006519DED060B53EC1B2B51EC100BFDF7DE
:102F300055FA53EC1A2BFDF754FA41EC100B00F044
:102F4000A1B90020B6F5801F0EDA9FEDE30B53EC1C
:102F5000102B9DED0E0B51EC100BFDF765FBCDE931
:102F60000E016FF034000E4600EB2650A0F2FF3742
:102F7000C6F31300DA4940F07F6646F040568842B7
:102F8000D8BF002408DDD7498142C8BF012403DC33
:102F90000024A6F580167F1CD348784400EBC400BB
:102FA0000F9690ED00CB9DED0E0B53EC1C2B51ECCE
:102FB000100BFDF713FA9DED0E0B41EC1B0B53ECC0
:102FC0001C2B51EC100BFDF768F941EC100B51EC88
:102FD000190B53EC102BFDF707FA41EC1D0B51ECCC
:102FE0001B0B53EC1D2BFDF71FFB41EC1A0BBF48CD
:102FF0008DED10AB7844109590ED000B4FF0005024
:1030000040EA660000EB84408DED080B00F50020DF
:1030100009909DED080B53EC1C2B51EC100BFDF7A8
:10302000DDF99DED0E1B53EC112BFDF7DAF941ECA8
:10303000100B53EC102B9DED100B51EC100BFDF70A
:10304000F3FA9DED080B41EC1C0B53EC102B9DED9E
:10305000100B51EC100BFDF7E7FA53EC1B2BFDF7AF
:10306000C0F953EC1C2BFDF7B9F953EC1D2BFDF700
:10307000DBFA41EC1C0B53EC1A2B51EC1A0BFDF74D
:10308000D3FA41EC1B0B9A480621B0EE4B0AF0EE46
:103090006B0A784400F0E0FAB0EE401AF0EE601AE5
:1030A000B0EE41DAF0EE61DA53EC1B2B51EC1B0B66
:1030B000FDF7BAFA53EC1D2BFDF7B6FA9DED100B98
:1030C00041EC1B0B53EC1A2B51EC100BFDF7E5F800
:1030D00053EC1C2BFDF7A8FA53EC1B2BFDF7DDF886
:1030E0009DED100B41EC1B0B53EC102B51EC100B16
:1030F000FDF79AFA41EC1D0B9FED7FEB53EC1E2B75
:10310000FDF7CBF853EC1B2BFDF7C7F80890CDE982
:1031100008519DED080B53EC1E2B51EC100BFDF7E5
:103120005DF953EC1D2BFDF759F953EC1B2BFDF703
:1031300058F99DED080B41EC1D0B53EC102B9DED48
:10314000100B51EC100BFDF76FFA41EC1B0B53EC1D
:103150001A2B51EC1D0BFDF767FA9DED080B41ECA6
:103160001A0B53EC102B51EC1C0BFDF75DFA53ECD2
:103170001A2BFDF792F841EC1A0B51EC1B0B53EC98
:103180001A2BFDF78AF80C90CDE90C519DED0C0B34
:1031900053EC1B2B51EC100BFDF720F953EC1A2BC1
:1031A000FDF71FF941EC1B0B9FED550B53EC102B5A
:1031B0009DED0C0B51EC100BFDF736FA41EC1A0BA0
:1031C0009FED510B51EC1B0B53EC102BFDF72CFA20
:1031D00041EC1B0B9FED4E0B53EC102B9DED0C0B9C
:1031E00051EC100BFDF720FA53EC1B2BFDF755F8B3
:1031F00041EC100B4848784400EBC40090ED001BF4
:1032000051EC100B53EC112BFDF747F841EC1B0B65
:103210003846FDF792FACDE9080153EC1B2B51EC2F
:103220001A0BFDF73AF841EC100B3C48784400EBE0
:10323000C40090ED00CB51EC100B53EC1C2BFDF7B0
:103240002CF89DED081B53EC112BFDF726F806908A
:10325000CDE906519DED080B53EC102B9DED060BAF
:1032600051EC100BFDF7BAF853EC1C2BFDF7B6F838
:1032700053EC1A2BFDF7B2F853EC1B2BFDF7B1F80A
:1032800041EC100B9DED261B53EC102B8DED001B1C
:1032900000959DED260B51EC100BFDF7C5F99DED4A
:1032A000000B41EC1A0B53EC102B9DED260B51EC4F
:1032B000100BFDF793F89DED061B53EC112B2FE03F
:1032C000000000604715F73FFE822B654715F73F6A
:1032D00044DF5DF80BAE543E0000000000004043A8
:1032E0008E9803007AB60B000A1200003812000014
:1032F0004211000000000000000000000000084033
:10330000000000E009C7EE3FFD033ADC09C7EE3FCD
:10331000F5015B14E02F3EBECE0F0000880F0000C9
:10332000FDF782F953EC1A2BFCF7B7FF9DED060B66
:1033300041EC1A0B53EC102B9DED000B51EC100BD4
:10334000FDF772F9CDE90C019DED0C0B51EC1A0B58
:1033500053EC102BFCF7A1FFCDE902010C46AA4962
:103360008C422FDB611A084318D19DED0C0B53ECF6
:10337000102B9DED020B51EC100BFDF72FF841ECDB
:103380001B0B9FEDA30B51EC1A0B53EC102BFCF70E
:1033900084FF53EC1B2BFDF7F9F92DD2022000F02E
:1033A0003BFA00F009FA10EE901A18EE900A8DED33
:1033B000020B8DED008B61F31E0003909DED020B5F
:1033C000FFF7BEBB944A24F00041914214D39349C5
:1033D000214408437FF4EFAC9DED0C0B53EC102B14
:1033E0009DED020B51EC100BFCF7F8FF53EC1A2B80
:1033F000FDF7CCF97FF6DFAC24F000408849894A1C
:10340000002601EB205182422BDA481C4FF4801138
:1034100021FA00F02044844AC0F30A517A44A1F210
:10342000FF3192ED000B814A8DED080BCA4020EA76
:103430000202C0F3130040F48010C1F1140120FA1D
:1034400001F60992002CB8BF76429DED080B53ECB3
:10345000102B9DED0C0B51EC100BFCF7BFFFCDE9D1
:103460000C019DED0C0B51EC1A0B53EC102BFCF7DF
:1034700014FF9FED6F0B0890CDE9085153EC102B12
:103480009DED080B51EC100BFDF7CEF841EC1B0B3A
:103490009FED690B53EC102B9DED080B51EC100BBD
:1034A000FDF7C2F89DED0C0B41EC1C0B53EC102BFF
:1034B0009DED080B51EC100BFCF790FF53EC1A2B11
:1034C000FCF78FFF9FED5E1B53EC112BFDF7ACF863
:1034D00053EC1C2BFCF7E1FE41EC1A0B51EC1B0BDF
:1034E00053EC1A2BFCF7D9FECDE902019DED020B3E
:1034F00053EC1B2B51EC100BFCF770FF53EC1A2B09
:10350000FCF76FFF9DED020B41EC1A0B53EC102BF7
:1035100051EC100BFDF788F8CDE908014A489DED04
:10352000080B0521784400F097F89DED081B51EC3D
:10353000100B53EC112BFDF777F89DED021B53ECAC
:10354000112BFCF74EFFCDE906019DED020B53EC6C
:103550001A2B51EC100BFDF767F853EC1A2BFCF704
:103560009CFE9FED3B0B41EC1A0B53EC102B9DED99
:10357000060B51EC100BFCF731FF9DED060B41ECF7
:103580001B0B53EC102B9DED020B51EC100BFDF7B8
:103590004BF853EC1B2BFCF727FF53EC1A2BFCF7D3
:1035A0001DFF9DED021B53EC112BFCF717FF53EC95
:1035B000192BFCF716FFCDE9020101EB06500115AE
:1035C0000029C8BF039015DC9DED020B324651EC7B
:1035D000100BFDF79BF8FFF7EDF9042808BF00F08A
:1035E000FBF832469DED020B51EC100BFDF78EF807
:1035F000CDE902019DED020B51EC180B53EC102BA1
:10360000FDF712F8FFF73ABB000090400000000001
:10361000FE822B654715973C00CC904000346F3FED
:1036200001FCFFFF0000E03F100E0000FFFF0F0055
:1036300000000000432EE63F396CA80C615C20BE00
:10364000EF39FAFE422EE63FE00C000000000000D9
:10365000000000000000004070B504462DED028B14
:103660004D1E00EBC500B0EE408AF0EE608A90ED92
:10367000000B35F0060017D053EC182B51EC100B53
:10368000FCF7D2FF41EC100B6D1E04EBC50090ED72
:10369000001B51EC100B53EC112BFCF7FEFD41EC21
:1036A000100B35F00600E7D1022D36D0042D1CD0CA
:1036B000062D1CBFBDEC028B70BD53EC182B51ECDA
:1036C000100BFCF7B1FF94ED0A1B53EC112BFCF728
:1036D000E4FD53EC182BFCF7A7FF94ED081B53EC0B
:1036E000112BFCF7DAFD41EC100B53EC182B51ECCD
:1036F000100BFCF799FF94ED061B53EC112BFCF714
:10370000CCFD53EC182BFCF78FFF94ED040B53EC1E
:10371000102BFCF7C2FD41EC100B53EC182B51ECB5
:10372000100BFCF781FF94ED021B53EC112BFCF7FF
:10373000B4FD53EC182BFCF777FF94ED001B53EC12
:10374000112BFCF7AAFDBDEC028B41EC100B70BDF8
:103750009FED070B10B553EC102B9FED070B51ECB1
:10376000100BFCF741FE41EC100B10BD00000000F7
:103770000000000000000000000000000000F03F1A
:1037800010B553EC112B51EC100BFCF786FD41ECFE
:10379000100B10BD000000009FED050B10B553ECA1
:1037A000102B51EC100BFCF71FFE41EC100B10BD61
:1037B00000000000000000009FED050B10B553EC69
:1037C000102B51EC100BFCF72FFF41EC100B10BD30
:1037D00000000000000000709FED050B10B553ECD9
:1037E000102B51EC100BFCF71FFF41EC100B10BD20
:1037F000000000000000001002E008C8121F08C10D
:10380000002AFAD170477047002001E001C1121F61
:10381000002AFBD170470000014908607047000092
:10382000380000202DE9FF5F82B00021DDE904307F
:10383000020DDDF840B0034318D044F61050A2F258
:10384000FF3242431514119801281FD0A5EB0B003D
:10385000401C5FEA000A4FF000064E4FDFF8389137
:10386000B046504615D5CAF1000413E01198012462
:103870004AA3012801D16FEA0B010298119AC0E90D
:103880000031C0E9024206B0BDE8F09FCBF1000074
:10389000DFE704460021404A491842EB0450CDE9D5
:1038A000001012E0E00707D032463B46404649464A
:1038B000FCF7BAFE8046894632463B46104619461A
:1038C000FCF7B2FE06460F466410002CEAD1DDE993
:1038D0000401DDE90023BAF1000F06DAFCF7A4FECB
:1038E00042464B46FCF7A0FE05E0FCF77DFD424654
:1038F0004B46FCF779FD04460E460022284BFCF7A8
:1039000045FF03D84FF0FF30014607E00022254B6A
:1039100020463146FCF7C1FCFCF720FF102409E0EB
:10392000002C0ADB0A220023FCF774FC039B3032D4
:103930001A55641E50EA0102F2D1641C039AC4F1C4
:1039400011031444119A012A03D0012208430DD116
:103950000AE0084304D000204FF0110B119072E7E9
:10396000A3EB0B056D1E0DE05B4504DD4FF000027F
:1039700005F1010504E003DA4FF00002A5F10105AD
:10398000002AECD002981199C0E90231C0E9004543
:1039900079E70000000014400000F03F3000000014
:1039A0000000F0430000E03F2DE9FF4F95B09A463C
:1039B000884606460025EEE1252877D100242746D3
:1039C000F94A0121039400E0044316F8013F203B2B
:1039D00001FA03F01042F7D130782A2811D06FF0A5
:1039E0002F033078A0F13002092A16D8039A44F048
:1039F000020402EB820203EB42021044761C0390A5
:103A0000EFE758F8042B0392002A03DA504244F4FB
:103A10000054039044F00204761C30782E2816D10E
:103A200016F8010F44F004042A280DD06FF02F027D
:103A30003078A0F13003092B09D807EB870302EB9C
:103A40004303C718761CF3E758F8047B761C3078DC
:103A50006C280FD006DC4C2817D068280DD06A28B7
:103A600014D104E0742810D07A280FD10DE044F46A
:103A700000140AE044F4801401E044F44014727825
:103A8000824202D104F58014761C761C30786628B8
:103A90000BD013DC582877D009DC002875D04528D6
:103AA000F6D04628F4D047281AD193E118E06328CD
:103AB00035D0642879D0652812D18BE1702873D075
:103AC00008DC6728F1D069286FD06E280DD06F28E8
:103AD00006D1ACE073282CD0752874D0782853D048
:103AE0005246179990476D1C54E1C4F302500228C6
:103AF00009D003280DD0D8F8001004280DD00D608F
:103B000008F1040846E1D8F80010EA17C1E90052AC
:103B1000F6E7D8F800100D80F2E70D70F0E718F81E
:103B2000041B8DF8001000208DF80100EB460120E9
:103B300003E058F804BB4FF0FF3061074FF000017D
:103B400002D40DE009F101018946B9420FDA81453D
:103B5000F8DB1BF809100029F4D108E009F1010194
:103B600089468142FADB1BF809100029F6D1039837
:103B70005346A0EB090721463846179A00F080FA11
:103B8000284400EB090507E044E008E10DE01BF8DC
:103B9000010B524617999047B9F10109F7D25346E4
:103BA00021463846179AF2E039E00A21C4F302525E
:103BB0004FF0000B0091022A06D058F8040BC117F1
:103BC000032A09D00AE023E008F1070020F00702E9
:103BD000F2E80201904605E000B2C117042A01D1C3
:103BE00040B2C117002906DA0A460021404261EBC3
:103BF00002012D2202E0220504D52B228DF804209B
:103C0000012203E0E20701D02022F7E7914657E0C6
:103C10000A2100E010214FF0000B00910BE0102171
:103C20004FF0000B44F004040827009103E0082043
:103C30004FF0000B0090C4F30252022A05D058F84E
:103C4000040B0021032A08D008E008F1070020F047
:103C50000702F2E80201904603E080B2042A00D194
:103C6000C0B24FF0000922072AD53278702A07D057
:103C7000DDF800C08CF0100C5CEA0B0C05D00EE0F7
:103C800040228DF80420012208E050EA010306D00A
:103C900030238DF804308DF8052002229146009BD8
:103CA00083F0080353EA0B030AD150EA010201D161
:103CB000620705D530228DF804204FF001097F1EE0
:103CC0003278582A04D039A20C920CAA02920BE046
:103CD0003BA2F9E75B46009AFCF79CFA0C9B9B5CC5
:103CE000029A521E0292137050EA0102F2D1029817
:103CF00004A9081A00F1200B600702D524F48034CF
:103D000000E001275F4502DDA7EB0B0000E000208B
:103D100000EB0B01009003984944401A0390E00324
:103D200006D453462146179A039800F0A9F9054492
:103D3000002706E001A85246C05D179990476D1C08
:103D40007F1C4F45F6DBE0030CD553462146179AFE
:103D5000039800F095F9054404E030205246179985
:103D600090476D1C0099481E00900029F5DC08E082
:103D70000298029952460078491C0291179990477F
:103D80006D1CBBF10001ABF1010BF1DC5BE100F05C
:103D900065F90544761C307800287FF40DAE19B023
:103DA0002846BDE8F08F0000092801003031323389
:103DB0003435363738396162636465660000000067
:103DC0003031323334353637383941424344454651
:103DD00000000000600700D4062708F1070020F06B
:103DE0000700F0E80223804603F0004C5FEA0C0075
:103DF00001D097A009E0200501D596A005E0E007D5
:103E000001D095A001E0AFF24C001390307823F080
:103E1000004365280CD006DC452809D046281DD073
:103E200047287FD13BE0662818D067287AD136E052
:103E30000021112F01DB112000E0781CCDE90001E9
:103E400004A90CA8FFF7EEFCDDE90D010C9A4FF078
:103E5000000B07F10109109200914EE04FF0004075
:103E60000097CDE9011004A90CA8FFF7DBFCDDE900
:103E70000D020C9B0F994FF0000B9146109300928E
:103E800011B9791C00EB0109B7EB090003D4C0F1AB
:103E9000FF3B07F10109A9EB0700019042E0012F68
:103EA00000DA01270021112F01DD112000E0384642
:103EB000CDE9000104A90CA8FFF7B4FCDDE90D0170
:103EC0000C9A00914FF0000BB946109221070FD4C5
:103ED000009A4A4503DA914601E0A9F10109B9F1D6
:103EE000010F05DD109AA9F10101515C3029F4D0D0
:103EF000B84202DA10F1040F03DA0121CDE9011012
:103F000010E0002803DC8344A9EB000102E0411C1F
:103F1000494500DD8946A0EB0B00401C01904FF0A5
:103F200000400290200705D40198484502DB4FF07D
:103F3000FF30019000208DF84B0002980DF14B07E7
:103F4000B0F1004F25D002200C902B200D9002984C
:103F500000280CDA404202902D200D9007E00A2143
:103F60000298FCF7BDFA3031029007F8011D0C9958
:103F7000481E0C900029F2DC02980028EFD1791E2F
:103F80000D980870307800F0200040F0450007F8E8
:103F9000020D11A8C01BC01D02901398007800B13B
:103FA000012000EB0901019801EBE0710298014446
:103FB0000398401A401E0390E00306D4534621465E
:103FC000179A039800F05CF805441398007818B12C
:103FD0005246179990476D1CE00323D5534621465E
:103FE000179A039800F04CF805441BE0BBF1000F52
:103FF00007DB0098584504DD1098179910F80B005E
:1040000001E0179930205246904701980BF1010BBF
:10401000401E05F10105019004D12E20524617994A
:1040200090476D1CB9F10001A9F10109DEDC05E042
:1040300017F8010B5246179990476D1C0299481EBC
:1040400002900029F4DC53462146179A03989EE615
:104050002D0000002B000000200000002DE9F041A1
:10406000044600251E461746880404D405E0394658
:104070002020B0476D1C641EF9D52846BDE8F081AC
:104080002DE9F041044600251E469046C80301D59F
:10409000302700E02027880404D505E04146384653
:1040A000B0476D1C641EF9D52846BDE8F08182B08A
:1040B000CDE9000121F0004001909DED000B02B020
:1040C00051EC100B7047000013B54FF6FF7301223F
:1040D00069460248FDF71EFF00981CBDA0000020A5
:1040E000FCF74AFDFEF749F9FDF774FFFDF7B0FF55
:1040F000FDF7D6FFFEF7CEFBFCE700B52DED048BF8
:1041000083B041EC190BFCF76BFB41EC180B18EE7C
:10411000100A18EE901A8DED008B002818BF0120B0
:10412000084320F00040C0F17F6000F1E040C00F84
:1041300014D019EE101A19EE900A8DED009B00298B
:1041400018BF0121084320F00040C0F17F6000F15A
:10415000E040C00F04BF0120FFF75EFB51EC180BDD
:1041600003B0BDEC048B00BD01000200040006009A
:1041700008000A000C001000200040008000000130
:104180000101010307010000080402040801010104
:1041900000000000000000000102030406070809F7
:1041A0000000000001020304000000000000F03FD6
:1041B000000000000000F83F0000000000000000C8
:1041C0000000004003B8E23F0000000000000000D3
:1041D00006D0CF43EBFD4C3E033333333333E33F61
:1041E000FFAB6FDBB66DDB3F4D268F515555D53F8D
:1041F00001411DA96074D13F65DBC9934A86CD3F5B
:10420000EF4E454A287ECA3F3E5555555555C53F48
:1042100093BDBE166CC166BF2CDE25AF6A56113F3A
:10422000F16BD2C541BDBBBED0A4BE726937663E3C
:1042300000000000000000005842000800000020BC
:104240003C000000F8370008944200083C000020C1
:1042500004050000083800081000000001000000FC
:10426000000000000024F400000000000000000036
:10427000000000000000000000000000000000003E
:10428000000000000000000000000000000000002E
:04429000000000002A
:04000005080001D915
:00000001FF
